:100000000C940C070C943D070C943D070C943D0791
:100010000C943D070C943D070C943D070C943D0750
:100020000C943D070C943D070C943D070C943D0740
:100030000C943D070C943D070C943D070C943D0730
:100040000C943D070C94982C0C943D070C943D07A0
:100050000C943D070C943D070C943D070C94FC59FF
:100060000C943D070C949C500C9472500C943D07DA
:100070000C943D070C943D070C943D070C943D07F0
:100080000C947C1C0C943D070C943D070C943D078C
:100090000C943D070C943D070C943D070C943D07D0
:1000A0000C943D070C943D070C944E1C0C943D079A
:1000B0000C943D070C943D070C943D070C94201CB8
:1000C0000C943D070C943D070C943D070C943D07A0
:1000D0000C943D070C943D070C943D070C943D0790
:1000E0000C943D07220C1B101B101B101B10C80C7E
:1000F000CB0CF30C190D1C0D1F0D2A0D1B10250E1A
:10010000360E1D3B223B273B313B3B3BB43B453B43
:100110004D3B553B5F3B693B733B823B8C3BB43B68
:10012000963BA03BAA3BBB57BE57AD57B157B757FD
:10013000F557C257C657CC57D057D457DA57DE5762
:10014000E257F557E857EC57F057084AD73B3BCEF4
:10015000016E84BCBFFDC12F3D6C74319ABD5683C6
:100160003DDA3D00C77F11BED9E4BB4C3E916BAA7E
:10017000AABE000000803F05A84CCDB2D44EB938CD
:1001800036A9020C50B9918688083CA6AAAA2ABEB4
:10019000000000803F000C94CC570C94733B0C94EF
:1001A0006F4B0C94B74A0C94360E0C94F30C0C94D1
:1001B000774B0C94553B0C9405430C94B0320C9443
:1001C00001500C94B1570C944F4B0C94A4100C9408
:1001D000BA190C9404560C9438140C943B3B0C94B0
:1001E000474B0C94B7570C94CB0C0C945F4B0C946E
:1001F000BF330C94223B0C94A1100C942A0D0C9448
:10020000DE570C94C5100C9445550C94D0570C94A3
:10021000823B0C94F0570C9435100C94963B0C9444
:10022000374B0C94453B0C94574B0C94A03B0C94CF
:10023000313B0C94C2570C941F4B0C943F4B0C94C5
:10024000551A0C94F5570C9453550C948C3B0C9404
:10025000693B0C941F0D0C9457120C9456100C947F
:10026000EA120C9450500C94E84F0C941B100C9410
:1002700033460C9498550C94B9550C94E6100C9494
:100280001D3B0C94E2570C94BB570C94A0100C949B
:10029000F01A0C94220C0C94AD570C9403500C944F
:1002A0008B1B0C94D5550C94250E0C94C6570C94AE
:1002B0004D3B0C94AA3B0C94BE570C94B43B0C944D
:1002C000273B0C942F4B0C9474370C94EC570C94E4
:1002D0005F3B0C94274B0C94685D0C94A5550C94D3
:1002E000DA570C94190D0C9431550C941C0D0C9488
:1002F000D4570C94BE4F0C94E8570C94674B0C9455
:10030000C80C4E414E494E495459494E46CDCCCC6D
:100310003D0AD7233C17B7D13877CC2B329595E6D9
:10032000241FB14F0A000020410000C84200401CB9
:100330004620BCBE4CCA1B0E5AAEC59D7453617696
:10034000696E67205549442E00290A0029202D2076
:1003500028004D3130312028004D32303320004DFF
:100360003530330020537465703D00207374657020
:10037000732E204469723D002920002028004D6F13
:1003800076696E67200041646A757374696E6720D0
:100390006C696D6974732E004C494D4954204D4968
:1003A0004E20004C494D4954204D415820004431C5
:1003B0003420004431302056004E4F4C494E454EBB
:1003C000554D004241444C494E454E554D2000206C
:1003D00041002046004D31313400536176696E672B
:1003E000206C696D6974732E0024F4D43050C38E70
:1003F00020C2A24017828B7011127A910D816CD9A4
:100400000AA861E108C7586607615143061E4B5DA3
:1004100005C145A7041A411104093D9803713931FA
:10042000034036DB0265339102D4305402802E1D26
:1004300002632CEE01752AC501B028A001102781A6
:10044000018F2564012B244B01E0223401AC211FD4
:10045000018D200D01801FFC00841EED00971DDF23
:1004600000B81CD200E61BC600201BBC00641AB2F8
:1004700000B219A8000A19A0006A189900D11791B2
:100480000040178B00B516840031167E00B3157935
:10049000003A157300C7146F0058146A00EE136613
:1004A000008813630025135E00C7125B006C1257AF
:1004B0000015125400C111510070114F0021114B51
:1004C00000D61049008D104700461044000210422B
:1004D00000C00F4000800F3E00420F3C00060F3B63
:1004E00000CB0E3800930E37005C0E3500270E341B
:1004F00000F30D3200C10D3100900D3000600D2E63
:1005000000320D2D00050D2C00D90C2B00AE0C294E
:1005100000850C29005C0C2700350C27000E0C26EA
:1005200000E80B2400C40B2400A00B23007D0B2348
:10053000005A0B2100390B2100180B2000F80A1F6C
:1005400000D90A1E00BB0A1E009D0A1D00800A1D5C
:1005500000630A1C00470A1B002C0A1B00110A1A20
:1005600000F7091A00DD091900C4091900AB0919BF
:1005700000920917007B091800630917004C09163F
:100580000036091600200916000A091500F508159D
:1005900000E0081400CC081400B8081400A40814E3
:1005A00000900813007D0812006B08130058081211
:1005B0000046081200340811002308110012081127
:1005C0000001081100F0071000E0071000D007102C
:1005D00000C0071000B0070F00A107100091070E20
:1005E0000083070F0074070F0065070E0057070E02
:1005F0000049070E003B070D002E070E0020070DD7
:100600000013070D0006070D00F9060C00ED060D9E
:1006100000E0060C00D4060C00C8060C00BC060C5A
:1006200000B0060C00A4060B0099060C008D060B0A
:100630000082060B0077060B006C060B0061060AB1
:100640000057060B004C060A0042060A0038060A4C
:10065000002E060A0024060A001A060A00100609DF
:100660000007060A00FD050900F4050900EB05096D
:1006700000E2050900D9050900D0050900C70509F0
:1006800000BE050900B5050800AD050800A505096F
:10069000009C050800940508008C050800840508E6
:1006A000007C050800740508006C05070065050856
:1006B000005D050700560508004E050700470507C1
:1006C000004005080038050700310507002A050726
:1006D00000230507001C050600160507000F050787
:1006E000000805060002050700FB040600F50407E4
:1006F00000EE040600E8040600E2040700DB04063E
:1007000000D5040600CF040600C9040600C3040691
:1007100000BD040600B7040600B1040500AC0406E1
:1007200000A6040600A00405009B0406009504052D
:1007300000900406008A0405008504050080040674
:10074000007A04050075040500700405006B0405BB
:100750000066040500610405005C040500570405FB
:1007600000520405004D040500480405004304053B
:10077000003E0404003A040500350405003004047A
:10078000002C04050027040400230405001E0404B3
:10079000001A04040016040500110404000D0404EA
:1007A00000090405000404040000040400FC030420
:1007B00000F8030400F4030400F0030400EC030455
:1007C00000E8030400E4030400E0030400DC030485
:1007D00000D8030400D4030400D0030400CC0304B5
:1007E00000C8030300C503030024F404D9201BC47C
:1007F0000C5C0E9804C4095F0265077101F405F9E9
:1008000000FB04B30048048700C103690058035586
:100810000003034500BE023A008402310053022A5D
:10082000002902250004022000E4011C00C801196F
:1008300000AF01170098011400840113007101102A
:10084000006101100051010E0043010D0036010B43
:10085000002B010B0020010B00150109000C010900
:100860000003010800FB000800F3000800EB00078C
:1008700000E4000600DE000600D8000600D20006F4
:1008800000CC000500C7000500C2000500BD000443
:1008900000B9000400B5000400B1000400AD00047C
:1008A00000A9000400A5000300A20003009F0004AB
:1008B000009B0003009800030095000200930003D2
:1008C00000900003008D0002008B000300880002EE
:1008D000008600020084000300810002007F000205
:1008E000007D0002007B0002007900020077000119
:1008F0000076000200740002007200010071000224
:10090000006F0002006D0001006C0002006A00012F
:100910000069000200670001006600010065000137
:10092000006400020062000100610001006000013B
:10093000005F0002005D0001005C0001005B00013F
:10094000005A000100590001005800010057000141
:100950000056000100550001005400010053000042
:10096000005300010052000100510001005000013D
:10097000004F0001004E0000004E0001004D00013C
:10098000004C0001004B0000004B0001004A000138
:100990000049000100480000004800010047000134
:1009A000004600000046000100450000004500012F
:1009B0000044000100430000004300010042000029
:1009C0000042000100410000004100010040000120
:1009D000003F0000003F0001003E0000003E00011B
:1009E000003D0000003D0001003C0000003C000014
:1009F000003C0001003B0000003B0001003A000009
:100A0000003A000100390000003900010038000000
:100A100000380000003800010037000000370001F6
:100A200000360000003600000036000100350000EE
:100A300000350000003500010034000000340000E3
:100A400000340001003300000033000000330001D7
:100A500000320000003200000032000100310000CE
:100A600000310000003100010030000000300000C3
:100A700000300001002F0000002F0000002F0000B8
:100A8000002F0001002E0000002E0000002E0001AB
:100A9000002D0000002D0000002D0000002D0001A1
:100AA000002C0000002C0000002C0000002C000195
:100AB000002B0000002B0000002B0000002B000189
:100AC000002A0000002A0000002A0000002A00017D
:100AD0000029000000290000002900000029000072
:100AE0000029000100280000002800000028000064
:100AF0000028000000280001002700000027000057
:100B00000027000000270000002700010026000049
:100B1000002600000026000000260000002600013C
:100B20000025000000250000002500000025000031
:100B30000025000000250001002400000024000022
:100B40000024000000240000002400010023000015
:100B50000023000000230000002300000023000009
:100B600000230000002300010022000000220000FA
:100B700000220000002200000022000000220001EC
:100B800000210000002100000021000000210000E1
:100B900000210000002100000021000100200000D1
:100BA00000200000002000000020000000200000C5
:100BB000002000000020000000200001001F0000B5
:100BC000001F0000001F0000001F0000001F0000A9
:100BD000001F0000001F0001001E0000001E00009A
:100BE000001E0000001E000000446F6E652E0046CF
:100BF000696E6420486F6D652E2E2E0061646465F9
:100C0000640072656D6F766564004275696C74206E
:100C1000002023004920414D2000486173204C43AF
:100C2000440054727920746865736520287769746C
:100C3000682061206E65776C696E65293A204730BF
:100C4000302C4730312C4730322C4730332C473052
:100C5000342C4732382C4739302C4739312C47391E
:100C6000322C4D31382C4D3130312C4D3130302C2F
:100C70004D31313400506C656173652073656520BA
:100C8000687474703A2F2F6D616B656C616E676567
:100C90006C6F2E636F6D2F20666F72206D6F7265A3
:100CA00020696E666F726D6174696F6E2E000A0A3C
:100CB00048454C4C4F20574F524C44212000466928
:100CC000726D776172652076000A3E20005361766E
:100CD000696E6720686F6D652E000000210024009A
:100CE00027002A002D00300033000101000004011C
:100CF00007010A0100002200250028002B002E0019
:100D00003100340002010000050108010B01000060
:100D100020002300260029002C002F0032000001B3
:100D2000000003010601090105050505070508087E
:100D30000808020202020A0A080804040404010165
:100D4000010101010101030303030303030304077A
:100D500007070C0C0C0C0C0C0C0C02020202060611
:100D60000606060606060B0B0B0B0B0B0B0B010204
:100D700010202008081020401020408002010201AD
:100D80000804020101020408102040808040201065
:100D900008040201800402018040201008040201BE
:100DA0000804020101020408102040800102040826
:100DB0001020408000000A0B02090C0D0E080703EA
:100DC000040100000000000000000000000000001E
:100DD0000000000000000000000000000000000013
:100DE00012111000000000000000000000000000D0
:100DF00000000000000000000000536176696E678B
:100E00002063616C6962726174696F6E2E0020529A
:100E1000004438204C00685D11241FBECFEFD1E2A2
:100E2000DEBFCDBF00E00CBF14E0A0E0B2E0E0E523
:100E3000F3ED00E00BBF02C007900D92AE3BB1078F
:100E4000D9F728E1AEEBB4E001C01D92AD3AB2078C
:100E5000E1F717E0CCE0D7E000E006C021970109F8
:100E6000802FFE010E944866CB30D10780E0080742
:100E7000A9F70E944C5E0C94A6690C9400002F9276
:100E80003F924F925F926F927F928F929F92AF921A
:100E9000BF92CF92DF92EF92FF920F931F93CF9367
:100EA000DF93CDB7DEB7CB55D1090FB6F894DEBFCF
:100EB0000FBECDBF80913709882311F40C941B100D
:100EC0008B3311F40C941B108E34A1F540E050E0EC
:100ED00060E87FEB0E94034F0E94BD670091BE094E
:100EE0001091BF092091C0093091C10960177107A5
:100EF0008207930789F063EC73E08AEF95E00E9424
:100F00008F4C6091BE097091BF098091C00990918A
:100F1000C1090E94564D2CC4DC01CB010196A11DD4
:100F2000B11D8093BE099093BF09A093C009B093EF
:100F3000C10907C08091C30981FF03C069EB73E059
:100F400080C2E7E3F9E001900020E9F78F0109533F
:100F5000194017FD09C0F801E95CF64F80818A321B
:100F600031F001501109F5CF8FEF9FEF01C0C8019B
:100F70002091C30921FF02C0019629F0E7E3F9E0BF
:100F8000E12CF12C03C065E672E030C4CF01875339
:100F90009940801791071CF48191E826F7CFC8018A
:100FA00017FF02C080E090E060E070E0885C964F40
:100FB0000E948E620E94BD674B015C01E616F70637
:100FC000A1F060E772E08AEF95E00E94A44DB701BE
:100FD000FF0C880B990B0E94564D62E872E08AEF75
:100FE00095E00E94A44DC40132C5F801E95CF64FBA
:100FF0001082E7E3F9E001900020E9F73297808161
:101000008B3309F4108243E050E069E872E087E333
:1010100099E00E949869892BF9F460E270E087E317
:1010200099E00E94866901960E94EE639093C9053B
:101030008093C8056DE373E08AEF95E00E94AE4CA3
:101040004091C8055091C905052E000C660B770B21
:1010500081E090E00E943D4C8DE40E94D64E8823B2
:1010600009F4D2C340E050E060E87FEB8DE40E94D9
:10107000034F0E94BD676037710509F4E7C10CF0AA
:101080004CC06431710509F4BEC0DCF461317105F6
:1010900009F4B3C06231710509F4B2C0663071055C
:1010A00009F0C9C76091EA0470E080E090E00E9416
:1010B0005F64AB01BC0184E50E94034F1092EA0417
:1010C000BAC76436710509F4D9C02CF46A327105C7
:1010D00009F4B8C0B0C76536710509F4D2C06E36E0
:1010E000710509F0A8C76091BE097091BF09809190
:1010F000C0099091C1090E946164AB01BC018EE4FA
:101100000E94034F0E94BD676093BE097093BF09A0
:101110008093C0099093C1098EC7623E710509F49E
:101120002CC3ACF46537710509F49FC13CF46237F8
:10113000710509F080C70E9439227DC76B3C71059B
:1011400009F4D3C16D3C710509F4FDC174C7643F56
:1011500081E0780709F452C3F4F46C32714009F06D
:101160006AC740E050E06AE773E480E50E94034FFD
:101170006B017C0161E08CE20E941059C701B6014D
:101180000E94BD67072E000C880B990B0E94B65970
:1011900060E08CE230C3653FB1E07B0709F431C306
:1011A000673F714009F047C76FE573E08AEF95E04C
:1011B0000E948F4C80E20E94514D8091E0040E9479
:1011C000514D6091D6057091D7058091D8059091C9
:1011D000D9050E94F82180E20E94514D8091E504DA
:1011E0000E94514D6091E6057091E7058091E805F8
:1011F0009091E9050E94F821BBC20E94CE3B1BC71B
:101200000E94C03B18C78091BE04882309F413C70D
:101210000E94D41DCE0101960E946F1FCE0105963B
:101220000E947A1F882349F08D81827109F4EBC6F0
:10123000CE0105960E94D854F1CF8FEB96E00E9424
:10124000D854F9C640E050E060E571E480E50E94C2
:10125000034F6B017C0140E050E0BA0183E50E943E
:10126000034F0E94BD6711E0672B09F410E0C7012E
:10127000B6010E94BD67862F612FBDC20E94A64D98
:10128000DAC640E050E060E87FEB81E40E94034F63
:101290000E94BD676330710508F090C08B01B4E017
:1012A000000F111FBA95E1F7C80186539A4F5C01F0
:1012B000DC014D915D916D917C9184E50E94034F1D
:1012C0006B017C01F501448155816681778182E45F
:1012D0000E94034F69966CAF7DAF8EAF9FAF699749
:1012E00020E030E040E251E4D5016D917D918D9197
:1012F0009C910E94C0640E94F3672B013C0120E096
:1013000030E040E251E4C701B6010E94C0640E948F
:10131000F3674B015C01C301B2010E94BD673B0151
:10132000C501B4010E94BD676616770651F0F80149
:10133000E653FA4FC082D182E282F382DD24D39455
:1013400001C0D12C06531A4F20E030E040E251E4B6
:10135000F80164817581868197810E94C0640E9432
:10136000F3672B013C0120E030E040E251E4699654
:101370006CAD7DAD8EAD9FAD69970E94C0640E943B
:10138000F3674B015C01C301B2010E94BD677B01A1
:10139000C501B4010E94BD67E616F70661F06996C3
:1013A0008CAD9DADAEADBFAD6997F80184839583DB
:1013B000A683B78301C0D1100E94FB2162E573E0D0
:1013C0008AEF95E00E948F4CAAECEA2EA5E0FA2E57
:1013D000670100E010E0D60114966D917D918D912A
:1013E0009C9117970E94F8210230110519F08CE2A8
:1013F0000E94514D0F5F1F4FB0E1CB0ED11C033047
:10140000110549F76CE473E08AEF95E00E948F4C78
:1014100000E010E0F70160817181828193810E9478
:10142000F8210230110519F08CE20E94514D0F5F36
:101430001F4FF0E1EF0EF11C0330110559F769E47D
:1014400073E08AEF95E00E948F4CF5C58091C1044E
:101450009091C2049093C0048093BF048DE892E001
:101460000E94D14B0E94103CE6C5E7E3F9E08F01F2
:101470000753194081918D34D1F70B5F1F4FE7E37C
:10148000F9E001900020E9F73197E753F9400E1792
:101490001F0718F080E090E0CCC5095C164FCE0124
:1014A00001965C01E12CF12C4C01D801DD908D01FD
:1014B0008D2D0D2C000C990B0E946A69892B09F463
:1014C000B3C5BDE0DB1609F4AFC5EAE0DE1609F4EA
:1014D000ABC5F8E2EF16F10409F4A6C5FFEFEF1A69
:1014E000FF0AD501DD925D01E0CF69E573E08AEF87
:1014F00095E00E948F4C0EE512E0F3ECEF2EF4E045
:10150000FF2ED801DD908D01F7014081518162816C
:1015100073818D2D0E94034F4B015C01D7016D93A8
:101520007D938D939D937D018D2D0E94514DC5011D
:10153000B4010E94F82180E20E94514DB2E00136D0
:101540001B07F9F615C14091CF045091D00460916A
:10155000D1047091D20488E50E94034F7B018C0175
:1015600020E030E040E051E40E945A6487FF0EC062
:1015700020E030E0A901B701C8010E94B168181647
:101580009CF0E12CF12C00E010E00EC020E030E0F7
:1015900040E051E4B701C8010E945A6487FD04C0CD
:1015A000E12CF12C00E011E4C701D8018093CF04B5
:1015B0009093D004A093D104B093D20462EA72E075
:1015C0008AEF95E00E94A44D6091CF047091D00401
:1015D0008091D1049091D2040E94F8214091D304CB
:1015E0005091D4046091D5047091D60489E50E948D
:1015F000034F7B018C0120E030E040E051E40E9489
:101600005A6487FF0EC020E030E0A901B701C8018D
:101610000E94B16818164CF0E12CF12C00E010E0AB
:1016200004C0E12CF12C00E011E4C701D801809343
:10163000D3049093D404A093D504B093D60463EB61
:1016400073E08AEF95E00E94A44D6091D3047091FD
:10165000D4048091D5049091D6040E94F821409141
:10166000D7045091D8046091D9047091DA048AE5C6
:101670000E94034F7B018C0120E030E040E051E408
:101680000E945A6487FF0EC020E030E0A901B70134
:10169000C8010E94B16818164CF0E12CF12C00E052
:1016A00010E004C0E12CF12C00E011E4C701D801E6
:1016B0008093D7049093D804A093D904B093DA040C
:1016C00069EA72E08AEF95E00E94A44D6091D70428
:1016D0007091D8048091D9049091DA040E94F82185
:1016E00060910002709101028091020290910302C8
:1016F0000E945F64AB01BC0182E40E94034F6B0156
:101700007C0120E034E244E759E40E945A6487FFF8
:101710000DC020E030E0A901C701B6010E94B16808
:1017200018164CF060E070E0CB0109C060E472E490
:101730008FE090E004C0C701B6010E94C4676093C7
:1017400000027093010280930202909303026CEAFC
:1017500072E08AEF95E00E94A44D609100027091C2
:10176000010280910202909103024AE00E940E4D14
:101770008AEF95E00E948B4C5EC440E050E06CE242
:1017800072E480E50E94034F0E94BD67F62E062F8B
:10179000172F0F3FEFEF1E0709F44DC440E050E054
:1017A00060E87FEB83E50E94034F0E94BD676F3FB7
:1017B000FFEF7F0729F48F2D0E94E7587C0106C0B8
:1017C00081E0672B09F080E0E82EF12C6FEA72E0EF
:1017D0008AEF95E00E94A44D802F0E94E7588E1555
:1017E0009F05D1F31092DB0467EB72E08AEF95E07E
:1017F0000E94FC4C20C40E9410591DC40E94C04C81
:101800001AC40E94842217C484E40E94D64E8823FE
:1018100009F435C240E050E060E87FEB84E40E94C8
:10182000034F0E94BD67CB01770FAA0BBB0B8F3014
:10183000910508F000C4FC018827EE58FF4F8F4F38
:101840000C9448660E94CE3B84EE98E3AEE5B2E489
:101850008093DC049093DD04A093DE04B093DF0456
:10186000EEE52E2EE2E03E2E00EE14E0412C512C4F
:101870003201D101FD901D01F1100FC00B5F1F4F10
:10188000BFEF4B1A5B0A6B0A7B0AE2E04E1651046B
:101890006104710409F4CFC3ECCF40E050E0BA0119
:1018A0008F2D0E94034F0E94BD674B015C01672B87
:1018B00029F36EE773E08AEF95E00E948F4C8F2D3D
:1018C0000E94514D6BE773E08AEF95E00E948F4CC8
:1018D000C301B2010E94564D68E773E08AEF95E0BC
:1018E0000E948F4CB401092C000C880B990B0E94AC
:1018F000564D6BE673E08AEF95E00E948F4CD8015D
:1019000012966C9170E080E090E04AE00E940E4DEB
:1019100064E673E08AEF95E00E948F4CF8016181E4
:1019200070E080E090E04AE00E940E4D8AE00E9464
:10193000514D692D661F6627661FD80112968C913E
:101940000E941059640197FE04C0CC24DD24C818FD
:10195000D908E12CF12CF801918061E0892D0E94D9
:10196000105960E0892D0E9410596091DC0470913B
:10197000DD048091DE049091DF040E94BD670E9427
:10198000FD1BFFEFEF1AFF0ACE14DF0421F776CF1D
:101990000E94924D50C36AECC62E65E0D62E7FEBB6
:1019A000E72E72E0F72E8E010F5F1F4F5801D60110
:1019B0001C964D915D916D917C911F97F7018191DE
:1019C0007F010E94034FD8016D937D938D939D936A
:1019D0008D01B0E1CB0ED11CE2ECEE16E2E0FE068A
:1019E00031F7C5012FC14091180250911902609141
:1019F0001A0270911B028CE40E94034F609318023C
:101A00007093190280931A0290931B024091140262
:101A100050911502609116027091170282E50E94A2
:101A2000034F6093140270931502809316029093F3
:101A300017020E94465AFFC20E946B5AFCC263EB17
:101A400073E08AEF95E00E948F4C85E090E00E9461
:101A5000804DF1C280E090E8A2EAB3E489839A83E2
:101A6000AB83BC8380E090E8A2EAB3EC8D839E83D5
:101A7000AF83B88780E090E0AAEFB3E489879A87C4
:101A8000AB87BC8780E090E0AAEFB3EC8D879E87A0
:101A9000AF87B88B80E090E0A4EBB2E4898B9A8B9F
:101AA000AB8BBC8B80E090E0A0E2B2E48D8B9E8B90
:101AB000AF8BB88F66E873E08AEF95E00E94AE4C7A
:101AC000CE0101967C010AEC15E0C12CD12C20E05E
:101AD00030E048EC52E4D7016D917D918D919C915D
:101AE0000E94C0640E94F36720E030E048EC52E4BA
:101AF0000E944B674B015C01F801208131814281DA
:101B000053810E945A64882349F0D8018D929D9296
:101B1000AD92BC921397CC24C394D12C20E030E03A
:101B200048EC52E4F70164817581868197810E94B7
:101B3000C0640E94F36720E030E048EC52E40E9469
:101B40004B674B015C01D80114962D913D914D914D
:101B50005C9117970E945A64882341F0F8018482AF
:101B60009582A682B782CC24C394D12CF8E0EF0EE4
:101B7000F11C005F1F4F25E00A3F120709F0A7CFB5
:101B8000CD2811F00E94FB2180E090E2A0E8B4E4AF
:101B90008093180290931902A0931A02B0931B022B
:101BA0008093140290931502A0931602B09317022B
:101BB0000E946B5A609118027091190280911A026A
:101BC00090911B020E94BD6769A77AA78BA79CA76B
:101BD0006091140270911502809116029091170283
:101BE0000E94BD676DA77EA78FA798AB6091F20595
:101BF0007091F3058091F4059091F5050E94BD6701
:101C000069AB7AAB8BAB9CABBE01675B7F4FCE0100
:101C100089960E946440CE01875B9F4F0E94BF1649
:101C200019A61AA61BA61CA61DA61EA61FA618AAA4
:101C300080E090E0A4EBB2E489AB9AABABABBCAB79
:101C4000CE0189960E94AC16F6C14091F2055091E2
:101C5000F3056091F4057091F5058AE50E94034F44
:101C60000E94BD67CB010E94AE3AE5C16EEA73E007
:101C70008AEF95E00E948F4C67EC72E0B7CD6091DF
:101C8000C20970E080E090E00E945F64AB01BC019B
:101C900087E40E94034F0E94BD67262E862F972F50
:101CA0002FEF2093C2098430910509F451C14CF4FF
:101CB0008230910509F440C10CF043C197FF23C065
:101CC000BAC18A35910509F462C134F44C9709F020
:101CD000B2C10E941B42AFC18B35910509F45BC1B3
:101CE0008C35910509F0A7C10AEC15E0DE011196CB
:101CF0007D018FEBC82E82E0D82E5E01BDE0AB0ED9
:101D0000B11C37014BC184E50E94D64E8823A1F057
:101D100040E050E0BA0184E50E94034F11E020E06A
:101D200030E0A9010E94B16818160CF010E061E0E3
:101D300061278CE00E94105981E40E94D64E8823CE
:101D400081F1409105025091060260910702709165
:101D5000080281E40E94034F6B017C0120E030E027
:101D6000A9010E94B16818168CF420E030E04AEF17
:101D700054E4C701B6010E945A6487FD0AC0C12C11
:101D8000D12C3AEFE32E34E4F32E03C0C12CD12C36
:101D90007601C0920502D0920602E0920702F0920C
:101DA00008024091090250910A0260910B02709161
:101DB0000C0286E40E94034F2B013C0120E030E03E
:101DC000A9010E94B16818168CF420E030E04AE7BF
:101DD00054E4C301B2010E945A6487FD0AC0412C39
:101DE000512C2AE7622E24E4722E03C0412C512C80
:101DF00032010AEC15E0CE0101967C019FEBA92E81
:101E000092E0B92E66961FAE6697C12CD12C6B96C8
:101E1000EFAE6B976C96FFAE6C97D80118969C90BE
:101E2000189719968C9019971A96BC916A96BFAF1D
:101E30006A97F801338480911302811104C030E065
:101E400020E090E005C094016A969FAD6A97832DCB
:101E5000432F522F692F782FD5018D915D010E945C
:101E6000034F20911302222329F0912C812CF0E0C2
:101E7000E0E004C06A96FFAD6A97E32D292D382D66
:101E80004F2F5E2F0E9451664701F70160837183D7
:101E900082839383D8012D913D914D915C910E9455
:101EA000B16818166CF463EA73E08AEF95E00E945B
:101EB0008F4CC6010E94804DB1E06696BFAF669719
:101EC000E4E0EE0EF11CD80114962D913D914D9158
:101ED0005C911797F40160817181828193810E94E6
:101EE0005A6487FF0DC068E973E08AEF95E00E94AD
:101EF0008F4CC6010E94804DF1E06696FFAF669759
:101F00002FEFC21AD20A005F1F4F83E0C816D10418
:101F100009F083CF66969FAD669791110AC0B30111
:101F2000A2016B968FAD6B976C969FAD6C970E94DC
:101F3000F3162092C2097FC081E00E949D5A82E080
:101F400004C08FEF0E949D5A83E08093C20973C042
:101F50000E940F4240E050E0BA0183E50E94034F27
:101F60006B017C0140E050E0BA0180E50E94034F24
:101F700020E030E04AE754E40E94C064A7019601E3
:101F80000E9451660E94BD670E94FD1B54C081E003
:101F90008093130250C0109213024DC0F801408488
:101FA00051848284938480911302811104C030E0B3
:101FB00020E090E004C0342D252D982D892D432F4D
:101FC000522F692F782FD6018D916D010E94034FFA
:101FD00020911302222321F0412C512C812C912C91
:101FE0009201A4010E945166F7016193719381935C
:101FF00091937F01005F1F4FAE16BF0679F6C301B4
:102000000E94BF1618C040E250E0BE01675D7F4FDE
:10201000CE0105960E94EC1FBE01675D7F4F8AEFDF
:1020200095E00E94FC4C04C9F401EE0DFF1D1082E6
:10203000C4010E94D14BC55ADF4F0FB6F894DEBFE2
:102040000FBECDBFDF91CF911F910F91FF90EF9009
:10205000DF90CF90BF90AF909F908F907F906F90C8
:102060005F904F903F902F90089510929518109286
:102070006F0510928E181092771884E0809376186E
:1020800080918D18882319F0815080938D18E091EC
:102090008D1884E0E89FF0011124E758F74E828103
:1020A00093819093751880937418089581E09091AE
:1020B000DB04913009F480E08093DB0410926F051B
:1020C00010928E181092771884E080937618809181
:1020D0008D18882319F0815080938D18E0918D1808
:1020E00084E0E89FF0011124E758F74E8281938144
:1020F0009093751880937418089580914D0A90916B
:102100004E0A0196843191052CF490934E0A8093E7
:102110004D0A089510924E0A10924D0A80914B0A72
:1021200090914C0A0196843091052CF490934C0ABE
:1021300080934B0A089510924C0A10924B0A08950E
:10214000089580E090E008950E94C03B10926F05D2
:1021500010928E181092771884E0809376188091F0
:102160008D18882319F0815080938D18E0918D1877
:1021700084E0E89FF0011124E758F74E82819381B3
:10218000909375188093741808950E94CE3B109216
:102190006F0510928E181092771884E0809376184D
:1021A00080918D18882319F0815080938D18E091CB
:1021B0008D1884E0E89FF0011124E758F74E8281E2
:1021C0009381909375188093741808950E941B4210
:1021D00010926F0510928E181092771884E08093F9
:1021E000761880918D18882319F0815080938D186E
:1021F000E0918D1884E0E89FF0011124E758F74E34
:102200008281938190937518809374180895CF926A
:10221000DF92EF92FF920F931F93CF93DF936C01A6
:102220008B017A01EC01C551DB4F888187FF04C027
:10223000FB011182108224C02CE02C9DC0012D9D39
:10224000900D11242881AC01420F511D27FD5A9594
:102250002091300A30E04217530794F42881AC01F2
:10226000420F511D27FD5A959A01FA01EE0FFF1FEB
:102270002E0F3F1FF901EC53F64F208126FD19C0A8
:1022800088818F5F88832CE02C9DC0012D9D900D4F
:1022900011242881AC01420F511D27FD5A95209130
:1022A000300A30E042175307BCF428812C3044F147
:1022B00013C02881820F911D27FD9A95FC01EE0F16
:1022C000FF1F8E0F9F1FFC01EC53F64F808160E0D3
:1022D0008F730E941059D4CFF801808191810496A8
:1022E00080349C4918F480E49CE904C0F8018081A2
:1022F00091810496F701918380838FEF888345C095
:10230000F801408151812881BC01620F711D27FDB8
:102310007A959B01FB01EE0FFF1F2E0F3F1FF90166
:10232000EC53F64F21813281240F351FF7013183A1
:1023300020832881AC01420F511D27FD5A959A0137
:10234000FA01EE0FFF1F2E0F3F1FF901EC53F64F5E
:10235000208126FF1AC02881820F911D27FD9A95A2
:10236000FC01EE0FFF1F8E0F9F1FFC01EC53F64F79
:10237000808161E08F73DF91CF911F910F91FF906A
:10238000EF90DF90CF900C941059DF91CF911F9177
:102390000F91FF90EF90DF90CF900895CF93DF9350
:1023A0000E94F0598BE00E94E758C1E0D0E0892BF1
:1023B00011F0C0E0D0E08CE00E94E758892B19F0C2
:1023C00080E090E002C082E090E08C2B9D2B209179
:1023D000EE043091EF0482179307F1F181309105FB
:1023E00001F11CF4009741F033C08230910559F09F
:1023F0008330910579F02CC021303105C1F02230B5
:102400003105E1F025C02115310589F02330310572
:10241000A9F01EC02130310589F022303105C1F408
:1024200006C02115310551F02330310589F4209182
:102430008F18309190182F5F3F4F06C020918F1852
:1024400030919018215031093093901820938F18B3
:102450009093EF048093EE048BE20E94E758209162
:102460000402022E000C330B8217930731F08130E7
:10247000910519F421E020936F0580930402DF9108
:10248000CF91089520914B0A30914C0A94E1929F8C
:10249000F001939FF00D1124EE58FA4F20914D0A50
:1024A00030914E0AE20FF31F80830C947D108091CF
:1024B0006F058823F1F010926F0510928E1810921C
:1024C000771884E08093761880918D18882319F00E
:1024D000815080938D18E0918D1884E0E89FF00181
:1024E0001124E758F74E8281938190937518809359
:1024F000741860918F18709190186115710539F1F9
:10250000072E000C880B990B0E9461642091090230
:1025100030910A0240910B0250910C020E945166C8
:1025200020E030E0A9010E94B168181624F080E094
:1025300090E0DC0104C080E090E0A0E8BFE380937D
:10254000090290930A02A0930B02B0930C0210921E
:102550004E0A10924D0A10924C0A10924B0A86E4D1
:102560000E9442126091090270910A0280910B024E
:1025700090910C0240E050E00C941B581F93CF93B5
:10258000DF93EC0114E129912223A9F080914B0AF9
:1025900090914C0A189FF001199FF00D1124EE58EC
:1025A000FA4F80914D0A90914E0AE80FF91F20834F
:1025B0000E947D10E8CFDF91CF911F910895E2E74F
:1025C000F5E080E2819395E0E33CF907D9F71092BA
:1025D000C2050895CF93DF93CDB7DEB7CC55D109AF
:1025E0000FB6F894DEBF0FBECDBF8091BE0481113F
:1025F0001EC010926F0510928E181092771884E00A
:102600008093761880918D18882319F081508093DB
:102610008D18E0918D1884E0E89FF0011124E758AF
:10262000F74E8281938190937518809374188091EE
:102630008F1890919018892B21F480916F0581302B
:1026400019F481E08093781880917818813009F02E
:1026500005C10E94DF1210927005809177188111D8
:102660004EC080917618882309F449C010924E0A12
:1026700010924D0A10924C0A10924B0AE0918D185C
:1026800094E0E99FF0011124E758F74E81818823F7
:1026900011F080E201C08EE30E94421282ED92E0CE
:1026A0000E94BE1280918D1894E0899FF001112440
:1026B000E758F74E218190917005291320C0909121
:1026C0006F059923E1F010926F0510928E18109209
:1026D000771894E090937618882319F081508093AE
:1026E0008D18E0918D1884E0E89FF0011124E758DF
:1026F000F74E82819381909375188093741880911E
:1027000070058F5F809370050E94D41DCE01859661
:102710000E946F1FCE0189960E947A1F882301F1C3
:1027200089A58271C1F442E150E0BE01675B7F4F31
:10273000CE0189960E94EC1F8091700590917718C8
:10274000891720F0209176188217A8F080917005E3
:102750008F5F80937005CE0189960E94D854DACF9E
:102760008FEB96E00E94D8548091700580938E186C
:102770001092781873C010924E0A10924D0A282FAA
:1027800030E0291B310930934C0A20934B0AE09129
:102790008D1894E0E99FF0011124E758F74E9181DC
:1027A000891711F080E201C08EE30E944212CE012F
:1027B000875B9F4F0E94BE1280918D1894E0899F85
:1027C000F0011124E758F74E2181909170052913EB
:1027D000BDCF90916F05913009F0B8CF50918E1810
:1027E000409177189091761820917418309175184F
:1027F000882369F0815094E0899FF0011124E75803
:10280000F74E2281338140E094E050E0F1CF109206
:102810006F0550938E184093771890937618109206
:102820008D1830937518209374188FA198A59C83E8
:102830008B8380E2FE01B996DE01159601900D9220
:102840008A95E1F782E292E09A838983CE0101962C
:102850000E94B3588FEB96E00E94D854C45ADF4FC1
:102860000FB6F894DEBF0FBECDBFDF91CF910895B4
:102870000E94DF12109270058091771881114EC06E
:1028800080917618882309F449C010924E0A10925C
:102890004D0A10924C0A10924B0AE0918D1884E078
:1028A000E89FF0011124E758F74E8181882311F049
:1028B00080E201C08EE30E94421282ED92E00E940B
:1028C000BE1280918D1894E0899FF0011124E75881
:1028D000F74E218190917005291320C090916F05CA
:1028E0009923E1F010926F0510928E1810927718CC
:1028F00094E090937618882319F0815080938D1876
:10290000E0918D1884E0E89FF0011124E758F74E1C
:1029100082819381909375188093741880917005CB
:102920008F5F8093700590917718891708F44EC0D7
:1029300020917618821708F049C010924E0A109222
:102940004D0A282F30E0291B310930934C0A20937F
:102950004B0AE0918D1894E0E99FF0011124E758AB
:10296000F74E9181891711F080E201C08EE30E9439
:10297000421287ED92E00E94BE12E0918D1884E031
:10298000E89FD0011124A758B74E11969C918091D1
:10299000700598131BC080916F058823B9F01092C1
:1029A0006F0510928E181092771884E08093761835
:1029B000EF5FE0938D1894E0E99FF0011124E75850
:1029C000F74E1182108284EA90E1B7C180917005C0
:1029D0008F5F8093700590917718891708F44EC027
:1029E00020917618821708F049C010924E0A109272
:1029F0004D0A282F30E0291B310930934C0A2093CF
:102A00004B0AE0918D1894E0E99FF0011124E758FA
:102A1000F74E9181891711F080E201C08EE30E9488
:102A2000421286EE92E00E94BE12E0918D1884E080
:102A3000E89FD0011124A758B74E11969C91809120
:102A4000700598131BC080916F058823B9F0109210
:102A50006F0510928E181092771884E08093761884
:102A6000EF5FE0938D1894E0E99FF0011124E7589F
:102A7000F74E1182108285EC90E15FC18091700564
:102A80008F5F8093700590917718891708F44EC076
:102A900020917618821708F049C010924E0A1092C1
:102AA0004D0A282F30E0291B310930934C0A20931E
:102AB0004B0AE0918D1894E0E99FF0011124E7584A
:102AC000F74E9181891711F080E201C08EE30E94D8
:102AD000421287EA92E00E94BE12E0918D1884E0D3
:102AE000E89FD0011124A758B74E11969C91809170
:102AF000700598131BC080916F058823B9F0109260
:102B00006F0510928E181092771884E080937618D3
:102B1000EF5FE0938D1894E0E99FF0011124E758EE
:102B2000F74E1182108280EF9AE107C18091700503
:102B30008F5F8093700590917718891708F44EC0C5
:102B400020917618821708F049C010924E0A109210
:102B50004D0A282F30E0291B310930934C0A20936D
:102B60004B0AE0918D1894E0E99FF0011124E75899
:102B7000F74E9181891711F080E201C08EE30E9427
:102B8000421284EB93E00E94BE12E0918D1884E023
:102B9000E89FD0011124A758B74E11969C918091BF
:102BA000700598131BC080916F058823B9F01092AF
:102BB0006F0510928E181092771884E08093761823
:102BC000EF5FE0938D1894E0E99FF0011124E7583E
:102BD000F74E1182108285E59AE1AFC080917005B1
:102BE0008F5F8093700590917718891708F44EC015
:102BF00020917618821708F049C010924E0A109260
:102C00004D0A282F30E0291B310930934C0A2093BC
:102C10004B0AE0918D1894E0E99FF0011124E758E8
:102C2000F74E9181891711F080E201C08EE30E9476
:102C300042128AEA92E00E94BE12E0918D1884E06E
:102C4000E89FD0011124A758B74E11969C9180910E
:102C5000700598131BC080916F058823B9F01092FE
:102C60006F0510928E181092771884E08093761872
:102C7000EF5FE0938D1894E0E99FF0011124E7588D
:102C8000F74E118210828AEB99E157C0809170054E
:102C90008F5F8093700590917718891708F454C05E
:102CA00020917618821708F04FC010924E0A1092A9
:102CB0004D0A282F30E0291B310930934C0A20930C
:102CC0004B0AE0918D1894E0E99FF0011124E75838
:102CD000F74E9181891711F080E201C08EE30E94C6
:102CE000421284EF92E00E94BE12E0918D1884E0BF
:102CF000E89FD0011124A758B74E11969C9180915E
:102D00007005981321C080916F058823E9F0109217
:102D10006F0510928E181092771884E080937618C1
:102D2000EF5FE0938D1894E0E99FF0011124E758DC
:102D3000F74E1182108287E592E19383828390930C
:102D40007518809374180895809170058F5F809333
:102D5000700580938E180895EAECF5E0DC014D9142
:102D60005D916D917D91CD01448755876687778709
:102D70007096B5E0EA3FFB0789F70C94C04C0F93BF
:102D80001F93CF93DF93CDB7DEB72C970FB6F89490
:102D9000DEBF0FBECDBF8C010E940F42D801EAEC0E
:102DA000F5E04D915D916D917D91408751876287EE
:102DB0007387709685E0EA3FF80799F7BE016F5F69
:102DC0007F4FC8010E946141CE0101960E945C388C
:102DD0002C960FB6F894DEBF0FBECDBFDF91CF911A
:102DE0001F910F9108952F923F924F925F926F9291
:102DF0007F928F929F92AF92BF92CF92DF92EF928B
:102E0000FF920F931F93CF93DF93CDB7DEB76E97EB
:102E10000FB6F894DEBF0FBECDBF382E292E6A0143
:102E20007B014093090250930A0260930B02709356
:102E30000C026091120270E080E090E00E945F64FA
:102E40002AE037ED43E25CE30E94C064A7019601EB
:102E50000E94C0646B017C010AEC15E0832C922C6B
:102E6000CE0101969C8F8B8FFE013D965F01412C18
:102E7000512C3201F8012085318542855385F501B9
:102E800021933193419351935F01F40161917191C9
:102E9000819191914F010E945066EB8DFC8D619361
:102EA000719381939193FC8FEB8F9B01AC010E94F6
:102EB000C0649B01AC01C301B2010E9451662B01A9
:102EC0003C01005F1F4FF5E00A3F1F0799F620E025
:102ED00030E0A90169817A818B819C810E945A64CA
:102EE00081111FC020E030E0A9016D817E818F81BA
:102EF00098850E945A64811114C089849A84AB8495
:102F0000BC8420E030E0A901C501B4010E94B16891
:102F1000181624F0B7FAB094B7F8B094950184016C
:102F20009CC0C301B2010E94FF682B013C0120E05C
:102F300030E0A9010E94B16818165CF42DEB37E36C
:102F400046E855E3C301B2010E945A6487FF0CC0F2
:102F50008AC02DEB37E346E855EBC301B2010E946E
:102F6000B16818160CF47FC0A7019601C301B20125
:102F70000E944B6720E030E040E252E40E94C064CF
:102F80000E94C4674B01672B19F488248394912C09
:102F9000B40180E090E00E945F649B01AC0160E0BE
:102FA00070E080E89FE30E944B676B8F7C8F8D8F72
:102FB0009E8F9B01AC01C301B2010E94C0642B0132
:102FC0003C015E018DE0A80EB11C8E010F5F1F4F0A
:102FD0002B8D3C8D4D8D5E8DF801608171818281DC
:102FE00093810E94C064F8016193719381939193DE
:102FF0008F01EA15FB0561F7CE0149969A8F898FFB
:1030000091E0891A910839F18E01035F1F4FFE018B
:1030100031965F01F50121913191419151915F010B
:10302000F80160817181828193810E945166F8016B
:1030300061937193819391938F01898D9A8D8E17EE
:103040009F0741F793018201B701A601CE010D96BA
:103050000E94A722D5CF93018201B701A601832D3B
:10306000922D0E94A7226E960FB6F894DEBF0FBE77
:10307000CDBFDF91CF911F910F91FF90EF90DF9027
:10308000CF90BF90AF909F908F907F906F905F9008
:103090004F903F902F9008954F925F926F927F9242
:1030A0008F929F92AF92BF92CF92DF92EF92FF9258
:1030B0000F931F93CF93DF93CDB7DEB768970FB60B
:1030C000F894DEBF0FBECDBF8C016B017A010E9468
:1030D000DF1210924E0A10924D0A10924C0A109272
:1030E0004B0A8DEF92E00E94BE12380117FF03C019
:1030F0008FEF681A780A759467948601D7FE02C02C
:103100000F5F1F4F15950795EA94EF2829F4962D28
:10311000872D3801092F182F8091D2059091D30562
:10312000A091D405B091D5058D879E87AF87B88BC8
:1031300089839A83AB83BC838091E2059091E305F8
:10314000A091E405B091E505898B9A8BAB8BBC8B84
:103150008D839E83AF83B88780E090E0A4EBB2E4D8
:103160008D8B9E8BAF8BB88F89879A87AB87BC87F7
:103170004091090250910A0260910B0270910C0279
:10318000CE010D960E94F3166627772766197709F8
:10319000072E000C880B990B0E9461644B015C01A7
:1031A0006D877E878F87988BB801012E000C880B66
:1031B000990B0E9461646B017C01698B7A8B8B8B0C
:1031C0009C8B4091090250910A0260910B02709110
:1031D0000C02CE010D960E94F31680E090E0A0E272
:1031E000B2E48D8B9E8BAF8BB88F409109025091CA
:1031F0000A0260910B0270910C02CE010D960E94A2
:10320000F316B301770C880B990B0E9461642B01B4
:103210003C016D877E878F87988BC98ADA8AEB8A13
:10322000FC8A4091090250910A0260910B02709150
:103230000C02CE010D960E94F3164D865E866F86B7
:10324000788A66277727601B710B072E000C880B86
:10325000990B0E9461642B013C01698B7A8B8B8BEB
:103260009C8B4091090250910A0260910B0270916F
:103270000C02CE010D960E94F3168D869E86AF86B7
:10328000B88A498A5A8A6B8A7C8A4091090250918D
:103290000A0260910B0270910C02CE010D960E9401
:1032A000F3168D869E86AF86B88AC98ADA8AEB8A3B
:1032B000FC8A4091090250910A0260910B027091C0
:1032C0000C02CE010D960E94F31680E090E0A4EB74
:1032D000B2E48D8B9E8BAF8BB88F409109025091D9
:1032E0000A0260910B0270910C02CE010D960E94B1
:1032F000F3164091090250910A0260910B027091FD
:103300000C02CE0101960E94F31610926F051092E6
:103310008E181092771884E08093761880918D181B
:10332000882319F0815080938D18E0918D1894E0D6
:10333000E99FF0011124E758F74E82819381909321
:1033400075188093741868960FB6F894DEBF0FBE98
:10335000CDBFDF91CF911F910F91FF90EF90DF9044
:10336000CF90BF90AF909F908F907F906F905F9025
:103370004F9008950F931F93CF93DF93CDB7DEB790
:103380002C970FB6F894DEBF0FBECDBF80916F05AE
:103390008823F1F010926F0510928E181092771812
:1033A00084E08093761880918D18882319F08150DD
:1033B00080938D18E0918D1884E0E89FF00111242E
:1033C000E758F74E82819381909375188093741813
:1033D0008091D2059091D305A091D405B091D505E7
:1033E00089839A83AB83BC838091E2059091E30546
:1033F000A091E405B091E5058D839E83AF83B887E6
:1034000000918F1810919018B801012E000C880BB4
:10341000990B0E9461642091F2053091F30540916F
:10342000F4055091F5050E94516620E030E0A901B5
:103430000E94B16818162CF080E090E0A0E8BFEB85
:1034400004C080E090E0A0E8BFE389879A87AB875B
:10345000BC87012B61F04091090250910A026091F2
:103460000B0270910C02CE0101960E94F31610928D
:103470004E0A10924D0A10924C0A10924B0A8AE59D
:103480000E94421269857A858B859C8540E050E0D8
:103490000E941B582C960FB6F894DEBF0FBECDBF0E
:1034A000DF91CF911F910F9108950F931F93CF93A9
:1034B000DF93CDB7DEB72C970FB6F894DEBF0FBE03
:1034C000CDBF80916F058823F1F010926F051092A7
:1034D0008E181092771884E08093761880918D185A
:1034E000882319F0815080938D18E0918D1884E025
:1034F000E89FF0011124E758F74E82819381909361
:103500007518809374188091D2059091D305A0917D
:10351000D405B091D50589839A83AB83BC83009190
:103520008F1810919018B801012E000C880B990B80
:103530000E9461642091E2053091E3054091E40529
:103540005091E5050E94516620E030E0A9010E94FB
:10355000B16818162CF080E090E0A0E8BFEB04C042
:1035600080E090E0A0E8BFE38D839E83AF83B887BF
:103570008091F2059091F305A091F405B091F505C5
:1035800089879A87AB87BC87012B61F0409109023C
:1035900050910A0260910B0270910C02CE010196CB
:1035A0000E94F31610924E0A10924D0A10924C0A85
:1035B00010924B0A89E50E9442126D817E818F81B3
:1035C000988540E050E00E941B582C960FB6F89466
:1035D000DEBF0FBECDBFDF91CF911F910F91089538
:1035E0000F931F93CF93DF93CDB7DEB72C970FB612
:1035F000F894DEBF0FBECDBF80916F058823F1F038
:1036000010926F0510928E181092771884E08093B4
:10361000761880918D18882319F0815080938D1829
:10362000E0918D1884E0E89FF0011124E758F74EEF
:1036300082819381909375188093741800918F18EC
:1036400010919018B801012E000C880B990B0E9464
:1036500061642091D2053091D3054091D4055091F9
:10366000D5050E94516620E030E0A9010E94B168B2
:1036700018162CF080E090E0A0E8BFEB04C080E0DA
:1036800090E0A0E8BFE389839A83AB83BC838091F9
:10369000E2059091E305A091E405B091E5058D83E5
:1036A0009E83AF83B8878091F2059091F305A09136
:1036B000F405B091F50589879A87AB87BC87012B04
:1036C00061F04091090250910A0260910B027091E1
:1036D0000C02CE0101960E94F31610924E0A10922F
:1036E0004D0A10924C0A10924B0A88E50E94421231
:1036F00069817A818B819C8140E050E00E941B5857
:103700002C960FB6F894DEBF0FBECDBFDF91CF91E0
:103710001F910F910895CF93DF93CDB7DEB72C970C
:103720000FB6F894DEBF0FBECDBF8091D205909149
:10373000D305A091D405B091D50589839A83AB8335
:10374000BC838091E2059091E305A091E405B091DE
:10375000E5058D839E83AF83B88720E030E044EB9E
:1037600052E46091F2057091F3058091F405909117
:10377000F5050E945A64882329F080E090E0A4EBCC
:10378000B2E404C080E090E0A0E2B2E489879A87C6
:10379000AB87BC874091090250910A0260910B02ED
:1037A00070910C02CE0101960E94F31610926F05E3
:1037B00010928E181092771884E08093761880917A
:1037C0008D18882319F0815080938D18E0918D1801
:1037D00084E0E89FF0011124E758F74E828193813D
:1037E00090937518809374182C960FB6F894DEBFDA
:1037F0000FBECDBFDF91CF910895CF92DF92EF92B0
:10380000FF9228EE33E040E050E00E94A7656B0194
:103810007C01CA01B9010E94B65982E0C816D104E0
:1038200050F0CC0CDD1CCC0CDD1C85E0C81AD10896
:10383000C6010197F1F7FF90EF90DF90CF900895C8
:103840001F920F920FB60F9211240BB60F922F9367
:103850003F934F935F936F937F938F939F93AF9318
:10386000BF93EF93FF9348E251E064E271E080E0A0
:1038700090E00E940711FF91EF91BF91AF919F914E
:103880008F917F916F915F914F913F912F910F9009
:103890000BBE0F900FBE0F901F9018951F920F92A6
:1038A0000FB60F9211240BB60F922F933F934F93A5
:1038B0005F936F937F938F939F93AF93BF93EF9398
:1038C000FF9348EA50E064EA70E082E090E00E94F2
:1038D0000711FF91EF91BF91AF919F918F917F91D0
:1038E0006F915F914F913F912F910F900BBE0F9071
:1038F0000FBE0F901F9018951F920F920FB60F9248
:1039000011240BB60F922F933F934F935F936F93B6
:103910007F938F939F93AF93BF93EF93FF9348E968
:1039200050E064E970E081E090E00E940711FF91AF
:10393000EF91BF91AF919F918F917F916F915F9127
:103940004F913F912F910F900BBE0F900FBE0F9094
:103950001F9018952F923F924F925F926F927F9295
:103960008F929F92AF92BF92CF92DF92EF92FF928F
:103970000F931F93CF93DF9300D01F921F92CDB769
:10398000DEB79B838A83FB01DC018C91807709F48D
:10399000F2C08091BF068111EEC0A180B28080810B
:1039A000837009F4D8C0C5010C966DE070E00E94E8
:1039B000346622242394260E6F01EA80FB8040E0C7
:1039C00050E0BA01C7010E94B05319821D82312C08
:1039D0001C82F6013696FB83EA83D70150964D9000
:1039E0005D906D907C90539761E0C7010E94755483
:1039F0008C01009709F4BFC0FC018081853E09F469
:103A0000B6C0882321F0321408F4A8C009C03214CB
:103A100008F0B1C03394882309F4ADC0853E11F09D
:103A20008E3211F41C82D9CFD8011B969C919F3005
:103A300009F04DC0BC81B11109C086FFCECF8F7196
:103A40008D83F801F585F9838C830BC02D8121507E
:103A50002D838213E7CFD8011D968C91B9818B13EA
:103A6000E1CFED818E2F90E00197FDE0F89F4001BE
:103A7000F99F900C11248A149B04A0F6712C672DD9
:103A8000C8010E948053A814B90421F4892B09F4B9
:103A9000A4CFC8CF8F3F910509F020F62FEB280F58
:103AA0002A3108F4805EA4014F5F5F4FD601139660
:103AB0002D913C911497F901E80DF91D90812FEBA0
:103AC000290F2A3108F4905E9813ACCF49C093FDBA
:103AD000A9CFBC81BB2359F0ED81E13009F04BC087
:103AE000C8010E94A153F981F81345C00EC04BE0F4
:103AF00050E06A817B81C8010E947969892B09F0B5
:103B00006CCFD6018C9180FD68CFB301A20185E016
:103B100076956795579547958A95D1F72C81B7018A
:103B20008FEB96E00F900F900F900F900F90DF911A
:103B3000CF911F910F91FF90EF90DF90CF90BF90AA
:103B4000AF909F908F907F906F905F904F903F903D
:103B50002F900C944A4F222423942ECF312C60CFE7
:103B60007394BDE07B1609F438CF4A0188CF321434
:103B700008F058CF4FCF80E00F900F900F900F902C
:103B80000F90DF91CF911F910F91FF90EF90DF90F9
:103B9000CF90BF90AF909F908F907F906F905F90ED
:103BA0004F903F902F9008953F924F925F926F9267
:103BB0007F928F929F92AF92BF92CF92DF92EF92BD
:103BC000FF920F931F93CF93DF93CDB7DEB7E197AB
:103BD0000FB6F894DEBF0FBECDBFE091F004F091B8
:103BE000F104309709F42EC119821A821B82809148
:103BF000BF06811127C1E95DFD4F8081807709F4FF
:103C000021C1AFE0B3E08D018D918F32E1F3668188
:103C10007781811105C08FEB96E00E94BE5447C1A9
:103C2000CE0101960E94BE54882309F40BC17E0187
:103C300062E3E60EF11CB0E2BB2E99249394F801E6
:103C40009F012F5F3F4F8081803211F4F901F8CF3F
:103C5000FDA3ECA39F01A9014E1B5F0B8901D901B4
:103C60008D919D01882341F18F3221F4CF01840F82
:103C7000951F1BC08C3509F4E5C0982F977F9232B1
:103C800009F4E0C08A3309F4DDC0982F9F7B9C3390
:103C900009F4D8C092EC980F923008F4D3C0805247
:103CA0008F35C8F2CFC02F3239F48C01DC012D9151
:103CB000CD012032C1F7F9CFDA01AE0FBF1FAD0140
:103CC0004E1B5F0BEA17FB0759F08E918E32B9F34A
:103CD0008032A9F34F3F510511F00CF0B3C002C080
:103CE00040E050E05BA34AA3DE0197966D01BD92D0
:103CF000AE15BF05E1F7DF01CD018E1B9F0B2D91A6
:103D00002E32D1F32032C1F3AA24A394009709F0F4
:103D1000A12C9A0121503109DF01A40FB51F2F3FBB
:103D20006FEF360749F46EA0712C77E0872E70E0B4
:103D3000412CA8E05A2E3CC06E916E32A1F3215066
:103D40003109EDCFDF01A80FB91F6C91603209F482
:103D500056C06E3289F52817390709F050C0A6ED14
:103D6000A60FA63070F1A6ECA60FA63060F1A5EA6A
:103D7000A60FA33040F1AFEDA60FAE3520F5281702
:103D8000390709F48EC0871660F1A62FBFE9B60F78
:103D9000BA3110F56052752833243394370ED601AA
:103DA000A70FB11D6C93A6E0A31558F5732D0196CE
:103DB000841795073CF228C0623229F06C3779F6F7
:103DC00002C06D3281F22817390709F460C08716E6
:103DD00040F06FE5A12CAFE5A154AA31E8F64528E3
:103DE000DBCFAAE08A1609F45FC0281739070CF464
:103DF0005BC0C901BAE08B2E78E060E1562EA12CA1
:103E0000D6CF632C732DD3CF6EA28FA18032D1F089
:103E1000AA2039F0472011F4872D01C082E089A340
:103E200013C099A28EA190E0F601E80FF91F2EE7CA
:103E30002083E8E2F0E0EC0FFD1FE80FF91F21E31B
:103E4000208302C080E033C0F80180818823B9F06C
:103E5000BE016F5D7F4FCE0101960E94AA1C882390
:103E600089F380E2EFEBF6E0DE01119601900D920E
:103E70008A95E1F78FEB96E00E94D854E0CEBE0120
:103E80006F5D7F4FCE0101960E94AA1C10C06AE0B0
:103E9000861651F0C9016AE0862E78E0A0E15A2E1C
:103EA00086CF8AE08812F6CF6EA2A12CAECFE19623
:103EB0000FB6F894DEBF0FBECDBFDF91CF911F913B
:103EC0000F91FF90EF90DF90CF90BF90AF909F90B9
:103ED0008F907F906F905F904F903F900895FC017E
:103EE0001382128214821582168282E292E09183FA
:103EF00080830895CF92DF92EF92FF920F931F93EA
:103F0000CF93DF93FC01808181115CC09091BF064B
:103F1000907709F457C04091CF065091D006609138
:103F2000D1067091D2064F71552766277727452B0A
:103F3000462B472B09F046C08F01C0E0D0E0C0906F
:103F4000CF06D090D006E090D106F090D20660E087
:103F50008FEB96E00E9475540097A1F1FC0120813F
:103F6000222381F12E3211F4C0E0E9CF253EE1F3A6
:103F7000338533FD07C0CC2371F00E94A1538D130C
:103F800021C009C03F3081F726FFD9CFC22FCF71A2
:103F9000FC01D585D4CFB701A60185E0769567955C
:103FA000579547958A95D1F72C2F6FEB76E0C8018E
:103FB000DF91CF911F910F91FF90EF90DF90CF9005
:103FC0000C944A4F80E0DF91CF911F910F91FF90A9
:103FD000EF90DF90CF9008952F923F924F925F9293
:103FE0006F927F928F929F92AF92BF92CF92DF9209
:103FF000EF92FF920F931F93CF93DF93CDB7DEB76E
:10400000A4970FB6F894DEBF0FBECDBF7C018B0125
:104010004A0119821A821B82DC018C918823E1F00B
:104020004D305105C8F0F70193819923C9F0F7018C
:1040300080859185A285B385668177819E012F5FFA
:104040003F4F39010097A105B10509F05FC0C901D3
:104050000E94BE54811169C0D8011C92512CDEC04F
:10406000807629F08FE2F801808311824CC0D7015D
:1040700054964D915D916D917C91579716968D91C7
:104080009C91179720E080960E944952009731F347
:10409000D7011496ED91FC911597EF70FF2725E05D
:1040A000EE0FFF1F2A95E1F77F01E80EF91EE114DC
:1040B000F104A1F2D70148E080E090E05EE22C91AB
:1040C0002032C9F0983039F49801280F311DF901D8
:1040D00050838F5F40E12C913FEB320F3A3128F44F
:1040E000F7013485342309F0205EB801680F711D93
:1040F000FB0120838F5F9F5F11969B3001F7F801D2
:10410000E80FF11D10825524539488C020E2F3017A
:1041100011922A95E9F720E1298321E02B83788702
:104120006F838D8F9E8FAF8FB8A3442443949DE0FF
:10413000292EC801880D991D9C01215031093CA3ED
:104140002BA3D70113968C911397841508F484CF71
:10415000C42CD12C14964D915C9115974C195D0986
:1041600060E070E085E0440F551F661F771F8A9559
:10417000D1F7C3010E94B053582E882309F46CCFA5
:1041800060E0C3010E9475545C01009709F464CF9C
:10419000FC0183858F3009F05FCF80818F7190E0C3
:1041A000C816D90609F058CFC6010197289E6001AC
:1041B000299ED00C112498012C0D3D1D3AA329A352
:1041C000312C632DC5010E948053009799F0C814CB
:1041D000D904D8F43FEFC31AD30A8F37910508F0FA
:1041E0008FE3A9A1BAA18D93BAA3A9A33394BDE08B
:1041F0003B12E7CFC814D90440F4F501808186FF53
:1042000004C0F801EC0DFD1D1082ABA1BCA11C92F5
:10421000F501808186FD02C0439493CF852DA4963D
:104220000FB6F894DEBF0FBECDBFDF91CF911F91C7
:104230000F91FF90EF90DF90CF90BF90AF909F9045
:104240008F907F906F905F904F903F902F90089548
:104250008F929F92AF92BF92CF92DF92EF92FF9296
:104260000F931F93CF93DF936B017C01142F9B015E
:10427000AC010E944369882319F061E173E027C013
:1042800046015701E894B7F82FEF3FEF4FE75FE79C
:10429000C501B4010E94436981110DC02FEF3FEFAA
:1042A0004FE75FE7C501B4010E945A6418161CF479
:1042B00065E173E00CC02FEF3FEF4FE75FE4C7010C
:1042C000B6010E94B168181694F469E173E08AEFB0
:1042D00095E0DF91CF911F910F91FF90EF90DF90CC
:1042E000CF90BF90AF909F908F900C947B4C2FEF0E
:1042F0003FEF4FE75FECC701B6010E945A6487FDAC
:10430000E4CF20E030E0A901C701B6010E945A6461
:1043100087FF09C08DE20E94514DEC01F7FAF0943D
:10432000F7F8F09402C0C0E0D0E000E060E070E098
:1043300080E09FE3101741F020E030E040E251E4DC
:104340000E944B670F5FF6CFA70196010E9451664E
:104350006B017C010E94C4674B015C014AE00E9432
:104360000E4DC80FD91F1123A9F1C501B4010E9438
:104370005F649B01AC01C701B6010E9450666B01EE
:104380007C018EE20E94514DC80FD91F20E030E021
:1043900040E251E4C701B6010E94C0644B015C01D8
:1043A0000E94C4676B01E12CF12C4AE0C701B60101
:1043B0000E940E4DC80FD91FC701B6010E945F644D
:1043C0009B01AC01C501B4010E9450666B017C01E8
:1043D0001150E1F6CE01DF91CF911F910F91FF9027
:1043E000EF90DF90CF90BF90AF909F908F90089507
:1043F00042E00C9428210F931F93CF93DF936AED33
:1044000073E08AEF95E00E94AE4C0AEC15E0C5E03F
:10441000D0E020E030E048EC52E4F80160817181A6
:10442000828193810E94C0640E94BD67AB01BC0180
:10443000CE010E943D4C20E030E048EC52E4F8010F
:1044400064817581868197810E94C0640E94BD67E6
:10445000AB01BC01CE0104960E943D4C2896005F42
:104460001F4FCD31D105A9F6DF91CF911F910F914B
:1044700008950F931F93CF93DF930E940F4265ED32
:1044800073E08AEF95E00E948F4CCFEBD2E00AEC0C
:1044900015E080E20E94514D89910E94514DF80132
:1044A00060857185828593850E94F821005F1F4F8A
:1044B000F2E0C23CDF0769F762ED73E08AEF95E056
:1044C0000E948F4C6091090270910A0280910B0248
:1044D00090910C020E94F8216FEC73E08AEF95E056
:1044E0000E948F4C60910502709106028091070234
:1044F000909108020E94F8218AEF95E0DF91CF9118
:104500001F910F910C948B4C0F931F93CF93DF93BC
:104510000AEC15E0CDE1D0E0CE010E94074C0E94EC
:10452000616420E030E048EC52E40E944B67F801FF
:1045300064877587868797872496005F1F4FC932E7
:10454000D10551F7DF91CF911F910F9108952F92CF
:104550003F924F925F926F927F928F929F92AF9213
:10456000BF92CF92DF92EF92FF920F931F93CF9360
:10457000DF93CDB7DEB7C856D1090FB6F894DEBFCA
:104580000FBECDBF9AAB89AB6A017B010BA71CA7FD
:104590002DA73EA78091BF049091C00401969C0175
:1045A0002F713327A1963FAF2EAFA1978091C10401
:1045B0009091C204A1964EAD5FADA1978417950767
:1045C000A9F30091BF041091C0048091BF049091A1
:1045D000C0049EAB8DABBE016F5F7F4F89A99AA9C6
:1045E0000E9461412091D2053091D3054091D405BC
:1045F0005091D50523962CAF3DAF4EAF5FAF2397BB
:104600008091E2059091E305A091E405B091E50564
:104610006B968CAF9DAFAEAFBFAF6B9781E7ADA987
:10462000BEA98A9F90018B9F300D1124F901EC5A8D
:10463000F54F2596FFAFEEAF2597E65BFF4F108253
:104640001182128213829E012F5F3F4F38AB2FA73A
:1046500025966EAC7FAC2597015011090F7111277B
:10466000809F1001819F300C112400E010E02F0189
:10467000AFA5B8A98D909D90AD90BD90B8ABAFA7F8
:10468000F30180829182A282B382F801E20DF31DD0
:10469000EC5AF54F80819181A281B381881A990AE1
:1046A000AA0ABB0AD30114968D929D92AD92BC9238
:1046B0001797D501C4018827B7FD83959927AA27A5
:1046C000BB27F301918B808BC501B4010E9461640B
:1046D0002AE037ED43E25CE30E94C0640E94BD67BC
:1046E000D30118966D937D938D939C931B97B7FE82
:1046F00008C0B094A09490948094811C911CA11C3B
:10470000B11CF30184869586A686B786F201808166
:104710009181A281B38188159905AA05BB0520F472
:1047200080829182A282B382B2E16B0E711C0E5E16
:104730001F4F0633110509F09BCFA9A9BAA9EAECCE
:10474000F5E04D915D916D917D9140875187628734
:104750007387709625E0EA3FF20799F781E74DA944
:104760005EA9849FF001859FF00D1124EC5AF54F4E
:10477000DF01A65BBF4F4D905D906D907C901397CD
:1047800056E0451651046104710410F40C947E2C1B
:1047900096961C928BA59CA5ADA5BEA586AB97ABA6
:1047A000A0AFB1AF9C01AD0160E070E080E89FE395
:1047B0000E944B676F966CAF7DAF8EAF9FAF6F97C8
:1047C000A70196010E94C0646B017C018091BF0427
:1047D0009091C0042091440530914505821B930BB4
:1047E000DC01AF71BB272B96BFAFAEAF2B97A701F4
:1047F000960160E074E284E799E40E944B670E94AE
:10480000BE684B015C012B968EAD9FAD2B97029736
:104810000E97B8F58091000290910102A0910202DA
:10482000B091030288169906AA06BB0650F58819AE
:104830009909AA09BB09BC01CD01660F771F881F22
:10484000991F2B96EEADFFAD2B979F01FF0F440BE9
:10485000550B0E94D965CA01B9010E945F640E948C
:10486000BE68680D791D8A1D9B1D0E945F649B01B7
:10487000AC0160E074E284E799E40E944B676B014D
:104880007C012BA53CA54DA55EA5C701B6010E94E4
:10489000C0646FAB78AF89AF9AAF81E72DA93EA90D
:1048A000829F8001839F100D11240C5A154F8FA9F0
:1048B00098ADA9ADBAADF80182AF93AFA4AFB5AFD3
:1048C000C301B2010E945F6429966CAF7DAF8EAFC9
:1048D0009FAF29979B01AC01C701B6010E94C0643C
:1048E0000E942F670E94C46761966CAF7DAF8EAF48
:1048F0009FAF6197F801E65AFF4F6083718382830F
:1049000093839E01235F3F4F67963FAF2EAF67971C
:1049100043EC54E05CAF4BAF63963FAF2EAF639771
:1049200000E010E0212C312C50E85BA78FE38FA72B
:104930002596EEADFFAD2597E00FF11F60857185DF
:10494000828593850E946164A70196010E94C064DC
:104950006396AEADBFAD63976D937D938D939D933D
:104960006396BFAFAEAF63974B015C01E894B7F8B5
:10497000EBADFCAD4190519061907190FCAFEBAF0D
:10498000A3019201C501B4010E94B168181694F404
:10499000A5019401C301B2010E944B675B014C0168
:1049A00091014BA55FA50E94B16818161CF0150176
:1049B0008BA69FA60E5E1F4F0633110509F0B8CFD8
:1049C00020E030E040E85FE3B1018BA59FA50E94A5
:1049D0005A6487FF4BC07E01F9E1EF0EF11C679628
:1049E0000EAD1FAD679791014BA55FA5D8016D91E5
:1049F0007D918D919C910E94C064F80161937193A7
:104A0000819391938F01EE16FF0669F781E72DA937
:104A10003EA9829F8001839F100D11240C5A154FCF
:104A20002FA938AD49AD5AADB1018BA59FA50E9404
:104A3000C064D801DA966D937D938D939C93DD9736
:104A4000065A1F4F61966CAD7DAD8EAD9FAD6197DF
:104A50000E945F6491014BA55FA50E94C0640E9403
:104A6000C467F8016083718382839383F0910502A8
:104A7000FBA7209106022FA7209007023090080282
:104A800023962CAD3DAD4EAD5FAD23976091CE0525
:104A90007091CF058091D0059091D1050E9450660C
:104AA0002B013C016B962CAD3DAD4EAD5FAD6B97D0
:104AB0006091DA057091DB058091DC059091DD0550
:104AC0000E9450666BAF7CAF8DAF9EAF9B01AC0177
:104AD0000E94C0646B017C01A3019201C301B20179
:104AE0000E94C064A70196010E9451660E94FF685F
:104AF00061966CAF7DAF8EAF9FAF619723962CAD63
:104B00003DAD4EAD5FAD23976091CA057091CB0569
:104B10008091CC059091CD050E9450666FAB78AF27
:104B200089AF9AAF9B01AC010E94C064A7019601B6
:104B30000E9451660E94FF6865966CAF7DAF8EAF94
:104B40009FAF659723962CAD3DAD4EAD5FAD2397DE
:104B5000A9A9BAA96D917D918D919C910E945066F1
:104B60004B015C016B962CAD3DAD4EAD5FAD6B97CF
:104B7000E9A9FAA964817581868197810E945066AE
:104B800069AB7AAB8BAB9CABA5019401C501B401B9
:104B90000E94C0646B017C0129A93AA94BA95CA9B8
:104BA000CA01B9010E94C0649B01AC01C701B601F2
:104BB0000E9451660E94FF686B017C0120E030E09A
:104BC000A9010E94B16818160CF0DFC061962CADE7
:104BD0003DAD4EAD5FAD6197C301B2010E944B6721
:104BE0002B013C0165962CAD3DAD4EAD5FAD65979B
:104BF0006FA978AD89AD9AAD0E944B6723966CAFD3
:104C00007DAF8EAF9FAF2397A7019601C501B40179
:104C10000E944B674B015C01A701960169A97AA923
:104C20008BA99CA90E944B6769AB7AAB8BAB9CAB01
:104C300020E030E045E754ECC301B2010E94C064BB
:104C40006B017C0161962CAD3DAD4EAD5FAD6197C2
:104C50006BAD7CAD8DAD9EAD0E944B67A5019401FF
:104C60000E94C0646FAB78AF89AF9AAF29A93AA907
:104C70004BA95CA9C301B2010E94C0649B01AC01B5
:104C80006FA978AD89AD9AAD0E9450669B01AC01C9
:104C9000C701B6010E944B673B018C0120E030E068
:104CA00045E754EC23966CAD7DAD8EAD9FAD23975B
:104CB0000E94C0646B017C0165962CAD3DAD4EAD8C
:104CC0005FAD65976BAD7CAD8DAD9EAD0E944B67C2
:104CD000A50194010E94C0644B015C0129A93AA975
:104CE0004BA95CA923966CAD7DAD8EAD9FAD23978E
:104CF0000E94C0649B01AC01C501B4010E945066D2
:104D00009B01AC01C701B6010E944B676B017C019E
:104D100020E030E0A901B301C8010E94B16820E0A1
:104D200030E0A901B601181674F4C7010E94B168F9
:104D3000181684F49601A701B301C8010E945A64B1
:104D400087FD08C005C0C7010E94B1681816ECF4C1
:104D5000360187012BA53FA5A101B301C8010E941F
:104D6000B16818167CF420E030E0A9016BA57FA59E
:104D7000C1010E94B168181644F01BA61FA6212C81
:104D8000312C03C06BA67FA6180129962CAD3DAD32
:104D90004EAD5FAD29976F966CAD7DAD8EAD9FAD7D
:104DA0006F970E94C06469AB7AAB8BAB9CAB9B01E5
:104DB000AC016BA57FA5C1010E94C0644B015C01E1
:104DC0000E942F670E94C4676B017C0100E010E025
:104DD0002596EEADFFAD2597E00FF11F4484558475
:104DE00066847784411451046104710409F43FC05E
:104DF000C701B6010E945F649B01AC01C501B4010B
:104E00000E945A6487FF33C0A501940129966CADB6
:104E10007DAD8EAD9FAD29970E94C0640E94C4678E
:104E20006BA77CA78DA79EA7A3019201C701B6011E
:104E30000E940A662BA53CA54DA55EA5261737073F
:104E400048075907A0F4CA01B9010E945F646B01C9
:104E50007C01C301B2010E945F649B01AC01C701E8
:104E6000B6010E944B670E94C4676B017C010E5E15
:104E70001F4F0633110509F0ABCF81E74DA95EA99D
:104E8000849F8001859F100D11240C5A154FF80145
:104E9000EA59FF4FC082D182E282F382C701B60194
:104EA0000E945F646B017C0129A93AA94BA95CA906
:104EB0000E944B67A5966CAF7DAF8EAF9FAFA59755
:104EC000F801EA5BFF4F608371838283938358010B
:104ED0005AE6A50EB11C2DEB37E346E051E4C701BD
:104EE000B6010E94C0640E94C467D5016D937D9392
:104EF0008D939C931397F801E25BFF4F1082118210
:104F000012821382F801F2ADFBAFD801DB96BC919F
:104F1000BFAFF801F4AD2696FFAF2697D801DD9616
:104F2000BC91BFABEFECF4E02F96FFAFEEAF2F9745
:104F30009E01275E3F4F3AA729A72F0167966EACC7
:104F40007FAC67973BAD3BA74FAD4FA726965FADB4
:104F5000269759AB2496BFAF249710E0D301CD908C
:104F6000DD90ED90FD903D01E894F7F8F20181901D
:104F70009190A190B1902F01A5019401C701B601B4
:104F80000E94B1681816F4F5112329F1A5019401C6
:104F90006BAD7FAD26968FAD26979FA90E94C0640A
:104FA0004B015C012BA53FA549A924965FAD249731
:104FB000C701B6010E94C0649B01AC01C501B401E8
:104FC0000E945A6487FF1DC0A7019601C501B40164
:104FD0000E944B6710C0A7019601C501B4010E9451
:104FE0004B679B01AC016BA57FA589A924969FAD5A
:104FF00024970E94C0646BA77FA789AB24969FAFBC
:10500000249711E029A53AA52615370509F0A6CF62
:105010002B964EAD5FAD2B97452B09F45CC1C0902C
:105020000E05D0900F05E0901005F09011052DEBC6
:1050300037E346E855E3B601C7010E94B168181688
:105040000CF049C19601A7016BAD7FAD26968FADDF
:1050500026979FA90E945A6487FD05C01C2D0D2D1F
:105060003E2C2F2C06C01BAD0FAD26963FAC2697CD
:105070002FA89601A701612F702F832D922D0E94DA
:105080004B67A9966CAF7DAF8EAF9FAFA99782E0BB
:1050900095E06D969FAF8EAF6D976796AEADBFAD45
:1050A00067976396BFAFAEAF639720E030E040E80C
:1050B0005FE32D962CAF3DAF4EAF5FAF2D97689657
:1050C0001FAE68976D96AEADBFAD6D972D913D91BA
:1050D0004D915D916D96BFAFAEAF6D97A9966CADDA
:1050E0007DAD8EAD9FADA9970E94C0646B017C0120
:1050F0006396EEADFFAD639781909190A190B190D2
:105100006396FFAFEEAF63976896FFAD6897FF2396
:10511000B1F02D962CAD3DAD4EAD5FAD2D970E94FB
:10512000C0646B017C012D962CAD3DAD4EAD5FADE5
:105130002D97C501B4010E94C0644B015C01A5011B
:105140009401C701B6010E94B16820E030E0A901D6
:1051500018162CF5C501B4010E94B16818164CF060
:1051600020E030E0A901C701B6010E945A6487FF20
:1051700005C0A5019401C701B60124C02401350171
:1051800077FA709477F87094A3019201C701B60181
:105190000E94B16818165CF52601370128C0C501C8
:1051A000B4010E945A6487FD09C020E030E0A901E3
:1051B000C701B6010E94B16818164CF4A701960108
:1051C000C501B4010E9450662B013C0110C02601AC
:1051D000370177FA709477F87094A3019201C501B2
:1051E000B4010E945A6487FD02C0240135012F9644
:1051F000AEADBFAD2F97CD90DD90ED90FD902F9689
:10520000BFAFAEAF2F97A7019601C301B2010E94B5
:10521000B1681816ECF4A3019201C701B6010E940F
:105220004B679B01AC012D966CAD7DAD8EAD9FADF6
:105230002D970E94C0642D966CAF7DAF8EAF9FAF4F
:105240002D976896BFAD6897BF5F6896BFAF6897A8
:10525000EEE0F5E06D962EAD3FAD6D97E217F307EA
:1052600009F030CF68963FAD6897332381F02D96D3
:105270002CAD3DAD4EAD5FAD2D97612F702F832DC1
:10528000922D0E94C064162F072F382E292E24EA53
:1052900030E74DE75FE3612F702F832D922D0E9441
:1052A000C0646B017C012091FE043091FF044091A9
:1052B0000005509101050E945A6487FF12C0A701A2
:1052C00096016BA57FA589A924969FAD24970E947E
:1052D000B168181634F41BA50FA539A824962FAC75
:1052E00024978BA59FA5A9A92496BFAD2497809349
:1052F000FE049093FF04A0930005B09301051D8E5A
:105300001E8E1F8E18A2A5968CAD9DADAEADBFAD05
:10531000A597B058898F9A8FAB8FBC8F81E74DA925
:105320005EA9849F7001859FF00C1124A701465748
:10533000554FBE01635E7F4FCE0149960E94DC3B14
:105340005B016C01F701EA56F54F812F902FA32DD9
:10535000B22D80839183A283B3839501A601612F2F
:10536000702F832D922D0E945A6487FD04C01A2D40
:105370000B2D3C2C2D2C81E7ADA9BEA98A9F900155
:105380008B9F300D11242C5A354FF901FE96812F39
:10539000902FA32DB22D80839183A283B3837901B3
:1053A000BEE6EB0EF11C992493949501A6016BAD1A
:1053B0007FAD26968FAD26979FA90E945A64181636
:1053C0000CF4912CF701908281E72DA93EA9829FD0
:1053D000F001839FF00D1124ED53F54F81E08083A0
:1053E0008BAD9FAD2696AFAD2697BFA980930E05D6
:1053F00090930F05A0931005B093110542E055E07E
:105400006796EEADFFAD679781919191A191B191B2
:105410006796FFAFEEAF6797FA0181939193A193DF
:10542000B193AF0129A53AA567968EAD9FAD679759
:105430002817390729F72BAD3FAD26964FAD269794
:105440005FA960E070E0CB010E944B676D8F7E8F9B
:105450008F8F98A32BAD3FAD26964FAD26975FA9B2
:10546000612F702F832D922D0E944B67698F7A8F49
:105470008B8F9C8F21E7ADA9BEA92A9FC0012B9FCE
:10548000900D1124AE01435E5F4FBE01675E7F4FFA
:105490008C5A954F0E94C8382091C1043091C204A3
:1054A0008091BF049091C0042817390731F484E635
:1054B00090E09093510A8093500AA196EEADFFAD13
:1054C000A197F093C004E093BF042091BF043091F2
:1054D000C0048091C1049091C2042817390709F4CF
:1054E000E1C00091BF041091C004015011090F7177
:1054F0001127E12CF12C8091C1049091C2048017F6
:10550000910709F4CFC0F1E7F09FC001F19F900D22
:1055100011249C012C5A354F69012115310509F4DC
:10552000BBC0F901EE5BFF4F30813DAB41814BA722
:1055300052815FA7838189AB34974080518062801C
:105540007380A30192016DA97BA58FA599A90E94E3
:105550005A6481110BC0E114F10409F49DC0F701F4
:10556000E159FF4F8081882309F496C0A1E7A09FED
:10557000C001A19F900D1124FC01EE53F54F208135
:1055800021115DC0FC01E657F54F1F01E114F10444
:1055900039F0F701FE9680819181A281B38103C029
:1055A00080E090E0DC01898F9A8FAB8FBC8F21E780
:1055B000209FF001219FF00D1124E656F54F8080C9
:1055C0009180A280B380B7FAB094B7F8B0948D8E72
:1055D0009E8EAF8EB8A2A101BE01675E7F4FCE0145
:1055E0004D960E94DC3B9B01AC016DA97BA58FA56C
:1055F00099A90E945A6487FD22C0E114F10439F090
:10560000F701FE9680819181A281B38103C080E081
:1056100090E0DC0189A39AA3ABA3BCA38DA29EA2B8
:10562000AFA2B8A6A101BE016F5D7F4FCE018596E6
:105630000E94DC3BF62EE72EB82EA92E04C0FDA852
:10564000EBA4BFA4A9A82F2D3E2D4B2D5A2DC3018D
:10565000B2010E945A648823F9F031E7309FC001FB
:10566000319F900D11248C5A954FFC01E159FF4F49
:1056700041E04083DC01A059BF4F2C91222311F05F
:1056800010820AC0FC01FE964F2D5E2D6B2D7A2DE7
:105690004083518362837383015011090F71112775
:1056A000760129CFC090C104D090C20400E010E080
:1056B00081E7282E332433948091BF049091C00455
:1056C0008C159D0509F462C02C9CC0012D9C900D89
:1056D0001124DC01AC5AB54F7D010115110509F407
:1056E0004DC0F801E259FF4F8081811147C0FD0193
:1056F000FE96FEABEDAB4080518062807380480126
:10570000FEE38F0E911CA3019201D4016D917D9156
:105710008D919C910E945A6487FF30C0F801EA5B2A
:10572000FF4F80819181A281B381B058898F9A8F78
:10573000AB8FBC8FA8014A5C5F4FB401CE01499684
:105740000E94DC3B4B015C019B01AC01C301B20137
:105750000E94B168181694F4F701E159FF4F3082A6
:10576000D701A059BF4F8C91882311F0108206C039
:10577000EDA9FEA980829182A282B382FFEFCF1AA7
:10578000DF0A2FE1C222DD24870196CFE090C10419
:10579000F090C204612C712CA12CB12C00E010E01F
:1057A0008091BF049091C0048E159F0509F46BC0D1
:1057B00031E73E9DC0013F9D900D1124AC014C5A34
:1057C000554F6A01FA01FE9650815DAB81818BA72E
:1057D00092819FA7A381A9AB0115110509F447C0C8
:1057E0004801BFE68B0E911CF4018081811106C037
:1057F000F601E159FF4F80818823B9F1E1E0D4013E
:10580000EC93F801E059FF4F808181112EC0D8013F
:10581000DA962D913D914D915C91DD9760E070E0BD
:1058200080E89FE30E944B671B012C019B01AC01A8
:105830006DA97BA58FA599A90E94C064698F7A8FF5
:105840008B8F9C8F9301A501C201B1010E94C0649E
:105850006D8F7E8F8F8F98A3AE01475E5F4FBE0125
:10586000635E7F4FC8010E94C838F4011082FFEFC9
:10587000EF1AFF0A2FE1E222FF246DA87BA4AFA458
:10588000B9A886018DCF01151105C1F178013FE658
:10589000E30EF11C81E0D7018C93F801E059FF4F32
:1058A0008081811129C0F80122AD33AD44AD55ADE1
:1058B00060E070E080E89FE30E944B671B012C01D1
:1058C00020E030E0A9010E94C064698F7A8F8B8F3D
:1058D0009C8FA2019101B301C5010E94C0646D8F2C
:1058E0007E8F8F8F98A3AE01475E5F4FBE01635ED0
:1058F0007F4FC8010E94C838D7011C92C859DF4F9A
:105900000FB6F894DEBF0FBECDBFDF91CF911F91D0
:105910000F91FF90EF90DF90CF90BF90AF909F904E
:105920008F907F906F905F904F903F902F90089551
:105930001F920F920FB60F9211240BB60F922F9257
:105940003F924F925F926F927F928F929F92AF920F
:10595000BF92CF92DF92EF92FF920F931F932F93FC
:105960003F934F935F936F937F938F939F93AF93E7
:10597000BF93CF93DF93EF93FF930E94103C8FEF81
:105980009FEF90938900809388006AE0D62E812C47
:10599000912C540178E5272E72E0372E80914F0A22
:1059A0008FBF8091400590914105A0914205B09133
:1059B0004305892B8A2B8B2B09F055C18091520A04
:1059C0009091530A892B09F44EC1C12C8091110288
:1059D000C81608F048C100911A0510911B05809166
:1059E0001C0590911D05080F191F10931B050093AE
:1059F0001A051016110624F460E081E10E94105986
:105A0000C0911605D0911705809118059091190540
:105A1000C80FD91FD0931705C09316051C161D0675
:105A200024F460E086E30E941059E0901205F090A3
:105A300013058091140590911505E80EF91EF0925A
:105A40001305E09212051016110654F580913C05DD
:105A500090913D05081B190B10931B0500931A0527
:105A60008091220590912305092E000CAA0BBB0BF7
:105A70004091F6045091F7046091F8047091F90494
:105A8000840F951FA61FB71F8093F6049093F70409
:105A9000A093F804B093F90461E081E10E941059E9
:105AA0001C161D0654F580913C0590913D05C81BC0
:105AB000D90BD0931705C0931605809120059091BE
:105AC0002105092E000CAA0BBB0B4091F20450914A
:105AD000F3046091F4047091F504840F951FA61FE0
