:100000000C94B4060C94E5060C94E5060C94E506F5
:100010000C94E5060C94E5060C94E5060C94E506B4
:100020000C94E5060C94E5060C94E5060C94E506A4
:100030000C94E5060C94E5060C94E5060C94E50694
:100040000C94E5060C94E22A0C94E5060C94E50663
:100050000C94E5060C94E5060C94E5060C94BD5C46
:100060000C94E5060C94414D0C94174D0C94E50648
:100070000C94E5060C94E5060C94E5060C94E50654
:100080000C944B1B0C94E5060C94E5060C94E506C9
:100090000C94E5060C94E5060C94E5060C94E50634
:1000A0000C94E5060C94E5060C941D1B0C94E506D7
:1000B0000C94E5060C94E5060C94E5060C94EF1AF6
:1000C0000C94E5060C94E5060C94E5060C94E50604
:1000D0000C94E5060C94E5060C94E5060C94E506F4
:1000E0000C94E5067C5A7F5A6E5A725A785AB65A60
:1000F000835A875A8D5A915A955A9B5A9F5AA35A96
:10010000B65AA95AAD5AB15A084AD73B3BCE016EEE
:1001100084BCBFFDC12F3D6C74319ABD56833DDA5E
:100120003D00C77F11BED9E4BB4C3E916BAAAABE6D
:10013000000000803F05A84CCDB2D44EB93836A996
:10014000020C50B9918688083CA6AAAA2ABE0000D3
:1001500000803F000C94B50F0C94075D0C942D406B
:100160000C94915A0C94700F0C94730F0C94250FEF
:100170000C94A84C0C94634C0C94AD5A0C948D4C7C
:100180000C9445400C94835A0C9466580C94B15AC4
:100190000C9407130C94B65A0C94D3370C945A1A37
:1001A0000C943D400C946E5A0C94940F0C94F54CA6
:1001B0000C9496580C94725A0C947F5A0C9489188B
:1001C0000C9499450C94A35A0C9435400C94A95A5C
:1001D0000C9414580C94D5400C947C5A0C94013B0C
:1001E0000C94040F0C947A580C94785A0C9424199B
:1001F0000C94F53F0C949F5A0C94853F0C94875AAD
:100200000C94ED3F0C946F0F0C940D400C94254012
:100210000C94A64C0C9405400C948D5A0C94BF1968
:100220000C94E4410C94F2570C9459580C94FD3FF3
:100230000C949B5A0C94C5580C94955A0C94261106
:100240000C9415400C94B9110C9406580C941D4054
:100250004E414E494E495459494E46CDCCCC3D0AAB
:10026000D7233C17B7D13877CC2B329595E6241F8E
:10027000B14F0A000020410000C84200401C462047
:10028000BCBE4CCA1B0E5AAEC59D744D32303320D5
:100290000041646A757374696E67206C696D697476
:1002A000732E0020537465703D0020737465707365
:1002B0002E204469723D002920002028004D6F76D1
:1002C000696E6720004431342000443530205300EB
:1002D0004C494D4954204D494E20004C494D4954FC
:1002E000204D415820004431302056004E4F4C499B
:1002F0004E454E554D004241444C494E454E554D9C
:100300002000536176696E67205549442E0024F41D
:10031000D43050C38E20C2A24017828B7011127A43
:10032000910D816CD90AA861E108C758660761512F
:1003300043061E4B5D05C145A7041A411104093D42
:100340009803713931034036DB0265339102D430B2
:100350005402802E1D02632CEE01752AC501B028BF
:10036000A001102781018F2564012B244B01E0227D
:100370003401AC211F018D200D01801FFC00841E63
:10038000ED00971DDF00B81CD200E61BC600201B45
:10039000BC00641AB200B219A8000A19A0006A18B9
:1003A0009900D117910040178B00B51684003116C3
:1003B0007E00B31579003A157300C7146F00581406
:1003C0006A00EE1366008813630025135E00C712EF
:1003D0005B006C12570015125400C11151007011CE
:1003E0004F0021114B00D61049008D1047004610D8
:1003F000440002104200C00F4000800F3E00420F38
:100400003C00060F3B00CB0E3800930E37005C0E0D
:100410003500270E3400F30D3200C10D3100900D70
:100420003000600D2E00320D2D00050D2C00D90C72
:100430002B00AE0C2900850C29005C0C2700350C24
:1004400027000E0C2600E80B2400C40B2400A00B90
:1004500023007D0B23005A0B2100390B2100180BC0
:100460002000F80A1F00D90A1E00BB0A1E009D0AC0
:100470001D00800A1D00630A1C00470A1B002C0A8D
:100480001B00110A1A00F7091A00DD091900C40936
:100490001900AB091900920917007B0918006309BC
:1004A00017004C09160036091600200916000A0923
:1004B0001500F5081500E0081400CC081400B80871
:1004C0001400A4081400900813007D0812006B08A3
:1004D00013005808120046081200340811002308BF
:1004E00011001208110001081100F0071000E007C8
:1004F0001000D0071000C0071000B0070F00A107C0
:10050000100091070E0083070F0074070F006507A6
:100510000E0057070E0049070E003B070D002E077F
:100520000E0020070D0013070D0006070D00F90649
:100530000C00ED060D00E0060C00D4060C00C80609
:100540000C00BC060C00B0060C00A4060B009906BB
:100550000C008D060B0082060B0077060B006C0664
:100560000B0061060A0057060B004C060A00420603
:100570000A0038060A002E060A0024060A001A0697
:100580000A001006090007060A00FD050900F40527
:100590000900EB050900E2050900D9050900D005AD
:1005A0000900C7050900BE050900B5050800AD052D
:1005B0000800A50509009C050800940508008C05A5
:1005C0000800840508007C050800740508006C0517
:1005D0000700650508005D050700560508004E0583
:1005E00007004705070040050800380507003105EA
:1005F00007002A050700230507001C05060016054D
:1006000007000F0507000805060002050700FB04A8
:100610000600F5040700EE040600E8040600E20404
:100620000700DB040600D5040600CF040600C90459
:100630000600C3040600BD040600B7040600B104AA
:100640000500AC040600A6040600A00405009B04F7
:10065000060095040500900406008A040500850440
:100660000500800406007A04050075040500700486
:1006700005006B04050066040500610405005C04C8
:10068000050057040500520405004D040500480408
:100690000500430405003E0404003A040500350447
:1006A0000500300404002C04050027040400230482
:1006B00005001E0404001A040400160405001104B9
:1006C00004000D04040009040500040404000004EF
:1006D0000400FC030400F8030400F4030400F00326
:1006E0000400EC030400E8030400E4030400E00356
:1006F0000400DC030400D8030400D4030400D00386
:100700000400CC030400C8030300C503030024F461
:1007100004D9201BC40C5C0E9804C4095F02650751
:100720007101F405F900FB04B30048048700C1031C
:1007300069005803550003034500BE023A008402D5
:10074000310053022A002902250004022000E4019E
:100750001C00C8011900AF011700980114008401A2
:100760001300710110006101100051010E004301DE
:100770000D0036010B002B010B0020010B001501B1
:1007800009000C01090003010800FB000800F30048
:100790000800EB000700E4000600DE000600D800B9
:1007A0000600D2000600CC000500C7000500C2000C
:1007B0000500BD000400B9000400B5000400B1004C
:1007C0000400AD000400A9000400A5000300A2007D
:1007D00003009F0004009B000300980003009500A5
:1007E000020093000300900003008D0002008B00C4
:1007F00003008800020086000200840003008100DC
:1008000002007F0002007D0002007B0002007900F0
:1008100002007700010076000200740002007200FE
:100820000100710002006F0002006D0001006C0009
:1008300002006A0001006900020067000100660012
:100840000100650001006400020062000100610017
:100850000100600001005F0002005D0001005C001B
:1008600001005B0001005A0001005900010058001E
:10087000010057000100560001005500010054001E
:10088000010053000000530001005200010051001C
:100890000100500001004F0001004E0000004E001A
:1008A00001004D0001004C0001004B0000004B0016
:1008B00001004A0001004900010048000000480012
:1008C000010047000100460000004600010045000D
:1008D0000000450001004400010043000000430007
:1008E0000100420000004200010041000000410000
:1008F0000100400001003F0000003F0001003E00F9
:1009000000003E0001003D0000003D0001003C00F1
:1009100000003C0000003C0001003B0000003B00E8
:1009200001003A0000003A000100390000003900DF
:1009300001003800000038000000380001003700D6
:1009400000003700010036000000360000003600CD
:1009500001003500000035000000350001003400C2
:1009600000003400000034000100330000003300B8
:1009700000003300010032000000320000003200AD
:1009800001003100000031000000310001003000A2
:10099000000030000000300001002F0000002F0098
:1009A00000002F0000002F0001002E0000002E008C
:1009B00000002E0001002D0000002D0000002D0081
:1009C00000002D0001002C0000002C0000002C0075
:1009D00000002C0001002B0000002B0000002B0069
:1009E00000002B0001002A0000002A0000002A005D
:1009F00000002A0001002900000029000000290051
:100A00000000290000002900010028000000280043
:100A10000000280000002800000028000100270036
:100A2000000027000000270000002700000027002A
:100A3000010026000000260000002600000026001D
:100A40000000260001002500000025000000250010
:100A50000000250000002500000025000100240002
:100A600000002400000024000000240000002400F6
:100A700001002300000023000000230000002300E9
:100A800000002300000023000000230001002200DA
:100A900000002200000022000000220000002200CE
:100AA00000002200010021000000210000002100C0
:100AB00000002100000021000000210000002100B2
:100AC00001002000000020000000200000002000A5
:100AD0000000200000002000000020000000200096
:100AE00001001F0000001F0000001F0000001F0089
:100AF00000001F0000001F0000001F0001001E007A
:100B000000001E0000001E0000001E000000446FD8
:100B10006E652E0046696E6420486F6D652E2E2E20
:100B20000061646465640072656D6F76656400429F
:100B300075696C742000486173204C434400547202
:100B4000792074686573652028776974682061204E
:100B50006E65776C696E65293A204730302C4730D6
:100B6000312C4730322C4730332C4730342C47322D
:100B7000382C4739302C4739312C4739322C4D31FC
:100B8000382C4D3130312C4D3130302C4D31313409
:100B900000506C65617365207365652068747470BE
:100BA0003A2F2F6D616B656C616E67656C6F2E639C
:100BB0006F6D2F20666F72206D6F726520696E6693
:100BC0006F726D6174696F6E2E000A0A48454C4C55
:100BD0004F20574F524C44212000202300492041F0
:100BE0004D20004669726D776172652076000A3E7D
:100BF0002000536176696E6720686F6D652E002056
:100C000052004438204C00536176696E672063615E
:100C10006C6962726174696F6E2E0020410020461B
:100C2000004D31313400290A0029202D2028004DA3
:100C3000313031202800536176696E67206C696D10
:100C40006974732E0000002100240027002A002D63
:100C5000003000330001010000040107010A010017
:100C6000002200250028002B002E00310034000255
:100C7000010000050108010B0100002000230026EF
:100C80000029002C002F00320000010000030106A3
:100C90000109010505050507050808080802020203
:100CA000020A0A0808040404040101010101010107
:100CB000010303030303030303040707070C0C0CDE
:100CC0000C0C0C0C0C0202020206060606060606B6
:100CD000060B0B0B0B0B0B0B0B0102102020080853
:100CE000102040102040800201020108040201018E
:100CF0000204081020408080402010080402018077
:100D000004020180402010080402010804020101CD
:100D100002040810204080010204081020408000D6
:100D2000000A0B02090C0D0E080703040100000065
:100D300000000000000000000000000000000000B3
:100D40000000000000000000000000121110000070
:100D50000000000000000000000000000000000093
:100D6000000000000000075D11241FBECFEFD1E29C
:100D7000DEBFCDBF00E00CBF14E0A0E0B2E0E8EBC6
:100D8000F1ED00E00BBF02C007900D92AC3BB10744
:100D9000D9F728E1ACEBB4E001C01D92AC3AB20740
:100DA000E1F716E0C4EBD6E000E006C021970109A8
:100DB000802FFE010E947C65C33BD10780E00807BD
:100DC000A9F70E94EB5D0C94DA680C9400002F9256
:100DD0003F924F925F926F927F928F929F92AF92CB
:100DE000BF92CF92DF92EF92FF920F931F93CF9318
:100DF000DF93CDB7DEB7C855D1090FB6F894DEBF83
:100E00000FBECDBF80913609882309F4E3C78B3329
:100E100009F4E0C78E34A1F540E050E060E87FEBD4
:100E20000E94561D0E94F166C090BD09D090BE0977
:100E3000E090BF09F090C0096C157D058E059F05F7
:100E400089F066EF72E089EF95E00E941A4A60919E
:100E5000BD097091BE098091BF099091C0090E949F
:100E6000E14A1CC3DC01CB010196A11DB11D809399
:100E7000BD099093BE09A093BF09B093C0090BC0F0
:100E80008091C20981FF07C06CEE72E089EF95E0A6
:100E90000E941A4A9FC7E6E3F9E001900020E9F7B3
:100EA000CF01885399407C01F7FC0AC0F701EA5C46
:100EB000F64F80818A3241F091E0E91AF108F4CFCF
:100EC000AA24AA94BA2C01C057018091C20981FFBB
:100ED00004C0EFEFAE16BE0629F0E6E3F9E0C12C40
:100EE000D12C03C063E672E017C3CF01865399404B
:100EF0008E159F051CF48191C826F7CFC701F7FE18
:100F000002C080E090E060E070E0895C964F0E9453
:100F1000C261AB20A094D9F00E94F1664B015C0144
:100F2000C616D706A1F06EE672E089EF95E00E9442
:100F30002F4BB601DD0C880B990B0E94E14A60E84B
:100F400072E089EF95E00E942F4BC40168C5F7015C
:100F5000EA5CF64F1082E6E3F9E001900020E9F741
:100F6000329780818B3309F4108243E050E067E8C8
:100F700072E086E399E00E94CC68892B79F460E204
:100F800070E086E399E00E94BA6801960E942263AD
:100F90009093C7058093C6050E94171D8DE40E949B
:100FA000291D882309F4D2C340E050E060E87FEBBC
:100FB0008DE40E94561D0E94F1666237710509F4A6
:100FC000F3C00CF049C06A32710509F4B4C00CF5E5
:100FD0006131710509F48AC09CF46630710509F02D
:100FE000F9C66091E80470E080E090E00E949363AD
:100FF000AB01BC0184E50E94561D1092E804EAC6CC
:101000006231710509F475C06431710509F474C069
:10101000E1C66536710509F4AAC03CF46436710571
:1010200009F0D8C60E94494BD5C66E36710509F441
:10103000A1C06037710509F0CDC68091BF049091C1
:10104000C0049093BE048093BD048BE892E00E949C
:101050009F400E940949BEC66C3221E0720709F424
:1010600060C2ACF46B3C710509F4DFC03CF4653739
:10107000710509F0AFC6E6E3F9E099C06D3C710572
:1010800009F401C1623E710509F40DC2A3C6653FB2
:1010900091E0790709F461C25CF4643F714009F0A2
:1010A00099C60E94171D0E94A9520E944B4A92C6DF
:1010B000663F21E0720709F453C2673F714009F0AF
:1010C00089C60E94314B0E941D4B6FE27BE089EF85
:1010D00095E00E941A4A6DEB72E089EF95E00E945C
:1010E000874A0E94E7520E94FE536BC40E94C74881
:1010F00071C60E94B9486EC68091BC04882309F469
:1011000069C60E949D1DCE0101960E94381FCE0126
:1011100005960E94431F882349F08D81827109F44E
:1011200041C6CE0105960E947D51F1CF8EEB96E02F
:101130000E947D514FC640E050E060E571E480E5DB
:101140000E94561D6B017C0140E050E0BA0183E52E
:101150000E94561D0E94F16611E0672B09F410E011
:10116000C701B6010E94F166862F612FF3C10E946C
:10117000E75230C66091BD097091BE098091BF09E8
:101180009091C0090E949563AB01BC018EE40E945E
:10119000561D0E94F1666093BD097093BE0980934D
:1011A000BF099093C00916C60E94FE5313C68F0153
:1011B0000653194081918D34D1F70B5F1F4FE6E341
:1011C000F9E001900020E9F73197E653F9400E1756
:1011D0001F0718F080E090E0FBC50A5C164FFE0187
:1011E00031965F01E12CF12C4F01F801D1908F0174
:1011F0008D2D0D2C000C990B0E949E68892B09F4F3
:10120000E2C5FDE0DF1609F4DEC52AE0D21609F4D6
:10121000DAC588E2E816F10409F4D5C5FFEFEF1A44
:10122000FF0AF501D1925F01E0CF6BE872E089EF30
:1012300095E00E941A4A0CE512E0F1ECEF2EF4E082
:10124000FF2EF801D1908F01F70140815181628119
:1012500073818D2D0E94561D4B015C01F701619336
:101260007193819391937F018D2D0E94DC4AC5017A
:10127000B4010E94A65280E20E94DC4AF2E00F35DF
:101280001F07F9F60BC14091CD045091CE04609137
:10129000CF047091D00488E50E94561D7B018C011B
:1012A00020E030E040E051E40E948E6387FF0EC0F2
:1012B00020E030E0A901B701C8010E94E5671816D7
:1012C0004CF0E12CF12C00E010E004C0E12CF12CFA
:1012D00000E011E4C701D8018093CD049093CE04BF
:1012E000A093CF04B093D00460EA72E089EF95E058
:1012F0000E942F4B6091CD047091CE048091CF0459
:101300009091D0040E94A6524091D1045091D204F1
:101310006091D3047091D40489E50E94561D7B012D
:101320008C0120E030E040E051E40E948E6387FFB2
:101330000EC020E030E0A901B701C8010E94E567B6
:1013400018164CF0E12CF12C00E010E004C0E12C68
:10135000F12C00E011E4C701D8018093D1049093EF
:10136000D204A093D304B093D40468E473E089EF6B
:1013700095E00E942F4B6091D1047091D20480912E
:10138000D3049091D4040E94A6524091D504509168
:10139000D6046091D7047091D8048AE50E94561D46
:1013A0007B018C0120E030E040E051E40E948E633C
:1013B00087FF0EC020E030E0A901B701C8010E94FC
:1013C000E56718164CF0E12CF12C00E010E004C0A9
:1013D000E12CF12C00E011E4C701D8018093D50481
:1013E0009093D604A093D704B093D80467EA72E030
:1013F00089EF95E00E942F4B6091D5047091D6043F
:101400008091D7049091D8040E94A6526091000266
:101410007091010280910202909103020E949363F5
:10142000AB01BC0182E40E94561D6B017C0120E0EF
:1014300034E244E759E40E948E6387FF0DC020E048
:1014400030E0A901C701B6010E94E56718164CF00B
:1014500060E070E0CB0109C060E472E48FE090E0EE
:1014600004C0C701B6010E94F86660930002709341
:10147000010280930202909303026AEA72E089EF0C
:1014800095E00E942F4B60910002709101028091C3
:101490000202909103024AE00E94994A89EF95E086
:1014A0000E94164A97C440E050E06CE272E480E586
:1014B0000E94561D0E94F166F62E062F172F0F3F31
:1014C0002FEF120709F486C440E050E060E87FEB9C
:1014D00083E50E94561D0E94F1666F3F8FEF7807EB
:1014E00029F48F2D0E94A85B7C0106C081E0672B48
:1014F00009F080E0E82EF12C6DEA72E089EF95E0CA
:101500000E942F4B802F0E94A85B8E159F05D1F360
:101510001092D90465EB72E089EF95E00E94874A4A
:1015200059C440E050E06AE773E480E50E94561D2C
:101530006B017C0161E08CE20E94D15BC701B601C6
:101540000E94F166072E000C880B990B0E94775CB5
:1015500060E08CE20E94D15B3DC40E9449543AC4D1
:1015600080E090E8A2EAB3E489839A83AB83BC83EA
:1015700080E090E8A2EAB3EC8D839E83AF83B887C6
:1015800080E090E0AAEFB3E489879A87AB87BC87B5
:1015900080E090E0AAEFB3EC8D879E87AF87B88B91
:1015A00080E090E0A4EBB2E4898B9A8BAB8BBC8B90
:1015B00080E090E0A0E2B2E48D8B9E8BAF8BB88F81
:1015C00061E972E089EF95E00E94394AFE013196A7
:1015D0007F0108EC15E0C12CD12C20E030E048EC74
:1015E00052E4F70160817181828193810E94F463EA
:1015F0000E94276720E030E048EC52E40E947F66BA
:101600004B015C01F80120813181428153810E94AC
:101610008E63882341F0F80180829182A282B38296
:10162000CC24C394D12C20E030E048EC52E4F70104
:1016300064817581868197810E94F4630E94276787
:1016400020E030E048EC52E40E947F664B015C01F0
:10165000F80124813581468157810E948E63882359
:1016600041F0F80184829582A682B782CC24C3948B
:10167000D12CF8E0EF0EF11C005F1F4F25E0083F72
:10168000120709F0AACFCD2811F00E94A95280E0DC
:1016900090E2A0E8B4E48093100290931102A0932A
:1016A0001202B093130280930C0290930D02A09348
:1016B0000E02B0930F020E94D054609110027091FC
:1016C000110280911202909113020E94F16669A7A3
:1016D0007AA78BA79CA760910C0270910D02809154
:1016E0000E0290910F020E94F1666DA77EA78FA750
:1016F00098AB6091F0057091F1058091F2059091A1
:10170000F3050E94F16669AB7AAB8BAB9CABBE0173
:10171000675B7F4FCE0189960E943235CE01875B91
:101720009F4F0E948E1519A61AA61BA61CA61DA6C1
:101730001EA61FA618AA80E090E0A4EBB2E489AB35
:101740009AABABABBCABCE01899638C184E40E94A6
:10175000291D882309F482C140E050E060E87FEB56
:1017600084E40E94561D0E94F1666830710509F4F8
:1017700028C10CF04FC06530710509F4F7C0DCF4E6
:10178000672B09F027C30E94C74884EE98E3AEE5B3
:10179000B2E48093DA049093DB04A093DC04B0936A
:1017A000DD046CE5262E62E0362E0EED14E0412CB1
:1017B000512C320168C06630710509F4DAC0673017
:1017C000710509F007C34091100250911102609118
:1017D0001202709113028CE40E94561D6093100255
:1017E00070931102809312029093130240910C02A5
:1017F00050910D0260910E0270910F0282E50E94DD
:10180000561D60930C0270930D0280930E0290930C
:101810000F02D7C06D30710509F404C18CF4693032
:10182000710509F4D1C06A30710509F0D3C266EEC2
:1018300072E089EF95E00E941A4A85E090E0EFC0DF
:101840006E30710509F4FFC06233710509F4BFC041
:10185000C1C240E050E0BA018F2D0E94561D0E9487
:10186000F1664B015C01672BA1F40B5F1F4FFFEF8B
:101870004F1A5F0A6F0A7F0A22E042165104610480
:10188000710409F4A7C2F101F1901F01FF2069F36F
:10189000E0CF6DEB72E089EF95E00E941A4A8F2D40
:1018A0000E94DC4A6AEB72E089EF95E00E941A4AD6
:1018B000C301B2010E94E14A67EB72E089EF95E053
:1018C0000E941A4AB401092C000C880B990B0E9443
:1018D000E14A6AEA72E089EF95E00E941A4AF8014B
:1018E000628170E080E090E04AE00E94994A63EAF9
:1018F00072E089EF95E00E941A4AF801618170E078
:1019000080E090E04AE00E94994A8AE00E94DC4A26
:10191000692D661F6627661FF80182810E94D15BD0
:10192000640197FE04C0CC24DD24C818D908E12C3A
:10193000F12CF801918061E0892D0E94D15B60E07B
:10194000892D0E94D15B6091DA047091DB04809153
:10195000DC049091DD040E94F1660E94CC1AFFEF36
:10196000EF1AFF0ACE14DF0421F77FCF0E941D4B30
:1019700031C248ECC42E45E0D42E52EDE52E52E0A3
:10198000F52E8E010F5F1F4F5801F60144855585D6
:1019900066857785F70181917F010E94561DF801C8
:1019A00061937193819391938F01F0E1CF0ED11CDC
:1019B00025EDE21622E0F20641F7C5010E947B15F3
:1019C00009C20E94025506C20E94D05403C28091EF
:1019D000C20981FB002700F910E0B801110F880B44
:1019E000990B0E949563AB01BC0183E50E94561DD3
:1019F0000E94F1668B018091C2090115110561F108
:101A000082608093C2096AEC72E089EF95E00E94DF
:101A10001A4A81E090E0012B11F480E090E00E94EE
:101A20000B4BD8C14091F0055091F1056091F20542
:101A30007091F3058AE50E94561D0E94F166CB0164
:101A40000E946748C7C165EC72E089EF95E00E948B
:101A50001A4A6AED72E060CD8D7FD3CF6091C109E3
:101A600070E080E090E00E949363AB01BC0187E4EA
:101A70000E94561D0E94F166262E862F972F2FEF6B
:101A80002093C1098430910509F431C14CF48230AE
:101A9000910509F420C10CF023C197FF23C09AC11E
:101AA0008A35910509F442C134F44C9709F092C18A
:101AB0000E94E9368FC18B35910509F43BC18C3505
:101AC000910509F087C108EC15E0FE0131967F0110
:101AD00082EDC82E82E0D82E5E01FDE0AF0EB11C73
:101AE00037012BC181E40E94291D882381F1409197
:101AF000140250911502609116027091170281E450
:101B00000E94561D6B017C0120E030E0A9010E947B
:101B1000E56718168CF420E030E04AEF54E4C70182
:101B2000B6010E948E6387FD0AC0C12CD12C3AEF0A
:101B3000E32E34E4F32E03C0C12CD12C7601C092E5
:101B40001402D0921502E0921602F0921702409110
:101B500018025091190260911A0270911B0286E4DA
:101B60000E94561D2B013C0120E030E0A9010E949B
:101B7000E56718168CF420E030E04AE754E4C3012E
:101B8000B2010E948E6387FD0AC0412C512C2AE7C6
:101B9000622E24E4722E03C0412C512C320108EC39
:101BA00015E0CE0101967C0192EDA92E92E0B92EAE
:101BB00066961FAE6697C12CD12C6896EFAE6897DB
:101BC0006996FFAE6997F80190848184F2856796E3
:101BD000FFAF6797F801338480910B02811104C035
:101BE00030E020E090E005C0940167969FAD6797D4
:101BF000832D432F522F692F782FF50181915F019B
:101C00000E94561D20910B02222329F0912C812C39
:101C1000F0E0E0E004C06796FFAD6797E32D292D63
:101C2000382D4F2F5E2F0E9485654701F701608395
:101C3000718382839383F8012081318142815381B2
:101C40000E94E56718166CF46BED72E089EF95E081
:101C50000E941A4AC6010E940B4BF1E06696FFAF44
:101C6000669724E0E20EF11CF8012481358146815B
:101C70005781F40160817181828193810E948E631A
:101C800087FF0DC060ED72E089EF95E00E941A4A6F
:101C9000C6010E940B4BF1E06696FFAF66972FEFEF
:101CA000C21AD20A005F1F4F83E0C816D10409F0A0
:101CB0008ACF66969FAD669791110AC0B301A201C3
:101CC00068968FAD689769969FAD69970E94C21517
:101CD0002092C1097FC081E00E94275582E004C0A4
:101CE0008FEF0E94275583E08093C10973C00E9443
:101CF000DD3640E050E0BA0183E50E94561D6B01DD
:101D00007C0140E050E0BA0180E50E94561D20E0D1
:101D100030E04AE754E40E94F463A70196010E9470
:101D200085650E94F1660E94CC1A54C081E08093C0
:101D30000B0250C010920B024DC0F8014084518438
:101D40008284938480910B02811104C030E020E0F2
:101D500090E004C0342D252D982D892D432F522F2E
:101D6000692F782FF60181916F010E94561D2091F5
:101D70000B02222321F0412C512C812C912C920119
:101D8000A4010E948565F7016193719381939193FA
:101D90007F01005F1F4FAE16BF0679F6C3010E9498
:101DA0008E1518C040E250E0BE01675D7F4FCE0146
:101DB00005960E94B51FBE01675D7F4F89EF95E0D4
:101DC0000E94874AAEC9F401EE0DFF1D1082C401C6
:101DD0000E949F40C85ADF4F0FB6F894DEBF0FBE77
:101DE000CDBFDF91CF911F910F91FF90EF90DF90CA
:101DF000CF90BF90AF909F908F907F906F905F90AB
:101E00004F903F902F900895109294181092C4050F
:101E100010928D181092761884E080937518809136
:101E20008C18882319F0815080938C18E0918C18BD
:101E300084E0E89FF0011124E858F74E82819381F5
:101E40009093741880937318089581E09091D90449
:101E5000913009F480E08093D9041092C405109267
:101E60008D181092761884E08093751880918C18E4
:101E7000882319F0815080938C18E0918C1884E0AD
:101E8000E89FF0011124E858F74E828193819093E6
:101E9000741880937318089580914C0A90914D0A9C
:101EA0000196843191052CF490934D0A80934C0A4D
:101EB000089510924D0A10924C0A80914A0A90910E
:101EC0004B0A0196843091052CF490934B0A809331
:101ED0004A0A089510924B0A10924A0A08950895EA
:101EE00080E090E008950E94B9481092C4051092D5
:101EF0008D181092761884E08093751880918C1854
:101F0000882319F0815080938C18E0918C1884E01C
:101F1000E89FF0011124E858F74E82819381909355
:101F200074188093731808950E94C7481092C405CE
:101F300010928D181092761884E080937518809115
:101F40008C18882319F0815080938C18E0918C189C
:101F500084E0E89FF0011124E858F74E82819381D4
:101F6000909374188093731808950E94E936109224
:101F7000C40510928D181092761884E0809375181D
:101F800080918C18882319F0815080938C18E091EF
:101F90008C1884E0E89FF0011124E858F74E828104
:101FA000938190937418809373180895CF92DF9261
:101FB000EF92FF920F931F93CF93DF936C018B01EE
:101FC0007A01EC01C751DB4F888187FF04C0FB0118
:101FD0001182108224C02CE02C9DC0012D9D900DFB
:101FE00011242881AC01420F511D27FD5A952091E3
:101FF0002F0A30E04217530794F42881AC01420FB6
:10200000511D27FD5A959A01FA01EE0FFF1F2E0F61
:102010003F1FF901ED53F64F208126FD19C088813D
:102020008F5F88832CE02C9DC0012D9D900D112485
:102030002881AC01420F511D27FD5A9520912F0A8E
:1020400030E042175307BCF428812C3044F113C010
:102050002881820F911D27FD9A95FC01EE0FFF1F2D
:102060008E0F9F1FFC01ED53F64F808160E08F7350
:102070000E94D15BD4CFF801808191810496803495
:102080009C4918F480E49CE904C0F80180819181A6
:102090000496F701918380838FEF888345C0F80110
:1020A000408151812881BC01620F711D27FD7A9505
:1020B0009B01FB01EE0FFF1F2E0F3F1FF901ED5398
:1020C000F64F21813281240F351FF70131832083A0
:1020D0002881AC01420F511D27FD5A959A01FA0142
:1020E000EE0FFF1F2E0F3F1FF901ED53F64F20811A
:1020F00026FF1AC02881820F911D27FD9A95FC01A9
:10210000EE0FFF1F8E0F9F1FFC01ED53F64F8081D6
:1021100061E08F73DF91CF911F910F91FF90EF904E
:10212000DF90CF900C94D15BDF91CF911F910F91F5
:10213000FF90EF90DF90CF900895CF93DF930E94B0
:10214000B15C8BE00E94A85BC1E0D0E0892B11F06C
:10215000C0E0D0E08CE00E94A85B892B19F080E001
:1021600090E002C082E090E08C2B9D2B2091EC044B
:102170003091ED0482179307F1F18130910501F15F
:102180001CF4009741F033C08230910559F0833040
:10219000910579F02CC021303105C1F02230310594
:1021A000E1F025C02115310589F023303105A9F072
:1021B0001EC02130310589F022303105C1F406C03E
:1021C0002115310551F02330310589F420918E1805
:1021D00030918F182F5F3F4F06C020918E1830919D
:1021E0008F182150310930938F1820938E189093B7
:1021F000ED048093EC048BE20E94A85B2091040222
:10220000022E000C330B8217930731F081309105B9
:1022100019F421E02093C40580930402DF91CF914B
:10222000089520914A0A30914B0A94E1929FF0015F
:10223000939FF00D1124EB5BFA4F20914C0A3091E3
:102240004D0AE20FF31F80830C944C0F8091C4055C
:102250008823F1F01092C40510928D181092761810
:1022600084E08093751880918C18882319F0815030
:1022700080938C18E0918C1884E0E89FF001112481
:10228000E858F74E82819381909374188093731865
:1022900060918E1870918F186115710539F1072EB4
:1022A000000C880B990B0E949563209118023091C5
:1022B000190240911A0250911B020E94856520E08C
:1022C00030E0A9010E94E567181624F080E090E054
:1022D000DC0104C080E090E0A0E8BFE38093180236
:1022E00090931902A0931A02B0931B0210924D0A08
:1022F00010924C0A10924B0A10924A0A86E40E94ED
:102300001111609118027091190280911A02909136
:102310001B0240E050E00C94DC5A1F93CF93DF93F4
:10232000EC0114E129912223A9F080914A0A9091AD
:102330004B0A189FF001199FF00D1124EB5BFA4F27
:1023400080914C0A90914D0AE80FF91F20830E945A
:102350004C0FE8CFDF91CF911F910895E5E4F5E0B0
:1023600080E2819395E0E639F907D9F71092950557
:102370000895CF93DF93CDB7DEB7CC55D1090FB613
:10238000F894DEBF0FBECDBF8091BC0481111EC08A
:102390001092C40510928D181092761884E08093E4
:1023A000751880918C18882319F0815080938C18AF
:1023B000E0918C1884E0E89FF0011124E858F74E72
:1023C00082819381909374188093731880918E18F2
:1023D00090918F18892B21F48091C405813019F4D4
:1023E00081E08093771880917718813009F005C1DA
:1023F0000E94AE111092C5058091761881114EC0D1
:1024000080917518882309F449C010924D0A1092E2
:102410004C0A10924B0A10924A0AE0918C1894E0F0
:10242000E99FF0011124E858F74E8181882311F0CB
:1024300080E201C08EE30E94111185EE92E00E94BD
:102440008D1180918C1894E0899FF0011124E85837
:10245000F74E21819091C505291320C09091C405A4
:102460009923E1F01092C40510928D1810927618FD
:1024700094E090937518882319F0815080938C18FC
:10248000E0918C1884E0E89FF0011124E858F74EA1
:102490008281938190937418809373188091C505FD
:1024A0008F5F8093C5050E949D1DCE0185960E9479
:1024B000381FCE0189960E94431F882301F189A508
:1024C0008271C1F442E150E0BE01675B7F4FCE01F3
:1024D00089960E94B51F8091C5059091761889173D
:1024E00020F0209175188217A8F08091C5058F5FA4
:1024F0008093C505CE0189960E947D51DACF8EEB7F
:1025000096E00E947D518091C50580938D181092B0
:10251000771873C010924D0A10924C0A282F30E0A1
:10252000291B310930934B0A20934A0AE0918C18F9
:1025300094E0E99FF0011124E858F74E9181891742
:1025400011F080E201C08EE30E941111CE01875B81
:102550009F4F0E948D1180918C1894E0899FF0010B
:102560001124E858F74E21819091C5052913BDCF5C
:102570009091C405913009F0B8CF50918D184091D9
:1025800076189091751820917318309174188823DB
:1025900069F0815094E0899FF0011124E858F74ECA
:1025A0002281338140E094E050E0F1CF1092C405E5
:1025B00050938D18409376189093751810928C183C
:1025C00030937418209373188FA198A59C838B83E4
:1025D00080E2FE01B996DE01159601900D928A9572
:1025E000E1F780E292E09A838983CE0101960E940E
:1025F000745B8EEB96E00E947D51C45ADF4F0FB69C
:10260000F894DEBF0FBECDBFDF91CF9108950E9439
:10261000AE111092C5058091761881114EC080913F
:102620007518882309F449C010924D0A10924C0A7B
:1026300010924B0A10924A0AE0918C1884E0E89FAD
:10264000F0011124E858F74E8181882311F080E2CF
:1026500001C08EE30E94111185EE92E00E948D115F
:1026600080918C1894E0899FF0011124E858F74E6E
:1026700021819091C505291320C09091C40599230B
:10268000E1F01092C40510928D181092761894E023
:1026900090937518882319F0815080938C18E091DD
:1026A0008C1884E0E89FF0011124E858F74E8281ED
:1026B000938190937418809373188091C5058F5FF0
:1026C0008093C50590917618891708F44EC0209123
:1026D0007518821708F049C010924D0A10924C0AE2
:1026E000282F30E0291B310930934B0A20934A0AE6
:1026F000E0918C1894E0E99FF0011124E858F74E1E
:102700009181891711F080E201C08EE30E941111BE
:102710008AEE92E00E948D11E0918C1884E0E89F8F
:10272000D0011124A858B74E11969C918091C505EF
:1027300098131BC08091C4058823B9F01092C4057A
:1027400010928D181092761884E080937518EF5FC0
:10275000E0938C1894E0E99FF0011124E858F74EBB
:102760001182108283E79FE0B7C18091C5058F5F1A
:102770008093C50590917618891708F44EC0209172
:102780007518821708F049C010924D0A10924C0A31
:10279000282F30E0291B310930934B0A20934A0A35
:1027A000E0918C1894E0E99FF0011124E858F74E6D
:1027B0009181891711F080E201C08EE30E9411110E
:1027C00089EF92E00E948D11E0918C1884E0E89FDF
:1027D000D0011124A858B74E11969C918091C5053F
:1027E00098131BC08091C4058823B9F01092C405CA
:1027F00010928D181092761884E080937518EF5F10
:10280000E0938C1894E0E99FF0011124E858F74E0A
:102810001182108284E99FE05FC18091C5058F5FBE
:102820008093C50590917618891708F44EC02091C1
:102830007518821708F049C010924D0A10924C0A80
:10284000282F30E0291B310930934B0A20934A0A84
:10285000E0918C1894E0E99FF0011124E858F74EBC
:102860009181891711F080E201C08EE30E9411115D
:1028700085EA92E00E948D11E0918C1884E0E89F37
:10288000D0011124A858B74E11969C918091C5058E
:1028900098131BC08091C4058823B9F01092C40519
:1028A00010928D181092761884E080937518EF5F5F
:1028B000E0938C1894E0E99FF0011124E858F74E5A
:1028C000118210828FEB99E107C18091C5058F5F5E
:1028D0008093C50590917618891708F44EC0209111
:1028E0007518821708F049C010924D0A10924C0AD0
:1028F000282F30E0291B310930934B0A20934A0AD4
:10290000E0918C1894E0E99FF0011124E858F74E0B
:102910009181891711F080E201C08EE30E941111AC
:1029200089E493E00E948D11E0918C1884E0E89F87
:10293000D0011124A858B74E11969C918091C505DD
:1029400098131BC08091C4058823B9F01092C40568
:1029500010928D181092761884E080937518EF5FAE
:10296000E0938C1894E0E99FF0011124E858F74EA9
:102970001182108284E299E1AFC08091C5058F5F1A
:102980008093C50590917618891708F44EC0209160
:102990007518821708F049C010924D0A10924C0A1F
:1029A000282F30E0291B310930934B0A20934A0A23
:1029B000E0918C1894E0E99FF0011124E858F74E5B
:1029C0009181891711F080E201C08EE30E941111FC
:1029D00088EA92E00E948D11E0918C1884E0E89FD3
:1029E000D0011124A858B74E11969C918091C5052D
:1029F00098131BC08091C4058823B9F01092C405B8
:102A000010928D181092761884E080937518EF5FFD
:102A1000E0938C1894E0E99FF0011124E858F74EF8
:102A20001182108289E898E157C08091C5058F5FB7
:102A30008093C50590917618891708F454C02091A9
:102A40007518821708F04FC010924D0A10924C0A68
:102A5000282F30E0291B310930934B0A20934A0A72
:102A6000E0918C1894E0E99FF0011124E858F74EAA
:102A70009181891711F080E201C08EE30E9411114B
:102A800087E093E00E948D11E0918C1884E0E89F2C
:102A9000D0011124A858B74E11969C918091C5057C
:102AA000981321C08091C4058823E9F01092C405D1
:102AB00010928D181092761884E080937518EF5F4D
:102AC000E0938C1894E0E99FF0011124E858F74E48
:102AD0001182108286E291E193838283909374182D
:102AE0008093731808958091C5058F5F8093C50505
:102AF00080938D180895E8ECF5E0DC014D915D912F
:102B00006D917D91CD014487558766877787709653
:102B1000B5E0E83FFB0789F70C944B4A0F931F93EE
:102B2000CF93DF93CDB7DEB72C970FB6F894DEBF07
:102B30000FBECDBF8C010E94DD36D801E8ECF5E078
:102B40004D915D916D917D9140875187628773872B
:102B5000709685E0E83FF80799F7BE016F5F7F4FF9
:102B6000C8010E942F36CE0101960E9477302C9624
:102B70000FB6F894DEBF0FBECDBFDF91CF911F918E
:102B80000F9108952F923F924F925F926F927F9292
:102B90008F929F92AF92BF92CF92DF92EF92FF926D
:102BA0000F931F93CF93DF93CDB7DEB76E970FB61A
:102BB000F894DEBF0FBECDBF382E292E6A017B01EF
:102BC000409318025093190260931A0270931B02EB
:102BD00060910A0270E080E090E00E9493632AE036
:102BE00037ED43E25CE30E94F463A70196010E9483
:102BF000F4636B017C0108EC15E0832C922CCE0170
:102C000001969C8F8B8FFE013D965F01412C512CCC
:102C10003201F8012085318542855385F5012193E4
:102C20003193419351935F01F401619171918191CD
:102C300091914F010E948465EB8DFC8D619371939E
:102C400081939193FC8FEB8F9B01AC010E94F46305
:102C50009B01AC01C301B2010E9485652B013C01BF
:102C6000005F1F4FF5E0083F1F0799F620E030E0B6
:102C7000A90169817A818B819C810E948E63811177
:102C80001FC020E030E0A9016D817E818F81988591
:102C90000E948E63811114C089849A84AB84BC84A1
:102CA00020E030E0A901C501B4010E94E5671816D3
:102CB00024F0B7FAB094B7F8B094950184019CC0A1
:102CC000C301B2010E9433682B013C0120E030E0D7
:102CD000A9010E94E56718165CF42DEB37E346E87E
:102CE00055E3C301B2010E948E6387FF0CC08AC006
:102CF0002DEB37E346E855EBC301B2010E94E567CF
:102D000018160CF47FC0A7019601C301B2010E94FE
:102D10007F6620E030E040E252E40E94F4630E94CB
:102D2000F8664B01672B19F488248394912CB40125
:102D300080E090E00E9493639B01AC0160E070E052
:102D400080E89FE30E947F666B8F7C8F8D8F9E8FC4
:102D50009B01AC01C301B2010E94F4632B013C0151
:102D60005E018DE0A80EB11C8E010F5F1F4F2B8DF1
:102D70003C8D4D8D5E8DF8016081718182819381E2
:102D80000E94F463F80161937193819391938F0191
:102D9000EA15FB0561F7CE0149969A8F898F91E07C
:102DA000891A910839F18E01035F1F4FFE01319698
:102DB0005F01F50121913191419151915F01F8013C
:102DC00060817181828193810E948565F8016193A0
:102DD0007193819391938F01898D9A8D8E179F079F
:102DE00041F793018201B701A601CE010D960E9421
:102DF000F120D5CF93018201B701A601832D922D39
:102E00000E94F1206E960FB6F894DEBF0FBECDBFC4
:102E1000DF91CF911F910F91FF90EF90DF90CF90B6
:102E2000BF90AF909F908F907F906F905F904F90EA
:102E30003F902F9008954F925F926F927F928F9262
:102E40009F92AF92BF92CF92DF92EF92FF920F9339
:102E50001F93CF93DF93CDB7DEB768970FB6F89483
:102E6000DEBF0FBECDBF8C016B017A010E94AE1197
:102E700010924D0A10924C0A10924B0A10924A0A74
:102E800080E193E00E948D11380117FF03C08FEF9E
:102E9000681A780A759467948601D7FE02C00F5F9E
:102EA0001F4F15950795EA94EF2829F4962D872D45
:102EB0003801092F182F8091D0059091D105A0914C
:102EC000D205B091D3058D879E87AF87B88B898354
:102ED0009A83AB83BC838091E0059091E105A0913A
:102EE000E205B091E305898B9A8BAB8BBC8B8D830C
:102EF0009E83AF83B88780E090E0A4EBB2E48D8B33
:102F00009E8BAF8BB88F89879A87AB87BC874091A0
:102F100018025091190260911A0270911B02CE01A1
:102F20000D960E94C2156627772766197709072E26
:102F3000000C880B990B0E9495634B015C016D8717
:102F40007E878F87988BB801012E000C880B990B18
:102F50000E9495636B017C01698B7A8B8B8B9C8BB8
:102F6000409118025091190260911A0270911B024F
:102F7000CE010D960E94C21580E090E0A0E2B2E47E
:102F80008D8B9E8BAF8BB88F409118025091190298
:102F900060911A0270911B02CE010D960E94C2151B
:102FA000B301770C880B990B0E9495632B013C01B0
:102FB0006D877E878F87988BC98ADA8AEB8AFC8A2D
:102FC000409118025091190260911A0270911B02EF
:102FD000CE010D960E94C2154D865E866F86788A58
:102FE00066277727601B710B072E000C880B990B47
:102FF0000E9495632B013C01698B7A8B8B8B9C8B98
:10300000409118025091190260911A0270911B02AE
:10301000CE010D960E94C2158D869E86AF86B88A17
:10302000498A5A8A6B8A7C8A409118025091190207
:1030300060911A0270911B02CE010D960E94C2157A
:103040008D869E86AF86B88AC98ADA8AEB8AFC8A20
:10305000409118025091190260911A0270911B025E
:10306000CE010D960E94C21580E090E0A4EBB2E480
:103070008D8B9E8BAF8BB88F4091180250911902A7
:1030800060911A0270911B02CE010D960E94C2152A
:10309000409118025091190260911A0270911B021E
:1030A000CE0101960E94C2151092C40510928D188F
:1030B0001092761884E08093751880918C1888237C
:1030C00019F0815080938C18E0918C1894E0E99F5E
:1030D000F0011124E858F74E82819381909374187F
:1030E0008093731868960FB6F894DEBF0FBECDBFFD
:1030F000DF91CF911F910F91FF90EF90DF90CF90D4
:10310000BF90AF909F908F907F906F905F904F9007
:1031100008950F931F93CF93DF93CDB7DEB72C970E
:103120000FB6F894DEBF0FBECDBF8091C4058823D3
:10313000F1F01092C40510928D181092761884E068
:103140008093751880918C18882319F08150809392
:103150008C18E0918C1884E0E89FF0011124E85865
:10316000F74E8281938190937418809373188091A5
:10317000D0059091D105A091D205B091D305898356
:103180009A83AB83BC838091E0059091E105A09187
:10319000E205B091E3058D839E83AF83B8870091EC
:1031A0008E1810918F18B801012E000C880B990B06
:1031B0000E9495632091F0053091F1054091F20550
:1031C0005091F3050E94856520E030E0A9010E943E
:1031D000E56718162CF080E090E0A0E8BFEB04C093
:1031E00080E090E0A0E8BFE389879A87AB87BC873F
:1031F000012B61F0409118025091190260911A025E
:1032000070911B02CE0101960E94C21510924D0AC8
:1032100010924C0A10924B0A10924A0A8AE50E94B8
:10322000111169857A858B859C8540E050E00E946C
:10323000DC5A2C960FB6F894DEBF0FBECDBFDF91DF
:10324000CF911F910F9108950F931F93CF93DF9309
:10325000CDB7DEB72C970FB6F894DEBF0FBECDBF4B
:103260008091C4058823F1F01092C40510928D1846
:103270001092761884E08093751880918C188823BA
:1032800019F0815080938C18E0918C1884E0E89FAD
:10329000F0011124E858F74E8281938190937418BD
:1032A000809373188091D0059091D105A091D2059B
:1032B000B091D30589839A83AB83BC8300918E1828
:1032C00010918F18B801012E000C880B990B0E94E9
:1032D00095632091E0053091E1054091E205509120
:1032E000E3050E94856520E030E0A9010E94E567C2
:1032F00018162CF080E090E0A0E8BFEB04C080E05E
:1033000090E0A0E8BFE38D839E83AF83B887809170
:10331000F0059091F105A091F205B091F305898730
:103320009A87AB87BC87012B61F0409118025091BE
:10333000190260911A0270911B02CE0101960E943F
:10334000C21510924D0A10924C0A10924B0A10921C
:103350004A0A89E50E9411116D817E818F819885CD
:1033600040E050E00E94DC5A2C960FB6F894DEBF85
:103370000FBECDBFDF91CF911F910F9108950F9395
:103380001F93CF93DF93CDB7DEB72C970FB6F8948A
:10339000DEBF0FBECDBF8091C4058823F1F010922F
:1033A000C40510928D181092761884E080937518D9
:1033B00080918C18882319F0815080938C18E091AB
:1033C0008C1884E0E89FF0011124E858F74E8281C0
:1033D0009381909374188093731800918E181091B4
:1033E0008F18B801012E000C880B990B0E94956371
:1033F0002091D0053091D1054091D2055091D3054F
:103400000E94856520E030E0A9010E94E56718165A
:103410002CF080E090E0A0E8BFEB04C080E090E0FA
:10342000A0E8BFE389839A83AB83BC838091E005E6
:103430009091E105A091E205B091E3058D839E8313
:10344000AF83B8878091F0059091F105A091F205C6
:10345000B091F30589879A87AB87BC87012B61F010
:10346000409118025091190260911A0270911B024A
:10347000CE0101960E94C21510924D0A10924C0A7C
:1034800010924B0A10924A0A88E50E941111698134
:103490007A818B819C8140E050E00E94DC5A2C961E
:1034A0000FB6F894DEBF0FBECDBFDF91CF911F9155
:1034B0000F910895CF93DF93CDB7DEB72C970FB65A
:1034C000F894DEBF0FBECDBF8091D0059091D1059D
:1034D000A091D205B091D30589839A83AB83BC8335
:1034E0008091E0059091E105A091E205B091E3059E
:1034F0008D839E83AF83B88720E030E044EB52E4B5
:103500006091F0057091F1058091F2059091F305BD
:103510000E948E63882329F080E090E0A4EBB2E45F
:1035200004C080E090E0A0E2B2E489879A87AB878C
:10353000BC87409118025091190260911A02709153
:103540001B02CE0101960E94C2151092C405109272
:103550008D181092761884E08093751880918C18DD
:10356000882319F0815080938C18E0918C1884E0A6
:10357000E89FF0011124E858F74E828193819093DF
:103580007418809373182C960FB6F894DEBF0FBE94
:10359000CDBFDF91CF910895CF92DF92EF92FF924E
:1035A00028EE33E040E050E00E94DB646B017C01D8
:1035B000CA01B9010E94775C82E0C816D10450F0BC
:1035C000CC0CDD1CCC0CDD1C85E0C81AD108C60172
:1035D0000197F1F7FF90EF90DF90CF9008951F9241
:1035E0000F920FB60F9211240BB60F922F933F93A9
:1035F0004F935F936F937F938F939F93AF93BF93FB
:10360000EF93FF9348E251E064E271E080E090E0E4
:103610000E94D60FFF91EF91BF91AF919F918F9133
:103620007F916F915F914F913F912F910F900BBEC2
:103630000F900FBE0F901F9018951F920F920FB60C
:103640000F9211240BB60F922F933F934F935F93DA
:103650006F937F938F939F93AF93BF93EF93FF935A
:1036600048EA50E064EA70E082E090E00E94D60F01
:10367000FF91EF91BF91AF919F918F917F916F914A
:103680005F914F913F912F910F900BBE0F900FBE06
:103690000F901F9018951F920F920FB60F92112442
:1036A0000BB60F922F933F934F935F936F937F933C
:1036B0008F939F93AF93BF93EF93FF9348E950E0AD
:1036C00064E970E081E090E00E94D60FFF91EF91F5
:1036D000BF91AF919F918F917F916F915F914F912A
:1036E0003F912F910F900BBE0F900FBE0F901F9028
:1036F0001895CF92DF92EF92FF920F931F93CF9383
:10370000DF93FC0180E2DF011D928A95E9F7DB017E
:103710001696CD91DC911797D783C6835583448342
:103720005C96CD90DD90ED90FC905F97C086D18641
:10373000E286F386DE0197964F70552795E0440F99
:10374000551F9A95E1F7A40FB51F1B968C911B97F7
:1037500083FD37C0877180831B969C911B9798715E
:1037600011F488608083238381E082834BA15CA174
:103770006DA17EA1448B558B668B778B54964D91B2
:103780005C91559760E070E0BA01552744275A963E
:103790000D911C915B9720E030E0402B512B622B68
:1037A000732B448F558F668F778F5C968D919D918B
:1037B0000D90BC91A02D808F918FA28FB38F81E04F
:1037C00003C01082128280E0DF91CF911F910F9190
:1037D000FF90EF90DF90CF9008952F923F924F92FD
:1037E0005F926F927F928F929F92AF92BF92CF9291
:1037F000DF92EF92FF920F931F93CF93DF9300D04E
:103800001F921F92CDB7DEB79B838A83FB01DC0139
:103810008C91807709F4F2C08091BE068111EEC0D0
:10382000A180B2808081837009F4D8C0C5010C9654
:103830006DE070E00E94686522242394260E6F01DB
:10384000EA80FB8040E050E0BA01C7010E94555079
:1038500019821D82312C1C82F6013696FB83EA8385
:10386000D70150964D905D906D907C90539761E09C
:10387000C7010E941A518C01009709F4BFC0FC01D6
:103880008081853E09F4B6C0882321F0321408F403
:10389000A8C009C0321408F0B1C03394882309F4D9
:1038A000ADC0853E11F08E3211F41C82D9CFD80103
:1038B0001B969C919F3009F04DC0BC81B11109C08D
:1038C00086FFCECF8F718D83F801F585F9838C83C8
:1038D0000BC02D8121502D838213E7CFD8011D9677
:1038E0008C91B9818B13E1CFED818E2F90E0019700
:1038F000FDE0F89F4001F99F900C11248A149B046D
:10390000A0F6712C672DC8010E942550A814B90497
:1039100021F4892B09F4A4CFC8CF8F3F910509F07A
:1039200020F62FEB280F2A3108F4805EA4014F5FA8
:103930005F4FD60113962D913C911497F901E80D34
:10394000F91D90812FEB290F2A3108F4905E98130E
:10395000ACCF49C093FDA9CFBC81BB2359F0ED8109
:10396000E13009F04BC0C8010E944650F981F813BC
:1039700045C00EC04BE050E06A817B81C8010E94C7
:10398000AD68892B09F06CCFD6018C9180FD68CF92
:10399000B301A20185E076956795579547958A957D
:1039A000D1F72C81B7018EEB96E00F900F900F901E
:1039B0000F900F90DF91CF911F910F91FF90EF909B
:1039C000DF90CF90BF90AF909F908F907F906F903F
:1039D0005F904F903F902F900C94791B222423945A
:1039E0002ECF312C60CF7394BDE07B1609F438CF15
:1039F0004A0188CF321408F058CF4FCF80E00F90A3
:103A00000F900F900F900F90DF91CF911F910F911A
:103A1000FF90EF90DF90CF90BF90AF909F908F90EE
:103A20007F906F905F904F903F902F90089562E04D
:103A300073E089EF95E00E94394A4091C6055091A4
:103A4000C705052E000C660B770B81E090E00C9407
:103A5000C849EF92FF920F931F93CF93DF9320916A
:103A6000B7093091B809A9014A5C564F7A0106E3BB
:103A700019E0C82F880FDD0B0E151F0578F4F8012B
:103A800081918F018B3351F0082E000C990B0E940D
:103A9000A5688C179D0781F781E001C080E0DF9168
:103AA000CF911F910F91FF90EF9008958F929F9269
:103AB000AF92BF92CF92DF92EF92FF920F931F933C
:103AC000CF93DF934A015B012091B7093091B80988
:103AD000A9014A5C564F7A01C6E3D9E0082F880F46
:103AE000110BCE15DF05D0F489918B33B9F0082E78
:103AF000000C990B0E94A5688017910791F7CE01E1
:103B0000DF91CF911F910F91FF90EF90DF90CF90B9
:103B1000BF90AF909F908F900C941E63C501B4012D
:103B2000DF91CF911F910F91FF90EF90DF90CF9099
:103B3000BF90AF909F908F9008953F924F925F9269
:103B40006F927F928F929F92AF92BF92CF92DF92AD
:103B5000EF92FF920F931F93CF93DF93CDB7DEB712
:103B6000E1970FB6F894DEBF0FBECDBFE091EE0433
:103B7000F091EF04309709F42EC119821A821B824A
:103B80008091BE06811127C1E95DFD4F808180775C
:103B900009F421C1A2E2B3E08D018D918F32E1F3EE
:103BA00066817781811105C08EEB96E00E9463519A
:103BB00047C1CE0101960E946351882309F40BC1CD
:103BC0007E0162E3E60EF11CB0E2BB2E99249394D1
:103BD000F8019F012F5F3F4F8081803211F4F9017E
:103BE000F8CFFDA3ECA39F01A9014E1B5F0B890138
:103BF000D9018D919D01882341F18F3221F4CF01AC
:103C0000840F951F1BC08C3509F4E5C0982F977F52
:103C1000923209F4E0C08A3309F4DDC0982F9F7B0B
:103C20009C3309F4D8C092EC980F923008F4D3C0BA
:103C300080528F35C8F2CFC02F3239F48C01DC01AD
:103C40002D91CD012032C1F7F9CFDA01AE0FBF1FA0
:103C5000AD014E1B5F0BEA17FB0759F08E918E32B8
:103C6000B9F38032A9F34F3F510511F00CF0B3C006
:103C700002C040E050E05BA34AA3DE0197966D01CD
:103C8000BD92AE15BF05E1F7DF01CD018E1B9F0B85
:103C90002D912E32D1F32032C1F3AA24A3940097A0
:103CA00009F0A12C9A0121503109DF01A40FB51FA1
:103CB0002F3F6FEF360749F46EA0712C77E0872E07
:103CC00070E0412CA8E05A2E3CC06E916E32A1F3F8
:103CD00021503109EDCFDF01A80FB91F6C9160327F
:103CE00009F456C06E3289F52817390709F050C01B
:103CF000A6EDA60FA63070F1A6ECA60FA63060F1D7
:103D0000A5EAA60FA33040F1AFEDA60FAE3520F522
:103D10002817390709F48EC0871660F1A62FBFE96E
:103D2000B60FBA3110F56052752833243394370E2C
:103D3000D601A70FB11D6C93A6E0A31558F5732DFE
:103D40000196841795073CF228C0623229F06C373F
:103D500079F602C06D3281F22817390709F460C084
:103D6000871640F06FE5A12CAFE5A154AA31E8F623
:103D70004528DBCFAAE08A1609F45FC02817390767
:103D80000CF45BC0C901BAE08B2E78E060E1562EDE
:103D9000A12CD6CF632C732DD3CF6EA28FA18032EE
:103DA000D1F0AA2039F0472011F4872D01C082E01C
:103DB00089A313C099A28EA190E0F601E80FF91F24
:103DC0002EE72083E8E2F0E0EC0FFD1FE80FF91F7B
:103DD00021E3208302C080E033C0F8018081882382
:103DE000B9F0BE016F5D7F4FCE0101960E94ED1BC1
:103DF000882389F380E2EEEBF6E0DE011196019074
:103E00000D928A95E1F78EEB96E00E947D51E0CE0F
:103E1000BE016F5D7F4FCE0101960E94ED1B10C069
:103E20006AE0861651F0C9016AE0862E78E0A0E1CA
:103E30005A2E86CF8AE08812F6CF6EA2A12CAECF82
:103E4000E1960FB6F894DEBF0FBECDBFDF91CF91E4
:103E50001F910F91FF90EF90DF90CF90BF90AF90A8
:103E60009F908F907F906F905F904F903F900895BC
:103E7000FC011382128214821582168280E292E083
:103E8000918380830895CF92DF92EF92FF920F93F8
:103E90001F93CF93DF93FC01808181115CC09091CF
:103EA000BE06907709F457C04091CE065091CF06D8
:103EB0006091D0067091D1064F71552766277727FC
:103EC000452B462B472B09F046C08F01C0E0D0E0C0
:103ED000C090CE06D090CF06E090D006F090D106EC
:103EE00060E08EEB96E00E941A510097A1F1FC0170
:103EF0002081222381F12E3211F4C0E0E9CF253E4A
:103F0000E1F3338533FD07C0CC2371F00E944650A6
:103F10008D1321C009C03F3081F726FFD9CFC22FB2
:103F2000CF71FC01D585D4CFB701A60185E0769588
:103F30006795579547958A95D1F72C2F6EEB76E0CC
:103F4000C801DF91CF911F910F91FF90EF90DF900B
:103F5000CF900C94791B80E0DF91CF911F910F914E
:103F6000FF90EF90DF90CF9008952F923F924F9265
:103F70005F926F927F928F929F92AF92BF92CF92F9
:103F8000DF92EF92FF920F931F93CF93DF93CDB702
:103F9000DEB7A4970FB6F894DEBF0FBECDBF7C018D
:103FA0008B014A0119821A821B82DC018C918823C1
:103FB000E1F04D305105C8F0F70193819923C9F024
:103FC000F70180859185A285B385668177819E0101
:103FD0002F5F3F4F39010097A105B10509F05FC080
:103FE000C9010E946351811169C0D8011C92512CF2
:103FF000DEC0807629F08FE2F801808311824CC008
:10400000D70154964D915D916D917C91579716967D
:104010008D919C91179720E080960E94EE4E00971C
:1040200031F3D7011496ED91FC911597EF70FF27AE
:1040300025E0EE0FFF1F2A95E1F77F01E80EF91E3C
:10404000E114F104A1F2D70148E080E090E05EE2E3
:104050002C912032C9F0983039F49801280F311D85
:10406000F90150838F5F40E12C913FEB320F3A31E1
:1040700028F4F7013485342309F0205EB801680F75
:10408000711DFB0120838F5F9F5F11969B3001F7AD
:10409000F801E80FF11D10825524539488C020E2E6
:1040A000F30111922A95E9F720E1298321E02B837E
:1040B00078876F838D8F9E8FAF8FB8A344244394EE
:1040C0009DE0292EC801880D991D9C0121503109C0
:1040D0003CA32BA3D70113968C911397841508F456
:1040E00084CFC42CD12C14964D915C9115974C190A
:1040F0005D0960E070E085E0440F551F661F771F83
:104100008A95D1F7C3010E945550582E882309F48F
:104110006CCF60E0C3010E941A515C01009709F462
:1041200064CFFC0183858F3009F05FCF80818F7170
:1041300090E0C816D90609F058CFC6010197289E0D
:104140006001299ED00C112498012C0D3D1D3AA32D
:1041500029A3312C632DC5010E942550009799F0A9
:10416000C814D904D8F43FEFC31AD30A8F37910586
:1041700008F08FE3A9A1BAA18D93BAA3A9A33394A0
:10418000BDE03B12E7CFC814D90440F4F5018081AB
:1041900086FF04C0F801EC0DFD1D1082ABA1BCA18F
:1041A0001C92F501808186FD02C0439493CF852D3A
:1041B000A4960FB6F894DEBF0FBECDBFDF91CF91AE
:1041C0001F910F91FF90EF90DF90CF90BF90AF9035
:1041D0009F908F907F906F905F904F903F902F9027
:1041E00008952F923F924F925F926F927F928F929B
:1041F0009F92AF92BF92CF92DF92EF92FF920F9376
:104200001F93CF93DF93CDB7DEB7C856D1090FB652
:10421000F894DEBF0FBECDBF9AAB89AB6A017B01BC
:104220000BA71CA72DA73EA78091BD049091BE04AB
:1042300001969C012F713327A1963FAF2EAFA19716
:104240008091BF049091C004A1964EAD5FADA1973F
:1042500084179507A9F30091BD041091BE048091C5
:10426000BD049091BE049EAB8DABBE016F5F7F4FCE
:1042700089A99AA90E942F362091D0053091D105A5
:104280004091D2055091D30523962CAF3DAF4EAF50
:104290005FAF23978091E0059091E105A091E20541
:1042A000B091E3056B968CAF9DAFAEAFBFAF6B9790
:1042B00081E7ADA9BEA98A9F90018B9F300D112483
:1042C000F901ED5AF54F2596FFAFEEAF2597E65B66
:1042D000FF4F10821182128213829E012F5F3F4F87
:1042E00038AB2FA725966EAC7FAC259701501109EE
:1042F0000F711127809F1001819F300C112400E065
:1043000010E02F01AFA5B8A98D909D90AD90BD9004
:10431000B8ABAFA7F30180829182A282B382F80189
:10432000E20DF31DED5AF54F80819181A281B38199
:10433000881A990AAA0ABB0AD30114968D929D92F3
:10434000AD92BC921797D501C4018827B7FD83951C
:104350009927AA27BB27F301918B808BC501B40154
:104360000E9495632AE037ED43E25CE30E94F46328
:104370000E94F166D30118966D937D938D939C9363
:104380001B97B7FE08C0B094A09490948094811CB1
:10439000911CA11CB11CF30184869586A686B78664
:1043A000F20180819181A281B38188159905AA05C6
:1043B000BB0520F480829182A282B382B2E16B0EAF
:1043C000711C0E5E1F4F0633110509F09BCFA9A982
:1043D000BAA9E8ECF5E04D915D916D917D91408732
:1043E000518762877387709625E0E83FF20799F757
:1043F00081E74DA95EA9849FF001859FF00D1124EE
:10440000ED5AF54FDF01A65BBF4F4D905D906D906B
:104410007C90139756E0451651046104710410F422
:104420000C94C82A96961C928BA59CA5ADA5BEA5FA
:1044300086AB97ABA0AFB1AF9C01AD0160E070E07F
:1044400080E89FE30E947F666F966CAF7DAF8EAF72
:104450009FAF6F97A70196010E94F4636B017C01E7
:104460008091BD049091BE04209142053091430596
:10447000821B930BDC01AF71BB272B96BFAFAEAF96
:104480002B97A701960160E074E284E799E40E940B
:104490007F660E94F2674B015C012B968EAD9FAD4B
:1044A0002B9702970E97B8F5809100029091010228
:1044B000A0910202B091030288169906AA06BB06D3
:1044C00050F588199909AA09BB09BC01CD01660FED
:1044D000771F881F991F2B96EEADFFAD2B979F017D
:1044E000FF0F440B550B0E940D65CA01B9010E94D4
:1044F00093630E94F267680D791D8A1D9B1D0E94BF
:1045000093639B01AC0160E074E284E799E40E944C
:104510007F666B017C012BA53CA54DA55EA5C7015F
:10452000B6010E94F4636FAB78AF89AF9AAF81E7B1
:104530002DA93EA9829F8001839F100D11240D5A41
:10454000154F8FA998ADA9ADBAADF80182AF93AF61
:10455000A4AFB5AFC301B2010E94936329966CAFBB
:104560007DAF8EAF9FAF29979B01AC01C701B6010C
:104570000E94F4630E9463660E94F86661966CAFC5
:104580007DAF8EAF9FAF6197F801E65AFF4F608312
:104590007183828393839E01235F3F4F67963FAF72
:1045A0002EAF679741EC54E05CAF4BAF63963FAFE3
:1045B0002EAF639700E010E0212C312C50E85BA770
:1045C0008FE38FA72596EEADFFAD2597E00FF11F86
:1045D00060857185828593850E949563A701960108
:1045E0000E94F4636396AEADBFAD63976D937D9308
:1045F0008D939D936396BFAFAEAF63974B015C0104
:10460000E894B7F8EBADFCAD41905190619071909A
:10461000FCAFEBAFA3019201C501B4010E94E567B5
:10462000181694F4A5019401C301B2010E947F669B
:104630005B014C0191014BA55FA50E94E56718162F
:104640001CF015018BA69FA60E5E1F4F06331105A9
:1046500009F0B8CF20E030E040E85FE3B1018BA57E
:104660009FA50E948E6387FF4BC07E01F9E1EF0E8C
:10467000F11C67960EAD1FAD679791014BA55FA525
:10468000D8016D917D918D919C910E94F463F80108
:1046900061937193819391938F01EE16FF0669F7F1
:1046A00081E72DA93EA9829F8001839F100D1124CF
:1046B0000D5A154F2FA938AD49AD5AADB1018BA593
:1046C0009FA50E94F463D801DA966D937D938D9334
:1046D0009C93DD97065A1F4F61966CAD7DAD8EADF4
:1046E0009FAD61970E94936391014BA55FA50E94C6
:1046F000F4630E94F866F801608371838283938378
:10470000F0911402FBA7209115022FA7209016020A
:104710003090170223962CAD3DAD4EAD5FAD239783
:104720006091CC057091CD058091CE059091CF051B
:104730000E9484652B013C016B962CAD3DAD4EADC6
:104740005FAD6B976091D8057091D9058091DA05BE
:104750009091DB050E9484656BAF7CAF8DAF9EAFFF
:104760009B01AC010E94F4636B017C01A3019201E7
:10477000C301B2010E94F463A70196010E948565FE
:104780000E94336861966CAF7DAF8EAF9FAF61972B
:1047900023962CAD3DAD4EAD5FAD23976091C8051E
:1047A0007091C9058091CA059091CB050E948465DE
:1047B0006FAB78AF89AF9AAF9B01AC010E94F463F5
:1047C000A70196010E9485650E94336865966CAFCB
:1047D0007DAF8EAF9FAF659723962CAD3DAD4EADAF
:1047E0005FAD2397A9A9BAA96D917D918D919C91F7
:1047F0000E9484654B015C016B962CAD3DAD4EADC6
:104800005FAD6B97E9A9FAA964817581868197816B
:104810000E94846569AB7AAB8BAB9CABA50194011C
:10482000C501B4010E94F4636B017C0129A93AA976
:104830004BA95CA9CA01B9010E94F4639B01AC01B8
:10484000C701B6010E9485650E9433686B017C0137
:1048500020E030E0A9010E94E56718160CF0DFC0E7
:1048600061962CAD3DAD4EAD5FAD6197C301B20118
:104870000E947F662B013C0165962CAD3DAD4EAD8F
:104880005FAD65976FA978AD89AD9AAD0E947F66DF
:1048900023966CAF7DAF8EAF9FAF2397A701960194
:1048A000C501B4010E947F664B015C01A70196011E
:1048B00069A97AA98BA99CA90E947F6669AB7AAB8A
:1048C0008BAB9CAB20E030E045E754ECC301B20178
:1048D0000E94F4636B017C0161962CAD3DAD4EAD41
:1048E0005FAD61976BAD7CAD8DAD9EAD0E947F6677
:1048F000A50194010E94F4636FAB78AF89AF9AAFC2
:1049000029A93AA94BA95CA9C301B2010E94F46389
:104910009B01AC016FA978AD89AD9AAD0E94846509
:104920009B01AC01C701B6010E947F663B018C016F
:1049300020E030E045E754EC23966CAD7DAD8EADC4
:104940009FAD23970E94F4636B017C0165962CADAB
:104950003DAD4EAD5FAD65976BAD7CAD8DAD9EADA4
:104960000E947F66A50194010E94F4634B015C01E3
:1049700029A93AA94BA95CA923966CAD7DAD8EAD52
:104980009FAD23970E94F4639B01AC01C501B40164
:104990000E9484659B01AC01C701B6010E947F663D
:1049A0006B017C0120E030E0A901B301C8010E9445
:1049B000E56720E030E0A901B601181674F4C701DC
:1049C0000E94E567181684F49601A701B301C80197
:1049D0000E948E6387FD08C005C0C7010E94E5677D
:1049E0001816ECF4360187012BA53FA5A101B301F0
:1049F000C8010E94E56718167CF420E030E0A901A8
:104A00006BA57FA5C1010E94E567181644F01BA69F
:104A10001FA6212C312C03C06BA67FA61801299656
:104A20002CAD3DAD4EAD5FAD29976F966CAD7DADB4
:104A30008EAD9FAD6F970E94F46369AB7AAB8BAB81
:104A40009CAB9B01AC016BA57FA5C1010E94F463E7
:104A50004B015C010E9463660E94F8666B017C0159
:104A600000E010E02596EEADFFAD2597E00FF11FB9
:104A7000448455846684778441145104610471042C
:104A800009F43FC0C701B6010E9493639B01AC01CA
:104A9000C501B4010E948E6387FF33C0A501940154
:104AA00029966CAD7DAD8EAD9FAD29970E94F463C4
:104AB0000E94F8666BA77CA78DA79EA7A301920111
:104AC000C701B6010E943E652BA53CA54DA55EA57C
:104AD0002617370748075907A0F4CA01B9010E94F1
:104AE00093636B017C01C301B2010E9493639B013C
:104AF000AC01C701B6010E947F660E94F8666B0197
:104B00007C010E5E1F4F0633110509F0ABCF81E724
:104B10004DA95EA9849F8001859F100D11240D5A17
:104B2000154FF801EA59FF4FC082D182E282F38229
:104B3000C701B6010E9493636B017C0129A93AA9C0
:104B40004BA95CA90E947F66A5966CAF7DAF8EAF26
:104B50009FAFA597F801EA5BFF4F60837183828363
:104B6000938358015AE6A50EB11C2DEB37E346E0BE
:104B700051E4C701B6010E94F4630E94F866D501B2
:104B80006D937D938D939C931397F801E25BFF4F98
:104B90001082118212821382F801F2ADFBAFD801AC
:104BA000DB96BC91BFAFF801F4AD2696FFAF269718
:104BB000D801DD96BC91BFABEDECF4E02F96FFAFD2
:104BC000EEAF2F979E01275E3F4F3AA729A72F01EF
:104BD00067966EAC7FAC67973BAD3BA74FAD4FA7D9
:104BE00026965FAD269759AB2496BFAF249710E069
:104BF000D301CD90DD90ED90FD903D01E894F7F864
:104C0000F20181909190A190B1902F01A5019401A2
:104C1000C701B6010E94E5671816F4F5112329F1C2
:104C2000A50194016BAD7FAD26968FAD26979FA908
:104C30000E94F4634B015C012BA53FA549A9249672
:104C40005FAD2497C701B6010E94F4639B01AC01DC
:104C5000C501B4010E948E6387FF1DC0A7019601A4
:104C6000C501B4010E947F6610C0A7019601C5016D
:104C7000B4010E947F669B01AC016BA57FA589A949
:104C800024969FAD24970E94F4636BA77FA789ABFE
:104C900024969FAF249711E029A53AA5261537053C
:104CA00009F0A6CF2B964EAD5FAD2B97452B09F49F
:104CB0005CC1C0903E05D0903F05E0904005F0906B
:104CC00041052DEB37E346E855E3B601C7010E94E5
:104CD000E56718160CF049C19601A7016BAD7FADD1
:104CE00026968FAD26979FA90E948E6387FD05C0EB
:104CF0001C2D0D2D3E2C2F2C06C01BAD0FAD269666
:104D00003FAC26972FA89601A701612F702F832D06
:104D1000922D0E947F66A9966CAF7DAF8EAF9FAF3C
:104D2000A99782E395E06D969FAF8EAF6D976796DA
:104D3000AEADBFAD67976396BFAFAEAF639720E0F0
:104D400030E040E85FE32D962CAF3DAF4EAF5FAF54
:104D50002D9768961FAE68976D96AEADBFAD6D97F7
:104D60002D913D914D915D916D96BFAFAEAF6D9719
:104D7000A9966CAD7DAD8EAD9FADA9970E94F463F1
:104D80006B017C016396EEADFFAD639781909190CE
:104D9000A190B1906396FFAFEEAF63976896FFADB9
:104DA0006897FF23B1F02D962CAD3DAD4EAD5FADB4
:104DB0002D970E94F4636B017C012D962CAD3DADC7
:104DC0004EAD5FAD2D97C501B4010E94F4634B0158
:104DD0005C01A5019401C701B6010E94E56720E0CE
:104DE00030E0A90118162CF5C501B4010E94E56751
:104DF00018164CF020E030E0A901C701B6010E946E
:104E00008E6387FF05C0A5019401C701B60124C0C8
:104E10002401350177FA709477F87094A301920118
:104E2000C701B6010E94E56718165CF52601370137
:104E300028C0C501B4010E948E6387FD09C020E02F
:104E400030E0A901C701B6010E94E56718164CF4CD
:104E5000A7019601C501B4010E9484652B013C01A4
:104E600010C02601370177FA709477F87094A30187
:104E70009201C501B4010E948E6387FD02C0240126
:104E800035012F96AEADBFAD2F97CD90DD90ED9053
:104E9000FD902F96BFAFAEAF2F97A7019601C3012C
:104EA000B2010E94E5671816ECF4A3019201C70154
:104EB000B6010E947F669B01AC012D966CAD7DAD65
:104EC0008EAD9FAD2D970E94F4632D966CAF7DAF94
:104ED0008EAF9FAF2D976896BFAD6897BF5F6896FE
:104EE000BFAF6897EEE3F5E06D962EAD3FAD6D97E1
:104EF000E217F30709F030CF68963FAD6897332388
:104F000081F02D962CAD3DAD4EAD5FAD2D97612F4F
:104F1000702F832D922D0E94F463162F072F382EA9
:104F2000292E24EA30E74DE75FE3612F702F832DB0
:104F3000922D0E94F4636B017C0120912E0530912B
:104F40002F0540913005509131050E948E6387FFF7
:104F500012C0A70196016BA57FA589A924969FADD4
:104F600024970E94E567181634F41BA50FA539A8ED
:104F700024962FAC24978BA59FA5A9A92496BFADF5
:104F8000249780932E0590932F05A0933005B0931E
:104F900031051D8E1E8E1F8E18A2A5968CAD9DAD5F
:104FA000AEADBFADA597B058898F9A8FAB8FBC8F30
:104FB00081E74DA95EA9849F7001859FF00C1124A3
:104FC000A7014757554FBE01635E7F4FCE014996FB
:104FD0000E94D5485B016C01F701EB56F54F812F1C
:104FE000902FA32DB22D80839183A283B38395014B
:104FF000A601612F702F832D922D0E948E6387FD55
:1050000004C01A2D0B2D3C2C2D2C81E7ADA9BEA977
:105010008A9F90018B9F300D11242D5A354FF90135
:10502000FE96812F902FA32DB22D80839183A28392
:10503000B3837901BEE6EB0EF11C9924939495019C
:10504000A6016BAD7FAD26968FAD26979FA90E94D6
:105050008E6318160CF4912CF701908281E72DA92C
:105060003EA9829FF001839FF00D1124EE53F54F6E
:1050700081E080838BAD9FAD2696AFAD2697BFA90B
:1050800080933E0590933F05A0934005B093410562
:1050900042E355E06796EEADFFAD67978191919140
:1050A000A191B1916796FFAFEEAF6797FA01819337
:1050B0009193A193B193AF0129A53AA567968EADBF
:1050C0009FAD67972817390729F72BAD3FAD269677
:1050D0004FAD26975FA960E070E0CB010E947F662C
:1050E0006D8F7E8F8F8F98A32BAD3FAD26964FADE2
:1050F00026975FA9612F702F832D922D0E947F66C6
:10510000698F7A8F8B8F9C8F21E7ADA9BEA92A9FCB
:10511000C0012B9F900D1124AE01435E5F4FBE0175
:10512000675E7F4F8D5A954F0E9481462091BF0444
:105130003091C0048091BD049091BE0428173907B6
:1051400031F484E690E09093500A80934F0AA19640
:10515000EEADFFADA197F093BE04E093BD042091A6
:10516000BD043091BE048091BF049091C004281703
:10517000390709F4E1C00091BD041091BE0401504B
:1051800011090F711127E12CF12C8091BF0490912E
:10519000C0048017910709F4CFC0F1E7F09FC00168
:1051A000F19F900D11249C012D5A354F6901211555
:1051B000310509F4BBC0F901EE5BFF4F30813DAB17
:1051C00041814BA752815FA7838189AB349740808F
:1051D000518062807380A30192016DA97BA58FA588
:1051E00099A90E948E6381110BC0E114F10409F4A6
:1051F0009DC0F701E159FF4F8081882309F496C0D3
:10520000A1E7A09FC001A19F900D1124FC01EF53C5
:10521000F54F208121115DC0FC01E757F54F1F01BB
:10522000E114F10439F0F701FE9680819181A281A9
:10523000B38103C080E090E0DC01898F9A8FAB8F4F
:10524000BC8F21E7209FF001219FF00D1124E7562C
:10525000F54F80809180A280B380B7FAB094B7F800
:10526000B0948D8E9E8EAF8EB8A2A101BE01675EF6
:105270007F4FCE014D960E94D5489B01AC016DA990
:105280007BA58FA599A90E948E6387FD22C0E1149A
:10529000F10439F0F701FE9680819181A281B381FA
:1052A00003C080E090E0DC0189A39AA3ABA3BCA378
:1052B0008DA29EA2AFA2B8A6A101BE016F5D7F4FD5
:1052C000CE0185960E94D548F62EE72EB82EA92E3F
:1052D00004C0FDA8EBA4BFA4A9A82F2D3E2D4B2DE3
:1052E0005A2DC301B2010E948E638823F9F031E781
:1052F000309FC001319F900D11248D5A954FFC01B4
:10530000E159FF4F41E04083DC01A059BF4F2C9190
:10531000222311F010820AC0FC01FE964F2D5E2D53
:105320006B2D7A2D40835183628373830150110961
:105330000F711127760129CFC090BF04D090C0040F
:1053400000E010E081E7282E332433948091BD04DF
:105350009091BE048C159D0509F462C02C9CC0017F
:105360002D9C900D1124DC01AD5AB54F7D01011526
:10537000110509F44DC0F801E259FF4F80818111F8
:1053800047C0FD01FE96FEABEDAB408051806280D0
:1053900073804801FEE38F0E911CA3019201D4019A
:1053A0006D917D918D919C910E948E6387FF30C09D
:1053B000F801EA5BFF4F80819181A281B381B058EF
:1053C000898F9A8FAB8FBC8FA8014A5C5F4FB40165
:1053D000CE0149960E94D5484B015C019B01AC016E
:1053E000C301B2010E94E567181694F4F701E15970
:1053F000FF4F3082D701A059BF4F8C91882311F005
:10540000108206C0EDA9FEA980829182A282B38299
:10541000FFEFCF1ADF0A2FE1C222DD24870196CFEA
:10542000E090BF04F090C004612C712CA12CB12C31
:1054300000E010E08091BD049091BE048E159F05A0
:1054400009F46BC031E73E9DC0013F9D900D1124D2
:10545000AC014D5A554F6A01FA01FE9650815DAB81
:1054600081818BA792819FA7A381A9AB011511050B
:1054700009F447C04801BFE68B0E911CF4018081FE
:10548000811106C0F601E159FF4F80818823B9F1EF
:10549000E1E0D401EC93F801E059FF4F80818111E4
:1054A0002EC0D801DA962D913D914D915C91DD97FA
:1054B00060E070E080E89FE30E947F661B012C01A2
:1054C0009B01AC016DA97BA58FA599A90E94F463EE
:1054D000698F7A8F8B8F9C8F9301A501C201B101D7
:1054E0000E94F4636D8F7E8F8F8F98A3AE01475E0D
:1054F0005F4FBE01635E7F4FC8010E948146F40189
:105500001082FFEFEF1AFF0A2FE1E222FF246DA8BD
:105510007BA4AFA4B9A886018DCF01151105C1F1F7
:1055200078013FE6E30EF11C81E0D7018C93F8018E
:10553000E059FF4F8081811129C0F80122AD33ADC0
:1055400044AD55AD60E070E080E89FE30E947F6667
:105550001B012C0120E030E0A9010E94F463698F57
:105560007A8F8B8F9C8FA2019101B301C5010E949C
:10557000F4636D8F7E8F8F8F98A3AE01475E5F4F70
:10558000BE01635E7F4FC8010E948146D7011C9215
:10559000C859DF4F0FB6F894DEBF0FBECDBFDF9105
:1055A000CF911F910F91FF90EF90DF90CF90BF9020
:1055B000AF909F908F907F906F905F904F903F90B3
:1055C0002F9008951F920F920FB60F9211240BB6D1
:1055D0000F922F923F924F925F926F927F928F9293
:1055E0009F92AF92BF92CF92DF92EF92FF920F9372
:1055F0001F932F933F934F935F936F937F938F935B
:105600009F93AF93BF93CF93DF93EF93FF930E944A
:1056100009498FEF9FEF9093890080938800CAE03B
:105620003C2E812C912C540144244A94542C320158
:1056300011E7212E80914E0A8FBF80912A0590910B
:105640002B05A0912C05B0912D05892B8A2B8B2B36
:1056500009F09EC18091510A9091520A892B09F458
:10566000FCC1D12C80910902D81608F0F6C1009136
:105670000405109105058091060590910705080F16
:10568000191F10930505009304051016110624F444
:1056900060E081E10E94D15BC0910005D0910105DD
:1056A0008091020590910305C80FD91FD093010581
:1056B000C09300051C161D0624F460E086E30E94DA
:1056C000D15BE090F804F090F9048091FA04909195
:1056D000FB04E80EF91EF092F904E092F8041016AB
:1056E000110654F58091260590912705081B190B8A
:1056F000109305050093040580910C0590910D050C
:10570000092E000CAA0BBB0B4091F4045091F50438
:105710006091F6047091F704840F951FA61FB71FC0
:105720008093F4049093F504A093F604B093F704E7
:1057300061E081E10E94D15B1C161D0654F5809149
:10574000260590912705C81BD90BD0930105C0935E
:10575000000580910A0590910B05092E000CAA0BFB
:10576000BB0B4091F0045091F1046091F2047091F0
:10577000F304840F951FA61FB71F8093F004909326
:10578000F104A093F204B093F30461E086E30E9475
:10579000D15B1E141F0444F58091260590912705C6
:1057A000E81AF90AF092F904E092F80480910805E9
:1057B00090910905092E000CAA0BBB0B4091FC042B
:1057C0005091FD046091FE047091FF04840F951FB9
:1057D000A61FB71F8093FC049093FD04A093FE04C2
:1057E000B093FF040E940E498091280590912905ED
:1057F00001969093290580932805209126053091E4
:105800002705821793070CF028C1D3942BCF409122
:10581000240550912505421753070CF46DC14091A2
:105820001C0550911D0560911E0570911F0500918A
:105830002005109121052091220530912305AA27EA
:10584000419FB12D529FF001629FF00D619FE00DCD
:10585000F11D429FB00DE11DFA1F519FB00DE11DDA
:10586000FA1F609FB00DE11DFA1F509FB10DEA1F96
:10587000FA1FB695EA1FFA1F349FE00DF11D359F00
:10588000F00D1124C0901805D0901905E0901A056C
:10589000F0901B05DC01A65ABF4F8D919D910D9094
:1058A000BC91A02DCE0EDF1EE11CF11C8C159D05B8
:1058B000AE05BF0510F46C017D01C0921405D092B5
:1058C0001505E0921605F092170586E090E021E0BC
:1058D00031E1C31637E2D306E104F10408F0E0C079
:1058E0002093090280E2C816D104E104F10428F4EF
:1058F000A0E2CA2ED12CE12CF12CB0E2CB1AD108B7
:10590000E108F108C11428E0D206E104F10408F42A
:10591000D0C034E0D39EC0011124825F984FFC01B7
:10592000329625913491BC2DAA27B39FF001B29FE6
:10593000E10DFA1F0694EA1FFA1F11246F01E12CF2
:10594000F12CFC0125913491C901A0E0B0E08C1943
:105950009D09AE09BF09AA27BB27480F591F6A1F17
:105960007B1F40931C0550931D0560931E0570938B
:105970001F05E091510AF091520A309709F42BC2A9
:1059800080932A0590932B05A0932C05B0932D05A9
:1059900080912A0590912B05A0912C05B0912D05A1
:1059A0006C017D01009721E0A207B10528F0CC240D
:1059B000CA94DC2CE12CF12C8C199D09AE09BF098D
:1059C00080932A0590932B05A0932C05B0932D0569
:1059D0000E94094980918800909189000896A0E072
:1059E000B0E03A94332059F08C0C9D1CAE1CBF1CC7
:1059F00088169906AA06BB0608F41CCE02C04C0104
:105A00005D01909289008092880080914E0A8FBF3C
:105A1000FF91EF91DF91CF91BF91AF919F918F91C6
:105A20007F916F915F914F913F912F911F910F91B6
:105A3000FF90EF90DF90CF90BF90AF909F908F90AE
:105A40007F906F905F904F903F902F900F900BBE84
:105A50000F900FBE0F901F9018958091510A909152
:105A6000520A009709F43EC3209128053091290578
:105A70004091260550912705241735070CF4C7CE11
:105A80001092520A1092510A8091BF049091C00462
:105A900001968F7199279093C0048093BF0422C30D
:105AA000220FF694E794D794C794019709F010CF8A
:105AB00017CFD701C601B695A79597958795FC0195
:105AC000EC7F9F01225F3C4FF90185919491F90190
:105AD0003296A591B491EC2DE770EA9F9001EB9F6F
