:100000000C94B8060C94E9060C94E9060C94E906E5
:100010000C94E9060C94E9060C94E9060C94E906A4
:100020000C94E9060C94E9060C94E9060C94E90694
:100030000C94E9060C94E9060C94E9060C94E90684
:100040000C94E9060C9428330C94E9060C94E90608
:100050000C94E9060C94E9060C94E9060C944854B7
:100060000C94E9060C94BC540C9492540C94E9063C
:100070000C94E9060C94E9060C94E9060C94E90644
:100080000C9466530C94E9060C94E9060C94E9066A
:100090000C94E9060C94E9060C94E9060C94E90624
:1000A0000C94E9060C94E9060C9438530C94E90678
:1000B0000C94E9060C94E9060C94E9060C940A5396
:1000C0000C94E9060C94E9060C94E9060C94E906F4
:1000D0000C94E9060C94E9060C94E9060C94E906E4
:1000E0000C94E9060D551055FF5403550955475515
:1000F000145518551E55225526552C553055345536
:1001000047553A553E554255084AD73B3BCE016EBE
:1001100084BCBFFDC12F3D6C74319ABD56833DDA5E
:100120003D00C77F11BED9E4BB4C3E916BAAAABE6D
:10013000000000803F05A84CCDB2D44EB93836A996
:10014000020C50B9918688083CA6AAAA2ABE0000D3
:1001500000803F000C94FB4B0C94CF1E0C94185560
:100160000C94D04C0C94641E0C941C4C0C94FC39D4
:100170000C943E550C94C5120C94CD390C94265514
:100180000C9403550C9448250C9478250C94D75363
:100190000C94BE530C9440610C9430250C94D953AC
:1001A0000C946A4C0C9470250C943D390C94602589
:1001B0000C9480250C9409550C9488250C94674C5C
:1001C0000C943A550C9430550C94614E0C944B3968
:1001D0000C9458250C94B1390C9440250C94475537
:1001E0000C94100F0C9468250C9490390C94345591
:1001F0000C94BE260C9459270C9442550C9414551B
:100200000C942C550C9475520C94AC4C0C949D3958
:100210000C941E550C94664C0C9422550C94EF15BE
:100220000C9428250C9429390C94FF540C94945365
:100230000C948B4C0C9410550C9423260C9426543F
:100240000C940D550C94CD4C0C94E24C0C94361F30
:100250000C9450250C9438254E414E494E49545922
:10026000494E46CDCCCC3D0AD7233C17B7D1387781
:10027000CC2B329595E6241FB14F0A000020410097
:1002800000C84200401C4620BCBE4CCA1B0E5AAEE1
:10029000C59D744D323033200041646A75737469B2
:1002A0006E67206C696D6974732E002053746570DD
:1002B0003D002073746570732E204469723D0029DF
:1002C00020002028004D6F76696E6720004431348D
:1002D00020004435302053004C494D4954204D49AD
:1002E0004E20004C494D4954204D41582000443186
:1002F000302056004E4F4C494E454E554D00424120
:10030000444C494E454E554D2000536176696E6709
:10031000205549442E0024F4D43050C38E20C2A26C
:100320004017828B7011127A910D816CD90AA861E5
:10033000E108C7586607615143061E4B5D05C1457C
:10034000A7041A411104093D98037139310340365D
:10035000DB0265339102D4305402802E1D02632CDF
:10036000EE01752AC501B028A001102781018F2553
:1003700064012B244B01E0223401AC211F018D20AC
:100380000D01801FFC00841EED00971DDF00B81CCE
:10039000D200E61BC600201BBC00641AB200B219D2
:1003A000A8000A19A0006A189900D11791004017F7
:1003B0008B00B516840031167E00B31579003A150E
:1003C0007300C7146F0058146A00EE136600881398
:1003D000630025135E00C7125B006C1257001512F4
:1003E0005400C111510070114F0021114B00D61063
:1003F00049008D1047004610440002104200C00F13
:100400004000800F3E00420F3C00060F3B00CB0E29
:100410003800930E37005C0E3500270E3400F30DC4
:100420003200C10D3100900D3000600D2E00320DF4
:100430002D00050D2C00D90C2B00AE0C2900850CCD
:1004400029005C0C2700350C27000E0C2600E80B59
:100450002400C40B2400A00B23007D0B23005A0BA7
:100460002100390B2100180B2000F80A1F00D90ABF
:100470001E00BB0A1E009D0A1D00800A1D00630AA3
:100480001C00470A1B002C0A1B00110A1A00F7095E
:100490001A00DD091900C4091900AB0919009209F5
:1004A00017007B091800630917004C09160036096C
:1004B0001600200916000A091500F5081500E008C5
:1004C0001400CC081400B8081400A4081400900804
:1004D00013007D0812006B0813005808120046082C
:1004E000120034081100230811001208110001083D
:1004F0001100F0071000E0071000D0071000C0073F
:100500001000B0070F00A107100091070E0083072D
:100510000F0074070F0065070E0057070E0049070C
:100520000E003B070D002E070E0020070D001307DD
:100530000D0006070D00F9060C00ED060D00E006A3
:100540000C00D4060C00C8060C00BC060C00B0065B
:100550000C00A4060B0099060C008D060B00820609
:100560000B0077060B006C060B0061060A005706AD
:100570000B004C060A0042060A0038060A002E0646
:100580000A0024060A001A060A00100609000706D7
:100590000A00FD050900F4050900EB050900E20564
:1005A0000900D9050900D0050900C7050900BE05E5
:1005B0000900B5050800AD050800A50509009C0562
:1005C0000800940508008C050800840508007C05D7
:1005D0000800740508006C050700650508005D0546
:1005E0000700560508004E050700470507004005AF
:1005F000080038050700310507002A050700230514
:1006000007001C050600160507000F050700080572
:10061000060002050700FB040600F5040700EE04CF
:100620000600E8040600E2040700DB040600D50427
:100630000600CF040600C9040600C3040600BD047A
:100640000600B7040600B1040500AC040600A604C9
:100650000600A00405009B04060095040500900414
:1006600006008A04050085040500800406007A045B
:10067000050075040500700405006B0405006604A0
:100680000500610405005C040500570405005204E0
:1006900005004D04050048040500430405003E0420
:1006A00004003A04050035040500300404002C045D
:1006B000050027040400230405001E0404001A0496
:1006C000040016040500110404000D0404000904CC
:1006D00005000404040000040400FC030400F80303
:1006E0000400F4030400F0030400EC030400E80336
:1006F0000400E4030400E0030400DC030400D80366
:100700000400D4030400D0030400CC030400C80395
:100710000300C503030024F404D9201BC40C5C0EA1
:100720009804C4095F0265077101F405F900FB0430
:10073000B30048048700C103690058035500030350
:100740004500BE023A008402310053022A00290209
:10075000250004022000E4011C00C8011900AF01BB
:100760001700980114008401130071011000610149
:10077000100051010E0043010D0036010B002B014A
:100780000B0020010B00150109000C0109000301F9
:100790000800FB000800F3000800EB000700E4007D
:1007A0000600DE000600D8000600D2000600CC00DD
:1007B0000500C7000500C2000500BD000400B90027
:1007C0000400B5000400B1000400AD000400A9005D
:1007D0000400A5000300A20003009F0004009B008A
:1007E00003009800030095000200930003009000AE
:1007F00003008D0002008B000300880002008600C9
:10080000020084000300810002007F0002007D00DE
:1008100002007B00020079000200770001007600F0
:1008200002007400020072000100710002006F00FB
:1008300002006D0001006C0002006A000100690006
:10084000020067000100660001006500010064000D
:1008500002006200010061000100600001005F0011
:1008600002005D0001005C0001005B0001005A0015
:100870000100590001005800010057000100560016
:100880000100550001005400010053000000530016
:1008900001005200010051000100500001004F0012
:1008A00001004E0000004E0001004D0001004C0010
:1008B00001004B0000004B0001004A00010049000C
:1008C0000100480000004800010047000100460008
:1008D0000000460001004500000045000100440002
:1008E00001004300000043000100420000004200FC
:1008F00001004100000041000100400001003F00F4
:1009000000003F0001003E0000003E0001003D00ED
:1009100000003D0001003C0000003C0000003C00E5
:1009200001003B0000003B0001003A0000003A00DB
:1009300001003900000039000100380000003800D3
:1009400000003800010037000000370001003600C9
:1009500000003600000036000100350000003500C0
:1009600000003500010034000000340000003400B5
:1009700001003300000033000000330001003200AA
:1009800000003200000032000100310000003100A0
:100990000000310001003000000030000000300095
:1009A00001002F0000002F0000002F0000002F008A
:1009B00001002E0000002E0000002E0001002D007E
:1009C00000002D0000002D0000002D0001002C0073
:1009D00000002C0000002C0000002C0001002B0067
:1009E00000002B0000002B0000002B0001002A005B
:1009F00000002A0000002A0000002A00010029004F
:100A00000000290000002900000029000000290042
:100A10000100280000002800000028000000280035
:100A20000000280001002700000027000000270028
:100A3000000027000000270001002600000026001B
:100A4000000026000000260000002600010025000E
:100A50000000250000002500000025000000250002
:100A600000002500010024000000240000002400F4
:100A700000002400000024000100230000002300E7
:100A800000002300000023000000230000002300DA
:100A900000002300010022000000220000002200CC
:100AA00000002200000022000000220001002100BE
:100AB00000002100000021000000210000002100B2
:100AC00000002100000021000100200000002000A3
:100AD0000000200000002000000020000000200096
:100AE000000020000000200001001F0000001F0087
:100AF00000001F0000001F0000001F0000001F007A
:100B000000001F0001001E0000001E0000001E006B
:100B100000001E0000002052004438204C005361A9
:100B200076696E672063616C6962726174696F6E69
:100B30002E002041002046004D31313400290A00AA
:100B400029202D2028004D31303120280053617696
:100B5000696E67206C696D6974732E00446F6E65F1
:100B60002E0046696E6420486F6D652E2E2E006142
:100B7000646465640072656D6F76656400000021D1
:100B800000240027002A002D00300033000101005E
:100B900000040107010A0100002200250028002BA3
:100BA000002E003100340002010000050108010B95
:100BB00001000020002300260029002C002F003215
:100BC00000000100000301060109010505050507F4
:100BD0000508080808020202020A0A0808040404B8
:100BE00004010101010101010103030303030303E4
:100BF00003040707070C0C0C0C0C0C0C0C02020273
:100C00000206060606060606060B0B0B0B0B0B0B65
:100C10000B01021020200808102040102040800204
:100C20000102010804020101020408102040808032
:100C300040201008040201800402018040201008B6
:100C4000040201080402010102040810204080018E
:100C50000204081020408000000A0B02090C0D0E4F
:100C6000080703040100000000000000000000006D
:100C70000000000000000000000000000000000074
:100C80000000001211100000000000000000000031
:100C90000000000000000000000000000042756934
:100CA0006C742000486173204C43440054727920D6
:100CB00074686573652028776974682061206E65A3
:100CC000776C696E65293A204730302C4730312CDB
:100CD0004730322C4730332C4730342C4732382CB5
:100CE0004739302C4739312C4739322C4D31382C8B
:100CF0004D3130312C4D3130302C4D3131340050AC
:100D00006C656173652073656520687474703A2F33
:100D10002F6D616B656C616E67656C6F2E636F6DB7
:100D20002F20666F72206D6F726520696E666F721C
:100D30006D6174696F6E2E000A0A48454C4C4F2055
:100D4000574F524C442120002023004920414D2080
:100D5000004669726D776172652076000A3E200058
:100D6000536176696E6720686F6D652E0000406183
:100D700011241FBECFEFD1E2DEBFCDBF00E00CBF1C
:100D800014E0A0E0B2E0E8EBF2ED00E00BBF02C03F
:100D900007900D92AA3BB107D9F728E1AAEBB4E07E
:100DA00001C01D92A23AB207E1F716E0C8EBD6E007
:100DB00000E006C021970109802FFE010E94F36523
:100DC000C73BD10780E00807A9F70E94695D0C9432
:100DD0005A690C9400002F923F924F925F926F924B
:100DE0007F928F929F92AF92BF92CF92DF92EF92BB
:100DF000FF920F931F93CF93DF93CDB7DEB7C85504
:100E0000D1090FB6F894DEBF0FBECDBF80918C170D
:100E1000882309F4EBC78B3309F4E8C78E34A1F5B6
:100E200040E050E060E87FEB0E94191C0E94686778
:100E3000C0901318D0901418E0901518F090161860
:100E40006C157D058E059F0589F06EEF72E087E5D4
:100E500094E10E94B05B6091131870911418809116
:100E60001518909116180E94775C24C3DC01CB0101
:100E70000196A11DB11D8093131890931418A0938F
:100E80001518B09316180BC08091181881FF07C071
:100E900064EF72E087E594E10E94B05BA7C7ECE8DD
:100EA000F7E101900020E9F7CF018E5897417C01CE
:100EB000F7FC0AC0F701E457F84E80818A3241F00E
:100EC00091E0E91AF108F4CFAA24AA94BA2C01C03F
:100ED00057018091181881FF04C0EFEFAE16BE06CF
:100EE00029F0ECE8F7E1C12CD12C03C061E672E0F7
:100EF0001FC3CF018C5897418E159F051CF481911B
:100F0000C826F7CFC701F7FE02C080E090E060E09E
:100F100070E08357984E0E943962AB20A094D9F0BC
:100F20000E9468674B015C01C616D706A1F06CE60B
:100F300072E087E594E10E94C55CB601DD0C880B88
:100F4000990B0E94775C6EE772E087E594E10E945E
:100F5000C55CC40170C5F701E457F84E1082ECE897
:100F6000F7E101900020E9F7329780818B3309F493
:100F7000108243E050E065E872E08CE897E10E945F
:100F80004C69892B79F460E270E08CE897E10E946B
:100F90003A6901960E9499639093251480932414D2
:100FA0000E94DA1B8DE40E94EC1B882309F4DAC34B
:100FB00040E050E060E87FEB8DE40E94191C0E9445
:100FC00068676237710509F4FBC00CF049C06A32EA
:100FD000710509F4BCC00CF56131710509F48AC0D2
:100FE0009CF46630710509F001C76091E80470E077
:100FF00080E090E00E940A64AB01BC0184E50E949D
:10100000191C1092E804F2C66231710509F475C02A
:101010006431710509F474C0E9C66536710509F4D7
:10102000B2C03CF46436710509F0E0C60E94DF5C92
:10103000DDC66E36710509F4A9C06037710509F087
:10104000D5C68091BF049091C0049093BE04809354
:10105000BD0489E892E00E9401290E945F19C6C67A
:101060006C3221E0720709F468C2ACF46B3C710584
:1010700009F4E7C03CF46537710509F0B7C6ECE840
:10108000F7E1A1C06D3C710509F409C1623E71052B
:1010900009F415C2ABC6653F91E0790709F469C24E
:1010A0005CF4643F714009F0A1C60E94DA1B0E9403
:1010B000BE400E94E15B9AC6663F21E0720709F4D8
:1010C0005BC2673F714009F091C60E94C75C0E94F5
:1010D000B35C6DE97CE087E594E10E94B05B6BEB6B
:1010E00072E087E594E10E941D5C0E94FC400E9432
:1010F000134273C40E941D1979C60E940F1976C647
:101100008091BC04882309F471C68091BA0490913F
:10111000BB040E94601C1D821E821C821B8282E313
:1011200092E09A838983CE0105960E94F21D88235E
:1011300049F08D81827109F441C6CE0105960E9465
:101140009F3EF1CF8CE195E10E949F3E4FC640E06B
:1011500050E060E571E480E50E94191C6B017C01A0
:1011600040E050E0BA0183E50E94191C0E946867C4
:1011700011E0672B09F410E0C701B6010E9468670F
:10118000862F612FF3C10E94FC4030C66091131876
:101190007091141880911518909116180E940C6483
:1011A000AB01BC018EE40E94191C0E946867609329
:1011B000131870931418809315189093161816C668
:1011C0000E94134213C68F010C58174181918D3430
:1011D000D1F70B5F1F4FECE8F7E101900020E9F732
:1011E0003197EC58F7410E171F0718F080E090E098
:1011F000FBC50457184EFE0131965F01E12CF12C1E
:101200004F01F801D1908F018D2D0D2C000C990B01
:101210000E941569892B09F4E2C5FDE0DF1609F487
:10122000DEC52AE0D21609F4DAC588E2E816F10430
:1012300009F4D5C5FFEFEF1AFF0AF501D1925F015E
:10124000E0CF63E972E087E594E10E94B05B0AE5D4
:1012500012E0F1ECEF2EF4E0FF2EF801D1908F01B7
:10126000F70140815181628173818D2D0E94191C8B
:101270004B015C01F70161937193819391937F011D
:101280008D2D0E94725CC501B4010E94BB4080E2BA
:101290000E94725CF2E00D351F07F9F60BC1409118
:1012A000CD045091CE046091CF047091D00488E5B4
:1012B0000E94191C7B018C0120E030E040E051E4E9
:1012C0000E94056487FF0EC020E030E0A901B7014D
:1012D000C8010E945C6818164CF0E12CF12C00E06B
:1012E00010E004C0E12CF12C00E011E4C701D801AA
:1012F0008093CD049093CE04A093CF04B093D004F8
:101300006EE972E087E594E10E94C55C6091CD04CE
:101310007091CE048091CF049091D0040E94BB4084
:101320004091D1045091D2046091D3047091D404BF
:1013300089E50E94191C7B018C0120E030E040E02F
:1013400051E40E94056487FF0EC020E030E0A9014F
:10135000B701C8010E945C6818164CF0E12CF12C12
:1013600000E010E004C0E12CF12C00E011E4C70122
:10137000D8018093D1049093D204A093D304B09366
:10138000D40465E673E087E594E10E94C55C609152
:10139000D1047091D2048091D3049091D4040E941E
:1013A000BB404091D5045091D6046091D704709110
:1013B000D8048AE50E94191C7B018C0120E030E0F2
:1013C00040E051E40E94056487FF0EC020E030E059
:1013D000A901B701C8010E945C6818164CF0E12C05
:1013E000F12C00E010E004C0E12CF12C00E011E44D
:1013F000C701D8018093D5049093D604A093D70455
:10140000B093D80465EA72E087E594E10E94C55C78
:101410006091D5047091D6048091D7049091D8043E
:101420000E94BB4060910002709101028091020213
:10143000909103020E940A64AB01BC0182E40E9405
:10144000191C6B017C0120E034E244E759E40E945E
:10145000056487FF0DC020E030E0A901C701B60197
:101460000E945C6818164CF060E070E0CB0109C087
:1014700060E472E48FE090E004C0C701B6010E940E
:101480006F67609300027093010280930202909351
:10149000030268EA72E087E594E10E94C55C60910E
:1014A00000027091010280910202909103024AE0D1
:1014B0000E942F5C87E594E10E94AC5B97C440E0FA
:1014C00050E06CE272E480E50E94191C0E9468679B
:1014D000F62E062F172F0F3F2FEF120709F486C4A1
:1014E00040E050E060E87FEB83E50E94191C0E9419
:1014F00068676F3F8FEF780729F48F2D0E948F590F
:101500007C0106C081E0672B09F080E0E82EF12C19
:101510006BEA72E087E594E10E94C55C802F0E942F
:101520008F598E159F05D1F31092D90463EB72E0A9
:1015300087E594E10E941D5C59C440E050E06AE7F1
:1015400073E480E50E94191C6B017C0161E08CE270
:101550000E94B859C701B6010E946867072E000CA7
:10156000880B990B0E945E5A60E08CE20E94B85989
:101570003DC40E945E423AC480E090E8A2EAB3E42F
:1015800089839A83AB83BC8380E090E8A2EAB3ECC2
:101590008D839E83AF83B88780E090E0AAEFB3E4A9
:1015A00089879A87AB87BC8780E090E0AAEFB3EC8D
:1015B0008D879E87AF87B88B80E090E0A4EBB2E484
:1015C000898B9A8BAB8BBC8B80E090E0A0E2B2E47D
:1015D0008D8B9E8BAF8BB88F69E972E087E594E1C4
:1015E0000E94CF5BFE0131967F0106E214E1C12C1F
:1015F000D12C20E030E048EC52E4F70160817181A9
:10160000828193810E946B640E949E6720E030E09B
:1016100048EC52E40E94F6664B015C01F80120811F
:101620003181428153810E940564882341F0F80191
:1016300080829182A282B382CC24C394D12C20E0F8
:1016400030E048EC52E4F70164817581868197812E
:101650000E946B640E949E6720E030E048EC52E4F8
:101660000E94F6664B015C01F801248135814681B8
:1016700057810E940564882341F0F8018482958295
:10168000A682B782CC24C394D12CF8E0EF0EF11CD3
:10169000005F1F4F24E10635120709F0AACFCD28BD
:1016A00011F00E94BE4080E090E2A0E8B4E4809394
:1016B0000F0290931002A0931102B0931202809334
:1016C0000B0290930C02A0930D02B0930E020E94A5
:1016D000E54260910F027091100280911102909189
:1016E00012020E94686769A77AA78BA79CA76091DE
:1016F0000B0270910C0280910D0290910E020E94DB
:1017000068676DA77EA78FA798AB60914E14709104
:101710004F1480915014909151140E94686769ABE6
:101720007AAB8BAB9CABBE01675B7F4FCE018996DA
:101730000E945A49CE01875B9F4F0E94E85019A62C
:101740001AA61BA61CA61DA61EA61FA618AA80E0E8
:1017500090E0A4EBB2E489AB9AABABABBCABCE01EF
:10176000899638C184E40E94EC1B882309F482C165
:1017700040E050E060E87FEB84E40E94191C0E9486
:1017800068676830710509F428C10CF04FC06530F6
:10179000710509F4F7C0DCF4672B09F027C30E9438
:1017A0001D1984EE98E3AEE5B2E48093DA049093D9
:1017B000DB04A093DC04B093DD046AE5262E62E02E
:1017C000362E0EED14E0412C512C320168C06630EB
:1017D000710509F4DAC06730710509F007C340915B
:1017E0000F025091100260911102709112028CE46C
:1017F0000E94191C60930F027093100280931102D3
:101800009093120240910B0250910C0260910D02D4
:1018100070910E0282E50E94191C60930B02709376
:101820000C0280930D0290930E02D7C06D307105AB
:1018300009F404C18CF46930710509F4D1C06A302F
:10184000710509F0D3C26EEE72E087E594E10E9463
:10185000B05B85E090E0EFC06E30710509F4FFC029
:101860006233710509F4BFC0C1C240E050E0BA0163
:101870008F2D0E94191C0E9468674B015C01672B29
:10188000A1F40B5F1F4FFFEF4F1A5F0A6F0A7F0A29
:1018900022E0421651046104710409F4A7C2F10167
:1018A000F1901F01FF2069F3E0CF65EC72E087E55E
:1018B00094E10E94B05B8F2D0E94725C62EC72E03A
:1018C00087E594E10E94B05BC301B2010E94775C9E
:1018D0006FEB72E087E594E10E94B05BB401092CE4
:1018E000000C880B990B0E94775C62EB72E087E535
:1018F00094E10E94B05BF801628170E080E090E0CA
:101900004AE00E942F5C6BEA72E087E594E10E9456
:10191000B05BF801618170E080E090E04AE00E94F5
:101920002F5C8AE00E94725C692D661F6627661F25
:10193000F80182810E94B859640197FE04C0CC244A
:10194000DD24C818D908E12CF12CF801918061E060
:10195000892D0E94B85960E0892D0E94B859609184
:10196000DA047091DB048091DC049091DD040E9424
:1019700068670E94E752FFEFEF1AFF0ACE14DF04F8
:1019800021F77FCF0E94B35C31C246E2C42E44E10E
:10199000D42E50EDE52E52E0F52E8E010F5F1F4F35
:1019A0005801F6014485558566857785F701819153
:1019B0007F010E94191CF8016193719381939193A7
:1019C0008F01F0E1CF0ED11C23EDE21622E0F206EA
:1019D00041F7C5010E94D55009C20E94174306C2B3
:1019E0000E94E54203C28091181881FB002700F98C
:1019F00010E0B801110F880B990B0E940C64AB0129
:101A0000BC0183E50E94191C0E9468678B018091CC
:101A100018180115110561F182608093181862EDA4
:101A200072E087E594E10E94B05B81E090E0012BD9
:101A300011F480E090E00E94A15CD8C140914E1466
:101A400050914F1460915014709151148AE50E9486
:101A5000191C0E946867CB010E94BD18C7C16DECBC
:101A600072E087E594E10E94B05B68ED72E060CDC2
:101A70008D7FD3CF6091171870E080E090E00E94D6
:101A80000A64AB01BC0187E40E94191C0E946867CC
:101A9000262E862F972F2FEF20931718843091052D
:101AA00009F431C14CF48230910509F420C10CF0E5
:101AB00023C197FF23C09AC18A35910509F442C119
:101AC00034F44C9709F092C10E94114B8FC18B35B1
:101AD000910509F43BC18C35910509F087C106E2F7
:101AE00014E1FE0131967F0180EDC82E82E0D82EF0
:101AF0005E01FDE0AF0EB11C37012BC181E40E94F5
:101B0000EC1B882381F140911302509114026091E3
:101B100015027091160281E40E94191C6B017C0170
:101B200020E030E0A9010E945C6818168CF420E0E7
:101B300030E04AEF54E4C701B6010E94056487FD16
:101B40000AC0C12CD12C3AEFE32E34E4F32E03C0AB
:101B5000C12CD12C7601C0921302D0921402E092D3
:101B60001502F092160240911702509118026091EE
:101B7000190270911A0286E40E94191C2B013C0183
:101B800020E030E0A9010E945C6818168CF420E087
:101B900030E04AE754E4C301B2010E94056487FDC6
:101BA0000AC0412C512C2AE7622E24E4722E03C075
:101BB000412C512C320106E214E1CE0101967C0148
:101BC00090EDA92E92E0B92E66961FAE6697C12CB5
:101BD000D12C6896EFAE68976996FFAE6997F801C9
:101BE00090848184F2856796FFAF6797F80133840C
:101BF00080910A02811104C030E020E090E005C02D
:101C0000940167969FAD6797832D432F522F692FBD
:101C1000782FF50181915F010E94191C20910A0221
:101C2000222329F0912C812CF0E0E0E004C067969B
:101C3000FFAD6797E32D292D382D4F2F5E2F0E9482
:101C4000FC654701F7016083718382839383F80108
:101C500020813181428153810E945C6818166CF4A6
:101C600063EE72E087E594E10E94B05BC6010E94DA
:101C7000A15CF1E06696FFAF669724E0E20EF11CEE
:101C8000F8012481358146815781F4016081718199
:101C9000828193810E94056487FF0DC068ED72E028
:101CA00087E594E10E94B05BC6010E94A15CF1E06F
:101CB0006696FFAF66972FEFC21AD20A005F1F4FDA
:101CC00083E0C816D10409F08ACF66969FAD669767
:101CD00091110AC0B301A20168968FAD6897699609
:101CE0009FAD69970E941C51209217187FC081E018
:101CF0000E943C4382E004C08FEF0E943C4383E09B
:101D00008093171873C00E94054B40E050E0BA0161
:101D100083E50E94191C6B017C0140E050E0BA0190
:101D200080E50E94191C20E030E04AE754E40E945C
:101D30006B64A70196010E94FC650E9468670E947F
:101D4000E75254C081E080930A0250C010920A0208
:101D50004DC0F801408451848284938480910A02AA
:101D6000811104C030E020E090E004C0342D252D26
:101D7000982D892D432F522F692F782FF6018191AD
:101D80006F010E94191C20910A02222321F0412C8C
:101D9000512C812C912C9201A4010E94FC65F70129
:101DA00061937193819391937F01005F1F4FAE16F2
:101DB000BF0679F6C3010E94E85018C040E250E027
:101DC000BE01675D7F4FCE0105960E94783FBE0140
:101DD000675D7F4F87E594E10E941D5CAEC9F40109
:101DE000EE0DFF1D1082C4010E940129C85ADF4F69
:101DF0000FB6F894DEBF0FBECDBFDF91CF911F911C
:101E00000F91FF90EF90DF90CF90BF90AF909F9099
:101E10008F907F906F905F904F903F902F9008959C
:101E2000CF93DF9381E08093F1130E94564E10927E
:101E300017058091F01381114CC08091EF13882316
:101E400009F447C01092C7051092C6051092C50547
:101E50001092C405E091061444E0E49FF0011124BF
:101E6000EE50FC4E8181811102C08EE301C080E200
:101E70000E94204E83EE92E00E94354E809106141F
:101E800054E0859FF0011124EE50FC4E9181911198
:101E900020C0909116059923E1F01092160510923A
:101EA00007141092F01394E09093EF13882319F025
:101EB000815080930614E091061484E0E89FF001BD
:101EC0001124EE50FC4E828193819093EE13809307
:101ED000ED1381E080931705909117148091F01312
:101EE000911122C2823008F04DC09091EF139230D0
:101EF00008F448C01092C7051092C60521E030E0F2
:101F0000A901481B51095093C5054093C405E091B0
:101F1000061454E0E59FF0011124EE50FC4E81813F
:101F2000813011F48EE301C080E20E94204E8FEEDA
:101F300092E00E94354EE091061484E0E89FD001C3
:101F40001124AE50BC4E11968C918130D9F4809101
:101F500016058823B9F010921605109207141092F6
:101F6000F01384E08093EF13EF5FE093061494E0A6
:101F7000E99FF0011124EE50FC4E118210828CEA90
:101F80009CE4F4C282E0809317059091BC04809198
:101F9000F013992309F450C0833008F04FC090919A
:101FA000EF13933008F44AC01092C7051092C6058B
:101FB00022E030E0A901481B51095093C505409328
:101FC000C405E091061454E0E59FF0011124EE50A1
:101FD000FC4E8181823011F48EE301C080E20E94C8
:101FE000204E89EF92E00E94354EE091061484E085
:101FF000E89FD0011124AE50BC4E11968C918230D6
:10200000E9F4809116058823C9F010921605109204
:1020100007141092F01384E08093EF13EF5FE093C6
:10202000061494E0E99FF0011124EE50FC4E118259
:10203000108289E597E29AC28330B0F083E0809302
:10204000170520E030E044EB52E460914E147091AB
:102050004F1480915014909151140E9405649091F6
:10206000F0138823D1F161C09091EF13933030F3D6
:102070001092C7051092C60522E030E0A901481B66
:1020800051095093C5054093C405E091061454E0EE
:10209000E59FF0011124EE50FC4E8181823011F455
:1020A0008EE301C080E20E94204E8CE093E00E940B
:1020B000354EE091061484E0E89FF0011124EE50C3
:1020C000FC4E8181823009F0B9CF809116058823BA
:1020D00009F4B4CF10921605B1CF943008F075C052
:1020E0008091EF13843008F470C01092C7051092ED
:1020F000C60523E030E0A901491B51095093C505ED
:102100004093C405E091061454E0E59FF0011124CA
:10211000EE50FC4E8181833011F080E201C08EE3ED
:102120000E94204E87E193E027C0943008F04DC014
:102130008091EF13843008F448C01092C7051092C4
:10214000C60523E030E0A901491B51095093C5059C
:102150004093C405E091061454E0E59FF00111247A
:10216000EE50FC4E8181833011F080E201C08EE39D
:102170000E94204E80E293E00E94354EE0910614CA
:1021800084E0E89FD0011124AE50BC4E11968C9192
:102190008330D9F4809116058823B9F01092160582
:1021A000109207141092F01384E08093EF13EF5F06
:1021B000E093061494E0E99FF0011124EE50FC4EE8
:1021C0001182108285E792E5D1C184E080931705E2
:1021D000C09117052091F013C21708F44CC08091EC
:1021E000EF13C81708F047C01092C7051092C60534
:1021F0008C2F90E0821B91099093C5058093C405B4
:10220000E091061444E0E49FF0011124EE50FC4EEE
:102210008181C81302C08EE301C080E20E94204E7B
:1022200087E293E00E94354EE091061454E0E59F6A
:10223000D0011124AE50BC4E11968C91C8131BC016
:10224000809116058823B9F0109216051092071494
:102250001092F01384E08093EF13EF5FE093061485
:1022600084E0E89FF0011124EE50FC4E11821082B0
:1022700086E39FE17BC1D1E0DC0FD093170520916D
:10228000F013D21708F44CC08091EF13D81708F060
:1022900047C01092C7051092C6058D2F90E0821B93
:1022A00091099093C5058093C405E091061494E0CC
:1022B000E99FF0011124EE50FC4E8181D81302C039
:1022C0008EE301C080E20E94204E83E393E00E94EF
:1022D000354EE091061444E0E49FD0011124AE5045
:1022E000BC4E11968C91D8131BC080911605882383
:1022F000B9F010921605109207141092F01384E0B2
:102300008093EF13EF5FE093061454E0E59FF00134
:102310001124EE50FC4E1182108281E69EE426C10B
:10232000CE5FC0931705D0C09091D904992331F1A5
:10233000823030F59091EF13923010F11092C70572
:102340001092C60521E030E0A901481B51095093C5
:10235000C5054093C405E091061454E0E59FF001E3
:102360001124EE50FC4E8181813011F48EE301C0C6
:1023700080E20E94204E89E393E02EC0823048F034
:1023800082E0809317052091F013233008F44DC0AC
:1023900098C09091EF13923098F31092C705109265
:1023A000C60521E030E0A901481B51095093C5053D
:1023B0004093C405E091061454E0E59FF001112418
:1023C000EE50FC4E8181813011F48EE301C080E239
:1023D0000E94204E81E493E00E94354EE091061465
:1023E00084E0E89FD0011124AE50BC4E11968C9130
:1023F000813031F680911605882311F2109216056E
:10240000109207141092F01384E08093EF13EF5FA3
:10241000E093061494E0E99FF0011124EE50FC4E85
:10242000118210828CE19CE4A1C08091EF13833073
:1024300008F447C01092C7051092C60582E090E0EC
:10244000821B91099093C5058093C405E091061401
:1024500044E0E49FF0011124EE50FC4E8181823073
:1024600011F080E201C08EE30E94204E87E493E0E9
:102470000E94354EE091061454E0E59FD0011124EE
:10248000AE50BC4E11968C918230D9F480911605D5
:102490008823B9F010921605109207141092F013C9
:1024A00084E08093EF13EF5FE093061484E0E89FED
:1024B000F0011124EE50FC4E118210828BEF9BE450
:1024C00055C083E080931705C09117052091F01344
:1024D000C21708F452C08091EF13C81708F04DC01E
:1024E0001092C7051092C6058C2F90E0821B9109AF
:1024F0009093C5058093C405E091061494E0E99F8C
:10250000F0011124EE50FC4E8181C81302C08EE30D
:1025100001C080E20E94204E8CE493E00E94354E80
:10252000E091061444E0E49FD0011124AE50BC4E6B
:1025300011968C91C81321C0809116058823E9F06B
:1025400010921605109207141092F01384E08093F5
:10255000EF13EF5FE093061454E0E59FF0011124C0
:10256000EE50FC4E1182108285EC92E193838283BF
:102570009093EE138093ED1305C0CF5FC0931705C2
:10258000C0930714DF91CF9108950E94564E109288
:1025900017058091F01381114CC08091EF138823AF
:1025A00009F447C01092C7051092C6051092C505E0
:1025B0001092C405E091061484E0E89FF001112414
:1025C000EE50FC4E8181882311F080E201C08EE341
:1025D0000E94204E85E593E00E94354E80910614BE
:1025E00094E0899FF0011124EE50FC4E91819111ED
:1025F00020C0909116059923E1F0109216051092D3
:1026000007141092F01394E09093EF13882319F0BD
:10261000815080930614E091061484E0E89FF00155
:102620001124EE50FC4E828193819093EE1380939F
:10263000ED1381E0809317052091F013223008F00C
:102640004CC08091EF13823008F447C01092C70548
:102650001092C60581E090E0821B91099093C50518
:102660008093C405E091061494E0E99FF0011124E1
:10267000EE50FC4E8181813011F080E201C08EE38A
:102680000E94204E8AE593E00E94354E60913214FC
:102690007091331480913414909135144DE050E0D2
:1026A0000E94C458E091061484E0E89FD0011124F0
:1026B000AE50BC4E11969C918091170598130DC099
:1026C00080911605882349F08AE593E09093EC0405
:1026D0008093EB0482E394E159C2809117058F5FE8
:1026E000809317059091F013891708F44CC020913E
:1026F000EF13821708F047C01092C7051092C60565
:10270000282F30E0291B31093093C5052093C405DB
:10271000E091061494E0E99FF0011124EE50FC4E84
:102720009181891711F080E201C08EE30E94204E52
:1027300081E693E00E94354E6091421470914314FB
:1027400080914414909145144DE050E00E94C4588B
:10275000E091061484E0E89FD0011124AE50BC4EF5
:1027600011969C918091170598130DC080911605C4
:10277000882349F081E693E09093EC048093EB0486
:1027800082E494E103C2809117058F5F809317055F
:102790009091F013891708F44CC02091EF13821721
:1027A00008F047C01092C7051092C605282F30E0E8
:1027B000291B31093093C5052093C405E091061407
:1027C00094E0E99FF0011124EE50FC4E91818917AD
:1027D00011F080E201C08EE30E94204E88E693E073
:1027E0000E94354E60912A1470912B1480912C1404
:1027F00090912D144FE050E00E94C458E0910614CF
:1028000084E0E89FD0011124AE50BC4E11969C91FB
:102810008091170598130DC080911605882349F003
:1028200088E693E09093EC048093EB048AE294E1D1
:10283000ADC1809117058F5F809317059091F013BC
:10284000891708F44CC02091EF13821708F047C095
:102850001092C7051092C605282F30E0291B3109B8
:102860003093C5052093C405E091061494E0E99FD8
:10287000F0011124EE50FC4E9181891711F080E295
:1028800001C08EE30E94204E8DE693E00E94354EFB
:102890006091261470912714809128149091291426
:1028A0004EE050E00E94C458E091061484E0E89F96
:1028B000D0011124AE50BC4E11969C918091170509
:1028C00098130DC080911605882349F08DE693E09A
:1028D0009093EC048093EB0486E294E157C18091DD
:1028E00017058F5F809317059091F013891708F4EF
:1028F0004CC02091EF13821708F047C01092C70513
:102900001092C605282F30E0291B31093093C505E8
:102910002093C405E091061494E0E99FF00111248E
:10292000EE50FC4E9181891711F080E201C08EE3D8
:102930000E94204E83E793E00E94354E609136144A
:1029400070913714809138149091391440E150E01F
:102950000E94C458E091061484E0E89FD00111243D
:10296000AE50BC4E11969C918091170598130DC0E6
:1029700080911605882349F083E793E09093EC0457
:102980008093EB0486E394E101C1809117058F5F8A
:10299000809317059091F013891708F44CC020918B
:1029A000EF13821708F047C01092C7051092C605B2
:1029B000282F30E0291B31093093C5052093C40529
:1029C000E091061494E0E99FF0011124EE50FC4ED2
:1029D0009181891711F080E201C08EE30E94204EA0
:1029E00087E793E00E94354E60913A1470913B1452
:1029F00080913C1490913D144DE050E00E94C458E9
:102A0000E091061484E0E89FD0011124AE50BC4E42
:102A100011969C918091170598130DC08091160511
:102A2000882349F087E793E09093EC048093EB04CC
:102A30008AE394E1ABC0809117058F5F80931705FF
:102A40009091F013891708F44CC02091EF1382176E
:102A500008F047C01092C7051092C605282F30E035
:102A6000291B31093093C5052093C405E091061454
:102A700094E0E99FF0011124EE50FC4E91818917FA
:102A800011F080E201C08EE30E94204E8EE793E0B9
:102A90000E94354E60910F027091100280911102D8
:102AA000909112024DE050E00E94C458E09106144B
:102AB00084E0E89FD0011124AE50BC4E11969C9149
:102AC0008091170598130DC080911605882349F051
:102AD0008EE793E09093EC048093EB048FE092E018
:102AE00055C0809117058F5F809317059091F01363
:102AF000891708F46CC02091EF13821708F067C0A3
:102B00001092C7051092C605282F30E0291B310905
:102B10003093C5052093C405E091061494E0E99F25
:102B2000F0011124EE50FC4E9181891711F080E2E2
:102B300001C08EE30E94204E85E893E00E94354E4E
:102B400060910B0270910C0280910D0290910E0227
:102B50004DE050E00E94C458E091061484E0E89FE4
:102B6000D0011124AE50BC4E11969C918091170556
:102B700098132DC080911605882349F185E893E0CC
:102B80009093EC048093EB048BE092E09093EA0442
:102B90008093E90410921605109207141092F01316
:102BA00084E08093EF13EF5FE093061494E0E99FD5
:102BB000F0011124EE50FC4E1182108284E69EE159
:102BC000938382839093EE138093ED130895809105
:102BD00017058F5F80931705809307140895EF9270
:102BE000FF920F931F93CF93DF93CDB7DEB72A9752
:102BF0000FB6F894DEBF0FBECDBF0E94564E1092A6
:102C00001705809116058823F9F010921605109289
:102C100007141092F01384E08093EF13E0910614F0
:102C2000EF5FE093061424E0E29FF0011124EE50E0
:102C3000FC4E1182108280E19FE093838283909307
:102C4000EE138093ED13A6C080910814909109149F
:102C5000009729F090910402890F8093040210924A
:102C6000C7051092C6051092C5051092C40586E4EA
:102C70000E94204E609117027091180280911902F3
:102C800090911A0246E050E00E94C45888E090E01B
:102C90009093C7058093C6051092C5051092C40590
:102CA00085E20E948F59892B11F080E201C08AE2EF
:102CB0000E94204E1092C7051092C60501E010E058
:102CC0001093C5050093C40581E40E94204E6091D5
:102CD000130270911402809115029091160246E041
:102CE00050E00E94C45889E090E09093C70580931B
:102CF000C6051093C5050093C40585E20E94204EC9
:102D0000809104024AE09E012F5F3F4F7901B90193
:102D100090E00E94D863F7019F012F5F3F4F8081B1
:102D2000882311F0F901F8CF8F010E191F0917FF41
:102D300006C080E20E94204E0F5F1F4FF8CFC701F0
:102D40000E94354E88E090E09093C7058093C605B9
:102D500081E090E09093C5058093C40584E20E94D1
:102D60008F59892B11F080E201C08AE20E94204E27
:102D70001092C7051092C60582E090E09093C505B9
:102D80008093C4058DEE94E00E94354E8091170526
:102D9000809307142A960FB6F894DEBF0FBECDBFFE
:102DA000DF91CF911F910F91FF90EF9008954F9277
:102DB0005F926F927F928F929F92AF92BF92CF92CB
:102DC000DF92EF92FF920F931F93CF93DF93CDB7D4
:102DD000DEB768970FB6F894DEBF0FBECDBF8C018B
:102DE0005B015A834983FC01E65AFF4F6081718180
:102DF000828193810E940A646B017C01D5012D912F
:102E00003D914D915C910E946B640E94DA660E9434
:102E10006F676D837E838F839887E981FA81208134
:102E2000318142815381C701B6010E946B640E94C7
:102E3000DA660E946F6769877A878B879C872D8106
:102E40003E814F815885283731054105510540F4B1
:102E500088E790E0A0E0B0E08D839E83AF83B887E1
:102E600029853A854B855C85283731054105510513
:102E700040F488E790E0A0E0B0E089879A87AB87CC
:102E8000BC87F801EA59FF4F20813181428153818B
:102E900029833A834B835C83CA01B9010E940C6485
:102EA0002B013C016D817E818F8198850E940A648F
:102EB0006D877E878F87988B20E030E0A901C30162
:102EC000B2010E940564882329F1A7019601C70178
:102ED000B6010E946B644B015C012D853E854F85D8
:102EE0005889CA01B9010E946B649B01AC01C501FC
:102EF000B4010E94FB654B015C01A3019201C30177
:102F0000B2010E94FC659B01AC01C501B4010E94A5
:102F1000F66603C060E070E0CB010E94DA660E94B2
:102F20006F67698B7A8B8B8B9C8B69817A818B81A4
:102F30009C8190958095709561957F4F8F4F9F4FA5
:102F40000E940C644B015C0169857A858B859C85A8
:102F50000E940A6469837A838B839C8320E030E03B
:102F6000A901C501B4010E940564882349F12981A2
:102F70003A814B815C81CA01B9010E946B646D8BFF
:102F80007E8B8F8B988FA7019601C701B6010E9497
:102F90006B649B01AC016D897E898F89988D0E943D
:102FA000FB656B017C01A5019401C501B4010E9480
:102FB000FC659B01AC01C701B6010E94F66603C027
:102FC00060E070E0CB010E949E67F801E65BFF4F76
:102FD000C080D180E280F3804601570129893A8977
:102FE0004B895C89821A930AA40AB50A0E946F670A
:102FF000861A970AA80AB90AB7FE82C020E030E014
:10300000A901C301B2010E940564882309F445C0E7
:10301000C701B6010E940A644B015C01A301920141
:10302000C301B2010E94FC659B01AC01C501B40162
:103030000E946B644B015C012D853E854F8558894C
:10304000CA01B9010E946B649B01AC01C501B401C6
:103050000E94FB654B015C0129813A814B815C81B7
:10306000CA01B9010E946B649B01AC01C501B401A6
:103070000E94FC654B015C0120E030E040E850E438
:10308000C301B2010E946B649B01AC01C501B40194
:103090000E94F6660E94686702C060E070E0072E3A
:1030A000000C880B990B0E940C640E94DA664B019D
:1030B0005C0120E030E0A9010E945C68181684F4ED
:1030C000C501B4010E946F676C157D058E059F05D3
:1030D00098F4C501B4010E946F676B017C010CC0BC
:1030E000812C912C5401C114D104E104F10461F04C
:1030F000C12CD12C760108C0812C912C540104C024
:10310000C988DA88EB88FC88F801EE5AFF4FC08244
:10311000D182E282F3823496C80CD91CEA1CFB1CD3
:10312000C082D182E282F38238968D819E81AF8106
:10313000B88580839183A283B383349629853A85A9
:103140004B855C85208331834283538368960FB619
:10315000F894DEBF0FBECDBFDF91CF911F910F91CD
:10316000FF90EF90DF90CF90BF90AF909F908F90A7
:103170007F906F905F904F900895CF92DF92EF9283
:10318000FF92CF93DF93EC01C0904A14D0904B1480
:10319000E0904C14F0904D14BC01990F880B990BE2
:1031A0000E940C64A70196010E94056487FF05C078
:1031B000C701B6010E946867EB01C0904614D09029
:1031C0004714E0904814F0904914BE010D2E000CF5
:1031D000880B990B0E940C64A70196010E945C6801
:1031E00018162CF4C701B6010E946867EB01BE01F6
:1031F0000D2E000C880B990B0E940C6460934E14EA
:1032000070934F148093501490935114CE01DF911A
:10321000CF91FF90EF90DF90CF900C94A45ACF9372
:10322000DF93CEEDD4E061E08B810E94B85961E07C
:103230008885DF91CF910C94B859CF93DF93CEED71
:10324000D4E060E08B810E94B85960E08885DF910E
:10325000CF910C94B859CF92DF92EF92FF920F93D7
:103260001F93CF93DF938C01EA01FB016081718191
:10327000828193819B01AC010E946B646B017C0194
:10328000F80160817181828193819B01AC010E9470
:10329000FC65288139814A815B810E946B649B01B6
:1032A000AC01C701B6010E94FB65DF91CF911F9170
:1032B0000F91FF90EF90DF90CF900C94AA688FB79A
:1032C0008093C805F8940895CF92DF92EF92FF9211
:1032D0000F931F93CF93DF93DC0180E2ED011992EE
:1032E0008A95E9F7EB01EE81FF811796FC93EE9347
:1032F000169715965C934E931497CC8CDD8CEE8CC0
:10330000FF8C1896CD92DD92ED92FC921B974F7038
:103310005527EF01A79635E0440F551F3A95E1F781
:10332000BE01640F751FEB018B8583FD45C0CF0186
:10333000840F951FEC019AA997719C93EB018B85E3
:10334000887111F498609C9313962C93139781E0E5
:1033500012968C93129703A114A125A136A154961D
:103360000D931D932D933C935797E40FF51F43AD99
:1033700054AD60E070E0BA0155274427EF01CF5B00
:10338000DF4F0881198120E030E0402B512B622B68
:10339000732B5C964D935D936D937C935F97ED5B80
:1033A000FF4F408151816281738158964D935D93A7
:1033B0006D937C935B9702C01C9280E0DF91CF916C
:1033C0001F910F91FF90EF90DF90CF9008952F9273
:1033D0003F924F925F926F927F928F929F92AF92A5
:1033E000BF92CF92DF92EF92FF920F931F93CF93F2
:1033F000DF93EC01FB018881807709F4EEC08091B6
:103400001C158111EAC0C180D2808081837009F4CB
:10341000D3C0C6010C966DE070E00E94DF65992470
:103420009394960E7F018E0140E050E0BA01CE01E8
:103430000E94783D312CD0E0812CC0E0570186E01D
:10344000A80EB11C9DE0292ED80150964D905D909C
:103450006D907C90539761E0C8010E943C3E0097BC
:1034600009F4BBC0FC012081253E09F4B2C022232F
:1034700021F0891408F4A3C009C0891408F0ADC074
:103480008394222309F4A9C0253E11F02E3211F4B1
:10349000C0E0DACFDC011B963C911B973F3009F06E
:1034A00052C0C11108C026FFCFCFD22FDF711D96A9
:1034B0003C90CD2F07C0D1502D13EACFFC012585BC
:1034C0002311E6CF4D2F50E041505109249E900129
:1034D000259E300D11242C153D05D0F6FC01712CD4
:1034E00084E0871518F08181928108C0AAE0A715B1
:1034F00018F08481958102C086819781C216D30617
:1035000021F4892B09F4A0CFC3CF8F3F910511F08F
:1035100008F0BECF4FEB480F4A3108F4805EB90186
:103520006F5F7F4FD70113964D915C911497240FD5
:10353000351FD9019C912FEB290F2A3108F4905E99
:103540009813A6CF3EC033FDA3CFCC2341F0D1309A
:1035500009F043C00E941B3D38123FC00CC04BE035
:1035600050E0B5010E942469892B09F06DCFF70165
:10357000808180FD69CFB301A20185E076956795D2
:10358000579547958A95D1F72C2FB8018CE195E195
:10359000DF91CF911F910F91FF90EF90DF90CF902F
:1035A000BF90AF909F908F907F906F905F904F9063
:1035B0003F902F900C9464199924939433CF812CCD
:1035C00065CF739432968DE0781609F43DCF9B0158
:1035D00087CF891408F05CCF53CF80E0DF91CF9183
:1035E0001F910F91FF90EF90DF90CF90BF90AF9021
:1035F0009F908F907F906F905F904F903F902F9013
:103600000895DF92EF92FF920F931F93CF93DF9372
:10361000EC018B0128812223E9F08A8180FF1AC006
:103620001FC0D380D422E114F10409F078C0D11076
:1036300076C0892B8A2B8B2B09F456C04C855D856F
:103640006E857F859E01245F3F4FCF010E94AB3C7A
:1036500087FF5AC08981826089838FEF9FEFA2C064
:1036600023FF14C0888D998DAA8DBB8D48895989F7
:103670006A897B89841B950BA60BB70B8230910559
:10368000A105B105A0F4009791F46AC025FF0FC011
:10369000EE81FF818681978145E0880F991F4A95C9
:1036A000E1F7488959898417950709F457C0888933
:1036B0009989AA89BB897C0131E0F322EE81FF81DF
:1036C000AC01BD0139E076956795579547953A95D8
:1036D000D1F725FFA6CF848D958DA68DB78D480F88
:1036E000591F6A1F7B1F41C026FF05C0848D958D21
:1036F000A68DB78D04C08C8D9D8DAE8DBF8D8C87B2
:103700009D87AE87BF870BC0811109C088818077F4
:1037100009F4A0CF81E090E021E030E023C0EE8109
:10372000FF814C855D856E857F8542505109610919
:103730007109048004C0440F551F661F771F0A9447
:10374000D2F780899189A289B389480F591F6A1FCE
:103750007B1F4D0D511D611D711D07C080E090E064
:1037600020E030E0821B930B1DC08E819F8120E002
:1037700080960E94083C009709F46CCFFC01EE0D86
:10378000FF1D8081F801808388899989AA89BB8976
:103790000196A11DB11D888B998BAA8BBB8B81E0F3
:1037A00090E0DECFDF91CF911F910F91FF90EF90CE
:1037B000DF9008956AE073E087E594E10E94CF5BB3
:1037C0004091241450912514052E000C660B770BA4
:1037D00081E090E00C945E5BEF92FF920F931F9359
:1037E000CF93DF9320910D1830910E18A901445703
:1037F000584E7A010CE817E1C82F880FDD0B0E1523
:103800001F0578F4F80181918F018B3351F0082E58
:10381000000C990B0E941C698C179D0781F781E0B1
:1038200001C080E0DF91CF911F910F91FF90EF9049
:1038300008958F929F92AF92BF92CF92DF92EF92B4
:10384000FF920F931F93CF93DF934A015B01209167
:103850000D1830910E18A9014457584E7A01CCE842
:10386000D7E1082F880F110BCE15DF05D0F4899111
:103870008B33B9F0082E000C990B0E941C6980173D
:10388000910791F7CE01DF91CF911F910F91FF909A
:10389000EF90DF90CF90BF90AF909F908F900C945F
:1038A0009563C501B401DF91CF911F910F91FF90F6
:1038B000EF90DF90CF90BF90AF909F908F90089542
:1038C0003F924F925F926F927F928F929F92AF92B0
:1038D000BF92CF92DF92EF92FF920F931F93CF93FD
:1038E000DF93CDB7DEB7E1970FB6F894DEBF0FBE1A
:1038F000CDBF19821A8220911C15211127C1DC012C
:103900002C91207709F422C1ECE8F3E08F0121919A
:103910002F32E1F3FC0166817781211105C08CE132
:1039200095E10E94853E46C1CE0101960E94853EEA
:10393000882309F40BC17E01B2E3EB0EF11CB0E267
:10394000BB2E99249394F8019F012F5F3F4F8081F4
:10395000803211F4F901F8CFFDA3ECA39F01A90176
:103960004E1B5F0B8901D9018D919D01882341F187
:103970008F3221F4CF01840F951F1BC08C3509F4C1
:10398000E5C0982F977F923209F4E0C08A3309F49A
:10399000DDC0982F9F7B9C3309F4D8C092EC980F20
:1039A000923008F4D3C080528F35C8F2CFC02F3286
:1039B00039F48C01DC012D91CD012032C1F7F9CF12
:1039C000DA01AE0FBF1FAD014E1B5F0BEA17FB07FD
:1039D00059F08E918E32B9F38032A9F34F3F5105E1
:1039E00011F00CF0B3C002C040E050E05BA34AA36A
:1039F000DE0197966D01BD92AE15BF05E1F7DF01BF
:103A0000CD018E1B9F0B2D912E32D1F32032C1F3AD
:103A1000AA24A394009709F0A12C9A0121503109FE
:103A2000DF01A40FB51F2F3F6FEF360749F46EA0DB
:103A3000712C77E0872E70E0412CA8E05A2E3CC014
:103A40006E916E32A1F321503109EDCFDF01A80F45
:103A5000B91F6C91603209F456C06E3289F5821735
:103A6000930709F050C0A6EDA60FA63070F1A6ECA2
:103A7000A60FA63060F1A5EAA60FA33040F1AFED86
:103A8000A60FAE3520F58217930709F48DC087166F
:103A900060F1A62FBFE9B60FBA3110F56052752854
:103AA00033243394370ED601A70FB11D6C93A6E0D3
:103AB000A31558F5732D0196841795073CF228C07D
:103AC000623229F06C3779F602C06D3281F28217CA
:103AD000930709F460C0871640F06FE5A12CAFE5AD
:103AE000A154AA31E8F64528DBCFAAE08A1609F4EA
:103AF0005EC0281739070CF45AC0C901BAE08B2EF2
:103B000078E060E1562EA12CD6CF632C732DD3CF55
:103B10006EA28FA18032D1F0AA2039F0472011F493
:103B2000872D01C082E089A313C099A28EA190E0E5
:103B3000F601E80FF91F2EE72083E8E2F0E0EC0F32
:103B4000FD1FE80FF91F21E3208302C080E032C08F
:103B5000F80180818823B9F0BE016F5D7F4FCE01EF
:103B600001960E94E719882389F380E2ECE1F5E1F0
:103B7000DE01119601900D928A95E1F78CE195E1B5
:103B80000E949F3EE0CEBE016F5D7F4FCE01019649
:103B90000E94E7190FC06AE0861649F06AE0862E97
:103BA00078E0A0E15A2E87CFBAE08B12F7CF6EA251
:103BB000A12CAFCFE1960FB6F894DEBF0FBECDBFFC
:103BC000DF91CF911F910F91FF90EF90DF90CF90F9
:103BD000BF90AF909F908F907F906F905F904F902D
:103BE0003F900895CF92DF92EF92FF920F931F9331
:103BF000CF93DF93FC01808181115CC090911C15F3
:103C0000907709F457C040912C1550912D15609173
:103C10002E1570912F154F71552766277727452B45
:103C2000462B472B09F046C08F01C0E0D0E0C09082
:103C30002C15D0902D15E0902E15F0902F1560E0EA
:103C40008CE195E10E943C3E0097A1F1FC012081AE
:103C5000222381F12E3211F4C0E0E9CF253EE1F3B9
:103C6000338533FD07C0CC2371F00E941B3D8D13BB
:103C700021C009C03F3081F726FFD9CFC22FCF71B5
:103C8000FC01D585D4CFB701A60185E0769567956F
:103C9000579547958A95D1F72C2F6CE175E1C801AE
:103CA000DF91CF911F910F91FF90EF90DF90CF9018
:103CB0000C94641980E0DF91CF911F910F91FF90D8
:103CC000EF90DF90CF900895CF93DF93809116050A
:103CD0008823F1F010921605109207141092F01339
:103CE00084E08093EF1380910614882319F08150AB
:103CF00080930614E091061484E0E89FF0011124FB
:103D0000EE50FC4E828193819093EE138093ED13DD
:103D100080910814909109140097D1F0C091E904A2
:103D2000D091EA04288139814A815B8118161906ED
:103D30002CF06AE077ED83E29CEB04C06AE077ED5B
:103D400083E29CE30E94FC65688379838A839B837A
:103D50001092C7051092C6051092C5051092C405B1
:103D60008091EB049091EC040E94354EE091EB04BD
:103D7000F091EC04DF010D900020E9F7AF014A1B40
:103D80005B0B4C5E5F4FE091E904F091EA046081C7
:103D9000718182819381DF91CF910C94C45880917D
:103DA00016058823F1F01092160510920714109250
:103DB000F01384E08093EF1380910614882319F0A8
:103DC000815080930614E091061484E0E89FF0018E
:103DD0001124EE50FC4E828193819093EE138093D8
:103DE000ED1360910814709109146115710539F192
:103DF000072E000C880B990B0E940C64209117026F
:103E0000309118024091190250911A020E94FC65EB
:103E100020E030E0A9010E945C68181624F080E0E0
:103E200090E0DC0104C080E090E0A0E8BFE3809374
:103E3000170290931802A0931902B0931A021092DD
:103E4000C7051092C6051092C5051092C40586E4F8
:103E50000E94204E60911702709118028091190201
:103E600090911A0240E050E00C94C4580E94564EC3
:103E7000109217058091F01381114EC08091EF13BD
:103E8000882309F449C01092C7051092C605109204
:103E9000C5051092C405E091061484E0E89FF00186
:103EA0001124EE50FC4E8181882311F080E201C084
:103EB0008EE30E94204E85E593E00E94354E80916E
:103EC000061494E0899FF0011124EE50FC4E2181EC
:103ED00090911705291320C0909116059923E1F0C0
:103EE00010921605109207141092F01394E090931C
:103EF000EF13882319F0815080930614E091061483
:103F000084E0E89FF0011124EE50FC4E8281938101
:103F10009093EE138093ED13809117058F5F80933C
:103F200017059091F013891708F44EC02091EF13F4
:103F3000821708F049C01092C7051092C605282FB5
:103F400030E0291B31093093C5052093C405E09169
:103F5000061494E0E99FF0011124EE50FC4E91818B
:103F6000891711F080E201C08EE30E94204E8EE896
:103F700093E00E94354EE091061484E0E89FD00162
:103F80001124AE50BC4E11969C9180911705981348
:103F90001BC0809116058823B9F010921605109267
:103FA00007141092F01384E08093EF13EF5FE09317
:103FB000061494E0E99FF0011124EE50FC4E1182AA
:103FC000108288E295E2C7C3809117058F5F8093C6
:103FD00017059091F013891708F44EC02091EF1344
:103FE000821708F049C01092C7051092C605282F05
:103FF00030E0291B31093093C5052093C405E091B9
:10400000061494E0E99FF0011124EE50FC4E9181DA
:10401000891711F080E201C08EE30E94204E8AE9E8
:1040200093E00E94354EE091061484E0E89FD001B1
:104030001124AE50BC4E11969C9180911705981397
:104040001BC0809116058823B9F0109216051092B6
:1040500007141092F01384E08093EF13EF5FE09366
:10406000061494E0E99FF0011124EE50FC4E1182F9
:10407000108280E395E26FC3809117058F5F809374
:1040800017059091F013891708F44EC02091EF1393
:10409000821708F049C01092C7051092C605282F54
:1040A00030E0291B31093093C5052093C405E09108
:1040B000061494E0E99FF0011124EE50FC4E91812A
:1040C000891711F080E201C08EE30E94204E86EA3B
:1040D00093E00E94354EE091061484E0E89FD00101
:1040E0001124AE50BC4E11969C91809117059813E7
:1040F0001BC0809116058823B9F010921605109206
:1041000007141092F01384E08093EF13EF5FE093B5
:10411000061494E0E99FF0011124EE50FC4E118248
:10412000108288E395E217C3809117058F5F809313
:1041300017059091F013891708F44EC02091EF13E2
:10414000821708F049C01092C7051092C605282FA3
:1041500030E0291B31093093C5052093C405E09157
:10416000061494E0E99FF0011124EE50FC4E918179
:10417000891711F080E201C08EE30E94204E82EB8D
:1041800093E00E94354EE091061484E0E89FD00150
:104190001124AE50BC4E11969C9180911705981336
:1041A0001BC0809116058823B9F010921605109255
:1041B00007141092F01384E08093EF13EF5FE09305
:1041C000061494E0E99FF0011124EE50FC4E118298
:1041D000108280E495E2BFC2809117058F5F8093C3
:1041E00017059091F013891708F44EC02091EF1332
:1041F000821708F049C01092C7051092C605282FF3
:1042000030E0291B31093093C5052093C405E091A6
:10421000061494E0E99FF0011124EE50FC4E9181C8
:10422000891711F080E201C08EE30E94204E8EEBD0
:1042300093E00E94354EE091061484E0E89FD0019F
:104240001124AE50BC4E11969C9180911705981385
:104250001BC0809116058823B9F0109216051092A4
:1042600007141092F01384E08093EF13EF5FE09354
:10427000061494E0E99FF0011124EE50FC4E1182E7
:10428000108288E495E267C2809117058F5F809362
:1042900017059091F013891708F44EC02091EF1381
:1042A000821708F049C01092C7051092C605282F42
:1042B00030E0291B31093093C5052093C405E091F6
:1042C000061494E0E99FF0011124EE50FC4E918118
:1042D000891711F080E201C08EE30E94204E80ED2C
:1042E00093E00E94354EE091061484E0E89FD001EF
:1042F0001124AE50BC4E11969C91809117059813D5
:104300001BC0809116058823B9F0109216051092F3
:1043100007141092F01384E08093EF13EF5FE093A3
:10432000061494E0E99FF0011124EE50FC4E118236
:10433000108280E595E20FC2809117058F5F809310
:1043400017059091F013891708F44EC02091EF13D0
:10435000821708F049C01092C7051092C605282F91
:1043600030E0291B31093093C5052093C405E09145
:10437000061494E0E99FF0011124EE50FC4E918167
:10438000891711F080E201C08EE30E94204E83EE77
:1043900093E00E94354EE091061484E0E89FD0013E
:1043A0001124AE50BC4E11969C9180911705981324
:1043B0001BC0809116058823B9F010921605109243
:1043C00007141092F01384E08093EF13EF5FE093F3
:1043D000061494E0E99FF0011124EE50FC4E118286
:1043E000108288E595E2B7C1809117058F5F8093B1
:1043F00017059091F013891708F44EC02091EF1320
:10440000821708F049C01092C7051092C605282FE0
:1044100030E0291B31093093C5052093C405E09194
:10442000061494E0E99FF0011124EE50FC4E9181B6
:10443000891711F080E201C08EE30E94204E80EFC8
:1044400093E00E94354EE091061484E0E89FD0018D
:104450001124AE50BC4E11969C9180911705981373
:104460001BC0809116058823B9F010921605109292
:1044700007141092F01384E08093EF13EF5FE09342
:10448000061494E0E99FF0011124EE50FC4E1182D5
:10449000108280E695E25FC1809117058F5F80935F
:1044A00017059091F013891708F44EC02091EF136F
:1044B000821708F049C01092C7051092C605282F30
:1044C00030E0291B31093093C5052093C405E091E4
:1044D000061494E0E99FF0011124EE50FC4E918106
:1044E000891711F080E201C08EE30E94204E8DEF0B
:1044F00093E00E94354EE091061484E0E89FD001DD
:104500001124AE50BC4E11969C91809117059813C2
:104510001BC0809116058823B9F0109216051092E1
:1045200007141092F01384E08093EF13EF5FE09391
:10453000061494E0E99FF0011124EE50FC4E118224
:10454000108288E695E207C1809117058F5F8093FE
:1045500017059091F013891708F44EC02091EF13BE
:10456000821708F049C01092C7051092C605282F7F
:1045700030E0291B31093093C5052093C405E09133
:10458000061494E0E99FF0011124EE50FC4E918155
:10459000891711F080E201C08EE30E94204E8AE06C
:1045A00094E00E94354EE091061484E0E89FD0012B
:1045B0001124AE50BC4E11969C9180911705981312
:1045C0001BC0809116058823B9F010921605109231
:1045D00007141092F01384E08093EF13EF5FE093E1
:1045E000061494E0E99FF0011124EE50FC4E118274
:1045F000108280E795E2AFC0809117058F5F8093AE
:1046000017059091F013891708F44EC02091EF130D
:10461000821708F049C01092C7051092C605282FCE
:1046200030E0291B31093093C5052093C405E09182
:10463000061494E0E99FF0011124EE50FC4E9181A4
:10464000891711F080E201C08EE30E94204E87E1BD
:1046500094E00E94354EE091061484E0E89FD0017A
:104660001124AE50BC4E11969C9180911705981361
:104670001BC0809116058823B9F010921605109280
:1046800007141092F01384E08093EF13EF5FE09330
:10469000061494E0E99FF0011124EE50FC4E1182C3
:1046A000108288E795E257C0809117058F5F80934D
:1046B00017059091F013891708F454C02091EF1357
:1046C000821708F04FC01092C7051092C605282F18
:1046D00030E0291B31093093C5052093C405E091D2
:1046E000061494E0E99FF0011124EE50FC4E9181F4
:1046F000891711F080E201C08EE30E94204E8AE209
:1047000094E00E94354EE091061484E0E89FD001C9
:104710001124AE50BC4E11969C91809117059813B0
:1047200021C0809116058823E9F010921605109299
:1047300007141092F01384E08093EF13EF5FE0937F
:10474000061494E0E99FF0011124EE50FC4E118212
:10475000108280E895E2938382839093EE13809396
:10476000ED130895809117058F5F8093170580934F
:10477000071408954F925F926F927F928F929F924B
:10478000AF92BF92CF92DF92EF92FF920F931F935F
:10479000CF93DF93CDB7DEB768970FB6F894DEBF3F
:1047A0000FBECDBF8C016B017A010E94564E109254
:1047B000C7051092C6051092C5051092C4058EE378
:1047C00094E00E94354E380117FF03C08FEF681A3E
:1047D000780A759467948601D7FE02C00F5F1F4F59
:1047E00015950795EA94EF2829F4962D872D380121
:1047F000092F182F80912E1490912F14A09130140E
:10480000B09131148D879E87AF87B88B89839A8347
:10481000AB83BC8380913E1490913F14A0914014CF
:10482000B0914114898B9A8BAB8BBC8B8D839E830B
:10483000AF83B88780E090E0A4EBB2E48D8B9E8BD1
:10484000AF8BB88F89879A87AB87BC874091170257
:10485000509118026091190270911A02CE010D96C2
:104860000E941C516627772766197709072E000CCE
:10487000880B990B0E940C644B015C016D877E874D
:104880008F87988BB801012E000C880B990B0E9422
:104890000C646B017C01698B7A8B8B8B9C8B4091B8
:1048A0001702509118026091190270911A02CE01FC
:1048B0000D960E941C5180E090E0A0E2B2E48D8B46
:1048C0009E8BAF8BB88F4091170250911802609168
:1048D000190270911A02CE010D960E941C51B3016B
:1048E000770C880B990B0E940C642B013C016D879F
:1048F0007E878F87988BC98ADA8AEB8AFC8A4091F7
:104900001702509118026091190270911A02CE019B
:104910000D960E941C514D865E866F86788A6627AA
:104920007727601B710B072E000C880B990B0E94D8
:104930000C642B013C01698B7A8B8B8B9C8B409197
:104940001702509118026091190270911A02CE015B
:104950000D960E941C518D869E86AF86B88A498A24
:104960005A8A6B8A7C8A4091170250911802609192
:10497000190270911A02CE010D960E941C518D866B
:104980009E86AF86B88AC98ADA8AEB8AFC8A409109
:104990001702509118026091190270911A02CE010B
:1049A0000D960E941C5180E090E0A4EBB2E48D8B48
:1049B0009E8BAF8BB88F4091170250911802609177
:1049C000190270911A02CE010D960E941C5140915D
:1049D0001702509118026091190270911A02CE01CB
:1049E00001960E941C511092160510920714109205
:1049F000F01384E08093EF1380910614882319F05C
:104A0000815080930614E091061494E0E99FF00130
:104A10001124EE50FC4E828193819093EE1380938B
:104A2000ED1368960FB6F894DEBF0FBECDBFDF91D1
:104A3000CF911F910F91FF90EF90DF90CF90BF909B
:104A4000AF909F908F907F906F905F904F90089560
:104A500040E050E062E572E084EA91E00C94BA2311
:104A600040E050E064EA71E089E291E00C94BA23FE
:104A700040E050E069E271E082ED90E00C94BA23EE
:104A800040E050E062ED70E084E990E00C94BA23DD
:104A900040E050E064E671E088ED90E00C94BA23C9
:104AA00040E050E067E171E088ED90E00C94BA23BB
:104AB00041E050E062E572E084EA91E00C94BA23B0
:104AC00041E050E064EA71E089E291E00C94BA239D
:104AD00041E050E069E271E082ED90E00C94BA238D
:104AE00041E050E062ED70E084E990E00C94BA237C
:104AF00041E050E064E671E088ED90E00C94BA2368
:104B000041E050E067E171E088ED90E00C94BA2359
:104B10000F931F93CF93DF93CDB7DEB72C970FB6CC
:104B2000F894DEBF0FBECDBF809116058823F1F04B
:104B300010921605109207141092F01384E08093DF
:104B4000EF1380910614882319F081508093061486
:104B5000E091061484E0E89FF0011124EE50FC4E31
:104B6000828193819093EE138093ED1380912E14A4
:104B700090912F14A0913014B091311489839A83AD
:104B8000AB83BC8380913E1490913F14A09140145C
:104B9000B09141148D839E83AF83B8870091081430
:104BA00010910914B801012E000C880B990B0E947A
:104BB0000C6420914E1430914F1440915014509138
:104BC00051140E94FC6520E030E0A9010E945C685D
:104BD00018162CF080E090E0A0E8BFEB04C080E065
:104BE00090E0A0E8BFE389879A87AB87BC87012B59
:104BF00061F0409117025091180260911902709172
:104C00001A02CE0101960E941C511092C705109203
:104C1000C6051092C5051092C4058AE50E94204E73
:104C200069857A858B859C8540E050E00E94C45858
:104C30002C960FB6F894DEBF0FBECDBFDF91CF919B
:104C40001F910F9108950F931F93CF93DF93CDB7CB
:104C5000DEB72C970FB6F894DEBF0FBECDBF8091A4
:104C600016058823F1F01092160510920714109281
:104C7000F01384E08093EF1380910614882319F0D9
:104C8000815080930614E091061484E0E89FF001BF
:104C90001124EE50FC4E828193819093EE13809309
:104CA000ED1380912E1490912F14A0913014B09197
:104CB000311489839A83AB83BC83009108141091CB
:104CC0000914B801012E000C880B990B0E940C648A
:104CD00020913E1430913F14409140145091411462
:104CE0000E94FC6520E030E0A9010E945C68181673
:104CF0002CF080E090E0A0E8BFEB04C080E090E002
:104D0000A0E8BFE38D839E83AF83B88780914E1464
:104D100090914F14A0915014B091511489879A87A3
:104D2000AB87BC87012B61F04091170250911802AC
:104D30006091190270911A02CE0101960E941C51D5
:104D40001092C7051092C6051092C5051092C405B1
:104D500089E50E94204E6D817E818F81988540E09B
:104D600050E00E94C4582C960FB6F894DEBF0FBED8
:104D7000CDBFDF91CF911F910F9108950F931F9396
:104D8000CF93DF93CDB7DEB72C970FB6F894DEBF85
:104D90000FBECDBF809116058823F1F01092160545
:104DA000109207141092F01384E08093EF13809117
:104DB0000614882319F0815080930614E09106149C
:104DC00084E0E89FF0011124EE50FC4E8281938133
:104DD0009093EE138093ED13009108141091091431
:104DE000B801012E000C880B990B0E940C642091D5
:104DF0002E1430912F1440913014509131140E9490
:104E0000FC6520E030E0A9010E945C6818162CF0D7
:104E100080E090E0A0E8BFEB04C080E090E0A0E874
:104E2000BFE389839A83AB83BC8380913E149091C6
:104E30003F14A0914014B09141148D839E83AF83A1
:104E4000B88780914E1490914F14A0915014B09156
:104E5000511489879A87AB87BC87012B61F04091F9
:104E60001702509118026091190270911A02CE0136
:104E700001960E941C511092C7051092C60510920F
:104E8000C5051092C40588E50E94204E69817A818B
:104E90008B819C8140E050E00E94C4582C960FB654
:104EA000F894DEBF0FBECDBFDF91CF911F910F9160
:104EB0000895CF93DF93CDB7DEB7CC55D1090FB6A8
:104EC000F894DEBF0FBECDBF8091BC0481111EC01F
:104ED00010921605109207141092F01384E080933C
:104EE000EF1380910614882319F0815080930614E3
:104EF000E091061484E0E89FF0011124EE50FC4E8E
:104F0000828193819093EE138093ED138091081426
:104F100090910914892B21F480911605813019F4A0
:104F200081E08093F1138091F113813009F00DC17C
:104F30000E94564E109217058091F01381114EC0B9
:104F40008091EF13882309F449C01092C70510928D
:104F5000C6051092C5051092C405E091061494E0B0
:104F6000E99FF0011124EE50FC4E8181882311F05D
:104F700080E201C08EE30E94204E85E593E00E940E
:104F8000354E8091061494E0899FF0011124EE5073
:104F9000FC4E218190911705291320C09091160590
:104FA0009923E1F010921605109207141092F01355
:104FB00094E09093EF13882319F0815080930614A6
:104FC000E091061484E0E89FF0011124EE50FC4EBD
:104FD000828193819093EE138093ED138091170556
:104FE0008F5F809317058091BA049091BB040E9453
:104FF000601C19A61AA618A61FA282E392E09EA31F
:105000008DA3CE0189960E94F21D882301F189A506
:105010008271C1F442E150E0BE01675B7F4FCE0177
:1050200089960E94783F809117059091F013891717
:1050300020F02091EF138217A8F0809117058F5F61
:1050400080931705CE0189960E949F3EDACF8CE1AE
:1050500095E10E949F3E809117058093071410925E
:10506000F11373C01092C7051092C605282F30E0C7
:10507000291B31093093C5052093C405E09106141E
:1050800094E0E99FF0011124EE50FC4E91818917C4
:1050900011F080E201C08EE30E94204ECE01875BBA
:1050A0009F4F0E94354E8091061494E0899FF00135
:1050B0001124EE50FC4E2181909117052913BDCF8C
:1050C00090911605913009F0B8CF50910714409196
:1050D000F0139091EF132091ED133091EE1388238C
:1050E00069F0815094E0899FF0011124EE50FC4E4C
:1050F0002281338140E094E050E0F1CF1092160518
:10510000509307144093F0139093EF1310920614EA
:105110003093EE132093ED1380E2FE01B996DE0189
:10512000159601900D928A95E1F78FA198A59C8321
:105130008B8382E392E09A838983CE0101960E9459
:105140005C598CE195E10E949F3EC45ADF4F0FB637
:10515000F894DEBF0FBECDBFDF91CF910895EF92DF
:10516000FF920F931F93CF93DF93CDB7DEB7C15557
:10517000D1090FB6F894DEBF0FBECDBF84E1E8E1E0
:10518000F5E0DE01119601900D928A95E1F784E138
:10519000E0E4F5E0DE01559601900D928A95E1F785
:1051A00084E1ECE2F5E0DE01999601900D928A959A
:1051B000E1F784E1E4E5F5E0DE01DD9601900D9292
:1051C0008A95E1F78E010F5F1F4F7E0181E5E80EA2
:1051D000F11CF80161918F0189E898E10E949039F2
:1051E0000E151F05B1F7CF5ADF4F0FB6F894DEBF8B
:1051F0000FBECDBFDF91CF911F910F91FF90EF9028
:105200000895DC01EDEEF4E09D91992311F0919366
:10521000FBCF108260911605509107144091F01356
:105220009091EF13809106142091ED133091EE13BD
:10523000882371F0815094E0899FF0011124EE5091
:10524000FC4E2281338150E040E094E060E0F0CFFA
:105250001092061460931605509307144093F013B0
:105260009093EF133093EE132093ED1308952F9244
:105270003F924F925F926F927F928F929F92AF92E6
:10528000BF92CF92DF92EF92FF920F931F93CF9333
:10529000DF93CDB7DEB7C856D1090FB6F894DEBF9D
:1052A0000FBECDBF9AAB89AB6A017B010BA71CA7D0
:1052B0002DA73EA78091BD049091BE0401969C014C
:1052C0002F713327A1963FAF2EAFA1978091BF04D6
:1052D0009091C004A1964EAD5FADA197841795073C
:1052E000A9F30091BD041091BE048091BD0490917A
:1052F000BE049EAB8DABBE016F5F7F4F89A99AA99B
:105300000E94574A20912E1430912F14409130144E
:105310005091311423962CAF3DAF4EAF5FAF239722
:1053200080913E1490913F14A0914014B09141148B
:105330006B968CAF9DAFAEAFBFAF6B9781E7ADA95A
:10534000BEA98A9F90018B9F300D1124F901E35370
:10535000FA4F2596FFAFEEAF2597E65BFF4F108221
:105360001182128213829E012F5F3F4F38AB2FA70D
:1053700025966EAC7FAC2597015011090F7111274E
:10538000809F1001819F300C112400E010E02F015C
:10539000AFA5B8A98D909D90AD90BD90B8ABAFA7CB
:1053A000F30180829182A282B382F801E20DF31DA3
:1053B000E353FA4F80819181A281B381881A990ABF
:1053C000AA0ABB0AD30114968D929D92AD92BC920B
:1053D0001797D501C4018827B7FD83959927AA2778
:1053E000BB27F301918B808BC501B4010E940C6433
:1053F0002AE037ED43E25CE30E946B640E94686739
:10540000D30118966D937D938D939C931B97B7FE54
:1054100008C0B094A09490948094811C911CA11C0D
:10542000B11CF30184869586A686B786F201808139
:105430009181A281B38188159905AA05BB0520F445
:1054400080829182A282B382B2E16B0E711C0E5EE9
:105450001F4F0633110509F09BCFA9A9BAA9E6E2AF
:10546000F4E14D915D916D917D9140875187628707
:105470007387709624E1E635F20799F781E74DA925
:105480005EA9849FF001859FF00D1124E353FA4F2C
:10549000DF01A65BBF4F4D905D906D907C901397A0
:1054A00056E0451651046104710410F40C940E3357
:1054B00096961C928BA59CA5ADA5BEA586AB97AB79
:1054C000A0AFB1AF9C01AD0160E070E080E89FE368
:1054D0000E94F6666F966CAF7DAF8EAF9FAF6F97F1
:1054E000A70196010E946B646B017C018091BD0451
:1054F0009091BE042091BC053091BD05821B930B99
:10550000DC01AF71BB272B96BFAFAEAF2B97A701C6
:10551000960160E074E284E799E40E94F6660E94D6
:1055200069684B015C012B968EAD9FAD2B9702975E
:105530000E97B8F58091000290910102A0910202AD
:10554000B091030288169906AA06BB0650F5881981
:105550009909AA09BB09BC01CD01660F771F881FF5
:10556000991F2B96EEADFFAD2B979F01FF0F440BBC
:10557000550B0E948465CA01B9010E940A640E9409
:105580006968680D791D8A1D9B1D0E940A649B0134
:10559000AC0160E074E284E799E40E94F6666B0176
:1055A0007C012BA53CA54DA55EA5C701B6010E94B7
:1055B0006B646FAB78AF89AF9AAF81E72DA93EA935
:1055C000829F8001839F100D112403531A4F8FA9CE
:1055D00098ADA9ADBAADF80182AF93AFA4AFB5AFA6
:1055E000C301B2010E940A6429966CAF7DAF8EAFF1
:1055F0009FAF29979B01AC01C701B6010E946B6464
:105600000E94DA660E946F6761966CAF7DAF8EAFC5
:105610009FAF6197F801E65AFF4F608371838283E1
:1056200093839E01235F3F4F67963FAF2EAF6797EF
:1056300041EC54E05CAF4BAF63963FAF2EAF639746
:1056400000E010E0212C312C50E85BA78FE38FA7FE
:105650002596EEADFFAD2597E00FF11F60857185B2
:10566000828593850E940C64A70196010E946B6459
:105670006396AEADBFAD63976D937D938D939D9310
:105680006396BFAFAEAF63974B015C01E894B7F888
:10569000EBADFCAD4190519061907190FCAFEBAFE0
:1056A000A3019201C501B4010E945C68181694F42C
:1056B000A5019401C301B2010E94F6665B014C0191
:1056C00091014BA55FA50E945C6818161CF015019E
:1056D0008BA69FA60E5E1F4F0633110509F0B8CFAB
:1056E00020E030E040E85FE3B1018BA59FA50E9478
:1056F000056487FF4BC07E01F9E1EF0EF11C679650
:105700000EAD1FAD679791014BA55FA5D8016D91B7
:105710007D918D919C910E946B64F80161937193CE
:10572000819391938F01EE16FF0669F781E72DA90A
:105730003EA9829F8001839F100D112403531A4FAD
:105740002FA938AD49AD5AADB1018BA59FA50E94D7
:105750006B64D801DA966D937D938D939C93DD975E
:10576000065A1F4F61966CAD7DAD8EAD9FAD6197B2
:105770000E940A6491014BA55FA50E946B640E9480
:105780006F67F8016083718382839383F0911302C2
:10579000FBA7209114022FA720901502309016022B
:1057A00023962CAD3DAD4EAD5FAD239760912A148D
:1057B00070912B1480912C1490912D140E94FB65F4
:1057C0002B013C016B962CAD3DAD4EAD5FAD6B97A3
:1057D0006091361470913714809138149091391477
:1057E0000E94FB656BAF7CAF8DAF9EAF9B01AC01A0
:1057F0000E946B646B017C01A3019201C301B201A1
:105800000E946B64A70196010E94FC650E94AA6831
:1058100061966CAF7DAF8EAF9FAF619723962CAD35
:105820003DAD4EAD5FAD2397609126147091271466
:1058300080912814909129140E94FB656FAB78AF7A
:1058400089AF9AAF9B01AC010E946B64A7019601DE
:105850000E94FC650E94AA6865966CAF7DAF8EAF12
:105860009FAF659723962CAD3DAD4EAD5FAD2397B1
:10587000A9A9BAA96D917D918D919C910E94FB651A
:105880004B015C016B962CAD3DAD4EAD5FAD6B97A2
:10589000E9A9FAA964817581868197810E94FB65D7
:1058A00069AB7AAB8BAB9CABA5019401C501B4018C
:1058B0000E946B646B017C0129A93AA94BA95CA9E0
:1058C000CA01B9010E946B649B01AC01C701B6011A
:1058D0000E94FC650E94AA686B017C0120E030E018
:1058E000A9010E945C6818160CF0DFC061962CAD0F
:1058F0003DAD4EAD5FAD6197C301B2010E94F6664A
:105900002B013C0165962CAD3DAD4EAD5FAD65976D
:105910006FA978AD89AD9AAD0E94F66623966CAFFB
:105920007DAF8EAF9FAF2397A7019601C501B4014C
:105930000E94F6664B015C01A701960169A97AA94C
:105940008BA99CA90E94F66669AB7AAB8BAB9CAB2A
:1059500020E030E045E754ECC301B2010E946B64E3
:105960006B017C0161962CAD3DAD4EAD5FAD619795
:105970006BAD7CAD8DAD9EAD0E94F666A501940128
:105980000E946B646FAB78AF89AF9AAF29A93AA92F
:105990004BA95CA9C301B2010E946B649B01AC01DD
:1059A0006FA978AD89AD9AAD0E94FB659B01AC01F2
:1059B000C701B6010E94F6663B018C0120E030E091
:1059C00045E754EC23966CAD7DAD8EAD9FAD23972E
:1059D0000E946B646B017C0165962CAD3DAD4EADB4
:1059E0005FAD65976BAD7CAD8DAD9EAD0E94F666EB
:1059F000A50194010E946B644B015C0129A93AA99D
:105A00004BA95CA923966CAD7DAD8EAD9FAD239760
:105A10000E946B649B01AC01C501B4010E94FB654F
:105A20009B01AC01C701B6010E94F6666B017C01C7
:105A300020E030E0A901B301C8010E945C6820E0C9
:105A400030E0A901B601181674F4C7010E945C6821
:105A5000181684F49601A701B301C8010E940564D9
:105A600087FD08C005C0C7010E945C681816ECF4E9
:105A7000360187012BA53FA5A101B301C8010E94F2
:105A80005C6818167CF420E030E0A9016BA57FA5C6
:105A9000C1010E945C68181644F01BA61FA6212CA9
:105AA000312C03C06BA67FA6180129962CAD3DAD05
:105AB0004EAD5FAD29976F966CAD7DAD8EAD9FAD50
:105AC0006F970E946B6469AB7AAB8BAB9CAB9B010D
:105AD000AC016BA57FA5C1010E946B644B015C0109
