:100000000C945D060C948E060C948E060C948E0651
:100010000C948E060C948E060C948E060C948E0610
:100020000C948E060C948E060C948E060C948E0600
:100030000C948E060C948E060C948E060C948E06F0
:100040000C948E060C94420A0C948E060C948E0628
:100050000C948E060C948E060C948E060C94CE296D
:100060000C948E060C947C130C9452130C948E06F4
:100070000C948E060C948E060C948E060C948E06B0
:100080000C94E3110C948E060C948E060C948E0640
:100090000C948E060C948E060C948E060C948E0690
:1000A0000C948E060C948E060C94B5110C948E064E
:1000B0000C948E060C948E060C948E060C9487116C
:1000C0000C948E060C948E060C948E060C948E0660
:1000D0000C948E060C948E060C948E060C948E0650
:1000E0000C948E06DC1FDF1FCE1FD21FD81F1620D8
:1000F000E31FE71FED1FF11FF51FFB1FFF1F03206D
:10010000162009200D201120084AD73B3BCE016E56
:1001100084BCBFFDC12F3D6C74319ABD56833DDA5E
:100120003D00C77F11BED9E4BB4C3E916BAAAABE6D
:10013000000000803F05A84CCDB2D44EB93836A996
:10014000020C50B9918688083CA6AAAA2ABE0000D3
:1001500000803F000C9416200C943F120C940D204C
:100160000C9403200C944E120C9483340C941120A4
:100170000C94DF1F0C94FF1F0C9462120C94E31F6D
:100180000C94E71F0C94DC1F0C94CE1F0C94FB1FE7
:100190000C94F5120C94ED1F0C94D21F0C94D81FE4
:1001A0000C9411120C9470120C9409200C94F11FF1
:1001B0000C94F51F0C94A8124E414E494E495459C7
:1001C000494E46CDCCCC3D0AD7233C17B7D1387722
:1001D000CC2B329595E6241FB14F0A000020410038
:1001E00000C84200401C4620BCBE4CCA1B0E5AAE82
:1001F000C59D744D323033200041646A7573746953
:100200006E67206C696D6974732E0020537465707D
:100210003D002073746570732E204469723D00297F
:1002200020002028004D6F76696E6720004431342D
:1002300020004435302053004C494D4954204D494D
:100240004E20004C494D4954204D41582000446FE8
:100250006E652E0046696E6420486F6D652E2E2EE9
:10026000004431302056004E4F4C494E454E554DBE
:10027000004241444C494E454E554D200024F4D493
:100280003050C38E20C2A24017828B7011127A9117
:100290000D816CD90AA861E108C75866076151430E
:1002A000061E4B5D05C145A7041A411104093D987E
:1002B00003713931034036DB0265339102D4305487
:1002C00002802E1D02632CEE01752AC501B028A004
:1002D00001102781018F2564012B244B01E022347A
:1002E00001AC211F018D200D01801FFC00841EED3B
:1002F00000971DDF00B81CD200E61BC600201BBC07
:1003000000641AB200B219A8000A19A0006A18996C
:1003100000D117910040178B00B516840031167E6E
:1003200000B31579003A157300C7146F0058146AAA
:1003300000EE1366008813630025135E00C7125B8E
:10034000006C12570015125400C111510070114F6A
:100350000021114B00D61049008D10470046104473
:100360000002104200C00F4000800F3E00420F3CD0
:1003700000060F3B00CB0E3800930E37005C0E35A5
:1003800000270E3400F30D3200C10D3100900D3006
:1003900000600D2E00320D2D00050D2C00D90C2B08
:1003A00000AE0C2900850C29005C0C2700350C27B9
:1003B000000E0C2600E80B2400C40B2400A00B2325
:1003C000007D0B23005A0B2100390B2100180B2054
:1003D00000F80A1F00D90A1E00BB0A1E009D0A1D54
:1003E00000800A1D00630A1C00470A1B002C0A1B20
:1003F00000110A1A00F7091A00DD091900C40919C9
:1004000000AB091900920917007B0918006309174E
:10041000004C09160036091600200916000A0915B5
:1004200000F5081500E0081400CC081400B8081402
:1004300000A4081400900813007D0812006B081334
:100440000058081200460812003408110023081151
:10045000001208110001081100F0071000E0071059
:1004600000D0071000C0071000B0070F00A1071050
:100470000091070E0083070F0074070F0065070E39
:100480000057070E0049070E003B070D002E070E10
:100490000020070D0013070D0006070D00F9060CDC
:1004A00000ED060D00E0060C00D4060C00C8060C9A
:1004B00000BC060C00B0060C00A4060B0099060C4C
:1004C000008D060B0082060B0077060B006C060BF6
:1004D0000061060A0057060B004C060A0042060A95
:1004E0000038060A002E060A0024060A001A060A28
:1004F000001006090007060A00FD050900F40509B9
:1005000000EB050900E2050900D9050900D005093D
:1005100000C7050900BE050900B5050800AD0508BE
:1005200000A50509009C050800940508008C050835
:1005300000840508007C050800740508006C0507A8
:1005400000650508005D050700560508004E050713
:10055000004705070040050800380507003105077A
:10056000002A050700230507001C050600160507DD
:10057000000F0507000805060002050700FB04063A
:1005800000F5040700EE040600E8040600E2040794
:1005900000DB040600D5040600CF040600C90406EB
:1005A00000C3040600BD040600B7040600B104053C
:1005B00000AC040600A6040600A00405009B040687
:1005C0000095040500900406008A040500850405D2
:1005D00000800406007A0405007504050070040517
:1005E000006B04050066040500610405005C040559
:1005F0000057040500520405004D04050048040599
:1006000000430405003E0404003A040500350405D7
:1006100000300404002C0405002704040023040512
:10062000001E0404001A040400160405001104044A
:10063000000D04040009040500040404000004047F
:1006400000FC030400F8030400F4030400F00304B6
:1006500000EC030400E8030400E4030400E00304E6
:1006600000DC030400D8030400D4030400D0030416
:1006700000CC030400C8030300C503030024F404F2
:10068000D9201BC40C5C0E9804C4095F0265077175
:1006900001F405F900FB04B30048048700C10369B5
:1006A000005803550003034500BE023A008402319E
:1006B0000053022A002902250004022000E4011C44
:1006C00000C8011900AF011700980114008401133C
:1006D00000710110006101100051010E0043010D75
:1006E0000036010B002B010B0020010B0015010946
:1006F000000C01090003010800FB000800F30008DA
:1007000000EB000700E4000600DE000600D800064B
:1007100000D2000600CC000500C7000500C200059D
:1007200000BD000400B9000400B5000400B10004DD
:1007300000AD000400A9000400A5000300A200030E
:10074000009F0004009B0003009800030095000236
:100750000093000300900003008D0002008B000353
:10076000008800020086000200840003008100026D
:10077000007F0002007D0002007B00020079000281
:100780000077000100760002007400020072000190
:1007900000710002006F0002006D0001006C000299
:1007A000006A0001006900020067000100660001A4
:1007B00000650001006400020062000100610001A8
:1007C00000600001005F0002005D0001005C0001AC
:1007D000005B0001005A00010059000100580001AF
:1007E00000570001005600010055000100540001AF
:1007F00000530000005300010052000100510001AD
:1008000000500001004F0001004E0000004E0001AA
:10081000004D0001004C0001004B0000004B0001A6
:10082000004A0001004900010048000000480001A2
:10083000004700010046000000460001004500009E
:100840000045000100440001004300000043000196
:100850000042000000420001004100000041000190
:1008600000400001003F0000003F0001003E00008A
:10087000003E0001003D0000003D0001003C000082
:10088000003C0000003C0001003B0000003B000178
:10089000003A0000003A0001003900000039000170
:1008A0000038000000380000003800010037000068
:1008B000003700010036000000360000003600015D
:1008C0000035000000350000003500010034000054
:1008D0000034000000340001003300000033000049
:1008E000003300010032000000320000003200013D
:1008F0000031000000310000003100010030000034
:100900000030000000300001002F0000002F000028
:10091000002F0000002F0001002E0000002E00001C
:10092000002E0001002D0000002D0000002D000011
:10093000002D0001002C0000002C0000002C000005
:10094000002C0001002B0000002B0000002B0000F9
:10095000002B0001002A0000002A0000002A0000ED
:10096000002A0001002900000029000000290000E1
:1009700000290000002900010028000000280000D4
:1009800000280000002800000028000100270000C7
:1009900000270000002700000027000000270001BA
:1009A00000260000002600000026000000260000AF
:1009B00000260001002500000025000000250000A1
:1009C0000025000000250000002500010024000093
:1009D0000024000000240000002400000024000186
:1009E000002300000023000000230000002300007B
:1009F000002300000023000000230001002200006B
:100A0000002200000022000000220000002200005E
:100A10000022000100210000002100000021000050
:100A20000021000000210000002100000021000141
:100A30000020000000200000002000000020000036
:100A40000020000000200000002000000020000125
:100A5000001F0000001F0000001F0000001F00001A
:100A6000001F0000001F0000001F0001001E00000A
:100A7000001E0000001E0000001E000000000021FB
:100A800000240027002A002D00300033000101005F
:100A900000040107010A0100002200250028002BA4
:100AA000002E003100340002010000050108010B96
:100AB00001000020002300260029002C002F003216
:100AC00000000100000301060109010505050507F5
:100AD0000508080808020202020A0A0808040404B9
:100AE00004010101010101010103030303030303E5
:100AF00003040707070C0C0C0C0C0C0C0C02020274
:100B00000206060606060606060B0B0B0B0B0B0B66
:100B10000B01021020200808102040102040800205
:100B20000102010804020101020408102040808033
:100B300040201008040201800402018040201008B7
:100B4000040201080402010102040810204080018F
:100B50000204081020408000000A0B02090C0D0E50
:100B6000080703040100000000000000000000006E
:100B70000000000000000000000000000000000075
:100B80000000001211100000000000000000000032
:100B900000000000000000000000000000205200E3
:100BA0004438204C00536176696E672063616C693C
:100BB00062726174696F6E2E002041002046004D04
:100BC00031313400290A0029202D2028004D3130F0
:100BD00031202800536176696E67206C696D6974F5
:100BE000732E00536176696E67205549442E00428A
:100BF00075696C742000547279207468657365207F
:100C000028776974682061206E65776C696E652944
:100C10003A204730302C4730312C4730322C473087
:100C2000332C4730342C4732382C4739302C473955
:100C3000312C4739322C4D31382C4D3130312C4D3F
:100C40003130302C4D31313400506C65617365208A
:100C500073656520687474703A2F2F6D616B656CD5
:100C6000616E67656C6F2E636F6D2F20666F7220EB
:100C70006D6F726520696E666F726D6174696F6EFB
:100C80002E000A0A48454C4C4F20574F524C4421E5
:100C900020002023004920414D20004669726D77D5
:100CA0006172652076000A3E2000536176696E67A6
:100CB00020686F6D652E0000833411241FBECFEFB6
:100CC000D1E2DEBFCDBF00E00CBF12E0A0E0B2E099
:100CD000E6E2F7E700E00BBF02C007900D92A63BEB
:100CE000B107D9F723E1A6EBB2E001C01D92A5330D
:100CF000B207E1F716E0CDE5D6E000E006C02197A7
:100D00000109802FFE010E945038CC35D10780E0C8
:100D10000807A9F70E94182A0C94913B0C94000034
:100D2000CF92DF92EF92FF920F931F93CF93DF93B7
:100D30006C018B017A01EC01CA5FDE4E888187FF6E
:100D400004C0FB011182108224C02CE02C9DC00144
:100D50002D9D900D11242881AC01420F511D27FDBE
:100D60005A9520912A1330E04217530794F42881B2
:100D7000AC01420F511D27FD5A959A01FA01EE0F61
:100D8000FF1F2E0F3F1FF901E254FD4E208126FD6B
:100D900019C088818F5F88832CE02C9DC0012D9D18
:100DA000900D11242881AC01420F511D27FD5A9549
:100DB00020912A1330E042175307BCF428812C30CD
:100DC00044F113C02881820F911D27FD9A95FC01E3
:100DD000EE0FFF1F8E0F9F1FFC01E254FD4E80811E
:100DE00060E08F730E94BB25D4CFF8018081918190
:100DF000049680349C4918F480E49CE904C0F8010E
:100E0000808191810496F701918380838FEF88839D
:100E100045C0F801408151812881BC01620F711DDC
:100E200027FD7A959B01FB01EE0FFF1F2E0F3F1F41
:100E3000F901E254FD4E21813281240F351FF70163
:100E4000318320832881AC01420F511D27FD5A9523
:100E50009A01FA01EE0FFF1F2E0F3F1FF901E25416
:100E6000FD4E208126FF1AC02881820F911D27FD8B
:100E70009A95FC01EE0FFF1F8E0F9F1FFC01E2549D
:100E8000FD4E808161E08F73DF91CF911F910F91B3
:100E9000FF90EF90DF90CF900C94BB25DF91CF9126
:100EA0001F910F91FF90EF90DF90CF900895CF9317
:100EB000DF93D82FC92F0E94C4151092571110929A
:100EC00058111092591110925A1110924711109204
:100ED00048111092491110924A1110924B11109220
:100EE0004C1110924D1110924E1110924F11109200
:100EF00050111092511110925211109253111092E0
:100F0000541110925511109256118091FF1090912A
:100F10000011ED2FFC2F01978F71992741E7489F12
:100F20009001499F300D112480E090E04191519152
:100F300061917191D901A80FB91FA554BD4F4D936F
:100F40005D936D937C93139742968633910571F769
:100F500010920D1110920E1110920F11109210118B
:100F60001092091110920A1110920B1110920C118B
:100F7000109215111092161110921711109218114B
:100F8000DF91CF9108954F925F926F927F928F92EF
:100F90009F92AF92BF92CF92DF92EF92FF920F9308
:100FA0001F93CF93DF93CDB7DEB768970FB6F89452
:100FB000DEBF0FBECDBF8C015B015A834983FC01AC
:100FC000E65AFF4F60817181828193810E94993638
:100FD0006B017C01D5012D913D914D915C910E9459
:100FE000FA360E9437390E94CC396D837E838F8315
:100FF0009887E981FA812081318142815381C7013B
:10100000B6010E94FA360E9437390E94CC396987AE
:101010007A878B879C872D813E814F815885283721
:1010200031054105510540F488E790E0A0E0B0E0CB
:101030008D839E83AF83B88729853A854B855C85F0
:10104000283731054105510540F488E790E0A0E0DC
:10105000B0E089879A87AB87BC87F801EA59FF4FD0
:10106000208131814281538129833A834B835C8380
:10107000CA01B9010E949B362B013C016D817E8122
:101080008F8198850E9499366D877E878F87988B90
:1010900020E030E0A901C301B2010E949436882308
:1010A00029F1A7019601C701B6010E94FA364B014A
:1010B0005C012D853E854F855889CA01B9010E9482
:1010C000FA369B01AC01C501B4010E9458384B01AE
:1010D0005C01A3019201C301B2010E9459389B0136
:1010E000AC01C501B4010E94533903C060E070E057
:1010F000CB010E9437390E94CC39698B7A8B8B8B5C
:101100009C8B69817A818B819C819095809570956B
:1011100061957F4F8F4F9F4F0E949B364B015C0123
:1011200069857A858B859C850E94993669837A8347
:101130008B839C8320E030E0A901C501B4010E94AB
:101140009436882349F129813A814B815C81CA0117
:10115000B9010E94FA366D8B7E8B8F8B988FA70119
:101160009601C701B6010E94FA369B01AC016D8958
:101170007E898F89988D0E9458386B017C01A5016A
:101180009401C501B4010E9459389B01AC01C7010B
:10119000B6010E94533903C060E070E0CB010E94A9
:1011A000FB39F801E65BFF4FC080D180E280F3801D
:1011B0004601570129893A894B895C89821A930A29
:1011C000A40AB50A0E94CC39861A970AA80AB90A55
:1011D000B7FE82C020E030E0A901C301B2010E9445
:1011E0009436882309F445C0C701B6010E94993698
:1011F0004B015C01A3019201C301B2010E94593865
:101200009B01AC01C501B4010E94FA364B015C019F
:101210002D853E854F855889CA01B9010E94FA364D
:101220009B01AC01C501B4010E9458384B015C011F
:1012300029813A814B815C81CA01B9010E94FA3649
:101240009B01AC01C501B4010E9459384B015C01FE
:1012500020E030E040E850E4C301B2010E94FA36D9
:101260009B01AC01C501B4010E9453390E94C539EC
:1012700002C060E070E0072E000C880B990B0E9402
:101280009B360E9437394B015C0120E030E0A90118
:101290000E94B93A181684F4C501B4010E94CC39F1
:1012A0006C157D058E059F0598F4C501B4010E945B
:1012B000CC396B017C010CC0812C912C5401C114E0
:1012C000D104E104F10461F0C12CD12C760108C0F5
:1012D000812C912C540104C0C988DA88EB88FC88E1
:1012E000F801EE5AFF4FC082D182E282F382349637
:1012F000C80CD91CEA1CFB1CC082D182E282F3829A
:1013000038968D819E81AF81B88580839183A28339
:10131000B383349629853A854B855C852083318358
:101320004283538368960FB6F894DEBF0FBECDBFDD
:10133000DF91CF911F910F91FF90EF90DF90CF90B1
:10134000BF90AF909F908F907F906F905F904F90E5
:101350000895CF92DF92EF92FF92CF93DF93EC014B
:10136000C0908711D0908811E0908911F0908A1177
:10137000BC01990F880B990B0E949B36A70196011F
:101380000E94943687FF05C0C701B6010E94C53987
:10139000EB01C0908311D0908411E0908511F09002
:1013A0008611BE010D2E000C880B990B0E949B36F6
:1013B000A70196010E94B93A18162CF4C701B6018C
:1013C0000E94C539EB01BE010D2E000C880B990B54
:1013D0000E949B3660938B1170938C1180938D11BA
:1013E00090938E11CE01DF91CF91FF90EF90DF901F
:1013F000CF900C949626CF93DF93C3EFD0E160E0BB
:101400008B810E94BB2560E08885DF91CF910C9491
:10141000BB25CF92DF92EF92FF920F931F93CF9352
:10142000DF938C01EA01FB016081718182819381EC
:101430009B01AC010E94FA366B017C01F8016081CE
:101440007181828193819B01AC010E94593828816E
:1014500039814A815B810E94FA369B01AC01C70148
:10146000B6010E945838DF91CF911F910F91FF90E4
:10147000EF90DF90CF900C94073B8FB78093B6022C
:10148000F89408951F920F920FB60F9211240BB685
:101490000F922F923F924F925F926F927F928F9214
:1014A0009F92AF92BF92CF92DF92EF92FF920F93F3
:1014B0001F932F933F934F935F936F937F938F93DC
:1014C0009F93AF93BF93CF93DF93EF93FF930E94CC
:1014D0003D0A8FEF9FEF9093890080938800CAE0C8
:1014E0003C2E812C912C540144244A94542C3201DA
:1014F00011E7212E8091B6028FBF80914311909108
:101500004411A0914511B0914611892B8A2B8B2B48
:1015100009F09EC18091B9029091BA02892B09F419
:10152000FCC1D12C80910802D81608F0F6C10091B8
:101530001D1110911E1180911F1190912011080F03
:10154000191F10931E1100931D111016110624F47B
:1015500060E08DE20E94BB25C0911911D0911A1153
:1015600080911B1190911C11C80FD91FD0931A1193
:10157000C09319111C161D0624F460E08AE20E9433
:10158000BB25E0901111F0901211809113119091F0
:101590001411E80EF91EF0921211E09211111016BA
:1015A000110654F580913F1190914011081B190BC1
:1015B00010931E1100931D118091251190912611F9
:1015C000092E000CAA0BBB0B40910D1150910E116E
:1015D00060910F1170911011840F951FA61FB71FF6
:1015E00080930D1190930E11A0930F11B0931011D1
:1015F00061E08DE20E94BB251C161D0654F580910A
:101600003F1190914011C81BD90BD0931A11C09370
:1016100019118091231190912411092E000CAA0B0D
:10162000BB0B4091091150910A1160910B117091FF
:101630000C11840F951FA61FB71F8093091190935B
:101640000A11A0930B11B0930C1161E08AE20E9481
:10165000BB251E141F0444F580913F119091401149
:10166000E81AF90AF0921211E092111180912111F9
:1016700090912211092E000CAA0BBB0B4091151161
:10168000509116116091171170911811840F951FC8
:10169000A61FB71F8093151190931611A0931711D1
:1016A000B09318110E949626809141119091421199
:1016B0000196909342118093411120913F113091F6
:1016C0004011821793070CF028C1D3942BCF40917F
:1016D0003D1150913E11421753070CF46DC14091DA
:1016E0003511509136116091371170913811009178
:1016F000391110913A1120913B1130913C11AA27D8
:10170000419FB12D529FF001629FF00D619FE00D4E
:10171000F11D429FB00DE11DFA1F519FB00DE11D5B
:10172000FA1F609FB00DE11DFA1F509FB10DEA1F17
:10173000FA1FB695EA1FFA1F349FE00DF11D359F81
:10174000F00D1124C0903111D0903211E09033117E
:10175000F0903411DC01A65ABF4F8D919D910D90F0
:10176000BC91A02DCE0EDF1EE11CF11C8C159D0539
:10177000AE05BF0510F46C017D01C0922D11D09211
:101780002E11E0922F11F092301186E090E021E0CE
:1017900031E1C31637E2D306E104F10408F0E0C0FA
:1017A0002093080280E2C816D104E104F10428F471
:1017B000A0E2CA2ED12CE12CF12CB0E2CB1AD10838
:1017C000E108F108C11428E0D206E104F10408F4AC
:1017D000D0C034E0D39EC00111248358994FFC013E
:1017E000329625913491BC2DAA27B39FF001B29F68
:1017F000E10DFA1F0694EA1FFA1F11246F01E12C74
:10180000F12CFC0125913491C901A0E0B0E08C19C4
:101810009D09AE09BF09AA27BB27480F591F6A1F98
:101820007B1F40933511509336116093371170939D
:101830003811E091B902F091BA02309709F42BC245
:101840008093431190934411A0934511B093461196
:101850008091431190914411A0914511B09146118E
:101860006C017D01009721E0A207B10528F0CC248E
:10187000CA94DC2CE12CF12C8C199D09AE09BF090E
:101880008093431190934411A0934511B093461156
:101890000E943D0A80918800909189000896A0E0FE
:1018A000B0E03A94332059F08C0C9D1CAE1CBF1C48
:1018B00088169906AA06BB0608F41CCE02C04C0185
:1018C0005D0190928900809288008091B6028FBF5E
:1018D000FF91EF91DF91CF91BF91AF919F918F9148
:1018E0007F916F915F914F913F912F911F910F9138
:1018F000FF90EF90DF90CF90BF90AF909F908F9030
:101900007F906F905F904F903F902F900F900BBE05
:101910000F900FBE0F901F9018958091B902909173
:10192000BA02009709F43EC320914111309142114F
:1019300040913F1150914011241735070CF4C7CE48
:101940001092BA021092B9028091FD109091FE108F
:1019500001968F7199279093FE108093FD1022C3FA
:10196000220FF694E794D794C794019709F010CF0B
:1019700017CFD701C601B695A79597958795FC0116
:10198000EC7F9F0123583D4FF90185919491F90116
:101990003296A591B491EC2DE770EA9F9001EB9FF0
:1019A000300D1124F3E036952795FA95E1F7821B67
:1019B000930BA0E0B0E02FCF40912B1150912C1150
:1019C000421753070CF0D7C04091271150912811AE
:1019D0006091291170912A110091391110913A11D9
:1019E00020913B1130913C11EE27419FF12D529FE8
:1019F000D001629FB00D619FA00DB11D429FF00DFF
:101A0000A11DBE1F519FF00DA11DBE1F609FF00DB7
:101A1000A11DBE1F509FF10DAE1FBE1FF695AE1F3C
:101A2000BE1F349FA00DB11D359FB00D11248D0137
:101A300020E030E0C0902D11D0902E11E0902F11B9
:101A4000F0903011FC01EE59FF4F0C151D052E05CD
:101A50003F0580F480819181A281B381C01AD10AAF
:101A6000E20AF30AC816D906EA06FB0638F46C0146
:101A70007D0104C0C080D180E280F38086E090E0E8
:101A800021E031E1C31637E2D306E104F10438F076
:101A9000220FF694E794D794C794019791F7209377
:101AA000080280E2C816D104E104F10428F400E23F
:101AB000C02ED12CE12CF12CB0E2CB1AD108E108D8
:101AC000F108C11428E0D206E104F10418F134E071
:101AD000D39EC00111248358994FFC013296259161
:101AE0003491BC2DAA27B39FF001B29FE10DFA1FDC
:101AF0000694EA1FFA1F11246F01E12CF12CFC015E
:101B000025913491C901A0E0B0E08C199D09AE097E
:101B1000BF0922C0D701C601B695A79597958795AD
:101B2000FC01EC7F9F0123583D4FF9018591949171
:101B3000F9013296A591B491EC2DE770EA9F9001DE
:101B4000EB9F300D112413E0369527951A95E1F798
:101B5000821B930BA0E0B0E0AA27BB27480F591FB8
:101B60006A1F7B1F409327115093281160932911FE
:101B700070932A115ECE409104025091050260914B
:101B800006027091070277FF7DC0FC01E65AFF4F05
:101B9000C080D180E280F38086E090E021E031E1F6
:101BA000C31637E2D306E104F10438F0220FF694AD
:101BB000E794D794C794019791F72093080270E2B5
:101BC000C716D104E104F10428F4B0E2CB2ED12CE5
:101BD000E12CF12C80E2C81AD108E108F108C11407
:101BE000B8E0DB06E104F10408F124E0D29EC00174
:101BF00011248358994FFC013296259134917C2D04
:101C00006627739FA001729F410D561F0694461FC1
:101C1000561F112460E070E0FC0185919491A0E0D2
:101C2000B0E0841B950BA60BB70B22C0D701C601F1
:101C3000B695A79597958795FC01EC7F9F01235852
:101C40003D4FF90185919491F90132964591549156
:101C50006C2D6770649F9001659F300D1124A3E087
:101C600036952795AA95E1F7821B930BA0E0B0E08B
:101C7000AA27BB278093040290930502A093060233
:101C8000B09307028091040290910502A091060290
:101C9000B0910702CECD4091FD105091FE102091E1
:101CA000FF10309100114217530709F43FC02091F3
:101CB000B7023091B80212161306D4F4215031093C
:101CC0003093B8022093B7022091FF103091001199
:101CD0004091FD105091FE10241B350B2F713327BE
:101CE000243031051CF11092B8021092B7021EC0C8
:101CF0004091FD105091FE10249E9001259E300DC4
:101D0000112425543D4FE901C159DF4F488141114C
:101D10000DC04091FD105091FE104F5F5F4F4F710D
:101D2000552750935C1140935B11F901F093BA026F
:101D3000E093B902309709F483CDDF01A059BF4F7A
:101D400081E08C9360898EE20E94BB25E091B9020C
:101D5000F091BA02808991898130910511F08FEF5D
:101D60009FEF909326118093251162A18BE20E9430
:101D7000BB25C091B902D091BA028AA19BA1813042
:101D8000910511F08FEF9FEF909324118093231111
:101D90008CA99DA9019719F081E090E002C08FEF16
:101DA0009FEF9093221180932111FE01E25AFF4F81
:101DB000C080D180E280F380C0923111D092321184
:101DC000E0923311F0923411C0922D11D0922E1165
:101DD000E0922F11F09230113C9680819181A28186
:101DE000B3818093391190933A11A0933B11B09332
:101DF0003C1178978081918190933E1180933D11A1
:101E000034968081918190932C1180932B111092A4
:101E1000351110923611109237111092381110921C
:101E20002711109228111092291110922A11409214
:101E3000040250920502609206027092070286E048
:101E400090E021E0B1E1CB16B7E2DB06E104F1045A
:101E500038F0220FF694E794D794C794019791F73E
:101E60002093080220E2C216D104E104F10428F410
:101E700070E2C72ED12CE12CF12C30E2C31AD1082C
:101E8000E108F108C11478E0D706E104F10408F193
:101E9000B4E0DB9EC00111248358994FFC013296B7
:101EA000259134917C2D6627739FA001729F410D6F
:101EB000561F0694461F561F112460E070E0FC0177
:101EC00085919491A0E0B0E0841B950BA60BB70B15
:101ED00022C0D701C601B695A79597958795FC01B5
:101EE000EC7F9F0123583D4FF90185919491F901B1
:101EF0003296459154916C2D6770649F9001659F57
:101F0000300D112463E0369527956A95E1F7821B21
:101F1000930BA0E0B0E0AA27BB27FE01E65BFF4FD2
:101F2000208131813093401120933F111092421152
:101F3000109241114C855D855093201140931F11E3
:101F40003595279531952195310930931E112093B0
:101F50001D114E8D5F8D50931C1140931B113093BA
:101F60001A11209319114CA15DA16EA17FA1C8A4E3
:101F7000D9A4EAA4FBA44C195D096E097F0940931A
:101F8000151150931611609317117093181148A9E9
:101F900059A95093141140931311309312112093A7
:101FA00011114ECC80ED97E0A0E0B0E042CCE3E62A
:101FB000F1E1DC014D915D916D917D91CD01448701
:101FC0005587668777877096B1E1E339FB0789F714
:101FD0000C9495270F931F93CF93DF93CDB7DEB764
:101FE0002C970FB6F894DEBF0FBECDBF8C010E94B8
:101FF000C415D801E3E6F1E14D915D916D917D91BC
:102000004087518762877387709681E1E339F807CB
:1020100099F7BE016F5F7F4FC8010E941615CE0170
:1020200001960E9457072C960FB6F894DEBF0FBE9C
:10203000CDBFDF91CF911F910F9108952F923F92C5
:102040004F925F926F927F928F929F92AF92BF92C8
:10205000CF92DF92EF92FF920F931F93CF93DF9374
:10206000CDB7DEB76E970FB6F894DEBF0FBECDBF0B
:10207000382E292E6A017B0140930E0250930F02E5
:10208000609310027093110203E611E1882E992EDD
:10209000CE0101969C8F8B8FFE013D965F01412CF6
:1020A000512C3201F8012085318542855385F50197
:1020B00021933193419351935F01F40161917191A7
:1020C000819191914F010E945838EB8DFC8D619365
:1020D000719381939193FC8FEB8F9B01AC010E94D4
:1020E000FA369B01AC01C301B2010E9459382B01A1
:1020F0003C01005F1F4FF1E103391F0799F620E013
:1021000030E0A90169817A818B819C810E9494369B
:1021100081111FC020E030E0A9016D817E818F8197
:1021200098850E949436811114C089849A84AB8466
:10213000BC8420E030E0A901C501B4010E94B93A95
:10214000181624F0B7FAB094B7F8B094950184014A
:102150009CC0C301B2010E94073B2B013C0120E05F
:1021600030E0A9010E94B93A18165CF42DEB37E370
:1021700046E855E3C301B2010E94943687FF0CC0C4
:102180008AC02DEB37E346E855EBC301B2010E944C
:10219000B93A18160CF47FC0A7019601C301B20129
:1021A0000E94533920E030E040E252E40E94FA36C7
:1021B0000E94CC394B01672B19F488248394912C0D
:1021C000B40180E090E00E9499369B01AC0160E090
:1021D00070E080E89FE30E9453396B8F7C8F8D8F76
:1021E0009E8F9B01AC01C301B2010E94FA362B0104
:1021F0003C015E018DE0A80EB11C8E010F5F1F4FE8
:102200002B8D3C8D4D8D5E8DF801608171818281B9
:1022100093810E94FA36F8016193719381939193AF
:102220008F01EA15FB0561F7CE0149969A8F898FD8
:1022300091E0891A910839F18E01035F1F4FFE0169
:1022400031965F01F50121913191419151915F01E9
:10225000F80160817181828193810E945938F8016F
:1022600061937193819391938F01898D9A8D8E17CC
:102270009F0741F793018201B701A601CE010D9698
:102280000E94D015D5CF93018201B701A601832DFD
:10229000922D0E94D0156E960FB6F894DEBF0FBE39
:1022A000CDBFDF91CF911F910F91FF90EF90DF9005
:1022B000CF90BF90AF909F908F907F906F905F90E6
:1022C0004F903F902F900895CF92DF92EF92FF9220
:1022D00028EE33E040E050E00E94D1376B017C01F2
:1022E000CA01B9010E94262682E0C816D10450F026
:1022F000CC0CDD1CCC0CDD1C85E0C81AD108C60155
:102300000197F1F7FF90EF90DF90CF9008951F9223
:102310000F920FB60F9211240BB60F922F933F938B
:102320004F935F936F937F938F939F93AF93BF93DD
:10233000EF93FF9348E251E064E271E080E090E0C7
:102340000E949006FF91EF91BF91AF919F918F9165
:102350007F916F915F914F913F912F910F900BBEA5
:102360000F900FBE0F901F9018951F920F920FB6EF
:102370000F9211240BB60F922F933F934F935F93BD
:102380006F937F938F939F93AF93BF93EF93FF933D
:1023900048EA50E064EA70E082E090E00E94900633
:1023A000FF91EF91BF91AF919F918F917F916F912D
:1023B0005F914F913F912F910F900BBE0F900FBEE9
:1023C0000F901F9018951F920F920FB60F92112425
:1023D0000BB60F922F933F934F935F936F937F931F
:1023E0008F939F93AF93BF93EF93FF9348E950E090
:1023F00064E970E081E090E00E949006FF91EF9127
:10240000BF91AF919F918F917F916F915F914F910C
:102410003F912F910F900BBE0F900FBE0F901F900A
:102420001895CF92DF92EF92FF920F931F93CF9365
:10243000DF936C017A018B01C0E0D0E0CE15DF059F
:1024400081F0D8016D918D01D601ED91FC91019043
:10245000F081E02DC6011995892B11F02196EECF60
:102460007E01C701DF91CF911F910F91FF90EF90F7
:10247000DF90CF900895089580E090E00895FC01EA
:10248000538D448D252F30E0842F90E0821B930BD9
:10249000541710F0CF96089501970895FC01918D7F
:1024A000828D981761F0828DDF01A80FB11D5D96B6
:1024B0008C91928D9F5F9F73928F90E008958FEF24
:1024C0009FEF0895FC01918D828D981731F0828DD8
:1024D000E80FF11D858D90E008958FEF9FEF08952F
:1024E000FC01918D228D892F90E0805C9F4F821B93
:1024F00091098F739927089584E991E10E947012E0
:1025000021E0892B09F420E0822F0895FC01848DBD
:10251000DF01A80FB11DA35ABF4F2C91848D90E00D
:1025200001968F739927848FA689B7892C93A089E8
:10253000B1898C91837080648C93938D848D981372
:1025400006C00288F389E02D80818F7D8083089505
:10255000EF92FF920F931F93CF93DF93EC0181E0F3
:10256000888F9B8D8C8D981305C0E889F9898081AF
:1025700085FD26C0F62E0B8D10E00F5F1F4F0F73E9
:102580001127E02E8C8DE8120CC00FB607FCFACF95
:10259000E889F989808185FFF5CFCE010E948612F6
:1025A000F1CF8B8DFE01E80FF11DE35AFF4FF08252
:1025B0009FB7F8940B8FEA89FB89808180620AC0FB
:1025C0009FB7F894EE89FF896083E889F989808153
:1025D0008370806480839FBF81E090E0DF91CF9122
:1025E0001F910F91FF90EF900895CF93DF93EC012F
:1025F000888D8823C9F0EA89FB89808185FD05C023
:10260000A889B9898C9186FD0FC00FB607FCF5CF5C
:10261000808185FFF2CFA889B9898C9185FFEDCFA4
:10262000CE010E948612E7CFDF91CF91089580E01E
:1026300090E0892B21F00E947C12811125C080E05E
:1026400090E0892B41F080E090E0892B21F00E94FE
:10265000000081111CC080E090E0892B41F080E0F7
:1026600090E0892B21F00E940000811113C080E0CE
:1026700090E0892BA1F080E090E0892B81F00E940E
:10268000000081110AC008950E940000D8CF0E9466
:102690000000E1CF0E940000EACF0C9400000895F2
:1026A0000E946B3B1F920F920FB60F9211240BB634
:1026B0000F922F933F934F935F936F937F938F93DB
:1026C0009F93AF93BF93EF93FF9384E991E10E94AF
:1026D0008612FF91EF91BF91AF919F918F917F9162
:1026E0006F915F914F913F912F910F900BBE0F9083
:1026F0000FBE0F901F9018951F920F920FB60F925A
:1027000011240BB60F922F938F939F93EF93FF9308
:10271000E091A411F091A5118081E091AA11F091AE
:10272000AB1182FD12C090818091AD118F5F8F73CC
:102730002091AE11821751F0E091AD11F0E0EC560E
:10274000FE4E958F8093AD1101C08081FF91EF9176
:102750009F918F912F910F900BBE0F900FBE0F90F6
:102760001F901895CF92DF92EF92FF920F931F93D5
:10277000CF93DF936C0160E08EE20E94BB2560E0A6
:102780008BE20E94BB25C0E0D0E000E010E00D2C01
:10279000000CEE08FF08012BA9F461E08DE20E9415
:1027A000BB2560E08DE20E94BB2589E00E94922556
:1027B00031E020E0892B09F030E0032F122FCD2BE0
:1027C000C1F404C0CD2B49F501E010E061E08AE2DC
:1027D0000E94BB2560E08AE20E94BB2589E00E943E
:1027E000922531E020E0892B09F030E0C32FD22F71
:1027F00002C0C1E0D0E0C701B6010E946411CE0161
:10280000800F911F029739F6DF91CF911F910F91A1
:10281000FF90EF90DF90CF900895C701B601DF9150
:10282000CF911F910F91FF90EF90DF90CF900C947C
:1028300064112F923F924F925F926F927F928F928C
:102840009F92AF92BF92CF92DF92EF92FF920F933F
:102850001F93CF93DF93CDB7DEB72C970FB6F894C5
:10286000DEBF0FBECDBF8C011B018091671190911F
:102870006811A0916911B0916A118D839E83AF8315
:10288000B8878091731190917411A0917511B091D6
:10289000761189879A87AB87BC87D8016D917D9126
:1028A0008D919C910E949B362AE037ED43E25CE3D8
:1028B0000E94FA366B017C012D813E814F81588543
:1028C000E3E6F1E160817181828193810E94583851
:1028D00069837A838B839C83D80114966D917D9153
:1028E0008D919C9117970E949B362AE037ED43E229
:1028F0005CE30E94FA364B015C01A7019601C70117
:10290000B6010E94FA362B013C0129813A814B81A4
:102910005C81CA01B9010E94FA369B01AC01C30176
:10292000B2010E9459382B013C01A5019401C50157
:10293000B4010E94FA369B01AC01C301B2010E94AE
:1029400058384B015C01A7019601C701B6010E94EE
:10295000593829813A814B815C810E94FA369B016A
:10296000AC01C501B4010E9453394B015C019B01CC
:10297000AC01C701B6010E94FA362D813E814F811C
:1029800058850E945938F101608371838283938353
:10299000A5019401C501B4010E94FA369B01AC0166
:1029A00060E070E080E89FE30E9458380E94073B97
:1029B0009B01AC01C701B6010E94FA369B01AC0134
:1029C00069857A858B859C850E945838D10114963B
:1029D0006D937D938D939C931797F8016085718516
:1029E000828593850E949B36D10118966D937D93C5
:1029F0008D939C931B9780E090E02C960FB6F894F3
:102A0000DEBF0FBECDBFDF91CF911F910F91FF9021
:102A1000EF90DF90CF90BF90AF909F908F907F907E
:102A20006F905F904F903F902F9008952F923F921C
:102A30004F925F926F927F928F929F92AF92BF92CE
:102A4000CF92DF92EF92FF920F931F93CF93DF937A
:102A500000D01F92CDB7DEB78C011B01A3E6B1E118
:102A60008D919D910D90BC91A02D89839A83AB830C
:102A7000BC83209173113091741140917511509164
:102A80007611F80164817581868197810E9458389A
:102A90006B017C01D8018D909D90AD90BC902091F0
:102AA0006711309168114091691150916A11C50107
:102AB000B4010E9458382B013C01A7019601C701BF
:102AC000B6010E94FA366B017C01A3019201C30199
:102AD000B2010E94FA36A70196010E9459380E945D
:102AE000073B2AE037ED43E25CE30E9453390E9442
:102AF000C63AF1016083718382839383A5019401B7
:102B000069817A818B819C810E9458389B01AC013C
:102B10000E94FA36A70196010E9459380E94073B8D
:102B20002AE037ED43E25CE30E9453390E94C63A43
:102B3000D10114966D937D938D939C931797F80113
:102B400060857185828593850E94C539D10118966B
:102B50006D937D938D939C931B970F900F900F9087
:102B60000F90DF91CF911F910F91FF90EF90DF9029
:102B7000CF90BF90AF909F908F907F906F905F901D
:102B80004F903F902F9008952091FD103091FE10AE
:102B90008091FF109091001128173907A9F7089527
:102BA0002F923F924F925F926F927F928F929F925D
:102BB000AF92BF92CF92DF92EF92FF920F931F934B
:102BC000CF93DF93CDB7DEB7C856D1090FB6F894CF
:102BD000DEBF0FBECDBF9AAB89AB6A017B010BA7ED
:102BE0001CA72DA73EA78091FF1090910011019680
:102BF0009C012F713327A1963FAF2EAFA1978091F3
:102C0000FD109091FE10A1964EAD5FADA197841777
:102C10009507A9F30091FF10109100118091FF100A
:102C2000909100119EAB8DABBE016F5F7F4F89A964
:102C30009AA90E94161520916B1130916C11409148
:102C40006D1150916E1123962CAF3DAF4EAF5FAF1B
:102C5000239780917B1190917C11A0917D11B0916F
:102C60007E116B968CAF9DAFAEAFBFAF6B9781E718
:102C7000ADA9BEA98A9F90018B9F300D1124F90147
:102C8000E554FD4F2596FFAFEEAF2597E65BFF4F6E
:102C900010821182128213829E012F5F3F4F38AB48
:102CA0002FA725966EAC7FAC2597015011090F71A7
:102CB0001127809F1001819F300C112400E010E04B
:102CC0002F01AFA5B8A98D909D90AD90BD90B8ABE8
:102CD000AFA7F30180829182A282B382F801E20D54
:102CE000F31DE554FD4F80819181A281B381881A43
:102CF000990AAA0ABB0AD30114968D929D92AD92AD
:102D0000BC921797D501C4018827B7FD83959927F1
:102D1000AA27BB27F301918B808BC501B4010E94C8
:102D20009B362AE037ED43E25CE30E94FA360E94CC
:102D3000C539D30118966D937D938D939C931B9702
:102D4000B7FE08C0B094A09490948094811C911C0C
:102D5000A11CB11CF30184869586A686B786F20174
:102D600080819181A281B38188159905AA05BB054F
:102D700020F480829182A282B382B2E16B0E711C38
:102D80000E5E1F4F0633110509F09BCFA9A9BAA902
:102D9000E3E6F1E14D915D916D917D914087518721
:102DA00062877387709621E1E339F20799F781E72B
:102DB0004DA95EA9849FF001859FF00D1124E55473
:102DC000FD4FDF01A65BBF4F4D905D906D907C90F5
:102DD000139756E0451651046104710410F40C94E5
:102DE000A71F96961C928BA59CA5ADA5BEA586ABEC
:102DF00097ABA0AFB1AF9C01AD0160E070E080E89F
:102E00009FE30E9453396F966CAF7DAF8EAF9FAF3B
:102E10006F97A70196010E94FA366B017C018091A1
:102E2000FF109091001120915B1130915C11821B79
:102E3000930BDC01AF71BB272B96BFAFAEAF2B97C7
:102E4000A701960160E074E284E799E40E94533997
:102E50000E94C63A4B015C012B968EAD9FAD2B971D
:102E600002970E97B8F58091000290910102A0910F
:102E70000202B091030288169906AA06BB0650F515
:102E800088199909AA09BB09BC01CD01660F771FF2
:102E9000881F991F2B96EEADFFAD2B979F01FF0F5B
:102EA000440B550B0E940338CA01B9010E949936A0
:102EB0000E94C63A680D791D8A1D9B1D0E94993695
:102EC0009B01AC0160E074E284E799E40E9453390D
:102ED0006B017C012BA53CA54DA55EA5C701B601E4
:102EE0000E94FA366FAB78AF89AF9AAF81E72DA910
:102EF0003EA9829F8001839F100D112405541D4F10
:102F00008FA998ADA9ADBAADF80182AF93AFA4AFC8
:102F1000B5AFC301B2010E94993629966CAF7DAF5F
:102F20008EAF9FAF29979B01AC01C701B6010E94EC
:102F3000FA360E9437390E94CC3961966CAF7DAF6A
:102F40008EAF9FAF6197F801E65AFF4F60837183A0
:102F5000828393839E01235F3F4F67963FAF2EAFDF
:102F600067974BED50E15CAF4BAF63963FAF2EAF31
:102F7000639700E010E0212C312C50E85BA78FE331
:102F80008FA72596EEADFFAD2597E00FF11F608569
:102F90007185828593850E949B36A70196010E94C8
:102FA000FA366396AEADBFAD63976D937D938D9307
:102FB0009D936396BFAFAEAF63974B015C01E894FE
:102FC000B7F8EBADFCAD4190519061907190FCAFC2
:102FD000EBAFA3019201C501B4010E94B93A1816E2
:102FE00094F4A5019401C301B2010E9453395B011D
:102FF0004C0191014BA55FA50E94B93A18161CF02F
:1030000015018BA69FA60E5E1F4F0633110509F012
:10301000B8CF20E030E040E85FE3B1018BA59FA589
:103020000E94943687FF4BC07E01F9E1EF0EF11C40
:1030300067960EAD1FAD679791014BA55FA5D801AF
:103040006D917D918D919C910E94FA36F80161936A
:103050007193819391938F01EE16FF0669F781E7D3
:103060002DA93EA9829F8001839F100D1124055434
:103070001D4F2FA938AD49AD5AADB1018BA59FA504
:103080000E94FA36D801DA966D937D938D939C93C6
:10309000DD97065A1F4F61966CAD7DAD8EAD9FAD2D
:1030A00061970E94993691014BA55FA50E94FA365F
:1030B0000E94CC39F8016083718382839383F091FD
:1030C0000A02FBA720910B022FA720900C02309040
:1030D0000D0223962CAD3DAD4EAD5FAD23976091B3
:1030E0006711709168118091691190916A110E9425
:1030F00058382B013C016B962CAD3DAD4EAD5FAD0C
:103100006B9760917311709174118091751190910A
:1031100076110E9458386BAF7CAF8DAF9EAF9B018C
:10312000AC010E94FA366B017C01A3019201C3013C
:10313000B2010E94FA36A70196010E9459380E94F6
:10314000073B61966CAF7DAF8EAF9FAF61972396C3
:103150002CAD3DAD4EAD5FAD239760916311709185
:10316000641180916511909166110E9458386FAB7F
:1031700078AF89AF9AAF9B01AC010E94FA36A701E4
:1031800096010E9459380E94073B65966CAF7DAF4F
:103190008EAF9FAF659723962CAD3DAD4EAD5FAD25
:1031A0002397A9A9BAA96D917D918D919C910E94B7
:1031B00058384B015C016B962CAD3DAD4EAD5FAD0B
:1031C0006B97E9A9FAA964817581868197810E942C
:1031D000583869AB7AAB8BAB9CABA5019401C501A8
:1031E000B4010E94FA366B017C0129A93AA94BA9C6
:1031F0005CA9CA01B9010E94FA369B01AC01C70162
:10320000B6010E9459380E94073B6B017C0120E007
:1032100030E0A9010E94B93A18160CF0DFC061969F
:103220002CAD3DAD4EAD5FAD6197C301B2010E94C3
:1032300053392B013C0165962CAD3DAD4EAD5FADD4
:1032400065976FA978AD89AD9AAD0E9453392396E1
:103250006CAF7DAF8EAF9FAF2397A7019601C501DD
:10326000B4010E9453394B015C01A701960169A981
:103270007AA98BA99CA90E94533969AB7AAB8BAB15
:103280009CAB20E030E045E754ECC301B2010E9462
:10329000FA366B017C0161962CAD3DAD4EAD5FAD54
:1032A00061976BAD7CAD8DAD9EAD0E945339A5018C
:1032B00094010E94FA366FAB78AF89AF9AAF29A913
:1032C0003AA94BA95CA9C301B2010E94FA369B013D
:1032D000AC016FA978AD89AD9AAD0E9458389B01B9
:1032E000AC01C701B6010E9453393B018C0120E0BB
:1032F00030E045E754EC23966CAD7DAD8EAD9FADCF
:1033000023970E94FA366B017C0165962CAD3DAD8A
:103310004EAD5FAD65976BAD7CAD8DAD9EAD0E9442
:103320005339A50194010E94FA364B015C0129A989
:103330003AA94BA95CA923966CAD7DAD8EAD9FAD2E
:1033400023970E94FA369B01AC01C501B4010E948B
:1033500058389B01AC01C701B6010E9453396B017B
:103360007C0120E030E0A901B301C8010E94B93A14
:1033700020E030E0A901B601181674F4C7010E94DC
:10338000B93A181684F49601A701B301C8010E9446
:10339000943687FD08C005C0C7010E94B93A1816C7
:1033A000ECF4360187012BA53FA5A101B301C801AB
:1033B0000E94B93A18167CF420E030E0A9016BA510
:1033C0007FA5C1010E94B93A181644F01BA61FA69A
:1033D000212C312C03C06BA67FA6180129962CAD99
:1033E0003DAD4EAD5FAD29976F966CAD7DAD8EADA9
:1033F0009FAD6F970E94FA3669AB7AAB8BAB9CABF3
:103400009B01AC016BA57FA5C1010E94FA364B015F
:103410005C010E9437390E94CC396B017C0100E0CD
:1034200010E02596EEADFFAD2597E00FF11F448427
:10343000558466847784411451046104710409F44D
:103440003FC0C701B6010E9499369B01AC01C5017E
:10345000B4010E94943687FF33C0A50194012996D8
:103460006CAD7DAD8EAD9FAD29970E94FA360E945E
:10347000CC396BA77CA78DA79EA7A3019201C7019A
:10348000B6010E9434382BA53CA54DA55EA5261794
:10349000370748075907A0F4CA01B9010E949936B5
:1034A0006B017C01C301B2010E9499369B01AC0102
:1034B000C701B6010E9453390E94CC396B017C01CF
:1034C0000E5E1F4F0633110509F0ABCF81E74DA902
:1034D0005EA9849F8001859F100D112405541D4F06
:1034E000F801EA59FF4FC082D182E282F382C7011C
:1034F000B6010E9499366B017C0129A93AA94BA912
:103500005CA90E945339A5966CAF7DAF8EAF9FAF7B
:10351000A597F801EA5BFF4F6083718382839383F1
:1035200058015AE6A50EB11C2DEB37E346E051E4F5
:10353000C701B6010E94FA360E94CC39D5016D93BD
:103540007D938D939C931397F801E25BFF4F10825C
:10355000118212821382F801F2ADFBAFD801DB9623
:10356000BC91BFAFF801F4AD2696FFAF2697D80106
:10357000DD96BC91BFABE7EEF0E12F96FFAFEEAF6B
:103580002F979E01275E3F4F3AA729A72F016796E5
:103590006EAC7FAC67973BAD3BA74FAD4FA7269670
:1035A0005FAD269759AB2496BFAF249710E0D301A7
:1035B000CD90DD90ED90FD903D01E894F7F8F2019B
:1035C00081909190A190B1902F01A5019401C70124
:1035D000B6010E94B93A1816F4F5112329F1A50194
:1035E00094016BAD7FAD26968FAD26979FA90E9463
:1035F000FA364B015C012BA53FA549A924965FAD86
:103600002497C701B6010E94FA369B01AC01C5019F
:10361000B4010E94943687FF1DC0A7019601C50121
:10362000B4010E94533910C0A7019601C501B4012D
:103630000E9453399B01AC016BA57FA589A92496F3
:103640009FAD24970E94FA366BA77FA789AB24967B
:103650009FAF249711E029A53AA52615370509F053
:10366000A6CF2B964EAD5FAD2B97452B09F45CC1D1
:10367000C0905711D0905811E0905911F0905A1104
:103680002DEB37E346E855E3B601C7010E94B93A8E
:1036900018160CF049C19601A7016BAD7FAD2696B7
:1036A0008FAD26979FA90E94943687FD05C01C2DDB
:1036B0000D2D3E2C2F2C06C01BAD0FAD26963FAC1A
:1036C00026972FA89601A701612F702F832D922D89
:1036D0000E945339A9966CAF7DAF8EAF9FAFA9976B
:1036E0008BE491E16D969FAF8EAF6D976796AEAD0F
:1036F000BFAD67976396BFAFAEAF639720E030E092
:1037000040E85FE32D962CAF3DAF4EAF5FAF2D97F6
:1037100068961FAE68976D96AEADBFAD6D972D9153
:103720003D914D915D916D96BFAFAEAF6D97A996EE
:103730006CAD7DAD8EAD9FADA9970E94FA366B0141
:103740007C016396EEADFFAD639781909190A1905F
:10375000B1906396FFAFEEAF63976896FFAD689741
:10376000FF23B1F02D962CAD3DAD4EAD5FAD2D9745
:103770000E94FA366B017C012D962CAD3DAD4EAD0D
:103780005FAD2D97C501B4010E94FA364B015C0173
:10379000A5019401C701B6010E94B93A20E030E0CA
:1037A000A90118162CF5C501B4010E94B93A1816E2
:1037B0004CF020E030E0A901C701B6010E94943628
:1037C00087FF05C0A5019401C701B60124C02401EB
:1037D000350177FA709477F87094A3019201C701CC
:1037E000B6010E94B93A18165CF52601370128C0C7
:1037F000C501B4010E94943687FD09C020E030E085
:10380000A901C701B6010E94B93A18164CF4A701E4
:103810009601C501B4010E9458382B013C0110C02B
:103820002601370177FA709477F87094A30192011A
:10383000C501B4010E94943687FD02C02401350100
:103840002F96AEADBFAD2F97CD90DD90ED90FD9052
:103850002F96BFAFAEAF2F97A7019601C301B2015C
:103860000E94B93A1816ECF4A3019201C701B601FF
:103870000E9453399B01AC012D966CAD7DAD8EAD90
:103880009FAD2D970E94FA362D966CAF7DAF8EAF0F
:103890009FAF2D976896BFAD6897BF5F6896BFAF23
:1038A0006897E7E5F1E16D962EAD3FAD6D97E217B4
:1038B000F30709F030CF68963FAD6897332381F066
:1038C0002D962CAD3DAD4EAD5FAD2D97612F702F78
:1038D000832D922D0E94FA36162F072F382E292E6F
:1038E00024EA30E74DE75FE3612F702F832D922D9F
:1038F0000E94FA366B017C012091471130914811EA
:103900004091491150914A110E94943687FF12C08C
:10391000A70196016BA57FA589A924969FAD249741
:103920000E94B93A181634F41BA50FA539A824969D
:103930002FAC24978BA59FA5A9A92496BFAD24974A
:103940008093471190934811A0934911B0934A1165
:103950001D8E1E8E1F8E18A2A5968CAD9DADAEAD90
:10396000BFADA597B058898F9A8FAB8FBC8F81E779
:103970004DA95EA9849F7001859FF00C1124A701B9
:103980004F505D4FBE01635E7F4FCE0149960E944E
:10399000090A5B016C01F701E350FD4F812F902F65
:1039A000A32DB22D80839183A283B3839501A601B9
:1039B000612F702F832D922D0E94943687FD04C0B5
:1039C0001A2D0B2D3C2C2D2C81E7ADA9BEA98A9F69
:1039D00090018B9F300D112425543D4FF901FE9627
:1039E000812F902FA32DB22D80839183A283B38347
:1039F0007901BEE6EB0EF11C992493949501A60182
:103A00006BAD7FAD26968FAD26979FA90E94943609
:103A100018160CF4912CF701908281E72DA93EA98C
:103A2000829FF001839FF00D1124E65DFC4F81E041
:103A300080838BAD9FAD2696AFAD2697BFA98093AF
:103A4000571190935811A0935911B0935A114BE408
:103A500051E16796EEADFFAD679781919191A1918C
:103A6000B1916796FFAFEEAF6797FA01819391939B
:103A7000A193B193AF0129A53AA567968EAD9FADED
:103A800067972817390729F72BAD3FAD26964FAD1D
:103A900026975FA960E070E0CB010E9453396D8FDB
:103AA0007E8F8F8F98A32BAD3FAD26964FAD269777
:103AB0005FA9612F702F832D922D0E945339698F3A
:103AC0007A8F8B8F9C8F21E7ADA9BEA92A9FC00159
:103AD0002B9F900D1124AE01435E5F4FBE01675EC8
:103AE0007F4F85549D4F0E94C3072091FD10309158
:103AF000FE108091FF10909100112817390731F4C2
:103B000084E690E09093B8028093B702A196EEAD60
:103B1000FFADA197F0930011E093FF102091FF10EB
:103B2000309100118091FD109091FE1028173907F7
:103B300009F4E1C00091FF1010910011015011092A
:103B40000F711127E12CF12C8091FD109091FE1046
:103B50008017910709F4CFC0F1E7F09FC001F19FF2
:103B6000900D11249C0125543D4F6901211531050B
:103B700009F4BBC0F901EE5BFF4F30813DAB4181E1
:103B80004BA752815FA7838189AB349740805180D6
:103B900062807380A30192016DA97BA58FA599A96D
:103BA0000E94943681110BC0E114F10409F49DC008
:103BB000F701E159FF4F8081882309F496C0A1E7FE
:103BC000A09FC001A19F900D1124FC01E75DFC4F57
:103BD000208121115DC0FC01EF50FD4F1F01E11458
:103BE000F10439F0F701FE9680819181A281B381C1
:103BF00003C080E090E0DC01898F9A8FAB8FBC8F8F
:103C000021E7209FF001219FF00D1124EF5FFC4F71
:103C100080809180A280B380B7FAB094B7F8B09456
:103C20008D8E9E8EAF8EB8A2A101BE01675E7F4FC2
:103C3000CE014D960E94090A9B01AC016DA97BA59E
:103C40008FA599A90E94943687FD22C0E114F10442
:103C500039F0F701FE9680819181A281B38103C082
:103C600080E090E0DC0189A39AA3ABA3BCA38DA262
:103C70009EA2AFA2B8A6A101BE016F5D7F4FCE018B
:103C800085960E94090AF62EE72EB82EA92E04C0AA
:103C9000FDA8EBA4BFA4A9A82F2D3E2D4B2D5A2D76
:103CA000C301B2010E9494368823F9F031E7309FB6
:103CB000C001319F900D112485549D4FFC01E159A5
:103CC000FF4F41E04083DC01A059BF4F2C912223DC
:103CD00011F010820AC0FC01FE964F2D5E2D6B2D57
:103CE0007A2D4083518362837383015011090F71D0
:103CF0001127760129CFC090FD10D090FE1000E072
:103D000010E081E7282E332433948091FF109091A6
:103D100000118C159D0509F462C02C9CC0012D9CDE
:103D2000900D1124DC01A554BD4F7D010115110535
:103D300009F44DC0F801E259FF4F8081811147C05D
:103D4000FD01FE96FEABEDAB40805180628073803A
:103D50004801FEE38F0E911CA3019201D4016D91E5
:103D60007D918D919C910E94943687FF30C0F8011F
:103D7000EA5BFF4F80819181A281B381B058898F26
:103D80009A8FAB8FBC8FA8014A5C5F4FB401CE0104
:103D900049960E94090A4B015C019B01AC01C301D9
:103DA000B2010E94B93A181694F4F701E159FF4F95
:103DB0003082D701A059BF4F8C91882311F0108217
:103DC00006C0EDA9FEA980829182A282B382FFEF94
:103DD000CF1ADF0A2FE1C222DD24870196CFE090BF
:103DE000FD10F090FE10612C712CA12CB12C00E084
:103DF00010E08091FF10909100118E159F0509F43D
:103E00006BC031E73E9DC0013F9D900D1124AC0178
:103E100045545D4F6A01FA01FE9650815DAB818188
:103E20008BA792819FA7A381A9AB0115110509F466
:103E300047C04801BFE68B0E911CF40180818111BF
:103E400006C0F601E159FF4F80818823B9F1E1E016
:103E5000D401EC93F801E059FF4F808181112EC00D
:103E6000D801DA962D913D914D915C91DD9760E0FE
:103E700070E080E89FE30E9453391B012C019B01F5
:103E8000AC016DA97BA58FA599A90E94FA36698F0F
:103E90007A8F8B8F9C8F9301A501C201B1010E9483
:103EA000FA366D8F7E8F8F8F98A3AE01475E5F4F7E
:103EB000BE01635E7F4FC8010E94C307F4011082F8
:103EC000FFEFEF1AFF0A2FE1E222FF246DA87BA487
:103ED000AFA4B9A886018DCF01151105C1F17801F4
:103EE0003FE6E30EF11C81E0D7018C93F801E05925
:103EF000FF4F8081811129C0F80122AD33AD44AD5F
:103F000055AD60E070E080E89FE30E9453391B01EB
:103F10002C0120E030E0A9010E94FA36698F7A8FE7
:103F20008B8F9C8FA2019101B301C5010E94FA36CB
:103F30006D8F7E8F8F8F98A3AE01475E5F4FBE015E
:103F4000635E7F4FC8010E94C307D7011C92C85906
:103F5000DF4F0FB6F894DEBF0FBECDBFDF91CF911C
:103F60001F910F91FF90EF90DF90CF90BF90AF9097
:103F70009F908F907F906F905F904F903F902F9089
:103F8000089590E0FC013197E231F10508F04EC050
:103F90008827EE58FF4F8F4F0C9450388091800047
:103FA0008F7703C0809180008F7D8093800008957B
:103FB00080918000877FF9CF84B58F7702C084B568
:103FC0008F7D84BD08958091B0008F7703C080916C
:103FD000B0008F7D8093B0000895809190008F771E
:103FE00007C0809190008F7D03C080919000877FF3
:103FF0008093900008958091A0008F7707C08091F2
:10400000A0008F7D03C08091A000877F8093A000D7
:104010000895809120018F7707C0809120018F7DC6
:1040200003C080912001877F8093200108958F92A3
:104030009F92AF92BF92CF92DF92EF92FF920F9337
:104040001F93CF93DF936B017C01142F9B01AC0175
:104050000E944B3B882319F087EA92E027C0460173
:104060005701E894B7F82FEF3FEF4FE75FE7C5013F
:10407000B4010E944B3B81110DC02FEF3FEF4FE782
:104080005FE7C501B4010E94943618161CF48BEA50
:1040900092E00CC02FEF3FEF4FE75FE4C701B6019E
:1040A0000E94B93A181684F48FEA92E0DF91CF911A
:1040B0001F910F91FF90EF90DF90CF90BF90AF9046
:1040C0009F908F900C9458272FEF3FEF4FE75FECB6
:1040D000C701B6010E94943687FDE6CF20E030E0AC
:1040E000A901C701B6010E94943687FF09C08DE27D
:1040F0000E942328EC01F7FAF094F7F8F09402C03C
:10410000C0E0D0E000E060E070E080E09FE31017E6
:1041100041F020E030E040E251E40E9453390F5F6B
:10412000F6CFA70196010E9459386B017C010E94CD
:10413000CC394B015C014AE00E94E227C80FD91F2D
:104140001123A9F1C501B4010E9499369B01AC016C
:10415000C701B6010E9458386B017C018EE20E94B3
:104160002328C80FD91F20E030E040E251E4C70106
:10417000B6010E94FA364B015C010E94CC396B01FA
:10418000E12CF12C4AE0C701B6010E94E227C80FDA
:10419000D91FC701B6010E9499369B01AC01C50128
:1041A000B4010E9458386B017C011150E1F6CE0138
:1041B000DF91CF911F910F91FF90EF90DF90CF9003
:1041C000BF90AF909F908F90089542E00C9417207D
:1041D0000F931F93CF93DF9384ED9BE00E94892779
:1041E00003E611E1C5E0D0E020E030E048EC52E425
:1041F000F80160817181828193810E94FA360E9468
:10420000C539AB01BC01CE010E941A2720E030E085
:1042100048EC52E4F80164817581868197810E949F
:10422000FA360E94C539AB01BC01CE0104960E944A
:104230001A272896005F1F4FCD31D105A9F6DF91CF
:10424000CF911F910F9108954F925F926F927F923D
:104250008F929F92AF92BF92CF92DF92EF92FF9296
:104260000F931F93CF93DF9300D000D0CDB7DEB76D
:1042700040E050E060E87FEB81E40E9462290E9408
:10428000C5396330710508F091C08B0184E0000FDF
:10429000111F8A95E1F798012D593E4E3E832D83DB
:1042A000D9014D915D916D917C9184E50E946229C7
:1042B0006B017C01ED81FE814481558166817781AE
:1042C00082E40E94622969837A838B839C8320E045
:1042D00030E040E251E4AD81BE816D917D918D91E0
:1042E0009C910E94FA360E94FB392B013C0120E090
:1042F00030E040E251E4C701B6010E94FA360E9464
:10430000FB394B015C01C301B2010E94C5393B017D
:10431000C501B4010E94C5396616770649F0ED81E2
:10432000FE81C082D182E282F382FF24F39401C035
:10433000F12C0D591E4E20E030E040E251E4D8014E
:1043400014966D917D918D919C9117970E94FA36EC
:104350000E94FB392B013C0120E030E040E251E4B7
:1043600069817A818B819C810E94FA360E94FB3997
:104370004B015C01C301B2010E94C5397E836D838C
:10438000C501B4010E94C539ED81FE81E617F7072A
:1043900051F089819A81AB81BC81F8018483958336
:1043A000A683B78301C0F1100E94E8208DEC9BE04A
:1043B0000E946E2703E611E178011A821982D70163
:1043C00014966D917D918D919C9117970E94E52097
:1043D000E981FA81329719F08CE20E942328298121
:1043E0003A812F5F3F4F3A83298330E1E30EF11C7E
:1043F00089819A81039719F787EC9BE00E946E27C9
:104400001A821982D8016D917D918D919C910E94A3
:10441000E520E981FA81329719F08CE20E94232885
:1044200029813A812F5F3F4F3A832983005F1F4FD5
:104430002330310539F784EC9BE026960FB6F894CB
:10444000DEBF0FBECDBFDF91CF911F910F91FF90C7
:10445000EF90DF90CF90BF90AF909F908F907F9024
:104460006F905F904F900C946E270F931F93CF9394
:10447000DF930E94C4158FEB9BE00E946E27C4E976
:10448000D2E003E611E180E20E94232889910E9494
:104490002328F80160857185828593850E94E52037
:1044A000005F1F4FF2E0C739DF0769F78CEB9BE035
:1044B0000E946E2760910E0270910F02809110028F
:1044C000909111020E94E52089EB9BE00E946E27EB
:1044D00060910A0270910B0280910C0290910D0282
:1044E0000E94E520DF91CF911F910F910C946A27D4
:1044F00085EA9BE00E94892720E030E048EC52E406
:104500006091160270911702809118029091190221
:104510000E94FA360E94C539AB01BC0189E290E0E5
:104520000E941A2720E030E048EC52E46091120229
:104530007091130280911402909115020E94FA3634
:104540000E94C539AB01BC018DE290E00C941A27A2
:1045500080EA9BE00E946E2760911602709117021C
:1045600080911802909119020E94E5208DE99BE04C
:104570000E946E27609112027091130280911402C2
:104580009091150242E00E9417200C946A272F9206
:104590003F924F925F926F927F928F929F92AF92D3
:1045A000BF92CF92DF92EF92FF920F931F93CF9320
:1045B000DF93CDB7DEB7C054D1090FB6F894DEBF94
:1045C0000FBECDBF382E40910A0250910B02609170
:1045D0000C0270910D0281E40E9462296B017C0142
:1045E00020E030E0A9010E94B93A18168CF420E0CE
:1045F00030E04AEF54E4C701B6010E94943687FDCB
:104600000AC0C12CD12C9AEFE92E94E4F92E03C0F4
:10461000C12CD12C7601C0920A02D0920B02E092FA
:104620000C02F0920D0240910E0250910F02609127
:1046300010027091110286E40E946229698F7A8FBC
:104640008B8F9C8F20E030E0A9010E94B93A1816A8
:10465000ACF420E030E04AE754E4698D7A8D8B8D2C
:104660009C8D0E94943687FD0DC080E090E0AAE703
:10467000B4E4898F9A8FAB8FBC8F04C0198E1A8EC9
:104680001B8E1C8E03E611E16E019DE0C90ED11C4C
:1046900084E9A82E82E0B82E4E01A9E18A0E911C71
:1046A000F80150847184E284F384809109028823A4
:1046B00029F0352D272D9E2D8F2D04C030E020E0D0
:1046C00090E080E0432F522F692F782FD5018D91F4
:1046D0005D010E94622940900902442021F0512C82
:1046E000712CE12CF12C252D372DA7010E94593872
:1046F000F60161937193819391936F01005F1F4F56
:104700008E169F0669F6E0906B11F0906C11009187
:104710006D1110916E1190907B11A0907C11B09052
:104720007D11C0907E11442029F0392D2A2D9B2D1A
:104730008C2D04C030E020E090E080E0432F522F29
:10474000692F782F8AE40E946229D0900902DD2027
:1047500021F0912CA12CB12CC12C292D3A2D4B2DBF
:104760005C2D0E94593869A37AA38BA39CA3DD20FA
:1047700029F03E2D2F2D902F812F04C030E020E016
:1047800090E080E0432F522F692F782F89E40E9418
:10479000622920910902222321F0E12CF12C00E072
:1047A00010E09701A8010E9459386DA37EA38FA342
:1047B00098A79B01AC0160916B1170916C11809175
:1047C0006D1190916E110E9458384B015C0129A126
:1047D0003AA14BA15CA160917B1170917C118091F9
:1047E0007D1190917E110E9458386B017C01A501CA
:1047F0009401C501B4010E94FA362B013C01A701C6
:104800009601C701B6010E94FA369B01AC01C301B3
:10481000B2010E9459380E94073B2B013C01A501BF
:104820009401C701B6010E94D8386B017C0120E0D9
:1048300030E0A9010E94943687FF0AC02BED3FE0CB
:1048400049EC50E4C701B6010E9459386B017C0164
:104850002DA13EA14FA158A56D857E858F85988994
:104860000E9458384B015C0129A13AA14BA15CA1DF
:1048700069897A898B899C890E945838A50194019D
:104880000E94D8384B015C0120E030E0A9010E9471
:10489000943687FF0AC02BED3FE049EC50E4C50198
:1048A000B4010E9459384B015C01A7019601C50172
:1048B000B4010E945838F1E03F1212C020E030E00D
:1048C000A9010E94943687FF1FC02BED3FE049EC01
:1048D00050E4C501B4010E9459384B015C0114C079
:1048E0002FEF321211C020E030E0A9010E94B93A46
:1048F000181654F42BED3FE049EC50E4C701B60123
:104900000E9459386B017C01A7019601C501B401D1
:104910000E9458386D8F7E8F8F8F98A3A3019201CC
:10492000C301B2010E94583869A77AA78BA79CA738
:1049300020E030E0A9016D8D7E8D8F8D98A10E94C1
:10494000B93A2D8D3E8D4F8D58A118160CF0505848
:10495000C301B2010E94FA369B01AC010E94FA36F3
:104960004B015C0129A53AA54BA55CA5CA01B9017B
:104970000E94FA369B01AC01C501B4010E9459386E
:104980000E94073B0E9437390E94C5391B01809164
:104990008B1190918C11A0918D11B0918E118DA7DA
:1049A0009EA7AFA7B8AB8D899E89AF89B88D89AF17
:1049B0009AAFABAFBCAF00E010E0C101032C000C1C
:1049C000AA0BBB0B21968CAF9DAFAEAFBFAF2197AB
:1049D000201631060CF48CC0B801012E000C880B97
:1049E000990B0E949B364B015C0121966CAD7DAD0D
:1049F0008EAD9FAD21970E949B369B01AC01C501F6
:104A0000B4010E9453394B015C019B01AC016D8DD7
:104A10007E8D8F8D98A10E94FA36A70196010E9483
:104A2000593869AB7AAB8BAB9CABA501940169A5F6
:104A30007AA58BA59CA50E94FA36A30192010E943B
:104A400059386DAB7EAB8FAB98AF69A97AA98BA9AA
:104A50009CA90E944E399B01AC016DA97EA98FA92A
:104A600098AD0E94FA362DA13EA14FA158A50E94F3
:104A7000593869837A838B839C8369A97AA98BA926
:104A80009CA90E94F93A9B01AC016DA97EA98FA94E
:104A900098AD0E94FA3629A13AA14BA15CA10E94CF
:104AA00059386D837E838F8398872DA53EA54FA5AA
:104AB00058A969AD7AAD8BAD9CAD0E945838A5015F
:104AC00094010E94FA362DA53EA54FA558A90E9433
:104AD000593869877A878B879C87498D5A8D6B8D6A
:104AE0007C8DCE0101960E941E100F5F1F4F70CF6C
:104AF000C05CDF4F0FB6F894DEBF0FBECDBFDF91B5
:104B0000CF911F910F91FF90EF90DF90CF90BF90CA
:104B1000AF909F908F907F906F905F904F903F905D
:104B20002F900895CF93DF93282F30E0F901E95AB1
:104B3000F44F8491F901EF5EF44FD491F901E553FC
:104B4000F54FC491CC2391F081110E94C11FEC2F2D
:104B5000F0E0EE0FFF1FEF54F54FA591B491EC91EB
:104B6000ED2381E090E021F480E002C080E090E05D
:104B7000DF91CF9108951F93CF93DF93282F30E0DB
:104B8000F901E95AF44F8491F901EF5EF44FD491A1
:104B9000F901E553F54FC491CC23C1F0162F8111D3
:104BA0000E94C11FEC2FF0E0EE0FFF1FE956F54FFA
:104BB000A591B4919FB7F894111104C08C91D09530
:104BC000D82302C0EC91DE2BDC939FBFDF91CF9105
:104BD0001F910895CF93DF9390E0FC01EF5EF44FB7
:104BE0002491FC01E553F54F8491882361F190E015
:104BF000880F991FFC01E358F54FC591D491FC0132
:104C0000E956F54FA591B491611109C09FB7F89489
:104C10008881209582238883EC912E230BC06230FB
:104C200061F49FB7F8948881322F3095832388836D
:104C3000EC912E2B2C939FBF06C08FB7F894E88180
:104C40002E2B28838FBFDF91CF9108958F929F9253
:104C5000AF92BF92CF92DF92EF92FF926B017C01F5
:104C60000E94A9294B015C01C114D104E104F104A3
:104C7000F1F00E94A929DC01CB0188199909AA0940
:104C8000BB09883E9340A105B10570F321E0C21A2B
:104C9000D108E108F10888EE880E83E0981EA11C77
:104CA000B11CC114D104E104F10419F7DDCFFF9068
:104CB000EF90DF90CF90BF90AF909F908F9008952E
:104CC000CF92DF92EF92FF920F931F93CF93DF93D8
:104CD00000D01F92CDB7DEB719821A821B821C82C8
:104CE0007E0125E0E20EF11C8E010F5F1F4F6C016B
:104CF000C01AD10AC601800F911F0E94BB37F8016C
:104D000081938F01EE15FF05A9F769817A818B8167
:104D10009C810F900F900F900F90DF91CF911F917A
:104D20000F91FF90EF90DF90CF900895CF92DF9298
:104D3000EF92FF92DC01A03282E0B8070CF03EC097
:104D4000B7FD06C0A53BB1052CF0A4EBB0E002C056
:104D5000A0E0B0E080912C1328E830E06901C81A87
:104D6000D10887FDD394CC0CDD1CCC0CDD1C0D2CA4
:104D7000000CEE08FF0880912D1328E532E0281B77
:104D8000310987FD3395220F331F220F331FA901ED
:104D9000330F660B770B9A01AB012C193D094E09B5
:104DA0005F090E94FB3724EB30E040E050E00E94B6
:104DB000D137C20ED31EE41EF51ED60190912B13DF
:104DC000943298F580912C1348E850E0481B510923
:104DD00087FD5395440F551F440F551FA417B50762
:104DE0008CF080912D1328E532E0281B310987FDD6
:104DF0003395220F331F220F331FAD012A173B07B4
:104E00000CF4A9012FB7F894892F90E0FC01EE0F64
:104E1000FF1F8E0F9F1FFC01E254FD4E42505109AF
:104E2000440F551F528341832FBFFF90EF90DF90B7
:104E3000CF900895CF92DF92EF92FF920F931F933E
:104E4000CF93DF9300D01F92CDB7DEB77C014983AB
:104E50005A836B837C830E94602609811A812B818F
:104E60003C816017710782079307A1F0CE0101967C
:104E70006C0100E010E0F60161916F01C701800F45
:104E8000911F0E94C3370F5F1F4F0430110599F720
:104E900081E001C080E00F900F900F900F90DF91A4
:104EA000CF911F910F91FF90EF90DF90CF900895D9
:104EB000009769F0FC0101900020E9F73197AF01FC
:104EC000481B590BBC0184E991E10C94111280E05C
:104ED00090E0089583EB92E00C9458270F931F9372
:104EE000CF93DF938C01C0E0D0E0F801EC0FFD1F01
:104EF0006491662341F084E991E10E94A812892B14
:104F000011F02196F2CFCE01DF91CF911F910F9139
:104F10000895CF93DF930E946E27EC010E946A27C9
:104F20008C0F9D1FDF91CF9108950F931F93CF9307
:104F3000DF938AEA9CE00E94892703E611E1CDE134
:104F4000D0E020E030E048EC52E4F801648575855B
:104F5000868597850E94FA360E94C539AB01BC014F
:104F6000CE010E941A272496005F1F4FC932D10537
:104F700041F7DF91CF911F910F91089586EA9CE050
:104F80000E946E272FB7F89480915F119091601165
:104F9000A0916111B09162112FBF8093B4129093D0
:104FA000B512A093B612B093B7120895CF93DF93C2
:104FB0000E945827EC010E946A278C0F9D1FDF91E9
:104FC000CF9108958F929F92AF92BF920F931F93AC
:104FD000CF93DF93CDB7DEB7A1970FB6F894DEBFBE
:104FE0000FBECDBF19A2423008F44AE08E010F5D1A
:104FF0001F4F842E912CA12CB12CA50194010E944D
:105000000338E62FB901CA0101501109EA3014F43E
:10501000E05D01C0E95CD801EC93232B242B252B08
:1050200061F7C8010E945827A1960FB6F894DEBF19
:105030000FBECDBFDF91CF911F910F91BF90AF9069
:105040009F908F900895682F84E991E10C94A812A5
:10505000CF92DF92EF92FF92CF93DF9397FF19C029
:105060006B017C018DE20E942328EC0166277727E3
:10507000CB016C197D098E099F094AE00E94E22745
:105080008C0F9D1FDF91CF91FF90EF90DF90CF901D
:1050900008954AE0DF91CF91FF90EF90DF90CF909D
:1050A0000C94E227CF93DF93BC01990F880B990BE7
:1050B0000E942828EC010E946A278C0F9D1FDF9117
:1050C000CF910895CF9380E090E00E94BB37C82F26
:1050D0008BE99CE00E946E278C2FCC0F990BCF910F
:1050E0000C9452280C94582785E99CE00E946E2766
:1050F0008CE992E00E94722882E99CE00E946E276F
:1051000080915D1190915E110C94522882E89CE090
:105110000E946E270E9474280E9462288FEE9BE0F6
:105120000E946E278FE792E00E94D62789E49CE0D8
:105130000E94892786EF9BE00C948927EF92FF92CB
:105140000F931F93CF93DF9380E090E00E94BB37D3
:105150008A3029F06AE080E090E00E94C33783E65D
:10516000E82E81E1F82E8701C5E0D0E0CE010E9453
:1051700060260E949B3620E030E048EC52E40E941A
:105180005339F8016083718382839383CE0104963F
:105190000E9460260E949B3620E030E048EC52E4FA
:1051A0000E945339F8016483758386839783289618
:1051B000005F1F4FCD31D105C9F6CDE1D0E0CE0162
:1051C0000E9460260E949B3620E030E048EC52E4CA
:1051D0000E945339F70164877587868797872496DD
:1051E000F0E1EF0EF11CC932D10549F789E290E0F8
:1051F0000E9460260E949B3620E030E048EC52E49A
:105200000E9453396093160270931702809318021C
:10521000909319028DE290E00E9460260E949B36D6
:1052200020E030E048EC52E40E94533960931202CF
:10523000709313028093140290931502DF91CF9123
:105240001F910F91FF90EF90089583EE9BE00E94D5
:10525000892740915D1150915E11052E000C660B5F
:10526000770B81E090E00C941A27EF92FF920F9356
:105270001F93CF93DF932091B2123091B312A90103
:105280004F5C5D4E7A0101E312E1C82F880FDD0B00
:105290000E151F0578F4F80181918F018B3351F0C1
:1052A000082E000C990B0E94703B8C179D0781F70C
:1052B00081E001C080E0DF91CF911F910F91FF90BD
:1052C000EF9008958F929F92AF92BF92CF92DF920C
:1052D000EF92FF920F931F93CF93DF934A015B01ED
:1052E0002091B2123091B312A9014F5C5D4E7A0148
:1052F000C1E3D2E1082F880F110BCE15DF05D0F4E2
:1053000089918B33B9F0082E000C990B0E94703BE9
:105310008017910791F7CE01DF91CF911F910F91E7
:10532000FF90EF90DF90CF90BF90AF909F908F90C5
:105330000C944936C501B401DF91CF911F910F91B3
:10534000FF90EF90DF90CF90BF90AF909F908F90A5
:1053500008953FB7F89480912F1390913013A09146
:105360003113B091321326B5A89B05C02F3F19F019
:105370000196A11DB11D3FBFBA2FA92F982F8827D5
:10538000820F911DA11DB11DBC01CD0142E0660F30
:10539000771F881F991F4A95D1F708951F920F9282
:1053A0000FB60F9211242F933F938F939F93AF9338
:1053B000BF9380915F1190916011A0916111B091A4
:1053C000621130912E1323E0230F2D3720F4019624
:1053D000A11DB11D05C026E8230F0296A11DB11D18
:1053E00020932E1380935F1190936011A09361110D
:1053F000B093621180912F1390913013A0913113CB
:10540000B09132130196A11DB11D80932F1390937B
:105410003013A0933113B0933213BF91AF919F918A
:105420008F913F912F910F900FBE0F901F90189565
:10543000CF93DF93CDB7DEB7E7970FB6F894DEBF13
:105440000FBECDBF789484B5826084BD84B5816081
:1054500084BD85B5826085BD85B5816085BD80913F
:105460006E00816080936E001092810080918100B7
:1054700082608093810080918100816080938100AF
:10548000809180008160809380008091B100846071
:105490008093B1008091B00081608093B0008091D2
:1054A000910082608093910080919100816080934F
:1054B0009100809190008160809390008091A10084
:1054C00082608093A1008091A10081608093A100FF
:1054D0008091A00081608093A00080912101826072
:1054E000809321018091210181608093210180912D
:1054F000200181608093200180917A0084608093F4
:105500007A0080917A00826080937A0080917A009C
:10551000816080937A0080917A00806880937A001D
:105520001092C100E091A411F091A51182E0808356
:10553000E091A411F091A5111082E091A011F091D9
:10554000A1111082E091A211F091A31180E180835A
:105550001092AC11E091A811F091A91186E080831E
:10556000E091A611F091A711808180618083E09184
:10557000A611F091A711808188608083E091A61127
:10558000F091A711808180688083E091A611F0914D
:10559000A71180818F7D80831092B3121092B21276
:1055A0000E949E2883E392E00E94D62788E580939C
:1055B000F3108DE28093F4108EE28093F5108FE269
:1055C0008093F61089E08093F71099E59093F81096
:1055D0009AE29093F9109BE29093FA109CE29093D8
:1055E000FB108093FC108DE692E00E94D6270DEF11
:1055F000C02E00E1D02E03EF10E161E0D80111963A
:105600008C910E94EA2561E0F80182810E94EA25DE
:1056100061E0D80113968C910E94EA25F801F4808C
:1056200060E08F2D0E94EA2561E08F2D0E94BB254E
:105630000B5F1F4FC016D10601F7E7EEF0E183EFD5
:1056400090E1ABEDB0E100E010E020E031E440E0BB
:1056500050E06AE774E401931193219331934D93E1
:105660005D936D937D938E179F07A9F780E090E07F
:10567000AAEFB4E48093E3109093E410A093E510B4
:10568000B093E6108AE999E9A9E9BEE38093EF10A7
:105690009093F010A093F110B093F21084E58093F2
:1056A000FD1080912B13843208F050C061E08DE032
:1056B0000E94EA2580912B13E82FF0E09F01220F32
:1056C000331FE20FF31FE254FD4E9081907C9D60EA
:1056D000908310922C1310922D136CE00E9444388A
:1056E000FCE08F9FB001112440E050E09B01240FAB
:1056F000351FF901EE0FFF1F2E0F3F1FF901E25476
:10570000FD4E908196FD15C04F5F5F4F4C305105A7
:1057100069F7813011F00C9460341092900082E0AF
:1057200080939100109295001092940088BB809312
:105730007100E0912B13F0E0CF01880F991FE80F63
:10574000F91FE254FD4E80818064808385E392E0FE
:105750000E94D6271092FE101092FD101092001198
:105760001092FF108091FF109091001101978F719E
:10577000992721E7289FF001299FF00D1124E55476
:10578000FD4F1082118212821382128A138A148AA8
:10579000158A14A215A216A217A29E012F5F3F4FD1
:1057A00019018CE0D9011D928A95E9F7C9010E947F
:1057B00057078DE592E00E94D6271092BA02109208
:1057C000B9021092B8021092B7020E943D0A1092DC
:1057D0008000109285001092840080ED97E09093F5
:1057E00089008093880088E0809381008091810007
:1057F000887F82608093810080916F0082608093B7
:105800006F008091B6028FBF0E94FB0984EE98E37F
:10581000AEE5B2E48093021190930311A0930411BA
:10582000B093051119821A821B821C821D821E826E
:105830001F82188680E090E0A4EBB2E489879A8703
:10584000AB87BC87C1010E94EA0F20E030E044E34F
:1058500053E460910E0270910F02809110029091BA
:1058600011020E949436882361F080E090E0A4E366
:10587000B3E480930E0290930F02A0931002B093B2
:1058800011020E9486280E94BE2784E991E10E94AD
:105890007012181619060CF0E5C784E991E10E9410
:1058A0004E122091B2123091B312203831055CF4BF
:1058B000A9014F5F5F4F5093B3124093B212F901A9
:1058C000EF5CFD4E80838D3019F08A3009F0CAC735
:1058D000E091B212F091B312E05DFD4E1082809122
:1058E000BD1282FF04C081E392E10E94D62780911D
:1058F0003112882309F4B0C78B3309F4ADC78E3455
:1059000091F540E050E060E87FEB0E9462290E9440
:10591000C5390091B8121091B9122091BA12309184
:10592000BB12601771078207930779F081E792E055
:105930000E946E276091B8127091B9128091BA12CC
:105940009091BB120E9428289BC2DC01CB010196DA
:10595000A11DB11D8093B8129093B912A093BA12F1
:10596000B093BB1209C08091BD1281FF05C087E6CC
:1059700092E00E946E2770C7E1E3F2E101900020FF
:10598000E9F78F010353124117FD09C0F801EF5CDD
:10599000FD4E80818A3239F001501109F5CFCC24B7
:1059A000CA94DC2C01C068018091BD1281FF04C043
:1059B000BFEFCB16DB0629F0E1E3F2E1E12CF12C9D
:1059C00003C087E392E0DBC4CF018153924180178B
:1059D00091071CF48191E826F7CFC80117FF02C098
:1059E00080E090E060E070E08E5C9D4E0E94ED34BF
:1059F000CD20C094B9F00E94C5394B015C01E61678
:105A0000F70681F082E492E00E947228B701FF0C51
:105A1000880B990B0E94282884E592E00E94722846
:105A2000C401DAC4F801EF5CFD4E1082E1E3F2E15B
:105A300001900020E9F7329780818B3309F41082BE
:105A400043E050E06BE572E081E392E10E94833B2A
:105A5000892B79F460E270E081E392E10E94783B67
:105A600001960E944D3690935E1180935D110E94C5
:105A700025298DE40E943529882309F431C340E0AB
:105A800050E060E87FEB8DE40E9462290E94C539F6
:105A90006037710509F4B6C07CF56A32710509F406
:105AA00076C0DCF46131710509F46EC062317105B4
:105AB00009F461C06630710509F0CEC6609101112C
:105AC00070E080E090E00E949936AB01BC0184E573
:105AD0000E94622910920111BFC66536710509F452
