:100000000C94A6050C94D0050C94D0050C94D00546
:100010000C94D0050C94D0050C94D0050C94D0050C
:100020000C94D0050C94D0050C94D0050C94D005FC
:100030000C94D0050C94E8150C94D0050C94D005C4
:100040000C94D0050C94D0050C947B270C94D0050F
:100050000C94D8130C94AE130C94D0050C94D005CA
:100060000C94D0050C94D0050C94D0050C94D005BC
:100070000C94D0050C94D0050C94D0050C94D005AC
:100080000C94D0050C94D0050C94D005A81DAB1D84
:100090009E1DA21DC21DC21DAF1DB31DB91DBD1DDC
:1000A000084AD73B3BCE016E84BCBFFDC12F3D6CDF
:1000B00074319ABD56833DDA3D00C77F11BED9E445
:1000C000BB4C3E916BAAAABE000000803F05A84C25
:1000D000CDB2D44EB93836A9020C50B991868808F1
:1000E0003CA6AAAA2ABE000000803F004E414E490D
:1000F0004E495459494E46CDCCCC3D0AD7233C17E6
:10010000B7D13877CC2B329595E6241FB14F0A0032
:100110000020410000C84200401C4620BCBE4CCA22
:100120001B0E5AAEC59D7424F4D43050C38E20C229
:10013000A24017828B7011127A910D816CD90AA896
:1001400061E108C7586607615143061E4B5D05C152
:1001500045A7041A411104093D9803713931034040
:1001600036DB0265339102D4305402802E1D0263C7
:100170002CEE01752AC501B028A001102781018F3E
:100180002564012B244B01E0223401AC211F018D99
:10019000200D01801FFC00841EED00971DDF00B8BC
:1001A0001CD200E61BC600201BBC00641AB200B2C1
:1001B00019A8000A19A0006A189900D117910040E7
:1001C000178B00B516840031167E00B31579003AFE
:1001D000157300C7146F0058146A00EE1366008888
:1001E00013630025135E00C7125B006C12570015E5
:1001F000125400C111510070114F0021114B00D653
:100200001049008D1047004610440002104200C003
:100210000F4000800F3E00420F3C00060F3B00CB1A
:100220000E3800930E37005C0E3500270E3400F3B5
:100230000D3200C10D3100900D3000600D2E0032E6
:100240000D2D00050D2C00D90C2B00AE0C290085BE
:100250000C29005C0C2700350C27000E0C2600E84A
:100260000B2400C40B2400A00B23007D0B23005A99
:100270000B2100390B2100180B2000F80A1F00D9B0
:100280000A1E00BB0A1E009D0A1D00800A1D006395
:100290000A1C00470A1B002C0A1B00110A1A00F74F
:1002A000091A00DD091900C4091900AB09190092E7
:1002B0000917007B091800630917004C091600365E
:1002C000091600200916000A091500F5081500E0B6
:1002D000081400CC081400B8081400A408140090F6
:1002E0000813007D0812006B08130058081200461E
:1002F000081200340811002308110012081100012F
:10030000081100F0071000E0071000D0071000C02F
:10031000071000B0070F00A107100091070E00831F
:10032000070F0074070F0065070E0057070E0049FE
:10033000070E003B070D002E070E0020070D0013CF
:10034000070D0006070D00F9060C00ED060D00E094
:10035000060C00D4060C00C8060C00BC060C00B04D
:10036000060C00A4060B0099060C008D060B0082FB
:10037000060B0077060B006C060B0061060A00579F
:10038000060B004C060A0042060A0038060A002E38
:10039000060A0024060A001A060A001006090007C9
:1003A000060A00FD050900F4050900EB050900E255
:1003B000050900D9050900D0050900C7050900BED7
:1003C000050900B5050800AD050800A50509009C54
:1003D000050800940508008C050800840508007CC9
:1003E000050800740508006C050700650508005D38
:1003F000050700560508004E0507004705070040A1
:1004000005080038050700310507002A0507002305
:100410000507001C050600160507000F0507000864
:1004200005060002050700FB040600F5040700EEC0
:10043000040600E8040600E2040700DB040600D519
:10044000040600CF040600C9040600C3040600BD6C
:10045000040600B7040600B1040500AC040600A6BB
:10046000040600A00405009B040600950405009006
:100470000406008A04050085040500800406007A4D
:1004800004050075040500700405006B0405006692
:10049000040500610405005C0405005704050052D2
:1004A0000405004D04050048040500430405003E12
:1004B0000404003A04050035040500300404002C4F
:1004C00004050027040400230405001E0404001A88
:1004D00004040016040500110404000D04040009BE
:1004E0000405000404040000040400FC030400F8F4
:1004F000030400F4030400F0030400EC030400E828
:10050000030400E4030400E0030400DC030400D857
:10051000030400D4030400D0030400CC030400C887
:10052000030300C503030024F404D9201BC40C5C9E
:100530000E9804C4095F0265077101F405F900FB18
:1005400004B30048048700C1036900580355000341
:10055000034500BE023A008402310053022A0029FA
:1005600002250004022000E4011C00C8011900AFAC
:10057000011700980114008401130071011000613B
:1005800001100051010E0043010D0036010B002B3C
:10059000010B0020010B00150109000C01090003EB
:1005A000010800FB000800F3000800EB000700E46E
:1005B000000600DE000600D8000600D2000600CCCF
:1005C000000500C7000500C2000500BD000400B919
:1005D000000400B5000400B1000400AD000400A94F
:1005E000000400A5000300A20003009F0004009B7C
:1005F00000030098000300950002009300030090A0
:100600000003008D0002008B0003008800020086BA
:1006100000020084000300810002007F0002007DD0
:100620000002007B000200790002007700010076E2
:100630000002007400020072000100710002006FED
:100640000002006D0001006C0002006A00010069F8
:1006500000020067000100660001006500010064FF
:100660000002006200010061000100600001005F03
:100670000002005D0001005C0001005B0001005A07
:100680000001005900010058000100570001005608
:100690000001005500010054000100530000005308
:1006A0000001005200010051000100500001004F04
:1006B0000001004E0000004E0001004D0001004C02
:1006C0000001004B0000004B0001004A00010049FE
:1006D00000010048000000480001004700010046FA
:1006E00000000046000100450000004500010044F4
:1006F00000010043000000430001004200000042EE
:100700000001004100000041000100400001003FE5
:100710000000003F0001003E0000003E0001003DDF
:100720000000003D0001003C0000003C0000003CD7
:100730000001003B0000003B0001003A0000003ACD
:1007400000010039000000390001003800000038C5
:1007500000000038000100370000003700010036BB
:1007600000000036000000360001003500000035B2
:1007700000000035000100340000003400000034A7
:10078000000100330000003300000033000100329C
:100790000000003200000032000100310000003192
:1007A0000000003100010030000000300000003087
:1007B0000001002F0000002F0000002F0000002F7C
:1007C0000001002E0000002E0000002E0001002D70
:1007D0000000002D0000002D0000002D0001002C65
:1007E0000000002C0000002C0000002C0001002B59
:1007F0000000002B0000002B0000002B0001002A4D
:100800000000002A0000002A0000002A0001002940
:100810000000002900000029000000290000002934
:100820000001002800000028000000280000002827
:10083000000000280001002700000027000000271A
:10084000000000270000002700010026000000260D
:100850000000002600000026000000260001002500
:1008600000000025000000250000002500000025F4
:1008700000000025000100240000002400000024E6
:1008800000000024000000240001002300000023D9
:1008900000000023000000230000002300000023CC
:1008A00000000023000100220000002200000022BE
:1008B00000000022000000220000002200010021B0
:1008C00000000021000000210000002100000021A4
:1008D0000000002100000021000100200000002095
:1008E0000000002000000020000000200000002088
:1008F00000000020000000200001001F0000001F79
:100900000000001F0000001F0000001F0000001F6B
:100910000000001F0001001E0000001E0000001E5D
:100920000000001E0000004D323033200041646A98
:10093000757374696E67206C696D6974732E00201D
:10094000537465703D002073746570732E20446984
:10095000723D002920002028004D6F76696E6720C7
:100960000044313420004435302053004C494D4977
:1009700054204D494E20004C494D4954204D41587A
:100980002000446F6E652E0046696E6420486F6DCE
:10099000652E2E2E004431302056004E4F4C494ECD
:1009A000454E554D004241444C494E454E554D2013
:1009B0000000002100240027002A0000002200255A
:1009C0000028002B00000020002300260029000240
:1009D00002020202020202040404040404040403E6
:1009E00003030303030303010101010101010101E9
:1009F00002040810204080010204081020408001F9
:100A000002040810204080804020100804020100E9
:100A10000000010200090A000000000403080700AA
:100A200000000000000000000000000000000020A6
:100A300052004438204C00536176696E6720636130
:100A40006C6962726174696F6E2E002041002046ED
:100A5000004D31313400290A0029202D2028004D75
:100A6000313031202800536176696E67206C696DE2
:100A70006974732E00536176696E67205549442E60
:100A8000004275696C742000547279207468657333
:100A9000652028776974682061206E65776C696EBF
:100AA00065293A204730302C4730312C4730322CE2
:100AB0004730332C4730342C4732382C4739302CD0
:100AC0004739312C4739322C4D31382C4D313031AA
:100AD0002C4D3130302C4D31313400506C65617308
:100AE000652073656520687474703A2F2F6D616B93
:100AF000656C616E67656C6F2E636F6D2F20666F1E
:100B000072206D6F726520696E666F726D617469B7
:100B10006F6E2E000A0A48454C4C4F20574F524CDE
:100B2000442120002023004920414D2000466972C5
:100B30006D776172652076000A3E20005361766908
:100B40006E6720686F6D652E0000F33111241FBEA3
:100B5000CFEFD0E4DEBFCDBF11E0A0E0B1E0E8E030
:100B6000F2E700E00BBF02C007900D92A63BB10771
:100B7000D9F721E1A6EBB1E001C01D92AB3EB2076F
:100B8000E1F715E0C6EAD5E004C02197FE010E9416
:100B9000C035C53AD107C9F70E94C5270C94023960
:100BA0000C940000CF92DF92EF92FF920F931F936D
:100BB000CF93DF936C017A018B01C0E0D0E0CE15BA
:100BC000DF0581F0D8016D918D01D601ED91FC9189
:100BD0000190F081E02DC6010995892B11F0219635
:100BE000EECF7E01C701DF91CF911F910F91FF9052
:100BF000EF90DF90CF900895089580E090E0089501
:100C0000FC01538D448D252F30E0842F90E0821B12
:100C1000930B541710F0CF96089501970895FC0197
:100C2000918D828D981761F0828DDF01A80FB11D23
:100C30005D968C91928D9F5F9F73928F90E0089547
:100C40008FEF9FEF0895FC01918D828D981731F001
:100C5000828DE80FF11D858D90E008958FEF9FEF55
:100C60000895FC01918D228D892F90E0805C9F4F2B
:100C7000821B91098F739927089582E990E10E9460
:100C8000310621E0892B09F420E0822F0895FC0130
:100C9000848DDF01A80FB11DA35ABF4F2C91848D05
:100CA00090E001968F739927848FA689B7892C933A
:100CB000A089B1898C91837080648C93938D848D8D
:100CC000981306C00288F389E02D80818F7D808390
:100CD0000895EF92FF920F931F93CF93DF93EC0150
:100CE00081E0888F9B8D8C8D981305C0E889F989E8
:100CF000808185FD26C0F62E0B8D10E00F5F1F4F03
:100D00000F731127E02E8C8DE8120CC00FB607FC74
:100D1000FACFE889F989808185FFF5CFCE010E945D
:100D20004706F1CF8B8DFE01E80FF11DE35AFF4F0F
:100D3000F0829FB7F8940B8FEA89FB8980818062EB
:100D40000AC09FB7F894EE89FF896083E889F98922
:100D500080818370806480839FBF81E090E0DF9119
:100D6000CF911F910F91FF90EF900895CF93DF9354
:100D7000EC01888D8823C9F0EA89FB89808185FD93
:100D800005C0A889B9898C9186FD0FC00FB607FCF4
:100D9000F5CF808185FFF2CFA889B9898C9185FF35
:100DA000EDCFCE010E944706E7CFDF91CF910895A6
:100DB00080E090E0892B21F00E943D0681110DC05A
:100DC00080E090E0892B71F080E090E0892B51F079
:100DD0000E940000811104C008950E940000F0CF1D
:100DE0000C94000008950E94DC38CF92DF92EF92BD
:100DF000FF920F931F93CF93DF938C01EA01FB01C6
:100E000060817181828193819B01AC010E946A346F
:100E10006B017C01F80160817181828193819B016A
:100E2000AC010E94CA35288139814A815B810E94C8
:100E30006A349B01AC01C701B6010E94C935DF913C
:100E4000CF911F910F91FF90EF90DF90CF900C9476
:100E500078382F923F924F925F926F927F928F924B
:100E60009F92AF92BF92CF92DF92EF92FF920F9339
:100E70001F93CF93DF9300D000D0CDB7DEB78C01A6
:100E80001B01A1E6B0E18D919D910D90BC91A02D2B
:100E900089839A83AB83BC83209171103091721047
:100EA0004091731050917410F801648175818681AE
:100EB00097810E94C9356B017C01D8018D909D906E
:100EC000AD90BC90209165103091661040916710F4
:100ED00050916810C501B4010E94C9352B013C0135
:100EE000A7019601C701B6010E946A346B017C011B
:100EF000A3019201C301B2010E946A34A7019601C5
:100F00000E94CA350E9478382AE037ED43E25CE35C
:100F10000E94C4360E943738F10160837183828356
:100F20009383A501940169817A818B819C810E94C0
:100F3000C9359B01AC010E946A34A70196010E9449
:100F4000CA350E9478382AE037ED43E25CE30E941C
:100F5000C4360E943738D10114966D937D938D93DA
:100F60009C931797F80160857185828593850E940F
:100F70003637D10118966D937D938D939C931B9773
:100F80000F900F900F900F90DF91CF911F910F91C5
:100F9000FF90EF90DF90CF90BF90AF909F908F9099
:100FA0007F906F905F904F903F902F9008954F9259
:100FB0005F926F927F928F929F92AF92BF92CF92E9
:100FC000DF92EF92FF920F931F93CF93DF93CDB7F2
:100FD000DEB768970FB6F894DEBF0FBECDBF8C01A9
:100FE0005B015A834983FC01E65AFF4F608171819E
:100FF000828193810E9409346B017C01D5012D917E
:101000003D914D915C910E946A340E94A8360E94E5
:101010003D376D837E838F839887E981FA812081B4
:10102000318142815381C701B6010E946A340E9416
:10103000A8360E943D3769877A878B879C872D81E8
:101040003E814F815885283731054105510540F4CF
:1010500088E790E0A0E0B0E08D839E83AF83B887FF
:1010600029853A854B855C85283731054105510531
:1010700040F488E790E0A0E0B0E089879A87AB87EA
:10108000BC87F801EA59FF4F2081318142815381A9
:1010900029833A834B835C83CA01B9010E940B34D4
:1010A0002B013C016D817E818F8198850E940934DE
:1010B0006D877E878F87988B20E030E0A901C30180
:1010C000B2010E940434882329F1A7019601C701C7
:1010D000B6010E946A344B015C012D853E854F8527
:1010E0005889CA01B9010E946A349B01AC01C5014B
:1010F000B4010E94C9354B015C01A3019201C301F7
:10110000B2010E94CA359B01AC01C501B4010E9425
:10111000C43603C060E070E0CB010E94A8360E9494
:101120003D37698B7A8B8B8B9C8B69817A818B8124
:101130009C8190958095709561957F4F8F4F9F4FC3
:101140000E940B344B015C0169857A858B859C85F7
:101150000E94093469837A838B839C8320E030E08A
:10116000A901C501B4010E940434882349F12981F1
:101170003A814B815C81CA01B9010E946A346D8B4E
:101180007E8B8F8B988FA7019601C701B6010E94B5
:101190006A349B01AC016D897E898F89988D0E948C
:1011A000C9356B017C01A5019401C501B4010E9400
:1011B000CA359B01AC01C701B6010E94C43603C009
:1011C00060E070E0CB010E946C37F801E65BFF4FF6
:1011D000C080D180E280F3804601570129893A8995
:1011E0004B895C89821A930AA40AB50A0E943D378A
:1011F000861A970AA80AB90AB7FE82C020E030E032
:10120000A901C301B2010E940434882309F445C036
:10121000C701B6010E9409344B015C01A301920190
:10122000C301B2010E94CA359B01AC01C501B401E2
:101230000E946A344B015C012D853E854F8558899B
:10124000CA01B9010E946A349B01AC01C501B40115
:101250000E94C9354B015C0129813A814B815C8137
:10126000CA01B9010E946A349B01AC01C501B401F5
:101270000E94CA354B015C0120E030E040E850E4B8
:10128000C301B2010E946A349B01AC01C501B401E3
:101290000E94C4360E94363702C060E070E0072E1C
:1012A000000C880B990B0E940B340E94A8364B014E
:1012B0005C0120E030E0A9010E942A38181684F46D
:1012C000C501B4010E943D376C157D058E059F0553
:1012D00098F4C501B4010E943D376B017C010CC03C
:1012E000812C912C5401C114D104E104F10461F06A
:1012F000C12CD12C760108C0812C912C540104C042
:10130000C988DA88EB88FC88F801EE5AFF4FC08262
:10131000D182E282F3823496C80CD91CEA1CFB1CF1
:10132000C082D182E282F38238968D819E81AF8124
:10133000B88580839183A283B383349629853A85C7
:101340004B855C85208331834283538368960FB637
:10135000F894DEBF0FBECDBFDF91CF911F910F91EB
:10136000FF90EF90DF90CF90BF90AF909F908F90C5
:101370007F906F905F904F9008952F923F924F9281
:101380005F926F927F928F929F92AF92BF92CF9215
:10139000DF92EF92FF920F931F93CF93DF93CDB71E
:1013A000DEB7C856D1090FB6F894DEBF0FBECDBF69
:1013B0009AAB89AB6A017B010BA71CA72DA73EA79F
:1013C000809154109091551001969C012F713327F4
:1013D000A1963FAF2EAFA1978091521090915310DC
:1013E000A1964EAD5FADA19784179507A9F3009123
:1013F00054101091551080915410909155109EAB3F
:101400008DABBE016F5F7F4F89A99AA90E94290702
:101410002091691030916A1040916B1050916C10BE
:1014200023962CAF3DAF4EAF5FAF239780917910DD
:1014300090917A10A0917B10B0917C106B968CAF3C
:101440009DAFAEAFBFAF6B9781E7ADA9BEA98A9F35
:1014500090018B9F300D1124F901E05FFD4F25961F
:10146000FFAFEEAF2597E65BFF4F1082118212822D
:1014700013829E012F5F3F4F38AB2FA725966EAC8E
:101480007FAC2597015011090F711127809F100122
:10149000819F300C112400E010E02F01AFA5B8A906
:1014A0008D909D90AD90BD90B8ABAFA7F3018082B9
:1014B0009182A282B382F801E20DF31DE05FFD4F3D
:1014C00080819181A281B381881A990AAA0ABB0AF4
:1014D000D30114968D929D92AD92BC921797D5012F
:1014E000C4018827B7FD83959927AA27BB27F30155
:1014F000918B808BC501B4010E940B342AE037ED3B
:1015000043E25CE30E946A340E943637D3011896A6
:101510006D937D938D939C931B97B7FE08C0B094F9
:10152000A09490948094811C911CA11CB11CF30187
:1015300084869586A686B786F20180819181A281F4
:10154000B38188159905AA05BB0520F48082918294
:10155000A282B382B2E16B0E711C0E5E1F4F063386
:10156000110509F09BCFA9A9BAA9E1E6F0E14D91D7
:101570005D916D917D9140875187628773877096E9
:1015800020E1E139F20799F781E74DA95EA9849F2F
:10159000F001859FF00D1124E05FFD4FDF01A65B98
:1015A000BF4F4D905D906D907C90139756E045161F
:1015B00051046104710410F40C94941396961C92D7
:1015C0008BA59CA5ADA5BEA586AB97ABA0AFB1AFD3
:1015D0009C01AD0160E070E080E89FE30E94C436AA
:1015E0006F966CAF7DAF8EAF9FAF6F97A7019601DF
:1015F0000E946A346B017C018091541090915510C7
:101600002091090230910A02821B930BDC01AF7119
:10161000BB272B96BFAFAEAF2B97A701960160E01B
:1016200074E284E799E40E94C4360E9437384B0183
:101630005C012B968EAD9FAD2B9702970E97B8F558
:101640008091050190910601A0910701B0910801D8
:1016500088169906AA06BB0650F588199909AA09A1
:10166000BB09BC01CD01660F771F881F991F2B9600
:10167000EEADFFAD2B979F01FF0F440B550B0E9462
:101680007335CA01B9010E9409340E943738680DC8
:10169000791D8A1D9B1D0E9409349B01AC0160E0ED
:1016A00074E284E799E40E94C4366B017C012BA5A7
:1016B0003CA54DA55EA5C701B6010E946A346FAB7B
:1016C00078AF89AF9AAF81E72DA93EA9829F8001AB
:1016D000839F100D1124005F1D4F8FA998ADA9ADF8
:1016E000BAADF80182AF93AFA4AFB5AFC301B201F9
:1016F0000E94093429966CAF7DAF8EAF9FAF2997BA
:101700009B01AC01C701B6010E946A340E94A83651
:101710000E943D3761966CAF7DAF8EAF9FAF6197F2
:10172000F801E65AFF4F60837183828393839E01A1
:10173000235F3F4F67963FAF2EAF679740E350E17F
:101740005CAF4BAF63963FAF2EAF639700E010E006
:10175000212C312C50E85BA78FE38FA72596EEADA7
:10176000FFAD2597E00FF11F608571858285938518
:101770000E940B34A70196010E946A346396AEADB5
:10178000BFAD63976D937D938D939D936396BFAF2C
:10179000AEAF63974B015C01E894B7F8EBADFCADDD
:1017A0004190519061907190FCAFEBAFA301920119
:1017B000C501B4010E942A38181694F4A5019401B9
:1017C000C301B2010E94C4365B014C0191014BA5DB
:1017D0005FA50E942A3818161CF015018BA69FA63B
:1017E0000E5E1F4F0633110509F0B8CF20E030E040
:1017F00040E85FE3B1018BA59FA50E94043487FFF9
:101800004BC07E01F9E1EF0EF11C67960EAD1FADE6
:10181000679791014BA55FA5D8016D917D918D9141
:101820009C910E946A34F801619371938193919322
:101830008F01EE16FF0669F781E72DA93EA9829F69
:101840008001839F100D1124005F1D4F2FA938AD1B
:1018500049AD5AADB1018BA59FA50E946A34D8014C
:10186000DA966D937D938D939C93DD97065A1F4F67
:1018700061966CAD7DAD8EAD9FAD61970E940934D0
:1018800091014BA55FA50E946A340E943D37F80183
:101890006083718382839383F0910A01FBA7209177
:1018A0000B012FA720900C0130900D0123962CAD39
:1018B0003DAD4EAD5FAD23976091651070916610A0
:1018C00080916710909168100E94C9352B013C01EE
:1018D0006B962CAD3DAD4EAD5FAD6B9760917110C9
:1018E0007091721080917310909174100E94C9359C
:1018F0006BAF7CAF8DAF9EAF9B01AC010E946A3491
:101900006B017C01A3019201C301B2010E946A3400
:10191000A70196010E94CA350E94783861966CAF83
:101920007DAF8EAF9FAF619723962CAD3DAD4EAD91
:101930005FAD239760916110709162108091631088
:10194000909164100E94C9356FAB78AF89AF9AAFA0
:101950009B01AC010E946A34A70196010E94CA351E
:101960000E94783865966CAF7DAF8EAF9FAF65975C
:1019700023962CAD3DAD4EAD5FAD2397A9A9BAA975
:101980006D917D918D919C910E94C9354B015C01B7
:101990006B962CAD3DAD4EAD5FAD6B97E9A9FAA945
:1019A00064817581868197810E94C93569AB7AAB64
:1019B0008BAB9CABA5019401C501B4010E946A34B4
:1019C0006B017C0129A93AA94BA95CA9CA01B901FB
:1019D0000E946A349B01AC01C701B6010E94CA355E
:1019E0000E9478386B017C0120E030E0A9010E9460
:1019F0002A3818160CF0DFC061962CAD3DAD4EAD07
:101A00005FAD6197C301B2010E94C4362B013C0156
:101A100065962CAD3DAD4EAD5FAD65976FA978ADC8
:101A200089AD9AAD0E94C43623966CAF7DAF8EAF60
:101A30009FAF2397A7019601C501B4010E94C43648
:101A40004B015C01A701960169A97AA98BA99CA900
:101A50000E94C43669AB7AAB8BAB9CAB20E030E024
:101A600045E754ECC301B2010E946A346B017C016A
:101A700061962CAD3DAD4EAD5FAD61976BAD7CAD6C
:101A80008DAD9EAD0E94C436A50194010E946A34BA
:101A90006FAB78AF89AF9AAF29A93AA94BA95CA9D6
:101AA000C301B2010E946A349B01AC016FA978ADF9
:101AB00089AD9AAD0E94C9359B01AC01C701B60141
:101AC0000E94C4363B018C0120E030E045E754EC35
:101AD00023966CAD7DAD8EAD9FAD23970E946A3489
:101AE0006B017C0165962CAD3DAD4EAD5FAD65974C
:101AF0006BAD7CAD8DAD9EAD0E94C436A501940149
:101B00000E946A344B015C0129A93AA94BA95CA93E
:101B100023966CAD7DAD8EAD9FAD23970E946A3448
:101B20009B01AC01C501B4010E94C9359B01AC0108
:101B3000C701B6010E94C4366B017C0120E030E091
:101B4000A901B301C8010E942A3820E030E0A901B0
:101B5000B601181674F4C7010E942A38181684F4C6
:101B60009601A701B301C8010E94043487FD08C093
:101B700005C0C7010E942A381816ECF43601870107
:101B80002BA53FA5A101B301C8010E942A38181650
:101B90007CF420E030E0A9016BA57FA5C1010E9483
:101BA0002A38181644F01BA61FA6212C312C03C07E
:101BB0006BA67FA6180129962CAD3DAD4EAD5FAD4D
:101BC00029976F966CAD7DAD8EAD9FAD6F970E94DE
:101BD0006A3469AB7AAB8BAB9CAB9B01AC016BA558
:101BE0007FA5C1010E946A344B015C010E94A836A6
:101BF0000E943D376B017C0100E010E02596EEADC0
:101C0000FFAD2597E00FF11F4484558466847784E7
:101C1000411451046104710409F43FC0C701B601C5
:101C20000E9409349B01AC01C501B4010E94043437
:101C300087FF33C0A501940129966CAD7DAD8EADB3
:101C40009FAD29970E946A340E943D376BA77CA7FD
:101C50008DA79EA7A3019201C701B6010E94A435DA
:101C60002BA53CA54DA55EA52617370748075907A4
:101C7000A0F4CA01B9010E9409346B017C01C301BF
:101C8000B2010E9409349B01AC01C701B6010E9458
:101C9000C4360E943D376B017C010E5E1F4F063338
:101CA000110509F0ABCF81E74DA95EA9849F8001A2
:101CB000859F100D1124005F1D4FF801EA59FF4F59
:101CC000C082D182E282F382C701B6010E94093448
:101CD0006B017C0129A93AA94BA95CA90E94C436D1
:101CE000A5966CAF7DAF8EAF9FAFA597F801EA5B6D
:101CF000FF4F608371838283938358015AE6A50E58
:101D0000B11C2DEB37E346E051E4C701B6010E9458
:101D10006A340E943D37D5016D937D938D939C93DA
:101D20001397F801E25BFF4F108211821282138237
:101D3000F801F2ADFBAFD801DB96BC91BFAFF80163
:101D4000F4AD2696FFAF2697D801DD96BC91BFABC8
:101D5000ECE3F0E12F96FFAFEEAF2F979E01275EE9
:101D60003F4F3AA729A72F0167966EAC7FAC6797C4
:101D70003BAD3BA74FAD4FA726965FAD269759AB1E
:101D80002496BFAF249710E0D301CD90DD90ED9065
:101D9000FD903D01E894F7F8F20181909190A190B7
:101DA000B1902F01A5019401C701B6010E942A3804
:101DB0001816F4F5112329F1A50194016BAD7FAD3F
:101DC00026968FAD26979FA90E946A344B015C012D
:101DD0002BA53FA549A924965FAD2497C701B6015D
:101DE0000E946A349B01AC01C501B4010E94043415
:101DF00087FF1DC0A7019601C501B4010E94C4362A
:101E000010C0A7019601C501B4010E94C4369B0110
:101E1000AC016BA57FA589A924969FAD24970E944C
:101E20006A346BA77FA789AB24969FAF249711E0F4
:101E300029A53AA52615370509F0A6CF2B964EAD54
:101E40005FAD2B97452B09F45CC1C0900502D09083
:101E50000602E0900702F09008022DEB37E346E817
:101E600055E3B601C7010E942A3818160CF049C183
:101E70009601A7016BAD7FAD26968FAD26979FA9E2
:101E80000E94043487FD05C01C2D0D2D3E2C2F2CE7
:101E900006C01BAD0FAD26963FAC26972FA8960126
:101EA000A701612F702F832D922D0E94C436A99611
:101EB0006CAF7DAF8EAF9FAFA99789EF91E06D9624
:101EC0009FAF8EAF6D976796AEADBFAD67976396C8
:101ED000BFAFAEAF639720E030E040E85FE32D9600
:101EE0002CAF3DAF4EAF5FAF2D9768961FAE689792
:101EF0006D96AEADBFAD6D972D913D914D915D91BC
:101F00006D96BFAFAEAF6D97A9966CAD7DAD8EAD42
:101F10009FADA9970E946A346B017C016396EEAD78
:101F2000FFAD639781909190A190B1906396FFAFC0
:101F3000EEAF63976896FFAD6897FF23B1F02D96DB
:101F40002CAD3DAD4EAD5FAD2D970E946A346B0157
:101F50007C012D962CAD3DAD4EAD5FAD2D97C501ED
:101F6000B4010E946A344B015C01A5019401C701D0
:101F7000B6010E942A3820E030E0A90118162CF59D
:101F8000C501B4010E942A3818164CF020E030E058
:101F9000A901C701B6010E94043487FF05C0A5014D
:101FA0009401C701B60124C02401350177FA709469
:101FB00077F87094A3019201C701B6010E942A38F4
:101FC00018165CF52601370128C0C501B4010E942E
:101FD000043487FD09C020E030E0A901C701B60143
:101FE0000E942A3818164CF4A7019601C501B401C5
:101FF0000E94C9352B013C0110C02601370177FA38
:10200000709477F87094A3019201C501B4010E9405
:10201000043487FD02C0240135012F96AEADBFAD5B
:102020002F97CD90DD90ED90FD902F96BFAFAEAF86
:102030002F97A7019601C301B2010E942A381816F2
:10204000ECF4A3019201C701B6010E94C4369B01C2
:10205000AC012D966CAD7DAD8EAD9FAD2D970E94E0
:102060006A342D966CAF7DAF8EAF9FAF2D9768967B
:10207000BFAD6897BF5F6896BFAF6897E5E0F2E0D5
:102080006D962EAD3FAD6D97E217F30709F030CF97
:1020900068963FAD6897332381F02D962CAD3DAD0A
:1020A0004EAD5FAD2D97612F702F832D922D0E9425
:1020B0006A34162F072F382E292E24EA30E74DE7F1
:1020C0005FE3612F702F832D922D0E946A346B0184
:1020D0007C012091F5013091F6014091F70150917A
:1020E000F8010E94043487FF12C0A70196016BA576
:1020F0007FA589A924969FAD24970E942A38181697
:1021000034F41BA50FA539A824962FAC24978BA5D2
:102110009FA5A9A92496BFAD24978093F50190931C
:10212000F601A093F701B093F8011D8E1E8E1F8E4D
:1021300018A2A5968CAD9DADAEADBFADA597B0581C
:10214000898F9A8FAB8FBC8F81E74DA95EA9849F41
:102150007001859FF00C1124A7014A5B5D4FBE0101
:10216000635E7F4FCE0149960E94F5065B016C01CC
:10217000F701EE5AFD4F812F902FA32DB22D8083B2
:102180009183A283B3839501A601612F702F832DC4
:10219000922D0E94043487FD04C01A2D0B2D3C2C77
:1021A0002D2C81E7ADA9BEA98A9F90018B9F300D90
:1021B0001124205F3D4FF901FE96812F902FA32D12
:1021C000B22D80839183A283B3837901BEE6EB0EA7
:1021D000F11C992493949501A6016BAD7FAD2696D1
:1021E0008FAD26979FA90E94043418160CF4912CE9
:1021F000F701908281E72DA93EA9829FF001839F7C
:10220000F00D1124E158FD4F81E080838BAD9FAD2F
:102210002696AFAD2697BFA980930502909306023C
:10222000A0930702B093080249EF51E06796EEAD24
:10223000FFAD679781919191A191B1916796FFAFA1
:10224000EEAF6797FA0181939193A193B193AF0198
:1022500029A53AA567968EAD9FAD679728173907D0
:1022600029F72BAD3FAD26964FAD26975FA960E0CD
:1022700070E0CB010E94C4366D8F7E8F8F8F98A344
:102280002BAD3FAD26964FAD26975FA9612F702FDE
:10229000832D922D0E94C436698F7A8F8B8F9C8FED
:1022A00021E7ADA9BEA92A9FC0012B9F900D112443
:1022B000AE01435E5F4FBE01675E7F4F805F9D4F03
:1022C0000E94D707209152103091531080915410E2
:1022D000909155102817390731F484E690E09093D7
:1022E0000D0280930C02A196EEADFFADA197F09385
:1022F0005510E09354102091541030915510809156
:102300005210909153102817390709F4E1C0009139
:10231000541010915510015011090F711127E12C23
:10232000F12C80915210909153108017910709F46D
:10233000CFC0F1E7F09FC001F19F900D11249C01E7
:10234000205F3D4F69012115310509F4BBC0F9013A
:10235000EE5BFF4F30813DAB41814BA752815FA7C0
:10236000838189AB34974080518062807380A30160
:1023700092016DA97BA58FA599A90E9404348111B2
:102380000BC0E114F10409F49DC0F701E159FF4FBE
:102390008081882309F496C0A1E7A09FC001A19F76
:1023A000900D1124FC01E258FD4F208121115DC0E8
:1023B000FC01EA5BFD4F1F01E114F10439F0F70164
:1023C000FE9680819181A281B38103C080E090E07C
:1023D000DC01898F9A8FAB8FBC8F21E7209FF001A2
:1023E000219FF00D1124EA5AFD4F80809180A28038
:1023F000B380B7FAB094B7F8B0948D8E9E8EAF8E3E
:10240000B8A2A101BE01675E7F4FCE014D960E942A
:10241000F5069B01AC016DA97BA58FA599A90E942A
:10242000043487FD22C0E114F10439F0F701FE966F
:1024300080819181A281B38103C080E090E0DC01C2
:1024400089A39AA3ABA3BCA38DA29EA2AFA2B8A658
:10245000A101BE016F5D7F4FCE0185960E94F506FA
:10246000F62EE72EB82EA92E04C0FDA8EBA4BFA41B
:10247000A9A82F2D3E2D4B2D5A2DC301B2010E942C
:1024800004348823F9F031E7309FC001319F900D6B
:102490001124805F9D4FFC01E159FF4F41E04083D3
:1024A000DC01A059BF4F2C91222311F010820AC0E9
:1024B000FC01FE964F2D5E2D6B2D7A2D40835183AE
:1024C00062837383015011090F711127760129CF9F
:1024D000C0905210D090531000E010E081E7282EF9
:1024E0003324339480915410909155108C159D0590
:1024F00009F462C02C9CC0012D9C900D1124DC01BC
:10250000A05FBD4F7D010115110509F44DC0F80113
:10251000E259FF4F8081811147C0FD01FE96FEAB5D
:10252000EDAB40805180628073804801FEE38F0EE6
:10253000911CA3019201D4016D917D918D919C918B
:102540000E94043487FF30C0F801EA5BFF4F8081AE
:102550009181A281B381B058898F9A8FAB8FBC8F44
:10256000A8014A5C5F4FB401CE0149960E94F5066E
:102570004B015C019B01AC01C301B2010E942A38EE
:10258000181694F4F701E159FF4F3082D701A05992
:10259000BF4F8C91882311F0108206C0EDA9FEA9CF
:1025A00080829182A282B382FFEFCF1ADF0A2FE1ED
:1025B000C222DD24870196CFE0905210F090531094
:1025C000612C712CA12CB12C00E010E080915410F2
:1025D000909155108E159F0509F46BC031E73E9D13
:1025E000C0013F9D900D1124AC01405F5D4F6A0119
:1025F000FA01FE9650815DAB81818BA792819FA7E6
:10260000A381A9AB0115110509F447C04801BFE634
:102610008B0E911CF4018081811106C0F601E159F5
:10262000FF4F80818823B9F1E1E0D401EC93F801F8
:10263000E059FF4F808181112EC0D801DA962D918B
:102640003D914D915C91DD9760E070E080E89FE303
:102650000E94C4361B012C019B01AC016DA97BA516
:102660008FA599A90E946A34698F7A8F8B8F9C8F6E
:102670009301A501C201B1010E946A346D8F7E8F62
:102680008F8F98A3AE01475E5F4FBE01635E7F4FA1
:10269000C8010E94D707F4011082FFEFEF1AFF0A6A
:1026A0002FE1E222FF246DA87BA4AFA4B9A8860184
:1026B0008DCF01151105C1F178013FE6E30EF11C44
:1026C00081E0D7018C93F801E059FF4F808181119F
:1026D00029C0F80122AD33AD44AD55AD60E070E0E6
:1026E00080E89FE30E94C4361B012C0120E030E00B
:1026F000A9010E946A34698F7A8F8B8F9C8FA20107
:102700009101B301C5010E946A346D8F7E8F8F8F56
:1027100098A3AE01475E5F4FBE01635E7F4FC80165
:102720000E94D707D7011C92C859DF4F0FB6F89403
:10273000DEBF0FBECDBFDF91CF911F910F91FF90F4
:10274000EF90DF90CF90BF90AF909F908F907F9051
:102750006F905F904F903F902F9008951F920F922F
:102760000FB60F9211240BB60F922F933F934F93F6
:102770005F936F937F938F939F93AF93BF93EF93E9
:10278000FF9382E990E10E944706FF91EF91BF918C
:10279000AF919F918F917F916F915F914F913F91F9
:1027A0002F910F900BBE0F900FBE0F901F9018959A
:1027B0001F920F920FB60F9211240BB60F922F9308
:1027C0008F939F93EF93FF93E091A210F091A3104A
:1027D0008081E091A810F091A91082FD12C0908133
:1027E0008091AB108F5F8F732091AC10821751F0E6
:1027F000E091AB10F0E0EE56FF4E958F8093AB105A
:1028000001C08081FF91EF919F918F912F910F9047
:102810000BBE0F900FBE0F901F9018952F923F92F6
:102820004F925F926F927F928F929F92AF92BF92E0
:10283000CF92DF92EF92FF920F931F93CF93DF938C
:10284000CDB7DEB72C970FB6F894DEBF0FBECDBF65
:102850008C011B018091651090916610A09167100A
:10286000B09168108D839E83AF83B887809171107B
:1028700090917210A0917310B091741089879A870B
:10288000AB87BC87D8016D917D918D919C910E9401
:102890000B342AE037ED43E25CE30E946A346B01BB
:1028A0007C012D813E814F815885E1E6F0E1608118
:1028B0007181828193810E94C93569837A838B8378
:1028C0009C83D80114966D917D918D919C91179761
:1028D0000E940B342AE037ED43E25CE30E946A3445
:1028E0004B015C01A7019601C701B6010E946A3441
:1028F0002B013C0129813A814B815C81CA01B901DC
:102900000E946A349B01AC01C301B2010E94CA3526
:102910002B013C01A5019401C501B4010E946A3458
:102920009B01AC01C301B2010E94C9354B015C019E
:10293000A7019601C701B6010E94CA3529813A81D3
:102940004B815C810E946A349B01AC01C501B401DA
:102950000E94C4364B015C019B01AC01C701B6016A
:102960000E946A342D813E814F8158850E94CA356C
:10297000F1016083718382839383A5019401C50172
:10298000B4010E946A349B01AC0160E070E080E811
:102990009FE30E94C9350E9478389B01AC01C701B2
:1029A000B6010E946A349B01AC0169857A858B85EA
:1029B0009C850E94C935D10114966D937D938D93AA
:1029C0009C931797F80160857185828593850E9495
:1029D0000B34D10118966D937D938D939C931B9727
:1029E00080E090E02C960FB6F894DEBF0FBECDBF0E
:1029F000DF91CF911F910F91FF90EF90DF90CF90DB
:102A0000BF90AF909F908F907F906F905F904F900E
:102A10003F902F9008952091521030915310809143
:102A200054109091551028173907A9F70895CF939E
:102A3000DF93D82FC92F0E940B1510920502109218
:102A4000060210920702109208021092F5011092ED
:102A5000F6011092F7011092F8011092F90110920C
:102A6000FA011092FB011092FC011092FD011092EC
:102A7000FE011092FF0110920002109201021092CA
:102A8000020210920302109204028091541090915D
:102A90005510ED2FFC2F01978F71992741E7489F23
:102AA0009001499F300D112480E090E041915191B7
:102AB00061917191D901A80FB91FA05FBD4F4D93CE
:102AC0005D936D937C93139742968633910571F7CE
:102AD0001092BB011092BC011092BD011092BE0178
:102AE0001092B7011092B8011092B9011092BA0178
:102AF0001092C3011092C4011092C5011092C60138
:102B0000DF91CF910895CF92DF92EF92FF92CF9312
:102B1000DF93EC01C0908510D0908610E090871074
:102B2000F0908810BC01990F880B990B0E940B3410
:102B3000A70196010E94043487FF05C0C701B601B2
:102B40000E943637EB01C0908110D0908210E09047
:102B50008310F0908410BE010D2E000C880B990B91
:102B60000E940B34A70196010E942A3818162CF4F3
:102B7000C701B6010E943637EB01BE010D2E000CD5
:102B8000880B990B0E940B346093891070938A1004
:102B900080938B1090938C10CE01DF91CF91FF909A
:102BA000EF90DF90CF900C944324CF93DF93C8E451
:102BB000D0E160E08B810E94682360E08885DF912E
:102BC000CF910C9468238FB780930B02F8940895EB
:102BD0001F920F920FB60F9211240BB60F922F92E5
:102BE0003F924F925F926F927F928F929F92AF929D
:102BF000BF92CF92DF92EF92FF920F931F932F938A
:102C00003F934F935F936F937F938F939F93AF9374
:102C1000BF93CF93DF93EF93FF930E94E3158FEF62
:102C20009FEF9093890080938800CAE03C2E812C0E
:102C3000912C540144244A94542C320111E7212E42
:102C400080910B028FBF8091F1019091F201A091D0
:102C5000F301B091F401892B8A2B8B2B09F09EC1D3
:102C600080910E0290910F02892B09F4FCC1D12CA6
:102C700080910401D81608F0F6C10091CB011091A3
:102C8000CC018091CD019091CE01080F191F1093B6
:102C9000CC010093CB011016110624F460E08FE004
:102CA0000E946823C091C701D091C8018091C901D9
:102CB0009091CA01C80FD91FD093C801C093C70112
:102CC0001C161D0624F460E086E10E946823E09053
:102CD000BF01F090C0018091C1019091C201E80E46
:102CE000F91EF092C001E092BF011016110654F5D2
:102CF0008091ED019091EE01081B190B1093CC010E
:102D00000093CB018091D3019091D401092E000C46
:102D1000AA0BBB0B4091BB015091BC016091BD015E
:102D20007091BE01840F951FA61FB71F8093BB0132
:102D30009093BC01A093BD01B093BE0161E08FE010
:102D40000E9468231C161D0654F58091ED01909198
:102D5000EE01C81BD90BD093C801C093C701809165
:102D6000D1019091D201092E000CAA0BBB0B40910E
:102D7000B7015091B8016091B9017091BA01840F07
:102D8000951FA61FB71F8093B7019093B801A0931A
:102D9000B901B093BA0161E086E10E9468231E1474
:102DA0001F0444F58091ED019091EE01E81AF90AB3
:102DB000F092C001E092BF018091CF019091D001CB
:102DC000092E000CAA0BBB0B4091C3015091C4010A
:102DD0006091C5017091C601840F951FA61FB71F92
:102DE0008093C3019093C401A093C501B093C60121
:102DF0000E9443248091EF019091F00101969093FD
:102E0000F0018093EF012091ED013091EE018217E6
:102E100093070CF028C1D3942BCF4091EB01509134
:102E2000EC01421753070CF46DC14091E30150913E
:102E3000E4016091E5017091E6010091E7011091D4
:102E4000E8012091E9013091EA01AA27419FB12DC3
:102E5000529FF001629FF00D619FE00DF11D429FB6
:102E6000B00DE11DFA1F519FB00DE11DFA1F609FCB
:102E7000B00DE11DFA1F509FB10DEA1FFA1FB69564
:102E8000EA1FFA1F349FE00DF11D359FF00D11244C
:102E9000C090DF01D090E001E090E101F090E2010C
:102EA000DC01A65ABF4F8D919D910D90BC91A02D34
:102EB000CE0EDF1EE11CF11C8C159D05AE05BF0575
:102EC00010F46C017D01C092DB01D092DC01E09234
:102ED000DD01F092DE0186E090E021E031E1C316F1
:102EE00037E2D306E104F10408F0E0C020930401C6
:102EF00080E2C816D104E104F10428F4A0E2CA2E4D
:102F0000D12CE12CF12CB0E2CB1AD108E108F10868
:102F1000C11428E0D206E104F10408F4D0C034E082
:102F2000D39EC0011124895D9A4FFC0132962591F0
:102F30003491BC2DAA27B39FF001B29FE10DFA1F77
:102F40000694EA1FFA1F11246F01E12CF12CFC01F9
:102F500025913491C901A0E0B0E08C199D09AE091A
:102F6000BF09AA27BB27480F591F6A1F7B1F409321
:102F7000E3015093E4016093E5017093E601E09171
:102F80000E02F0910F02309709F42BC28093F101E9
:102F90009093F201A093F301B093F4018091F101B9
:102FA0009091F201A091F301B091F4016C017D01C7
:102FB000009721E0A207B10528F0CC24CA94DC2CAC
:102FC000E12CF12C8C199D09AE09BF098093F10108
:102FD0009093F201A093F301B093F4010E94E315E2
:102FE00080918800909189000896A0E0B0E03A9422
:102FF000332059F08C0C9D1CAE1CBF1C8816990602
:10300000AA06BB0608F41CCE02C04C015D019092DA
:1030100089008092880080910B028FBFFF91EF9111
:10302000DF91CF91BF91AF919F918F917F916F91E0
:103030005F914F913F912F911F910F91FF90EF90D2
:10304000DF90CF90BF90AF909F908F907F906F90C8
:103050005F904F903F902F900F900BBE0F900FBE40
:103060000F901F90189580910E0290910F0200977B
:1030700009F43EC32091EF013091F0014091ED0140
:103080005091EE01241735070CF4C7CE10920F02B1
:1030900010920E02809152109091531001968F71F0
:1030A0009927909353108093521022C3220FF694C5
:1030B000E794D794C794019709F010CF17CFD701A1
:1030C000C601B695A79597958795FC01EC7F9F0162
:1030D000295D3E4FF90185919491F9013296A591B0
:1030E000B491EC2DE770EA9F9001EB9F300D112415
:1030F000F3E036952795FA95E1F7821B930BA0E054
:10310000B0E02FCF4091D9015091DA014217530717
:103110000CF0D7C04091D5015091D6016091D701F4
:103120007091D8010091E7011091E8012091E90127
:103130003091EA01EE27419FF12D529FD001629F0D
:10314000B00D619FA00DB11D429FF00DA11DBE1FCE
:10315000519FF00DA11DBE1F609FF00DA11DBE1F50
:10316000509FF10DAE1FBE1FF695AE1FBE1F349FC0
:10317000A00DB11D359FB00D11248D0120E030E070
:10318000C090DB01D090DC01E090DD01F090DE0129
:10319000FC01EE59FF4F0C151D052E053F0580F46F
:1031A00080819181A281B381C01AD10AE20AF30A17
:1031B000C816D906EA06FB0638F46C017D0104C086
:1031C000C080D180E280F38086E090E021E031E1B0
:1031D000C31637E2D306E104F10438F0220FF69467
:1031E000E794D794C794019791F72093040180E264
:1031F000C816D104E104F10428F400E2C02ED12C59
:10320000E12CF12CB0E2CB1AD108E108F108C1148D
:1032100028E0D206E104F10418F134E0D39EC001A5
:103220001124895D9A4FFC01329625913491BC2D71
:10323000AA27B39FF001B29FE10DFA1F0694EA1F7F
:10324000FA1F11246F01E12CF12CFC01259134911E
:10325000C901A0E0B0E08C199D09AE09BF0922C0E8
:10326000D701C601B695A79597958795FC01EC7F88
:103270009F01295D3E4FF90185919491F9013296A4
:10328000A591B491EC2DE770EA9F9001EB9F300D72
:10329000112413E0369527951A95E1F7821B930BBD
:1032A000A0E0B0E0AA27BB27480F591F6A1F7B1F69
:1032B0004093D5015093D6016093D7017093D80104
:1032C0005ECE409100015091010160910201709128
:1032D000030177FF7DC0FC01E65AFF4FC080D1801B
:1032E000E280F38086E090E021E031E1C31637E22E
:1032F000D306E104F10438F0220FF694E794D79452
:10330000C794019791F72093040170E2C716D10486
:10331000E104F10428F4B0E2CB2ED12CE12CF12C05
:1033200080E2C81AD108E108F108C114B8E0DB0650
:10333000E104F10408F124E0D29EC0011124895D6A
:103340009A4FFC013296259134917C2D6627739F0C
:10335000A001729F410D561F0694461F561F11244F
:1033600060E070E0FC0185919491A0E0B0E0841BE6
:10337000950BA60BB70B22C0D701C601B695A79532
:1033800097958795FC01EC7F9F01295D3E4FF901E0
:1033900085919491F9013296459154916C2D677005
:1033A000649F9001659F300D1124A3E03695279509
:1033B000AA95E1F7821B930BA0E0B0E0AA27BB27F8
:1033C0008093000190930101A0930201B093030147
:1033D0008091000190910101A0910201B09103013F
:1033E000CECD4091521050915310209154103091F5
:1033F00055104217530709F43FC020910C02309139
:103400000D0212161306D4F42150310930930D0227
:1034100020930C022091541030915510409152107D
:1034200050915310241B350B2F7133272430310555
:103430001CF110920D0210920C021EC0409152100D
:1034400050915310249E9001259E300D1124205F31
:103450003D4FE901C159DF4F488141110DC04091F5
:103460005210509153104F5F5F4F4F71552750933B
:103470000A0240930902F901F0930F02E0930E0251
:10348000309709F483CDDF01A059BF4F81E08C93C1
:10349000608985E10E946823E0910E02F0910F029D
:1034A000808991898130910511F08FEF9FEF909382
:1034B000D4018093D30162A187E10E946823C09167
:1034C0000E02D0910F028AA19BA18130910511F0CB
:1034D0008FEF9FEF9093D2018093D1018CA99DA98A
:1034E000019719F081E090E002C08FEF9FEF909379
:1034F000D0018093CF01FE01E25AFF4FC080D180FE
:10350000E280F380C092DF01D092E001E092E1011D
:10351000F092E201C092DB01D092DC01E092DD0189
:10352000F092DE013C9680819181A281B3818093EB
:10353000E7019093E801A093E901B093EA0178973D
:10354000808191819093EC018093EB01349680818E
:1035500091819093DA018093D9011092E301109246
:10356000E4011092E5011092E6011092D50110924B
:10357000D6011092D7011092D801409200015092CA
:103580000101609202017092030186E090E021E067
:10359000B1E1CB16B7E2DB06E104F10438F0220F0B
:1035A000F694E794D794C794019791F72093040178
:1035B00020E2C216D104E104F10428F470E2C72E1F
:1035C000D12CE12CF12C30E2C31AD108E108F1082A
:1035D000C11478E0D706E104F10408F1B4E0DB9E01
:1035E000C0011124895D9A4FFC01329625913491D6
:1035F0007C2D6627739FA001729F410D561F069474
:10360000461F561F112460E070E0FC0185919491E3
:10361000A0E0B0E0841B950BA60BB70B22C0D7012E
:10362000C601B695A79597958795FC01EC7F9F01FC
:10363000295D3E4FF90185919491F90132964591AA
:1036400054916C2D6770649F9001659F300D11241B
:1036500063E0369527956A95E1F7821B930BA0E00E
:10366000B0E0AA27BB27FE01E65BFF4F2081318136
:103670003093EE012093ED011092F0011092EF01D2
:103680004C855D855093CE014093CD0135952795AE
:103690003195219531093093CC012093CB014E8D8A
:1036A0005F8D5093CA014093C9013093C8012093A4
:1036B000C7014CA15DA16EA17FA1C8A4D9A4EAA4B1
:1036C000FBA44C195D096E097F094093C301509317
:1036D000C4016093C5017093C60148A959A95093CC
:1036E000C2014093C1013093C0012093BF014ECC71
:1036F00080ED97E0A0E0B0E042CCE1E6F0E1DC0153
:103700004D915D916D917D91CD014487558766877F
:1037100077877096B0E1E139FB0789F70C94422571
:103720000F931F93CF93DF93CDB7DEB72C970FB6D0
:10373000F894DEBF0FBECDBF8C010E940B15D801DF
:10374000E1E6F0E14D915D916D917D91408751876A
:1037500062877387709680E1E139F80799F7BE01B7
:103760006F5F7F4FC8010E942907CE0101960E941A
:1037700017152C960FB6F894DEBF0FBECDBFDF91A4
:10378000CF911F910F9108952F923F924F925F9288
:103790006F927F928F929F92AF92BF92CF92DF9261
:1037A000EF92FF920F931F93CF93DF93CDB7DEB7C6
:1037B0006E970FB6F894DEBF0FBECDBF382E292E00
:1037C0006A017B0140930E0150930F016093100139
:1037D0007093110101E610E1882E992ECE01019619
:1037E0009C8F8B8FFE013D965F01412C512C320145
:1037F000F8012085318542855385F5012193319368
:10380000419351935F01F401619171918191919183
:103810004F010E94C935EB8DFC8D619371938193AB
:103820009193FC8FEB8F9B01AC010E946A349B014A
:10383000AC01C301B2010E94CA352B013C01005FFB
:103840001F4FF0E101391F0799F620E030E0A90190
:1038500069817A818B819C810E94043481111FC00F
:1038600020E030E0A9016D817E818F8198850E94E2
:103870000434811114C089849A84AB84BC8420E010
:1038800030E0A901C501B4010E942A38181624F0BD
:10389000B7FAB094B7F8B094950184019CC0C30105
:1038A000B2010E9478382B013C0120E030E0A901F0
:1038B0000E942A3818165CF42DEB37E346E855E3EE
:1038C000C301B2010E94043487FF0CC08AC02DEBF3
:1038D00037E346E855EBC301B2010E942A381816B7
:1038E0000CF47FC0A7019601C301B2010E94C43647
:1038F00020E030E040E252E40E946A340E943D370A
:103900004B01672B19F488248394912CB40180E037
:1039100090E00E9409349B01AC0160E070E080E817
:103920009FE30E94C4366B8F7C8F8D8F9E8F9B018F
:10393000AC01C301B2010E946A342B013C015E015B
:103940008DE0A80EB11C8E010F5F1F4F2B8D3C8D9B
:103950004D8D5E8DF80160817181828193810E941D
:103960006A34F80161937193819391938F01EA1501
:10397000FB0561F7CE0149969A8F898F91E0891AEC
:10398000910839F18E01035F1F4FFE0131965F01EF
:10399000F50121913191419151915F01F8016081CF
:1039A0007181828193810E94CA35F801619371937C
:1039B000819391938F01898D9A8D8E179F0741F77F
:1039C00093018201B701A601CE010D960E94BD09A7
:1039D000D5CF93018201B701A601832D922D0E94BC
:1039E000BD096E960FB6F894DEBF0FBECDBFDF9156
:1039F000CF911F910F91FF90EF90DF90CF90BF90EC
:103A0000AF909F908F907F906F905F904F903F907E
:103A10002F900895CF92DF92EF92FF9228EE33E03D
:103A200040E050E00E9441356B017C01CA01B901C0
:103A30000E94D32382E0C816D10450F0CC0CDD1CC8
:103A4000CC0CDD1C85E0C81AD108C6010197F1F73E
:103A5000FF90EF90DF90CF900895CF92DF92EF929A
:103A6000FF920F931F93CF93DF936C0160E085E18A
:103A70000E94682360E087E10E946823C0E0D0E0F4
:103A800000E010E00D2C000CEE08FF08012BA9F45B
:103A900061E08FE00E94682360E08FE00E9468236D
:103AA00082E10E943F2331E020E0892B09F030E0E1
:103AB000032F122FCD2BC1F404C0CD2B49F501E00B
:103AC00010E061E086E10E94682360E086E10E94E8
:103AD000682383E10E943F2331E020E0892B09F035
:103AE00030E0C32FD22F02C0C1E0D0E0C701B60141
:103AF0000E940A1DCE01800F911F029739F6DF91B7
:103B0000CF911F910F91FF90EF90DF90CF9008958C
:103B1000C701B601DF91CF911F910F91FF90EF90F8
:103B2000DF90CF900C940A1D90E0FC013197EA30B1
:103B3000F10540F5EA5BFF4F0C94C03580918000A1
:103B40008F7703C0809180008F7D809380000895DF
:103B500084B58F7702C084B58F7D84BD0895809130
:103B6000B0008F7703C08091B0008F7D8093B0004C
:103B70000895809190008F7703C0809190008F7D91
:103B80008093900008958F929F92AF92BF92CF92B0
:103B9000DF92EF92FF920F931F93CF93DF936B010E
:103BA0007C01142F9B01AC010E94BC38882319F0C2
:103BB00087EA91E027C046015701E894B7F82FEF54
:103BC0003FEF4FE75FE7C501B4010E94BC388111A8
:103BD0000DC02FEF3FEF4FE75FE7C501B4010E9433
:103BE000043418161CF48BEA91E00CC02FEF3FEF61
:103BF0004FE75FE4C701B6010E942A38181684F423
:103C00008FEA91E0DF91CF911F910F91FF90EF909C
:103C1000DF90CF90BF90AF909F908F900C94052530
:103C20002FEF3FEF4FE75FECC701B6010E9404346E
:103C300087FDE6CF20E030E0A901C701B6010E9470
:103C4000043487FF09C08DE20E94D025EC01F7FA09
:103C5000F094F7F8F09402C0C0E0D0E000E060E03B
:103C600070E080E09FE3101741F020E030E040E298
:103C700051E40E94C4360F5FF6CFA70196010E945F
:103C8000CA356B017C010E943D374B015C014AE063
:103C90000E948F25C80FD91F1123A9F1C501B401B6
:103CA0000E9409349B01AC01C701B6010E94C935CD
:103CB0006B017C018EE20E94D025C80FD91F20E045
:103CC00030E040E251E4C701B6010E946A344B0182
:103CD0005C010E943D376B01E12CF12C4AE0C701E9
:103CE000B6010E948F25C80FD91FC701B6010E94D7
:103CF00009349B01AC01C501B4010E94C9356B01B7
:103D00007C011150E1F6CE01DF91CF911F910F910F
:103D1000FF90EF90DF90CF90BF90AF909F908F90EB
:103D2000089542E00C94C31D0F931F93CF93DF932C
:103D300086E69AE00E94362501E610E1C5E0D0E073
:103D400020E030E048EC52E4F8016081718182812A
:103D500093810E946A340E943637AB01BC01CE01C8
:103D60000E94C72420E030E048EC52E4F80164816E
:103D70007581868197810E946A340E943637AB0133
:103D8000BC01CE0104960E94C7242896005F1F4FF5
:103D9000CD31D105A9F6DF91CF911F910F910895F3
:103DA0004F925F926F927F928F929F92AF92BF924B
:103DB000CF92DF92EF92FF920F931F93CF93DF93F7
:103DC00000D000D000D0CDB7DEB740E050E060E8D2
:103DD0007FEB81E40E940F270E9436376330710524
:103DE00008F091C08B0184E0000F111F8A95E1F764
:103DF00098012F593F4E3E832D83D9014D915D91FE
:103E00006D917C9184E50E940F276B017C01ED810F
:103E1000FE81448155816681778182E40E940F276B
:103E200069837A838B839C8320E030E040E251E415
:103E3000AD81BE816D917D918D919C910E946A347E
:103E40000E946C372B013C0120E030E040E251E45D
:103E5000C701B6010E946A340E946C374B015C01B5
:103E6000C301B2010E9436373B01C501B4010E9473
:103E700036376616770649F0ED81FE81C082D18221
:103E8000E282F382FF24F39401C0F12C0F591F4EFC
:103E900020E030E040E251E4D80114966D917D912C
:103EA0008D919C9117970E946A340E946C372B0168
:103EB0003C0120E030E040E251E469817A818B816D
:103EC0009C810E946A340E946C374B015C01C301E3
:103ED000B2010E9436377E836D83C501B4010E9412
:103EE0003637ED81FE81E617F70751F089819A8117
:103EF000AB81BC81F80184839583A683B78301C01D
:103F0000F1100E94941E8FE59AE00E941B2501E6A5
:103F100010E178011A821982D70114966D917D9172
:103F20008D919C9117970E94911EE981FA81329799
:103F300019F08CE20E94D02529813A812F5F3F4FF2
:103F40003A83298330E1E30EF11C89819A8103973A
:103F500019F789E59AE00E941B251A821982D80177
:103F60006D917D918D919C910E94911EE981FA81C4
:103F7000329719F08CE20E94D02529813A812F5F77
:103F80003F4F3A832983005F1F4F2330310539F7B4
:103F900086E59AE026960FB6F894DEBF0FBECDBF39
:103FA000DF91CF911F910F91FF90EF90DF90CF9015
:103FB000BF90AF909F908F907F906F905F904F9049
:103FC0000C941B250F931F93CF93DF930E940B1527
:103FD00081E59AE00E941B25C4E9D1E001E610E1E9
:103FE00080E20E94D02589910E94D025F801608549
:103FF0007185828593850E94911E005F1F4FF1E0BD
:10400000C739DF0769F78EE49AE00E941B256091AB
:104010000E0170910F0180911001909111010E9489
:10402000911E8BE49AE00E941B2560910A01709119
:104030000B0180910C0190910D010E94911EDF9166
:10404000CF911F910F910C94172587E39AE00E945E
:10405000362520E030E048EC52E460911601709182
:10406000170180911801909119010E946A340E94F1
:104070003637AB01BC0189E290E00E94C72420E002
:1040800030E048EC52E4609112017091130180918C
:104090001401909115010E946A340E943637AB01D9
:1040A000BC018DE290E00C94C72482E39AE00E9468
:1040B0001B25609116017091170180911801909154
:1040C00019010E94911E8FE29AE00E941B256091C7
:1040D000120170911301809114019091150142E039
:1040E0000E94C31D0C9417252F923F924F925F920E
:1040F0006F927F928F929F92AF92BF92CF92DF92F8
:10410000EF92FF920F931F93CF93DF93CDB7DEB75C
:10411000C054D1090FB6F894DEBF0FBECDBF382E04
:1041200040910A0150910B0160910C0170910D01B9
:1041300081E40E940F276B017C0120E030E0A9019F
:104140000E942A3818168CF420E030E04AEF54E43C
:10415000C701B6010E94043487FD0AC0C12CD12CCE
:104160009AEFE92E94E4F92E03C0C12CD12C7601EC
:10417000C0920A01D0920B01E0920C01F0920D0165
:1041800040910E0150910F01609110017091110149
:1041900086E40E940F27698F7A8F8B8F9C8F20E097
:1041A00030E0A9010E942A381816ACF420E030E073
:1041B0004AE754E4698D7A8D8B8D9C8D0E9404347E
:1041C00087FD0DC080E090E0AAE7B4E4898F9A8F64
:1041D000AB8FBC8F04C0198E1A8E1B8E1C8E01E60D
:1041E00010E16E019DE0C90ED11C84E9A82E81E08A
:1041F000B82E4E01A9E18A0E911CF80150847184F9
:10420000E284F38480910901882329F0352D272D3C
:104210009E2D8F2D04C030E020E090E080E0432F01
:10422000522F692F782FD5018D915D010E940F27A4
:1042300040900901442021F0512C712CE12CF12CEB
:10424000252D372DA7010E94CA35F6016193719380
:10425000819391936F01005F1F4F8E169F0669F641
:10426000E0906910F0906A1000916B1010916C1042
:1042700090907910A0907A10B0907B10C0907C1034
:10428000442029F0392D2A2D9B2D8C2D04C030E09F
:1042900020E090E080E0432F522F692F782F8AE4AE
:1042A0000E940F27D0900901DD2021F0912CA12C34
:1042B000B12CC12C292D3A2D4B2D5C2D0E94CA35D5
:1042C00069A37AA38BA39CA3DD2029F03E2D2F2D7B
:1042D000902F812F04C030E020E090E080E0432F59
:1042E000522F692F782F89E40E940F27209109010E
:1042F000222321F0E12CF12C00E010E09701A8012D
:104300000E94CA356DA37EA38FA398A79B01AC0121
:104310006091691070916A1080916B1090916C108F
:104320000E94C9354B015C0129A13AA14BA15CA1B6
:104330006091791070917A1080917B1090917C102F
:104340000E94C9356B017C01A5019401C501B4012E
:104350000E946A342B013C01A7019601C701B601F6
:104360000E946A349B01AC01C301B2010E94CA35AC
:104370000E9478382B013C01A5019401C701B601C8
:104380000E9449366B017C0120E030E0A9010E94C7
:10439000043487FF0AC02BED3FE049EC50E4C7012D
:1043A000B6010E94CA356B017C012DA13EA14FA12F
:1043B00058A56D857E858F8598890E94C9354B01EA
:1043C0005C0129A13AA14BA15CA169897A898B89F9
:1043D0009C890E94C935A50194010E9449364B0170
:1043E0005C0120E030E0A9010E94043487FF0AC08C
:1043F0002BED3FE049EC50E4C501B4010E94CA3501
:104400004B015C01A7019601C501B4010E94C935A9
:10441000F1E03F1212C020E030E0A9010E94043414
:1044200087FF1FC02BED3FE049EC50E4C501B4010C
:104430000E94CA354B015C0114C02FEF321211C02B
:1044400020E030E0A9010E942A38181654F42BED20
:104450003FE049EC50E4C701B6010E94CA356B0148
:104460007C01A7019601C501B4010E94C9356D8F79
:104470007E8F8F8F98A3A3019201C301B2010E9486
:10448000C93569A77AA78BA79CA720E030E0A901CE
:104490006D8D7E8D8F8D98A10E942A382D8D3E8D39
:1044A0004F8D58A118160CF05058C301B2010E944C
:1044B0006A349B01AC010E946A344B015C0129A55E
:1044C0003AA54BA55CA5CA01B9010E946A349B01BB
:1044D000AC01C501B4010E94CA350E9478380E941F
:1044E000A8360E9436371B018091891090918A105E
:1044F000A0918B10B0918C108DA79EA7AFA7B8ABE1
:104500008D899E89AF89B88D89AF9AAFABAFBCAFAB
:1045100000E010E0C101032C000CAA0BBB0B21969C
:104520008CAF9DAFAEAFBFAF2197201631060CF414
:104530008CC0B801012E000C880B990B0E940B3423
:104540004B015C0121966CAD7DAD8EAD9FAD219789
:104550000E940B349B01AC01C501B4010E94C4361A
:104560004B015C019B01AC016D8D7E8D8F8D98A1FF
:104570000E946A34A70196010E94CA3569AB7AABE2
:104580008BAB9CABA501940169A57AA58BA59CA5D5
:104590000E946A34A30192010E94CA356DAB7EABC2
:1045A0008FAB98AF69A97AA98BA99CA90E94BF3645
:1045B0009B01AC016DA97EA98FA998AD0E946A34B8
:1045C0002DA13EA14FA158A50E94CA3569837A83C7
:1045D0008B839C8369A97AA98BA99CA90E946A38BC
:1045E0009B01AC016DA97EA98FA998AD0E946A3488
:1045F00029A13AA14BA15CA10E94CA356D837E839B
:104600008F8398872DA53EA54FA558A969AD7AAD92
:104610008BAD9CAD0E94C935A50194010E946A34FE
:104620002DA53EA54FA558A90E94CA3569877A874E
:104630008B879C87498D5A8D6B8D7C8DCE01019621
:104640000E94C41B0F5F1F4F70CFC05CDF4F0FB6BF
:10465000F894DEBF0FBECDBFDF91CF911F910F91B8
:10466000FF90EF90DF90CF90BF90AF909F908F9092
:104670007F906F905F904F903F902F900895CF93D1
:10468000DF93282F30E0F901E15FF54F8491F901C4
:10469000E151F64FD491F901E153F64FC491CC2387
:1046A00091F081110E94941DEC2FF0E0EE0FFF1F9E
:1046B000EB53F64FA591B491EC91ED2381E090E09E
:1046C00021F480E002C080E090E0DF91CF91089576
:1046D0001F93CF93DF93282F30E0F901E15FF54F6F
:1046E0008491F901E151F64FD491F901E153F64F6C
:1046F000C491CC23C1F0162F81110E94941DEC2F80
:10470000F0E0EE0FFF1FE554F64FA591B4919FB76F
:10471000F894111104C08C91D095D82302C0EC916B
:10472000DE2BDC939FBFDF91CF911F910895CF9334
:10473000DF9390E0FC01E151F64F2491FC01E1533D
:10474000F64F8491882361F190E0880F991FFC0156
:10475000EF54F64FC591D491FC01E554F64FA59165
:10476000B491611109C09FB7F89488812095822384
:104770008883EC912E230BC0623061F49FB7F894CC
:104780008881322F309583238883EC912E2B2C93B4
:104790009FBF06C08FB7F894E8812E2B28838FBF68
:1047A000DF91CF9108958F929F92AF92BF92CF9257
:1047B000DF92EF92FF926B017C010E9456274B0122
:1047C0005C01C114D104E104F104F1F00E94562708
:1047D000DC01CB0188199909AA09BB09883E9340DD
:1047E000A105B10570F321E0C21AD108E108F10872
:1047F00088EE880E83E0981EA11CB11CC114D10460
:10480000E104F10419F7DDCFFF90EF90DF90CF9036
:10481000BF90AF909F908F900895CF92DF92EF92CC
:10482000FF920F931F93CF93DF9300D000D0CDB7AB
:10483000DEB719821A821B821C827E0125E0E20EFD
:10484000F11C8E010F5F1F4F6C01C01AD10AC60107
:10485000800F911F0E942B35F80181938F01EE1577
:10486000FF05A9F769817A818B819C810F900F9058
:104870000F900F90DF91CF911F910F91FF90EF90CC
:10488000DF90CF900895CF92DF92EF92FF92DC01FC
:10489000A03282E0B8070CF03EC0B7FD06C0A53BD1
:1048A000B1052CF0A4EBB0E002C0A0E0B0E0809134
:1048B000E11128E830E06901C81AD10887FDD394D6
:1048C000CC0CDD1CCC0CDD1C0D2C000CEE08FF0804
:1048D0008091E21128E532E0281B310987FD3395EC
:1048E000220F331F220F331FA901330F660B770BE3
:1048F0009A01AB012C193D094E095F090E946B35E5
:1049000024EB30E040E050E00E944135C20ED31E5F
:10491000E41EF51ED6019091E0119C3098F580912F
:10492000E11148E850E0481B510987FD5395440FB9
:10493000551F440F551FA417B5078CF08091E21145
:1049400028E532E0281B310987FD3395220F331FFC
:10495000220F331FAD012A173B070CF4A9012FB713
:10496000F894892F90E0FC01EE0FFF1F8E0F9F1F20
:10497000FC01E454FE4E42505109440F551F52832E
:1049800041832FBFFF90EF90DF90CF900895CF929B
:10499000DF92EF92FF920F931F93CF93DF9300D09C
:1049A00000D0CDB7DEB77C0149835A836B837C830B
:1049B0000E940D2409811A812B813C8160177107A7
:1049C00082079307A1F0CE0101966C0100E010E090
:1049D000F60161916F01C701800F911F0E9433356D
:1049E0000F5F1F4F0430110599F781E001C080E08F
:1049F0000F900F900F900F90DF91CF911F910F911B
:104A0000FF90EF90DF90CF900895009769F0FC0140
:104A100001900020E9F73197AF01481B590BBC0109
:104A200082E990E10C94D20580E090E0089583EB58
:104A300091E00C9405250F931F93CF93DF938C0186
:104A4000C0E0D0E0F801EC0FFD1F6491662341F057
:104A500082E990E10E946906892B11F02196F2CF3C
:104A6000CE01DF91CF911F910F910895CF93DF93E6
:104A70000E941B25EC010E9417258C0F9D1FDF91C2
:104A8000CF9108950F931F93CF93DF938CE39BE017
:104A90000E94362501E610E1CDE1D0E020E030E0D3
:104AA00048EC52E4F80164857585868597850E94F7
:104AB0006A340E943637AB01BC01CE010E94C72484
:104AC0002496005F1F4FC932D10541F7DF91CF9186
:104AD0001F910F91089588E39BE00E941B252FB73B
:104AE000F89480915D1090915E10A0915F10B0914C
:104AF00060102FBF8093B2119093B311A093B411A3
:104B0000B093B5110895CF93DF930E940525EC0172
:104B10000E9417258C0F9D1FDF91CF9108958F92D2
:104B20009F92AF92BF920F931F93CF93DF93CDB716
:104B3000DEB7A1970FB6F894DEBF0FBECDBF19A2A6
:104B4000423008F44AE08E010F5D1F4F842E912CF5
:104B5000A12CB12CA50194010E947335E62FB90157
:104B6000CA0101501109EA3014F4E05D01C0E95CAA
:104B7000D801EC93232B242B252B61F7C8010E942D
:104B80000525A1960FB6F894DEBF0FBECDBFDF910D
:104B9000CF911F910F91BF90AF909F908F900895EC
:104BA000682F82E990E10C946906CF92DF92EF9230
:104BB000FF92CF93DF9397FF19C06B017C018DE2C9
:104BC0000E94D025EC0166277727CB016C197D095F
:104BD0008E099F094AE00E948F258C0F9D1FDF914F
:104BE000CF91FF90EF90DF90CF9008954AE0DF9152
:104BF000CF91FF90EF90DF90CF900C948F25CF93C3
:104C0000DF93BC01990F880B990B0E94D525EC010D
:104C10000E9417258C0F9D1FDF91CF910895CF9390
:104C200080E090E00E942B35C82F8DE29BE00E942F
:104C30001B258C2FCC0F990BCF910C94FF250C9436
:104C4000052587E29BE00E941B258CE991E00E94EC
:104C50001F2684E29BE00E941B2580915B109091AF
:104C60005C100C94FF2584E19BE00E941B250E94B0
:104C700021260E940F2681E89AE00E941B258FE7DB
:104C800091E00E9483258BED9AE00E94362588E80A
:104C90009AE00C943625EF92FF920F931F93CF93D7
:104CA000DF9380E090E00E942B358A3029F06AE0A3
:104CB00080E090E00E94333581E6E82E80E1F82E16
:104CC0008701C5E0D0E0CE010E940D240E940B3484
:104CD00020E030E048EC52E40E94C436F8016083E2
:104CE000718382839383CE0104960E940D240E94D7
:104CF0000B3420E030E048EC52E40E94C436F80166
:104D000064837583868397832896005F1F4FCD3118
:104D1000D105C9F6CDE1D0E0CE010E940D240E945C
:104D20000B3420E030E048EC52E40E94C436F70136
:104D300064877587868797872496F0E1EF0EF11CCC
:104D4000C932D10549F789E290E00E940D240E9402
:104D50000B3420E030E048EC52E40E94C43660930B
:104D600016017093170180931801909319018DE239
:104D700090E00E940D240E940B3420E030E048ECCB
:104D800052E40E94C4366093120170931301809321
:104D9000140190931501DF91CF911F910F91FF9016
:104DA000EF90089585E79AE00E94362540915B10C8
:104DB00050915C10052E000C660B770B81E090E0A3
:104DC0000C94C724EF92FF920F931F93CF93DF931E
:104DD0002091B0113091B111A901415D5E4E7A016F
:104DE0000FE211E1C82F880FDD0B0E151F0578F4B7
:104DF000F80181918F018B3351F0082E000C990B33
:104E00000E94E1388C179D0781F781E001C080E0A6
:104E1000DF91CF911F910F91FF90EF9008958F92A6
:104E20009F92AF92BF92CF92DF92EF92FF920F9339
:104E30001F93CF93DF934A015B012091B011309112
:104E4000B111A901415D5E4E7A01CFE2D1E1082F97
:104E5000880F110BCE15DF05D0F489918B33B9F093
:104E6000082E000C990B0E94E1388017910791F7EA
:104E7000CE01DF91CF911F910F91FF90EF90DF90C6
:104E8000CF90BF90AF909F908F900C94B933C50195
:104E9000B401DF91CF911F910F91FF90EF90DF90C0
:104EA000CF90BF90AF909F908F9008953FB7F894A8
:104EB0008091E5119091E611A091E711B091E81170
:104EC00026B5A89B05C02F3F19F00196A11DB11D65
:104ED0003FBFBA2FA92F982F8827820F911DA11DA0
:104EE000B11DBC01CD0142E0660F771F881F991FDD
:104EF0004A95D1F708951F920F920FB60F92112481
:104F00002F933F938F939F93AF93BF9380915D10A7
:104F100090915E10A0915F10B09160103091E411FB
:104F200023E0230F2D3720F40196A11DB11D05C0EC
:104F300026E8230F0296A11DB11D2093E411809352
:104F40005D1090935E10A0935F10B09360108091FD
:104F5000E5119091E611A091E711B091E811019649
:104F6000A11DB11D8093E5119093E611A093E71167
:104F7000B093E811BF91AF919F918F913F912F9185
:104F80000F900FBE0F901F901895CF93DF93CDB762
:104F9000DEB7E7970FB6F894DEBF0FBECDBF7894AB
:104FA00084B5826084BD84B5816084BD85B582602E
:104FB00085BD85B5816085BD80916E0081608093DF
:104FC0006E00109281008091810082608093810048
:104FD0008091810081608093810080918000816058
:104FE000809380008091B10084608093B1008091B3
:104FF000B00081608093B0008091910082608093C6
:105000009100809191008160809391008091900047
:1050100081608093900080917A00846080937A0010
:1050200080917A00826080937A0080917A0081601A
:1050300080937A0080917A00806880937A00109241
:10504000C100E091A210F091A31082E08083E09172
:10505000A210F091A3101082E0919E10F0919F1089
:105060001082E091A010F091A11080E18083109255
:10507000AA10E091A610F091A71086E08083E0913D
:10508000A410F091A510808180618083E091A4102C
:10509000F091A510808188608083E091A410F09148
:1050A000A510808180688083E091A410F091A51004
:1050B00080818F7D80831092B1111092B0110E9477
:1050C0004B2683E391E00E94832588E58093481076
:1050D0008FE08093491085E180934A108EE08093A1
:1050E0004B1092E190934C1099E590934D1096E1FE
:1050F00090934E1097E190934F108093501083E15E
:10510000809351108DE691E00E94832502E5C02E28
:1051100000E1D02E08E410E161E0D80111968C91F5
:105120000E94972361E0F80182810E94972361E049
:10513000D80113968C910E949723F801F48060E0C7
:105140008F2D0E94972361E08F2D0E9468230B5FB3
:105150001F4FC016D10601F7ECE3F0E188E490E1BF
:10516000A0E3B0E100E010E020E031E440E050E0F6
:105170006AE774E401931193219331934D935D9306
:105180006D937D938E179F07A9F780E090E0AAEFBB
:10519000B4E48093381090933910A0933A10B093F0
:1051A0003B108AE999E9A9E9BEE380934410909302
:1051B0004510A0934610B093471084E58093521099
:1051C0008091E0118C3008F04FC061E08CE00E94CB
:1051D00097238091E011E82FF0E09F01220F331F09
:1051E000E20FF31FE454FE4E9081907C9C6090830C
:1051F0001092E1111092E2116CE00E94B435FCE0D3
:105200008F9FB001112440E050E09B01240F351F17
:10521000F901EE0FFF1F2E0F3F1FF901E454FE4E60
:10522000908196FD14C04F5F5F4F4C30510569F778
:1052300081110DC01092B00082E08093B1001092F5
:10524000B200B99A80917000826080937000E09102
:10525000E011F0E0CF01880F991FE80FF91FE45427
:10526000FE4E80818064808385E391E00E948325E7
:105270001092531010925210109255101092541018
:10528000809154109091551001978F71992721E7C3
:10529000289FF001299FF00D1124E05FFD4F10823F
:1052A000118212821382128A138A148A158A14A216
:1052B00015A216A217A29E012F5F3F4F19018CE085
:1052C000D9011D928A95E9F7C9010E9417158DE54C
:1052D00091E00E94832510920F0210920E0210920C
:1052E0000D0210920C020E94E315109280001092A1
:1052F00085001092840080ED97E090938900809360
:10530000880088E08093810080918100887F82609E
:105310008093810080916F00826080936F00809104
:105320000B028FBF0E94D51584EE98E3AEE5B2E480
:105330008093571090935810A0935910B0935A101F
:1053400019821A821B821C821D821E821F8218866D
:1053500080E090E0A4EBB2E489879A87AB87BC87B2
:10536000C1010E94901B20E030E044E353E46091CF
:105370000E0170910F0180911001909111010E9416
:105380000434882361F080E090E0A4E3B3E48093E8
:105390000E0190930F01A0931001B09311010E9490
:1053A00033260E946B2582E990E10E94310618168F
:1053B00019060CF0E7C782E990E10E940F062091E0
:1053C000B0113091B111203831055CF4A9014F5F63
:1053D0005F4F5093B1114093B011F901E15DFE4E62
:1053E00080838D3019F08A3009F0CCC7E091B0117C
:1053F000F091B111E25DFE4E10828091BB1182FFEF
:1054000004C08FE291E10E94832580912F118823AF
:1054100009F4B2C78B3309F4AFC78E3491F540E07D
:1054200050E060E87FEB0E940F270E943637009122
:10543000B6111091B7112091B8113091B9116017C0
:1054400071078207930779F085EA99E00E941B258E
:105450006091B6117091B7118091B8119091B91106
:105460000E94D5259AC2DC01CB010196A11DB11D78
:105470008093B6119093B711A093B811B093B9115E
:1054800009C08091BB1181FF05C08BE999E00E94A2
:105490001B2572C7EFE2F1E101900020E9F78F01CF
:1054A0000153114117FD09C0F801E15DFE4E8081F5
:1054B0008A3239F001501109F5CFCC24CA94DC2C82
:1054C00001C068018091BB1181FF04C0BFEFCB1602
:1054D000DB0629F0EFE2F1E1E12CF12C03C087E3D8
:1054E00091E0DDC4CF018F529141801791071CF4E8
:1054F0008191E826F7CFC80117FF02C080E090E055
:1055000060E070E0805D9E4E0E945D32CD20C094D0
:10551000B9F00E9436374B015C01E616F70681F0C0
:1055200082E491E00E941F26B701FF0C880B990BC3
:105530000E94D52584E591E00E941F26C401DCC4A9
:10554000F801E15DFE4E1082EFE2F1E101900020F2
:10555000E9F7329780818B3309F4108243E050E001
:105560006BE571E08FE291E10E94F438892B79F4C8
:1055700060E270E08FE291E10E94E93801960E94BA
:10558000BD3390935C1080935B100E94D2268DE413
:105590000E94E226882309F430C340E050E060E82E
:1055A0007FEB8DE40E940F270E943637603771052C
:1055B00009F4B5C07CF56A32710509F476C0DCF4F3
:1055C0006131710509F46EC06231710509F461C081
:1055D0006630710509F0D0C66091561070E080E029
:1055E00090E00E940934AB01BC0184E50E940F27C2
:1055F00010925610C1C66536710509F473C06E3637
:10560000710509F472C06436710509F0B5C60E94CF
:105610003326B2C6623E710509F4C2C17CF46B3C0C
:10562000710509F487C06D3C710509F4B3C0623798
:10563000710509F0A1C60E94E21F9EC6653FF1E018
:105640007F0709F4E3C15CF4643F714009F094C63C
:105650000E94D2260E94941E0E9442258DC6663F5B
:1056600081E0780709F4D5C1673F714009F084C62D
:105670000E9421260E940F2681E89AE00E941B25A5
:105680008FE791E00E9483250E94D01E0E94E21FB6
:10569000E9C361E080914B100E94682361E0809132
:1056A00050101DC00E94D51567C640E050E0BA01F9
:1056B00080E50E940F276B017C0140E050E0BA01B9
:1056C00083E50E940F270E94363711E0672B09F40B
:1056D00010E0C701B6010E943637862F612F0E9465
:1056E00068234AC60E94D01E47C66091B6117091C9
:1056F000B7118091B8119091B9110E940B34AB0190
:10570000BC018EE40E940F270E9436376093B611C9
:105710007093B7118093B8119093B9112DC68091F1
:1057200052109091531090935510809354100E94F2
:10573000E31522C687E299E00E941B250CE211E0E6
:105740007FE2C72E71E0D72EE0E3EE2EE0E1FE2EE1
:105750005801D7014D915D916D917C91F801819136
:105760008F010E940F272B013C01D7016D937D9380
:105770008D939D937D01F50180810E94D025C30109
:10578000B2010E94911E80E20E94D025C016D1066F
:10579000F9F603C140913C1050913D1060913E10CC
:1057A00070913F1088E50E940F277B018C0120E05B
:1057B00030E040E051E40E94043487FF0EC020E056
:1057C00030E0A901B701C8010E942A3818164CF030
:1057D000E12CF12C00E010E004C0E12CF12C00E001
:1057E00011E4C701D80180933C1090933D10A09321
:1057F0003E10B0933F108FE591E00E941F2660910C
:105800003C1070913D1080913E1090913F100E948D
:10581000911E409140105091411060914210709142
:10582000431089E50E940F277B018C0120E030E0C6
:1058300040E051E40E94043487FF0EC020E030E0D5
:10584000A901B701C8010E942A3818164CF0E12CB2
:10585000F12C00E010E004C0E12CF12C00E011E498
:10586000C701D8018093401090934110A09342103B
:10587000B093431086E691E00E941F26609140108D
:105880007091411080914210909143100E94911E9E
:10589000409144105091451060914610709147100E
:1058A0008AE50E940F277B018C0120E030E040E078
:1058B00051E40E94043487FF0EC020E030E0A901CB
:1058C000B701C8010E942A3818164CF0E12CF12CBF
:1058D00000E010E004C0E12CF12C00E011E4C7016D
:1058E000D8018093441090934510A0934610B09334
:1058F000471089E691E00E941F2660914410709144
:10590000451080914610909147100E94911E609121
:1059100005017091060180910701909108010E9494
:105920000934AB01BC0182E40E940F276B017C01AA
:1059300020E034E244E759E40E94043487FF0DC0BC
:1059400020E030E0A901C701B6010E942A381816EC
:105950004CF060E070E0CB0109C060E472E48FE0DD
:1059600090E004C0C701B6010E943D376093050175
:105970007093060180930701909308018CE691E0F3
:105980000E941F2660910501709106018091070118
:10599000909108014AE00E948F250E941725ECC4CF
:1059A00040E050E060E87FEB80E50E940F270E9416
:1059B0003637F62E062F172F0F3FFFEF1F0709F47C
:1059C000DBC440E050E060E87FEB83E50E940F27F6
:1059D0000E9436376F3F2FEF720729F48F2D0E94F8
:1059E0003F237C0106C081E0672B09F080E0E82EB0
:1059F000F12C8FE691E00E941F26802F0E943F230A
:105A00008E159F05D1F387E791E049C20E944B268E
:105A1000B3C480E090E8A2EAB3E489839A83AB83BD
:105A2000BC8380E090E8A2EAB3EC8D839E83AF83D1
:105A3000B88780E090E0AAEFB3E489879A87AB87C4
:105A4000BC8780E090E0AAEFB3EC8D879E87AF879C
:105A5000B88B80E090E0A4EBB2E4898B9A8BAB8B9F
:105A6000BC8B80E090E0A0E2B2E48D8B9E8BAF8B8C
:105A7000B88F8DE299E00E943625710101E610E1B0
:105A8000C12CD12C20E030E048EC52E4D7016D91DC
:105A90007D918D919C910E946A340E946C3720E028
:105AA00030E048EC52E40E94C4364B015C01F8013E
:105AB00020813181428153810E940434882349F03E
:105AC000D8018D929D92AD92BC921397CC24C39431
:105AD000D12C20E030E048EC52E4F701648175817C
